{"contracts/TurtleTimepieceNFT.sol":{"TurtleTimepieceNFT":{"abi":[{"inputs":[],"stateMutability":"nonpayable","type":"constructor"},{"anonymous":false,"inputs":[{"indexed":true,"internalType":"address","name":"owner","type":"address"},{"indexed":true,"internalType":"address","name":"approved","type":"address"},{"indexed":true,"internalType":"uint256","name":"tokenId","type":"uint256"}],"name":"Approval","type":"event"},{"anonymous":false,"inputs":[{"indexed":true,"internalType":"address","name":"owner","type":"address"},{"indexed":true,"internalType":"address","name":"operator","type":"address"},{"indexed":false,"internalType":"bool","name":"approved","type":"bool"}],"name":"ApprovalForAll","type":"event"},{"anonymous":false,"inputs":[{"indexed":true,"internalType":"address","name":"by","type":"address"}],"name":"ContractPaused","type":"event"},{"anonymous":false,"inputs":[{"indexed":true,"internalType":"address","name":"by","type":"address"}],"name":"ContractUnpaused","type":"event"},{"anonymous":false,"inputs":[{"indexed":false,"internalType":"address","name":"owner","type":"address"},{"indexed":false,"internalType":"uint256","name":"tokenId","type":"uint256"}],"name":"NFTMinted","type":"event"},{"anonymous":false,"inputs":[{"indexed":false,"internalType":"address","name":"from","type":"address"},{"indexed":false,"internalType":"address","name":"to","type":"address"},{"indexed":false,"internalType":"uint256","name":"tokenId","type":"uint256"},{"indexed":false,"internalType":"uint256","name":"price","type":"uint256"}],"name":"NFTSold","type":"event"},{"anonymous":false,"inputs":[{"indexed":true,"internalType":"address","name":"previousOwner","type":"address"},{"indexed":true,"internalType":"address","name":"newOwner","type":"address"}],"name":"OwnershipTransferred","type":"event"},{"anonymous":false,"inputs":[{"indexed":false,"internalType":"address","name":"account","type":"address"}],"name":"Paused","type":"event"},{"anonymous":false,"inputs":[{"indexed":false,"internalType":"uint256","name":"tokenId","type":"uint256"},{"indexed":false,"internalType":"address","name":"claimer","type":"address"}],"name":"TokenClaimed","type":"event"},{"anonymous":false,"inputs":[{"indexed":false,"internalType":"uint256","name":"tokenId","type":"uint256"},{"indexed":false,"internalType":"address","name":"purchaser","type":"address"}],"name":"TokenPrePurchased","type":"event"},{"anonymous":false,"inputs":[{"indexed":false,"internalType":"uint256","name":"tokenId","type":"uint256"}],"name":"TokenPutForSale","type":"event"},{"anonymous":false,"inputs":[{"indexed":false,"internalType":"uint256","name":"tokenId","type":"uint256"}],"name":"TokenRemovedFromSale","type":"event"},{"anonymous":false,"inputs":[{"indexed":true,"internalType":"address","name":"from","type":"address"},{"indexed":true,"internalType":"address","name":"to","type":"address"},{"indexed":true,"internalType":"uint256","name":"tokenId","type":"uint256"}],"name":"Transfer","type":"event"},{"anonymous":false,"inputs":[{"indexed":false,"internalType":"address","name":"account","type":"address"}],"name":"Unpaused","type":"event"},{"inputs":[],"name":"MAX_SUPPLY","outputs":[{"internalType":"uint256","name":"","type":"uint256"}],"stateMutability":"view","type":"function"},{"inputs":[{"internalType":"address","name":"to","type":"address"},{"internalType":"uint256","name":"tokenId","type":"uint256"}],"name":"approve","outputs":[],"stateMutability":"nonpayable","type":"function"},{"inputs":[{"internalType":"address","name":"owner","type":"address"}],"name":"balanceOf","outputs":[{"internalType":"uint256","name":"","type":"uint256"}],"stateMutability":"view","type":"function"},{"inputs":[{"internalType":"uint256","name":"amount","type":"uint256"}],"name":"batchMint","outputs":[],"stateMutability":"nonpayable","type":"function"},{"inputs":[{"internalType":"uint256","name":"tokenId","type":"uint256"}],"name":"claimToken","outputs":[],"stateMutability":"nonpayable","type":"function"},{"inputs":[{"internalType":"uint256","name":"tokenId","type":"uint256"}],"name":"getApproved","outputs":[{"internalType":"address","name":"","type":"address"}],"stateMutability":"view","type":"function"},{"inputs":[],"name":"getTokensForSale","outputs":[{"internalType":"uint256[]","name":"","type":"uint256[]"}],"stateMutability":"view","type":"function"},{"inputs":[{"internalType":"address","name":"owner","type":"address"},{"internalType":"address","name":"operator","type":"address"}],"name":"isApprovedForAll","outputs":[{"internalType":"bool","name":"","type":"bool"}],"stateMutability":"view","type":"function"},{"inputs":[{"internalType":"uint256","name":"tokenId","type":"uint256"}],"name":"isTokenForSale","outputs":[{"internalType":"bool","name":"","type":"bool"}],"stateMutability":"view","type":"function"},{"inputs":[{"internalType":"uint256","name":"tokenId","type":"uint256"},{"internalType":"address","name":"purchaser","type":"address"}],"name":"markTokenAsPrePurchased","outputs":[],"stateMutability":"nonpayable","type":"function"},{"inputs":[],"name":"mintPrice","outputs":[{"internalType":"uint256","name":"","type":"uint256"}],"stateMutability":"view","type":"function"},{"inputs":[],"name":"name","outputs":[{"internalType":"string","name":"","type":"string"}],"stateMutability":"view","type":"function"},{"inputs":[],"name":"owner","outputs":[{"internalType":"address","name":"","type":"address"}],"stateMutability":"view","type":"function"},{"inputs":[{"internalType":"uint256","name":"tokenId","type":"uint256"}],"name":"ownerOf","outputs":[{"internalType":"address","name":"","type":"address"}],"stateMutability":"view","type":"function"},{"inputs":[],"name":"pause","outputs":[],"stateMutability":"nonpayable","type":"function"},{"inputs":[],"name":"paused","outputs":[{"internalType":"bool","name":"","type":"bool"}],"stateMutability":"view","type":"function"},{"inputs":[{"internalType":"uint256","name":"tokenId","type":"uint256"}],"name":"purchaseNFT","outputs":[],"stateMutability":"payable","type":"function"},{"inputs":[],"name":"renounceOwnership","outputs":[],"stateMutability":"nonpayable","type":"function"},{"inputs":[{"internalType":"address","name":"from","type":"address"},{"internalType":"address","name":"to","type":"address"},{"internalType":"uint256","name":"tokenId","type":"uint256"}],"name":"safeTransferFrom","outputs":[],"stateMutability":"nonpayable","type":"function"},{"inputs":[{"internalType":"address","name":"from","type":"address"},{"internalType":"address","name":"to","type":"address"},{"internalType":"uint256","name":"tokenId","type":"uint256"},{"internalType":"bytes","name":"data","type":"bytes"}],"name":"safeTransferFrom","outputs":[],"stateMutability":"nonpayable","type":"function"},{"inputs":[{"internalType":"address","name":"operator","type":"address"},{"internalType":"bool","name":"approved","type":"bool"}],"name":"setApprovalForAll","outputs":[],"stateMutability":"nonpayable","type":"function"},{"inputs":[{"internalType":"string","name":"baseURI","type":"string"}],"name":"setBaseURI","outputs":[],"stateMutability":"nonpayable","type":"function"},{"inputs":[{"internalType":"uint256","name":"newPrice","type":"uint256"}],"name":"setMintPrice","outputs":[],"stateMutability":"nonpayable","type":"function"},{"inputs":[{"internalType":"uint256","name":"tokenId","type":"uint256"},{"internalType":"bool","name":"forSale","type":"bool"}],"name":"setTokenSaleStatus","outputs":[],"stateMutability":"nonpayable","type":"function"},{"inputs":[{"internalType":"uint256","name":"","type":"uint256"}],"name":"stripePurchases","outputs":[{"internalType":"address","name":"","type":"address"}],"stateMutability":"view","type":"function"},{"inputs":[{"internalType":"bytes4","name":"interfaceId","type":"bytes4"}],"name":"supportsInterface","outputs":[{"internalType":"bool","name":"","type":"bool"}],"stateMutability":"view","type":"function"},{"inputs":[],"name":"symbol","outputs":[{"internalType":"string","name":"","type":"string"}],"stateMutability":"view","type":"function"},{"inputs":[{"internalType":"uint256","name":"tokenId","type":"uint256"}],"name":"tokenURI","outputs":[{"internalType":"string","name":"","type":"string"}],"stateMutability":"view","type":"function"},{"inputs":[{"internalType":"address","name":"from","type":"address"},{"internalType":"address","name":"to","type":"address"},{"internalType":"uint256","name":"tokenId","type":"uint256"}],"name":"transferFrom","outputs":[],"stateMutability":"nonpayable","type":"function"},{"inputs":[{"internalType":"address","name":"newOwner","type":"address"}],"name":"transferOwnership","outputs":[],"stateMutability":"nonpayable","type":"function"},{"inputs":[],"name":"unpause","outputs":[],"stateMutability":"nonpayable","type":"function"}],"evm":{"bytecode":{"linkReferences":{},"object":"608060405266038d7ea4c68000600a553480156200001c57600080fd5b506040518060400160405280601581526020017f4469616d6f6e6420416363657373205469636b657400000000000000000000008152506040518060400160405280600781526020017f4449414d4f4e440000000000000000000000000000000000000000000000000081525081600090816200009a919062000461565b508060019081620000ac919062000461565b505050620000cf620000c36200011960201b60201c565b6200012160201b60201c565b60016007819055506000600860006101000a81548160ff021916908315150217905550604051806020016040528060008152506009908162000112919062000461565b5062000548565b600033905090565b6000600660009054906101000a900473ffffffffffffffffffffffffffffffffffffffff16905081600660006101000a81548173ffffffffffffffffffffffffffffffffffffffff021916908373ffffffffffffffffffffffffffffffffffffffff1602179055508173ffffffffffffffffffffffffffffffffffffffff168173ffffffffffffffffffffffffffffffffffffffff167f8be0079c531659141344cd1fd0a4f28419497f9722a3daafe3b4186f6b6457e060405160405180910390a35050565b600081519050919050565b7f4e487b7100000000000000000000000000000000000000000000000000000000600052604160045260246000fd5b7f4e487b7100000000000000000000000000000000000000000000000000000000600052602260045260246000fd5b600060028204905060018216806200026957607f821691505b6020821081036200027f576200027e62000221565b5b50919050565b60008190508160005260206000209050919050565b60006020601f8301049050919050565b600082821b905092915050565b600060088302620002e97fffffffffffffffffffffffffffffffffffffffffffffffffffffffffffffffff82620002aa565b620002f58683620002aa565b95508019841693508086168417925050509392505050565b6000819050919050565b6000819050919050565b6000620003426200033c62000336846200030d565b62000317565b6200030d565b9050919050565b6000819050919050565b6200035e8362000321565b620003766200036d8262000349565b848454620002b7565b825550505050565b600090565b6200038d6200037e565b6200039a81848462000353565b505050565b5b81811015620003c257620003b660008262000383565b600181019050620003a0565b5050565b601f8211156200041157620003db8162000285565b620003e6846200029a565b81016020851015620003f6578190505b6200040e62000405856200029a565b8301826200039f565b50505b505050565b600082821c905092915050565b6000620004366000198460080262000416565b1980831691505092915050565b600062000451838362000423565b9150826002028217905092915050565b6200046c82620001e7565b67ffffffffffffffff811115620004885762000487620001f2565b5b62000494825462000250565b620004a1828285620003c6565b600060209050601f831160018114620004d95760008415620004c4578287015190505b620004d0858262000443565b86555062000540565b601f198416620004e98662000285565b60005b828110156200051357848901518255600182019150602085019450602081019050620004ec565b868310156200053357848901516200052f601f89168262000423565b8355505b6001600288020188555050505b505050505050565b614a0680620005586000396000f3fe6080604052600436106101d85760003560e01c806370a0823111610102578063a9e7c2e511610095578063e3eb28fd11610064578063e3eb28fd14610673578063e985e9c5146106b0578063f2fde38b146106ed578063f4a0a52814610716576101d8565b8063a9e7c2e5146105bb578063b0fbc276146105e4578063b88d4fde1461060d578063c87b56dd14610636576101d8565b80638467be0d116100d15780638467be0d146105135780638da5cb5b1461053c57806395d89b4114610567578063a22cb46514610592576101d8565b806370a082311461047f578063715018a6146104bc57806382b2e44d146104d35780638456cb59146104fc576101d8565b80633f4ba83a1161017a5780635c975abb116101495780635c975abb146103c15780636352211e146103ec57806365e4e1c0146104295780636817c76c14610454576101d8565b80633f4ba83a1461031b57806342842e0e146103325780634fed1c941461035b57806355f804b314610398576101d8565b8063095ea7b3116101b6578063095ea7b314610282578063150bde03146102ab57806323b872dd146102c757806332cb6b0c146102f0576101d8565b806301ffc9a7146101dd57806306fdde031461021a578063081812fc14610245575b600080fd5b3480156101e957600080fd5b5061020460048036038101906101ff9190612dff565b61073f565b6040516102119190612e47565b60405180910390f35b34801561022657600080fd5b5061022f610821565b60405161023c9190612ef2565b60405180910390f35b34801561025157600080fd5b5061026c60048036038101906102679190612f4a565b6108b3565b6040516102799190612fb8565b60405180910390f35b34801561028e57600080fd5b506102a960048036038101906102a49190612fff565b6108f9565b005b6102c560048036038101906102c09190612f4a565b610a10565b005b3480156102d357600080fd5b506102ee60048036038101906102e9919061303f565b610dec565b005b3480156102fc57600080fd5b50610305610e4c565b60405161031291906130a1565b60405180910390f35b34801561032757600080fd5b50610330610e51565b005b34801561033e57600080fd5b506103596004803603810190610354919061303f565b610ea6565b005b34801561036757600080fd5b50610382600480360381019061037d9190612f4a565b610ec6565b60405161038f9190612e47565b60405180910390f35b3480156103a457600080fd5b506103bf60048036038101906103ba91906131f1565b610f37565b005b3480156103cd57600080fd5b506103d6610f52565b6040516103e39190612e47565b60405180910390f35b3480156103f857600080fd5b50610413600480360381019061040e9190612f4a565b610f69565b6040516104209190612fb8565b60405180910390f35b34801561043557600080fd5b5061043e610fef565b60405161044b91906132f8565b60405180910390f35b34801561046057600080fd5b506104696111bc565b60405161047691906130a1565b60405180910390f35b34801561048b57600080fd5b506104a660048036038101906104a1919061331a565b6111c2565b6040516104b391906130a1565b60405180910390f35b3480156104c857600080fd5b506104d1611279565b005b3480156104df57600080fd5b506104fa60048036038101906104f59190613373565b61128d565b005b34801561050857600080fd5b506105116113da565b005b34801561051f57600080fd5b5061053a60048036038101906105359190612f4a565b61142f565b005b34801561054857600080fd5b50610551611523565b60405161055e9190612fb8565b60405180910390f35b34801561057357600080fd5b5061057c61154d565b6040516105899190612ef2565b60405180910390f35b34801561059e57600080fd5b506105b960048036038101906105b491906133b3565b6115df565b005b3480156105c757600080fd5b506105e260048036038101906105dd9190612f4a565b6115f5565b005b3480156105f057600080fd5b5061060b600480360381019061060691906133f3565b611813565b005b34801561061957600080fd5b50610634600480360381019061062f91906134d4565b611a56565b005b34801561064257600080fd5b5061065d60048036038101906106589190612f4a565b611ab8565b60405161066a9190612ef2565b60405180910390f35b34801561067f57600080fd5b5061069a60048036038101906106959190612f4a565b611b20565b6040516106a79190612fb8565b60405180910390f35b3480156106bc57600080fd5b506106d760048036038101906106d29190613557565b611b53565b6040516106e49190612e47565b60405180910390f35b3480156106f957600080fd5b50610714600480360381019061070f919061331a565b611be7565b005b34801561072257600080fd5b5061073d60048036038101906107389190612f4a565b611c6a565b005b60007f80ac58cd000000000000000000000000000000000000000000000000000000007bffffffffffffffffffffffffffffffffffffffffffffffffffffffff1916827bffffffffffffffffffffffffffffffffffffffffffffffffffffffff1916148061080a57507f5b5e139f000000000000000000000000000000000000000000000000000000007bffffffffffffffffffffffffffffffffffffffffffffffffffffffff1916827bffffffffffffffffffffffffffffffffffffffffffffffffffffffff1916145b8061081a575061081982611c7c565b5b9050919050565b606060008054610830906135c6565b80601f016020809104026020016040519081016040528092919081815260200182805461085c906135c6565b80156108a95780601f1061087e576101008083540402835291602001916108a9565b820191906000526020600020905b81548152906001019060200180831161088c57829003601f168201915b5050505050905090565b60006108be82611ce6565b6004600083815260200190815260200160002060009054906101000a900473ffffffffffffffffffffffffffffffffffffffff169050919050565b600061090482610f69565b90508073ffffffffffffffffffffffffffffffffffffffff168373ffffffffffffffffffffffffffffffffffffffff1603610974576040517f08c379a000000000000000000000000000000000000000000000000000000000815260040161096b90613669565b60405180910390fd5b8073ffffffffffffffffffffffffffffffffffffffff16610993611d31565b73ffffffffffffffffffffffffffffffffffffffff1614806109c257506109c1816109bc611d31565b611b53565b5b610a01576040517f08c379a00000000000000000000000000000000000000000000000000000000081526004016109f8906136fb565b60405180910390fd5b610a0b8383611d39565b505050565b610a18611df2565b610a20611e41565b610a2981611e8b565b610a68576040517f08c379a0000000000000000000000000000000000000000000000000000000008152600401610a5f90613767565b60405180910390fd5b610a7181610ec6565b610ab0576040517f08c379a0000000000000000000000000000000000000000000000000000000008152600401610aa7906137d3565b60405180910390fd5b600a54341015610af5576040517f08c379a0000000000000000000000000000000000000000000000000000000008152600401610aec9061383f565b60405180910390fd5b600073ffffffffffffffffffffffffffffffffffffffff16600d600083815260200190815260200160002060009054906101000a900473ffffffffffffffffffffffffffffffffffffffff1673ffffffffffffffffffffffffffffffffffffffff1614610b97576040517f08c379a0000000000000000000000000000000000000000000000000000000008152600401610b8e906138ab565b60405180910390fd5b6000610ba282610f69565b90503373ffffffffffffffffffffffffffffffffffffffff168173ffffffffffffffffffffffffffffffffffffffff1603610c12576040517f08c379a0000000000000000000000000000000000000000000000000000000008152600401610c0990613917565b60405180910390fd5b6000600a5434610c229190613966565b9050610c2f823385611ecc565b610c3a8360006121c5565b60008273ffffffffffffffffffffffffffffffffffffffff16600a54604051610c62906139cb565b60006040518083038185875af1925050503d8060008114610c9f576040519150601f19603f3d011682016040523d82523d6000602084013e610ca4565b606091505b5050905080610ce8576040517f08c379a0000000000000000000000000000000000000000000000000000000008152600401610cdf90613a2c565b60405180910390fd5b6000821115610d9f5760003373ffffffffffffffffffffffffffffffffffffffff1683604051610d17906139cb565b60006040518083038185875af1925050503d8060008114610d54576040519150601f19603f3d011682016040523d82523d6000602084013e610d59565b606091505b5050905080610d9d576040517f08c379a0000000000000000000000000000000000000000000000000000000008152600401610d9490613a98565b60405180910390fd5b505b7ff6ccc0cf89c21c54724ea6ef2ec01da8fe33a1cebe06607e160fd78483eba302833386600a54604051610dd69493929190613ab8565b60405180910390a1505050610de9612216565b50565b610dfd610df7611d31565b82612220565b610e3c576040517f08c379a0000000000000000000000000000000000000000000000000000000008152600401610e3390613b6f565b60405180910390fd5b610e47838383611ecc565b505050565b601481565b610e596122b5565b610e61612333565b3373ffffffffffffffffffffffffffffffffffffffff167f5b65b0c1363b3003db9bcc5e1fd8805a6d6bf5bf6dc9d3431ee4494cd7d1176660405160405180910390a2565b610ec183838360405180602001604052806000815250611a56565b505050565b60008082118015610ed8575060148211155b610f17576040517f08c379a0000000000000000000000000000000000000000000000000000000008152600401610f0e90613bdb565b60405180910390fd5b6000600183610f269190613966565b6001901b600b541614159050919050565b610f3f6122b5565b8060099081610f4e9190613da7565b5050565b6000600860009054906101000a900460ff16905090565b600080610f7583612396565b9050600073ffffffffffffffffffffffffffffffffffffffff168173ffffffffffffffffffffffffffffffffffffffff1603610fe6576040517f08c379a0000000000000000000000000000000000000000000000000000000008152600401610fdd90613ec5565b60405180910390fd5b80915050919050565b60606000600c5467ffffffffffffffff81111561100f5761100e6130c6565b5b60405190808252806020026020018201604052801561103d5781602001602082028036833780820191505090505b509050600080600190505b600c54811161110c5761105a81610ec6565b80156110c55750600073ffffffffffffffffffffffffffffffffffffffff16600d600083815260200190815260200160002060009054906101000a900473ffffffffffffffffffffffffffffffffffffffff1673ffffffffffffffffffffffffffffffffffffffff16145b156110f957808383815181106110de576110dd613ee5565b5b60200260200101818152505081806110f590613f14565b9250505b808061110490613f14565b915050611048565b5060008167ffffffffffffffff811115611129576111286130c6565b5b6040519080825280602002602001820160405280156111575781602001602082028036833780820191505090505b50905060005b828110156111b25783818151811061117857611177613ee5565b5b602002602001015182828151811061119357611192613ee5565b5b60200260200101818152505080806111aa90613f14565b91505061115d565b5080935050505090565b600a5481565b60008073ffffffffffffffffffffffffffffffffffffffff168273ffffffffffffffffffffffffffffffffffffffff1603611232576040517f08c379a000000000000000000000000000000000000000000000000000000000815260040161122990613fce565b60405180910390fd5b600360008373ffffffffffffffffffffffffffffffffffffffff1673ffffffffffffffffffffffffffffffffffffffff168152602001908152602001600020549050919050565b6112816122b5565b61128b60006123d3565b565b61129682611e8b565b6112d5576040517f08c379a00000000000000000000000000000000000000000000000000000000081526004016112cc90613767565b60405180910390fd5b6112dd611d31565b73ffffffffffffffffffffffffffffffffffffffff166112fc83610f69565b73ffffffffffffffffffffffffffffffffffffffff1614611352576040517f08c379a00000000000000000000000000000000000000000000000000000000081526004016113499061403a565b60405180910390fd5b61135c82826121c5565b801561139e577fbf9c5e85a8d8565a3d499b4ea68b35da3e8466cc67b9dce4ebd4bf93bc90d5388260405161139191906130a1565b60405180910390a16113d6565b7fccd0b7af52bf5f08ec6781299e66283301e612d1ca1ffceab3579a6364073c30826040516113cd91906130a1565b60405180910390a15b5050565b6113e26122b5565b6113ea612499565b3373ffffffffffffffffffffffffffffffffffffffff167f81990fd9a5c552b8e3677917d8a03c07678f0d2cb68f88b634aca2022e9bd19f60405160405180910390a2565b6114376122b5565b601481600c54611447919061405a565b1115611488576040517f08c379a000000000000000000000000000000000000000000000000000000000815260040161147f906140da565b60405180910390fd5b6000611492611d31565b905060005b8281101561151e57600c60008154809291906114b290613f14565b91905055506114c382600c546124fc565b6114d0600c5460016121c5565b7f4cc0a9c4a99ddc700de1af2c9f916a7cbfdb71f14801ccff94061ad1ef8a804082600c546040516115039291906140fa565b60405180910390a1808061151690613f14565b915050611497565b505050565b6000600660009054906101000a900473ffffffffffffffffffffffffffffffffffffffff16905090565b60606001805461155c906135c6565b80601f0160208091040260200160405190810160405280929190818152602001828054611588906135c6565b80156115d55780601f106115aa576101008083540402835291602001916115d5565b820191906000526020600020905b8154815290600101906020018083116115b857829003601f168201915b5050505050905090565b6115f16115ea611d31565b8383612719565b5050565b6115fd611df2565b611605611e41565b61160e81611e8b565b61164d576040517f08c379a000000000000000000000000000000000000000000000000000000000815260040161164490613767565b60405180910390fd5b3373ffffffffffffffffffffffffffffffffffffffff16600d600083815260200190815260200160002060009054906101000a900473ffffffffffffffffffffffffffffffffffffffff1673ffffffffffffffffffffffffffffffffffffffff16146116ee576040517f08c379a00000000000000000000000000000000000000000000000000000000081526004016116e59061416f565b60405180910390fd5b60006116f982610f69565b9050611703611523565b73ffffffffffffffffffffffffffffffffffffffff168173ffffffffffffffffffffffffffffffffffffffff1614611770576040517f08c379a000000000000000000000000000000000000000000000000000000000815260040161176790614201565b60405180910390fd5b61177b813384611ecc565b6000600d600084815260200190815260200160002060006101000a81548173ffffffffffffffffffffffffffffffffffffffff021916908373ffffffffffffffffffffffffffffffffffffffff1602179055507f8b224b108d8f9c6d554b41182503c3f8b79dfcf17233a9366d50c386c28af85082336040516117ff929190614221565b60405180910390a150611810612216565b50565b61181b6122b5565b61182482611e8b565b611863576040517f08c379a000000000000000000000000000000000000000000000000000000000815260040161185a90613767565b60405180910390fd5b61186c82610ec6565b6118ab576040517f08c379a00000000000000000000000000000000000000000000000000000000081526004016118a2906137d3565b60405180910390fd5b600073ffffffffffffffffffffffffffffffffffffffff168173ffffffffffffffffffffffffffffffffffffffff160361191a576040517f08c379a000000000000000000000000000000000000000000000000000000000815260040161191190614296565b60405180910390fd5b600073ffffffffffffffffffffffffffffffffffffffff16600d600084815260200190815260200160002060009054906101000a900473ffffffffffffffffffffffffffffffffffffffff1673ffffffffffffffffffffffffffffffffffffffff16146119bc576040517f08c379a00000000000000000000000000000000000000000000000000000000081526004016119b390614302565b60405180910390fd5b6119c78260006121c5565b80600d600084815260200190815260200160002060006101000a81548173ffffffffffffffffffffffffffffffffffffffff021916908373ffffffffffffffffffffffffffffffffffffffff1602179055507fd9e06aca9c09bfec0d0acfdfc2dc2d2aa8564c3e0950891dc198ff7809146a3e8282604051611a4a929190614221565b60405180910390a15050565b611a67611a61611d31565b83612220565b611aa6576040517f08c379a0000000000000000000000000000000000000000000000000000000008152600401611a9d90613b6f565b60405180910390fd5b611ab284848484612885565b50505050565b6060611ac382611ce6565b6000611acd6128e1565b90506000815111611aed5760405180602001604052806000815250611b18565b80611af784612973565b604051602001611b0892919061435e565b6040516020818303038152906040525b915050919050565b600d6020528060005260406000206000915054906101000a900473ffffffffffffffffffffffffffffffffffffffff1681565b6000600560008473ffffffffffffffffffffffffffffffffffffffff1673ffffffffffffffffffffffffffffffffffffffff16815260200190815260200160002060008373ffffffffffffffffffffffffffffffffffffffff1673ffffffffffffffffffffffffffffffffffffffff16815260200190815260200160002060009054906101000a900460ff16905092915050565b611bef6122b5565b600073ffffffffffffffffffffffffffffffffffffffff168173ffffffffffffffffffffffffffffffffffffffff1603611c5e576040517f08c379a0000000000000000000000000000000000000000000000000000000008152600401611c55906143f4565b60405180910390fd5b611c67816123d3565b50565b611c726122b5565b80600a8190555050565b60007f01ffc9a7000000000000000000000000000000000000000000000000000000007bffffffffffffffffffffffffffffffffffffffffffffffffffffffff1916827bffffffffffffffffffffffffffffffffffffffffffffffffffffffff1916149050919050565b611cef81611e8b565b611d2e576040517f08c379a0000000000000000000000000000000000000000000000000000000008152600401611d2590613ec5565b60405180910390fd5b50565b600033905090565b816004600083815260200190815260200160002060006101000a81548173ffffffffffffffffffffffffffffffffffffffff021916908373ffffffffffffffffffffffffffffffffffffffff160217905550808273ffffffffffffffffffffffffffffffffffffffff16611dac83610f69565b73ffffffffffffffffffffffffffffffffffffffff167f8c5be1e5ebec7d5bd14f71427d1e84f3dd0314c0f7b2291e5b200ac8c7c3b92560405160405180910390a45050565b600260075403611e37576040517f08c379a0000000000000000000000000000000000000000000000000000000008152600401611e2e90614460565b60405180910390fd5b6002600781905550565b611e49610f52565b15611e89576040517f08c379a0000000000000000000000000000000000000000000000000000000008152600401611e80906144cc565b60405180910390fd5b565b60008073ffffffffffffffffffffffffffffffffffffffff16611ead83612396565b73ffffffffffffffffffffffffffffffffffffffff1614159050919050565b8273ffffffffffffffffffffffffffffffffffffffff16611eec82610f69565b73ffffffffffffffffffffffffffffffffffffffff1614611f42576040517f08c379a0000000000000000000000000000000000000000000000000000000008152600401611f399061455e565b60405180910390fd5b600073ffffffffffffffffffffffffffffffffffffffff168273ffffffffffffffffffffffffffffffffffffffff1603611fb1576040517f08c379a0000000000000000000000000000000000000000000000000000000008152600401611fa8906145f0565b60405180910390fd5b611fbe8383836001612a41565b8273ffffffffffffffffffffffffffffffffffffffff16611fde82610f69565b73ffffffffffffffffffffffffffffffffffffffff1614612034576040517f08c379a000000000000000000000000000000000000000000000000000000000815260040161202b9061455e565b60405180910390fd5b6004600082815260200190815260200160002060006101000a81549073ffffffffffffffffffffffffffffffffffffffff02191690556001600360008573ffffffffffffffffffffffffffffffffffffffff1673ffffffffffffffffffffffffffffffffffffffff168152602001908152602001600020600082825403925050819055506001600360008473ffffffffffffffffffffffffffffffffffffffff1673ffffffffffffffffffffffffffffffffffffffff16815260200190815260200160002060008282540192505081905550816002600083815260200190815260200160002060006101000a81548173ffffffffffffffffffffffffffffffffffffffff021916908373ffffffffffffffffffffffffffffffffffffffff160217905550808273ffffffffffffffffffffffffffffffffffffffff168473ffffffffffffffffffffffffffffffffffffffff167fddf252ad1be2c89b69c2b068fc378daa952ba7f163c4a11628f55a4df523b3ef60405160405180910390a46121c08383836001612a47565b505050565b80156121f0576001826121d89190613966565b6001901b600b60008282541792505081905550612212565b6001826121fd9190613966565b6001901b19600b600082825416925050819055505b5050565b6001600781905550565b60008061222c83610f69565b90508073ffffffffffffffffffffffffffffffffffffffff168473ffffffffffffffffffffffffffffffffffffffff16148061226e575061226d8185611b53565b5b806122ac57508373ffffffffffffffffffffffffffffffffffffffff16612294846108b3565b73ffffffffffffffffffffffffffffffffffffffff16145b91505092915050565b6122bd611d31565b73ffffffffffffffffffffffffffffffffffffffff166122db611523565b73ffffffffffffffffffffffffffffffffffffffff1614612331576040517f08c379a00000000000000000000000000000000000000000000000000000000081526004016123289061465c565b60405180910390fd5b565b61233b612a4d565b6000600860006101000a81548160ff0219169083151502179055507f5db9ee0a495bf2e6ff9c91a7834c1ba4fdd244a5e8aa4e537bd38aeae4b073aa61237f611d31565b60405161238c9190612fb8565b60405180910390a1565b60006002600083815260200190815260200160002060009054906101000a900473ffffffffffffffffffffffffffffffffffffffff169050919050565b6000600660009054906101000a900473ffffffffffffffffffffffffffffffffffffffff16905081600660006101000a81548173ffffffffffffffffffffffffffffffffffffffff021916908373ffffffffffffffffffffffffffffffffffffffff1602179055508173ffffffffffffffffffffffffffffffffffffffff168173ffffffffffffffffffffffffffffffffffffffff167f8be0079c531659141344cd1fd0a4f28419497f9722a3daafe3b4186f6b6457e060405160405180910390a35050565b6124a1611e41565b6001600860006101000a81548160ff0219169083151502179055507f62e78cea01bee320cd4e420270b5ea74000d11b0c9f74754ebdbfc544b05a2586124e5611d31565b6040516124f29190612fb8565b60405180910390a1565b600073ffffffffffffffffffffffffffffffffffffffff168273ffffffffffffffffffffffffffffffffffffffff160361256b576040517f08c379a0000000000000000000000000000000000000000000000000000000008152600401612562906146c8565b60405180910390fd5b61257481611e8b565b156125b4576040517f08c379a00000000000000000000000000000000000000000000000000000000081526004016125ab90614734565b60405180910390fd5b6125c2600083836001612a41565b6125cb81611e8b565b1561260b576040517f08c379a000000000000000000000000000000000000000000000000000000000815260040161260290614734565b60405180910390fd5b6001600360008473ffffffffffffffffffffffffffffffffffffffff1673ffffffffffffffffffffffffffffffffffffffff16815260200190815260200160002060008282540192505081905550816002600083815260200190815260200160002060006101000a81548173ffffffffffffffffffffffffffffffffffffffff021916908373ffffffffffffffffffffffffffffffffffffffff160217905550808273ffffffffffffffffffffffffffffffffffffffff16600073ffffffffffffffffffffffffffffffffffffffff167fddf252ad1be2c89b69c2b068fc378daa952ba7f163c4a11628f55a4df523b3ef60405160405180910390a4612715600083836001612a47565b5050565b8173ffffffffffffffffffffffffffffffffffffffff168373ffffffffffffffffffffffffffffffffffffffff1603612787576040517f08c379a000000000000000000000000000000000000000000000000000000000815260040161277e906147a0565b60405180910390fd5b80600560008573ffffffffffffffffffffffffffffffffffffffff1673ffffffffffffffffffffffffffffffffffffffff16815260200190815260200160002060008473ffffffffffffffffffffffffffffffffffffffff1673ffffffffffffffffffffffffffffffffffffffff16815260200190815260200160002060006101000a81548160ff0219169083151502179055508173ffffffffffffffffffffffffffffffffffffffff168373ffffffffffffffffffffffffffffffffffffffff167f17307eab39ab6107e8899845ad3d59bd9653f200f220920489ca2b5937696c31836040516128789190612e47565b60405180910390a3505050565b612890848484611ecc565b61289c84848484612a96565b6128db576040517f08c379a00000000000000000000000000000000000000000000000000000000081526004016128d290614832565b60405180910390fd5b50505050565b6060600980546128f0906135c6565b80601f016020809104026020016040519081016040528092919081815260200182805461291c906135c6565b80156129695780601f1061293e57610100808354040283529160200191612969565b820191906000526020600020905b81548152906001019060200180831161294c57829003601f168201915b5050505050905090565b60606000600161298284612c1d565b01905060008167ffffffffffffffff8111156129a1576129a06130c6565b5b6040519080825280601f01601f1916602001820160405280156129d35781602001600182028036833780820191505090505b509050600082602001820190505b600115612a36578080600190039150507f3031323334353637383961626364656600000000000000000000000000000000600a86061a8153600a8581612a2a57612a29614852565b5b049450600085036129e1575b819350505050919050565b50505050565b50505050565b612a55610f52565b612a94576040517f08c379a0000000000000000000000000000000000000000000000000000000008152600401612a8b906148cd565b60405180910390fd5b565b6000612ab78473ffffffffffffffffffffffffffffffffffffffff16612d70565b15612c10578373ffffffffffffffffffffffffffffffffffffffff1663150b7a02612ae0611d31565b8786866040518563ffffffff1660e01b8152600401612b029493929190614942565b6020604051808303816000875af1925050508015612b3e57506040513d601f19601f82011682018060405250810190612b3b91906149a3565b60015b612bc0573d8060008114612b6e576040519150601f19603f3d011682016040523d82523d6000602084013e612b73565b606091505b506000815103612bb8576040517f08c379a0000000000000000000000000000000000000000000000000000000008152600401612baf90614832565b60405180910390fd5b805181602001fd5b63150b7a0260e01b7bffffffffffffffffffffffffffffffffffffffffffffffffffffffff1916817bffffffffffffffffffffffffffffffffffffffffffffffffffffffff191614915050612c15565b600190505b949350505050565b600080600090507a184f03e93ff9f4daa797ed6e38ed64bf6a1f0100000000000000008310612c7b577a184f03e93ff9f4daa797ed6e38ed64bf6a1f0100000000000000008381612c7157612c70614852565b5b0492506040810190505b6d04ee2d6d415b85acef81000000008310612cb8576d04ee2d6d415b85acef81000000008381612cae57612cad614852565b5b0492506020810190505b662386f26fc100008310612ce757662386f26fc100008381612cdd57612cdc614852565b5b0492506010810190505b6305f5e1008310612d10576305f5e1008381612d0657612d05614852565b5b0492506008810190505b6127108310612d35576127108381612d2b57612d2a614852565b5b0492506004810190505b60648310612d585760648381612d4e57612d4d614852565b5b0492506002810190505b600a8310612d67576001810190505b80915050919050565b6000808273ffffffffffffffffffffffffffffffffffffffff163b119050919050565b6000604051905090565b600080fd5b600080fd5b60007fffffffff0000000000000000000000000000000000000000000000000000000082169050919050565b612ddc81612da7565b8114612de757600080fd5b50565b600081359050612df981612dd3565b92915050565b600060208284031215612e1557612e14612d9d565b5b6000612e2384828501612dea565b91505092915050565b60008115159050919050565b612e4181612e2c565b82525050565b6000602082019050612e5c6000830184612e38565b92915050565b600081519050919050565b600082825260208201905092915050565b60005b83811015612e9c578082015181840152602081019050612e81565b60008484015250505050565b6000601f19601f8301169050919050565b6000612ec482612e62565b612ece8185612e6d565b9350612ede818560208601612e7e565b612ee781612ea8565b840191505092915050565b60006020820190508181036000830152612f0c8184612eb9565b905092915050565b6000819050919050565b612f2781612f14565b8114612f3257600080fd5b50565b600081359050612f4481612f1e565b92915050565b600060208284031215612f6057612f5f612d9d565b5b6000612f6e84828501612f35565b91505092915050565b600073ffffffffffffffffffffffffffffffffffffffff82169050919050565b6000612fa282612f77565b9050919050565b612fb281612f97565b82525050565b6000602082019050612fcd6000830184612fa9565b92915050565b612fdc81612f97565b8114612fe757600080fd5b50565b600081359050612ff981612fd3565b92915050565b6000806040838503121561301657613015612d9d565b5b600061302485828601612fea565b925050602061303585828601612f35565b9150509250929050565b60008060006060848603121561305857613057612d9d565b5b600061306686828701612fea565b935050602061307786828701612fea565b925050604061308886828701612f35565b9150509250925092565b61309b81612f14565b82525050565b60006020820190506130b66000830184613092565b92915050565b600080fd5b600080fd5b7f4e487b7100000000000000000000000000000000000000000000000000000000600052604160045260246000fd5b6130fe82612ea8565b810181811067ffffffffffffffff8211171561311d5761311c6130c6565b5b80604052505050565b6000613130612d93565b905061313c82826130f5565b919050565b600067ffffffffffffffff82111561315c5761315b6130c6565b5b61316582612ea8565b9050602081019050919050565b82818337600083830152505050565b600061319461318f84613141565b613126565b9050828152602081018484840111156131b0576131af6130c1565b5b6131bb848285613172565b509392505050565b600082601f8301126131d8576131d76130bc565b5b81356131e8848260208601613181565b91505092915050565b60006020828403121561320757613206612d9d565b5b600082013567ffffffffffffffff81111561322557613224612da2565b5b613231848285016131c3565b91505092915050565b600081519050919050565b600082825260208201905092915050565b6000819050602082019050919050565b61326f81612f14565b82525050565b60006132818383613266565b60208301905092915050565b6000602082019050919050565b60006132a58261323a565b6132af8185613245565b93506132ba83613256565b8060005b838110156132eb5781516132d28882613275565b97506132dd8361328d565b9250506001810190506132be565b5085935050505092915050565b60006020820190508181036000830152613312818461329a565b905092915050565b6000602082840312156133305761332f612d9d565b5b600061333e84828501612fea565b91505092915050565b61335081612e2c565b811461335b57600080fd5b50565b60008135905061336d81613347565b92915050565b6000806040838503121561338a57613389612d9d565b5b600061339885828601612f35565b92505060206133a98582860161335e565b9150509250929050565b600080604083850312156133ca576133c9612d9d565b5b60006133d885828601612fea565b92505060206133e98582860161335e565b9150509250929050565b6000806040838503121561340a57613409612d9d565b5b600061341885828601612f35565b925050602061342985828601612fea565b9150509250929050565b600067ffffffffffffffff82111561344e5761344d6130c6565b5b61345782612ea8565b9050602081019050919050565b600061347761347284613433565b613126565b905082815260208101848484011115613493576134926130c1565b5b61349e848285613172565b509392505050565b600082601f8301126134bb576134ba6130bc565b5b81356134cb848260208601613464565b91505092915050565b600080600080608085870312156134ee576134ed612d9d565b5b60006134fc87828801612fea565b945050602061350d87828801612fea565b935050604061351e87828801612f35565b925050606085013567ffffffffffffffff81111561353f5761353e612da2565b5b61354b878288016134a6565b91505092959194509250565b6000806040838503121561356e5761356d612d9d565b5b600061357c85828601612fea565b925050602061358d85828601612fea565b9150509250929050565b7f4e487b7100000000000000000000000000000000000000000000000000000000600052602260045260246000fd5b600060028204905060018216806135de57607f821691505b6020821081036135f1576135f0613597565b5b50919050565b7f4552433732313a20617070726f76616c20746f2063757272656e74206f776e6560008201527f7200000000000000000000000000000000000000000000000000000000000000602082015250565b6000613653602183612e6d565b915061365e826135f7565b604082019050919050565b6000602082019050818103600083015261368281613646565b9050919050565b7f4552433732313a20617070726f76652063616c6c6572206973206e6f7420746f60008201527f6b656e206f776e6572206f7220617070726f76656420666f7220616c6c000000602082015250565b60006136e5603d83612e6d565b91506136f082613689565b604082019050919050565b60006020820190508181036000830152613714816136d8565b9050919050565b7f546f6b656e20646f6573206e6f74206578697374000000000000000000000000600082015250565b6000613751601483612e6d565b915061375c8261371b565b602082019050919050565b6000602082019050818103600083015261378081613744565b9050919050565b7f546f6b656e206973206e6f7420666f722073616c650000000000000000000000600082015250565b60006137bd601583612e6d565b91506137c882613787565b602082019050919050565b600060208201905081810360008301526137ec816137b0565b9050919050565b7f496e73756666696369656e74204554482073656e740000000000000000000000600082015250565b6000613829601583612e6d565b9150613834826137f3565b602082019050919050565b600060208201905081810360008301526138588161381c565b9050919050565b7f546f6b656e206973207072652d70757263686173656400000000000000000000600082015250565b6000613895601683612e6d565b91506138a08261385f565b602082019050919050565b600060208201905081810360008301526138c481613888565b9050919050565b7f43616e6e6f742062757920796f7572206f776e20746f6b656e00000000000000600082015250565b6000613901601983612e6d565b915061390c826138cb565b602082019050919050565b60006020820190508181036000830152613930816138f4565b9050919050565b7f4e487b7100000000000000000000000000000000000000000000000000000000600052601160045260246000fd5b600061397182612f14565b915061397c83612f14565b925082820390508181111561399457613993613937565b5b92915050565b600081905092915050565b50565b60006139b560008361399a565b91506139c0826139a5565b600082019050919050565b60006139d6826139a8565b9150819050919050565b7f5061796d656e7420746f2073656c6c6572206661696c65640000000000000000600082015250565b6000613a16601883612e6d565b9150613a21826139e0565b602082019050919050565b60006020820190508181036000830152613a4581613a09565b9050919050565b7f526566756e64206661696c656400000000000000000000000000000000000000600082015250565b6000613a82600d83612e6d565b9150613a8d82613a4c565b602082019050919050565b60006020820190508181036000830152613ab181613a75565b9050919050565b6000608082019050613acd6000830187612fa9565b613ada6020830186612fa9565b613ae76040830185613092565b613af46060830184613092565b95945050505050565b7f4552433732313a2063616c6c6572206973206e6f7420746f6b656e206f776e6560008201527f72206f7220617070726f76656400000000000000000000000000000000000000602082015250565b6000613b59602d83612e6d565b9150613b6482613afd565b604082019050919050565b60006020820190508181036000830152613b8881613b4c565b9050919050565b7f496e76616c696420746f6b656e20494400000000000000000000000000000000600082015250565b6000613bc5601083612e6d565b9150613bd082613b8f565b602082019050919050565b60006020820190508181036000830152613bf481613bb8565b9050919050565b60008190508160005260206000209050919050565b60006020601f8301049050919050565b600082821b905092915050565b600060088302613c5d7fffffffffffffffffffffffffffffffffffffffffffffffffffffffffffffffff82613c20565b613c678683613c20565b95508019841693508086168417925050509392505050565b6000819050919050565b6000613ca4613c9f613c9a84612f14565b613c7f565b612f14565b9050919050565b6000819050919050565b613cbe83613c89565b613cd2613cca82613cab565b848454613c2d565b825550505050565b600090565b613ce7613cda565b613cf2818484613cb5565b505050565b5b81811015613d1657613d0b600082613cdf565b600181019050613cf8565b5050565b601f821115613d5b57613d2c81613bfb565b613d3584613c10565b81016020851015613d44578190505b613d58613d5085613c10565b830182613cf7565b50505b505050565b600082821c905092915050565b6000613d7e60001984600802613d60565b1980831691505092915050565b6000613d978383613d6d565b9150826002028217905092915050565b613db082612e62565b67ffffffffffffffff811115613dc957613dc86130c6565b5b613dd382546135c6565b613dde828285613d1a565b600060209050601f831160018114613e115760008415613dff578287015190505b613e098582613d8b565b865550613e71565b601f198416613e1f86613bfb565b60005b82811015613e4757848901518255600182019150602085019450602081019050613e22565b86831015613e645784890151613e60601f891682613d6d565b8355505b6001600288020188555050505b505050505050565b7f4552433732313a20696e76616c696420746f6b656e2049440000000000000000600082015250565b6000613eaf601883612e6d565b9150613eba82613e79565b602082019050919050565b60006020820190508181036000830152613ede81613ea2565b9050919050565b7f4e487b7100000000000000000000000000000000000000000000000000000000600052603260045260246000fd5b6000613f1f82612f14565b91507fffffffffffffffffffffffffffffffffffffffffffffffffffffffffffffffff8203613f5157613f50613937565b5b600182019050919050565b7f4552433732313a2061646472657373207a65726f206973206e6f74206120766160008201527f6c6964206f776e65720000000000000000000000000000000000000000000000602082015250565b6000613fb8602983612e6d565b9150613fc382613f5c565b604082019050919050565b60006020820190508181036000830152613fe781613fab565b9050919050565b7f4e6f7420746f6b656e206f776e65720000000000000000000000000000000000600082015250565b6000614024600f83612e6d565b915061402f82613fee565b602082019050919050565b6000602082019050818103600083015261405381614017565b9050919050565b600061406582612f14565b915061407083612f14565b925082820190508082111561408857614087613937565b5b92915050565b7f576f756c6420657863656564206d617820737570706c79000000000000000000600082015250565b60006140c4601783612e6d565b91506140cf8261408e565b602082019050919050565b600060208201905081810360008301526140f3816140b7565b9050919050565b600060408201905061410f6000830185612fa9565b61411c6020830184613092565b9392505050565b7f4e6f7420617574686f72697a656420746f20636c61696d000000000000000000600082015250565b6000614159601783612e6d565b915061416482614123565b602082019050919050565b600060208201905081810360008301526141888161414c565b9050919050565b7f546f6b656e206e6f74206f776e656420627920636f6e7472616374206f776e6560008201527f7200000000000000000000000000000000000000000000000000000000000000602082015250565b60006141eb602183612e6d565b91506141f68261418f565b604082019050919050565b6000602082019050818103600083015261421a816141de565b9050919050565b60006040820190506142366000830185613092565b6142436020830184612fa9565b9392505050565b7f496e76616c696420707572636861736572206164647265737300000000000000600082015250565b6000614280601983612e6d565b915061428b8261424a565b602082019050919050565b600060208201905081810360008301526142af81614273565b9050919050565b7f546f6b656e20616c7265616479207072652d7075726368617365640000000000600082015250565b60006142ec601b83612e6d565b91506142f7826142b6565b602082019050919050565b6000602082019050818103600083015261431b816142df565b9050919050565b600081905092915050565b600061433882612e62565b6143428185614322565b9350614352818560208601612e7e565b80840191505092915050565b600061436a828561432d565b9150614376828461432d565b91508190509392505050565b7f4f776e61626c653a206e6577206f776e657220697320746865207a65726f206160008201527f6464726573730000000000000000000000000000000000000000000000000000602082015250565b60006143de602683612e6d565b91506143e982614382565b604082019050919050565b6000602082019050818103600083015261440d816143d1565b9050919050565b7f5265656e7472616e637947756172643a207265656e7472616e742063616c6c00600082015250565b600061444a601f83612e6d565b915061445582614414565b602082019050919050565b600060208201905081810360008301526144798161443d565b9050919050565b7f5061757361626c653a2070617573656400000000000000000000000000000000600082015250565b60006144b6601083612e6d565b91506144c182614480565b602082019050919050565b600060208201905081810360008301526144e5816144a9565b9050919050565b7f4552433732313a207472616e736665722066726f6d20696e636f72726563742060008201527f6f776e6572000000000000000000000000000000000000000000000000000000602082015250565b6000614548602583612e6d565b9150614553826144ec565b604082019050919050565b600060208201905081810360008301526145778161453b565b9050919050565b7f4552433732313a207472616e7366657220746f20746865207a65726f2061646460008201527f7265737300000000000000000000000000000000000000000000000000000000602082015250565b60006145da602483612e6d565b91506145e58261457e565b604082019050919050565b60006020820190508181036000830152614609816145cd565b9050919050565b7f4f776e61626c653a2063616c6c6572206973206e6f7420746865206f776e6572600082015250565b6000614646602083612e6d565b915061465182614610565b602082019050919050565b6000602082019050818103600083015261467581614639565b9050919050565b7f4552433732313a206d696e7420746f20746865207a65726f2061646472657373600082015250565b60006146b2602083612e6d565b91506146bd8261467c565b602082019050919050565b600060208201905081810360008301526146e1816146a5565b9050919050565b7f4552433732313a20746f6b656e20616c7265616479206d696e74656400000000600082015250565b600061471e601c83612e6d565b9150614729826146e8565b602082019050919050565b6000602082019050818103600083015261474d81614711565b9050919050565b7f4552433732313a20617070726f766520746f2063616c6c657200000000000000600082015250565b600061478a601983612e6d565b915061479582614754565b602082019050919050565b600060208201905081810360008301526147b98161477d565b9050919050565b7f4552433732313a207472616e7366657220746f206e6f6e20455243373231526560008201527f63656976657220696d706c656d656e7465720000000000000000000000000000602082015250565b600061481c603283612e6d565b9150614827826147c0565b604082019050919050565b6000602082019050818103600083015261484b8161480f565b9050919050565b7f4e487b7100000000000000000000000000000000000000000000000000000000600052601260045260246000fd5b7f5061757361626c653a206e6f7420706175736564000000000000000000000000600082015250565b60006148b7601483612e6d565b91506148c282614881565b602082019050919050565b600060208201905081810360008301526148e6816148aa565b9050919050565b600081519050919050565b600082825260208201905092915050565b6000614914826148ed565b61491e81856148f8565b935061492e818560208601612e7e565b61493781612ea8565b840191505092915050565b60006080820190506149576000830187612fa9565b6149646020830186612fa9565b6149716040830185613092565b81810360608301526149838184614909565b905095945050505050565b60008151905061499d81612dd3565b92915050565b6000602082840312156149b9576149b8612d9d565b5b60006149c78482850161498e565b9150509291505056fea2646970667358221220ab76ed8fb5b8268aca804e187780755af1a89716fb9c15e4a0dd5d554db6db1e64736f6c63430008140033","opcodes":"PUSH1 0x80 PUSH1 0x40 MSTORE PUSH7 0x38D7EA4C68000 PUSH1 0xA SSTORE CALLVALUE DUP1 ISZERO PUSH3 0x1C JUMPI PUSH1 0x0 DUP1 REVERT JUMPDEST POP PUSH1 0x40 MLOAD DUP1 PUSH1 0x40 ADD PUSH1 0x40 MSTORE DUP1 PUSH1 0x15 DUP2 MSTORE PUSH1 0x20 ADD PUSH32 0x4469616D6F6E6420416363657373205469636B65740000000000000000000000 DUP2 MSTORE POP PUSH1 0x40 MLOAD DUP1 PUSH1 0x40 ADD PUSH1 0x40 MSTORE DUP1 PUSH1 0x7 DUP2 MSTORE PUSH1 0x20 ADD PUSH32 0x4449414D4F4E4400000000000000000000000000000000000000000000000000 DUP2 MSTORE POP DUP2 PUSH1 0x0 SWAP1 DUP2 PUSH3 0x9A SWAP2 SWAP1 PUSH3 0x461 JUMP JUMPDEST POP DUP1 PUSH1 0x1 SWAP1 DUP2 PUSH3 0xAC SWAP2 SWAP1 PUSH3 0x461 JUMP JUMPDEST POP POP POP PUSH3 0xCF PUSH3 0xC3 PUSH3 0x119 PUSH1 0x20 SHL PUSH1 0x20 SHR JUMP JUMPDEST PUSH3 0x121 PUSH1 0x20 SHL PUSH1 0x20 SHR JUMP JUMPDEST PUSH1 0x1 PUSH1 0x7 DUP2 SWAP1 SSTORE POP PUSH1 0x0 PUSH1 0x8 PUSH1 0x0 PUSH2 0x100 EXP DUP2 SLOAD DUP2 PUSH1 0xFF MUL NOT AND SWAP1 DUP4 ISZERO ISZERO MUL OR SWAP1 SSTORE POP PUSH1 0x40 MLOAD DUP1 PUSH1 0x20 ADD PUSH1 0x40 MSTORE DUP1 PUSH1 0x0 DUP2 MSTORE POP PUSH1 0x9 SWAP1 DUP2 PUSH3 0x112 SWAP2 SWAP1 PUSH3 0x461 JUMP JUMPDEST POP PUSH3 0x548 JUMP JUMPDEST PUSH1 0x0 CALLER SWAP1 POP SWAP1 JUMP JUMPDEST PUSH1 0x0 PUSH1 0x6 PUSH1 0x0 SWAP1 SLOAD SWAP1 PUSH2 0x100 EXP SWAP1 DIV PUSH20 0xFFFFFFFFFFFFFFFFFFFFFFFFFFFFFFFFFFFFFFFF AND SWAP1 POP DUP2 PUSH1 0x6 PUSH1 0x0 PUSH2 0x100 EXP DUP2 SLOAD DUP2 PUSH20 0xFFFFFFFFFFFFFFFFFFFFFFFFFFFFFFFFFFFFFFFF MUL NOT AND SWAP1 DUP4 PUSH20 0xFFFFFFFFFFFFFFFFFFFFFFFFFFFFFFFFFFFFFFFF AND MUL OR SWAP1 SSTORE POP DUP2 PUSH20 0xFFFFFFFFFFFFFFFFFFFFFFFFFFFFFFFFFFFFFFFF AND DUP2 PUSH20 0xFFFFFFFFFFFFFFFFFFFFFFFFFFFFFFFFFFFFFFFF AND PUSH32 0x8BE0079C531659141344CD1FD0A4F28419497F9722A3DAAFE3B4186F6B6457E0 PUSH1 0x40 MLOAD PUSH1 0x40 MLOAD DUP1 SWAP2 SUB SWAP1 LOG3 POP POP JUMP JUMPDEST PUSH1 0x0 DUP2 MLOAD SWAP1 POP SWAP2 SWAP1 POP JUMP JUMPDEST PUSH32 0x4E487B7100000000000000000000000000000000000000000000000000000000 PUSH1 0x0 MSTORE PUSH1 0x41 PUSH1 0x4 MSTORE PUSH1 0x24 PUSH1 0x0 REVERT JUMPDEST PUSH32 0x4E487B7100000000000000000000000000000000000000000000000000000000 PUSH1 0x0 MSTORE PUSH1 0x22 PUSH1 0x4 MSTORE PUSH1 0x24 PUSH1 0x0 REVERT JUMPDEST PUSH1 0x0 PUSH1 0x2 DUP3 DIV SWAP1 POP PUSH1 0x1 DUP3 AND DUP1 PUSH3 0x269 JUMPI PUSH1 0x7F DUP3 AND SWAP2 POP JUMPDEST PUSH1 0x20 DUP3 LT DUP2 SUB PUSH3 0x27F JUMPI PUSH3 0x27E PUSH3 0x221 JUMP JUMPDEST JUMPDEST POP SWAP2 SWAP1 POP JUMP JUMPDEST PUSH1 0x0 DUP2 SWAP1 POP DUP2 PUSH1 0x0 MSTORE PUSH1 0x20 PUSH1 0x0 KECCAK256 SWAP1 POP SWAP2 SWAP1 POP JUMP JUMPDEST PUSH1 0x0 PUSH1 0x20 PUSH1 0x1F DUP4 ADD DIV SWAP1 POP SWAP2 SWAP1 POP JUMP JUMPDEST PUSH1 0x0 DUP3 DUP3 SHL SWAP1 POP SWAP3 SWAP2 POP POP JUMP JUMPDEST PUSH1 0x0 PUSH1 0x8 DUP4 MUL PUSH3 0x2E9 PUSH32 0xFFFFFFFFFFFFFFFFFFFFFFFFFFFFFFFFFFFFFFFFFFFFFFFFFFFFFFFFFFFFFFFF DUP3 PUSH3 0x2AA JUMP JUMPDEST PUSH3 0x2F5 DUP7 DUP4 PUSH3 0x2AA JUMP JUMPDEST SWAP6 POP DUP1 NOT DUP5 AND SWAP4 POP DUP1 DUP7 AND DUP5 OR SWAP3 POP POP POP SWAP4 SWAP3 POP POP POP JUMP JUMPDEST PUSH1 0x0 DUP2 SWAP1 POP SWAP2 SWAP1 POP JUMP JUMPDEST PUSH1 0x0 DUP2 SWAP1 POP SWAP2 SWAP1 POP JUMP JUMPDEST PUSH1 0x0 PUSH3 0x342 PUSH3 0x33C PUSH3 0x336 DUP5 PUSH3 0x30D JUMP JUMPDEST PUSH3 0x317 JUMP JUMPDEST PUSH3 0x30D JUMP JUMPDEST SWAP1 POP SWAP2 SWAP1 POP JUMP JUMPDEST PUSH1 0x0 DUP2 SWAP1 POP SWAP2 SWAP1 POP JUMP JUMPDEST PUSH3 0x35E DUP4 PUSH3 0x321 JUMP JUMPDEST PUSH3 0x376 PUSH3 0x36D DUP3 PUSH3 0x349 JUMP JUMPDEST DUP5 DUP5 SLOAD PUSH3 0x2B7 JUMP JUMPDEST DUP3 SSTORE POP POP POP POP JUMP JUMPDEST PUSH1 0x0 SWAP1 JUMP JUMPDEST PUSH3 0x38D PUSH3 0x37E JUMP JUMPDEST PUSH3 0x39A DUP2 DUP5 DUP5 PUSH3 0x353 JUMP JUMPDEST POP POP POP JUMP JUMPDEST JUMPDEST DUP2 DUP2 LT ISZERO PUSH3 0x3C2 JUMPI PUSH3 0x3B6 PUSH1 0x0 DUP3 PUSH3 0x383 JUMP JUMPDEST PUSH1 0x1 DUP2 ADD SWAP1 POP PUSH3 0x3A0 JUMP JUMPDEST POP POP JUMP JUMPDEST PUSH1 0x1F DUP3 GT ISZERO PUSH3 0x411 JUMPI PUSH3 0x3DB DUP2 PUSH3 0x285 JUMP JUMPDEST PUSH3 0x3E6 DUP5 PUSH3 0x29A JUMP JUMPDEST DUP2 ADD PUSH1 0x20 DUP6 LT ISZERO PUSH3 0x3F6 JUMPI DUP2 SWAP1 POP JUMPDEST PUSH3 0x40E PUSH3 0x405 DUP6 PUSH3 0x29A JUMP JUMPDEST DUP4 ADD DUP3 PUSH3 0x39F JUMP JUMPDEST POP POP JUMPDEST POP POP POP JUMP JUMPDEST PUSH1 0x0 DUP3 DUP3 SHR SWAP1 POP SWAP3 SWAP2 POP POP JUMP JUMPDEST PUSH1 0x0 PUSH3 0x436 PUSH1 0x0 NOT DUP5 PUSH1 0x8 MUL PUSH3 0x416 JUMP JUMPDEST NOT DUP1 DUP4 AND SWAP2 POP POP SWAP3 SWAP2 POP POP JUMP JUMPDEST PUSH1 0x0 PUSH3 0x451 DUP4 DUP4 PUSH3 0x423 JUMP JUMPDEST SWAP2 POP DUP3 PUSH1 0x2 MUL DUP3 OR SWAP1 POP SWAP3 SWAP2 POP POP JUMP JUMPDEST PUSH3 0x46C DUP3 PUSH3 0x1E7 JUMP JUMPDEST PUSH8 0xFFFFFFFFFFFFFFFF DUP2 GT ISZERO PUSH3 0x488 JUMPI PUSH3 0x487 PUSH3 0x1F2 JUMP JUMPDEST JUMPDEST PUSH3 0x494 DUP3 SLOAD PUSH3 0x250 JUMP JUMPDEST PUSH3 0x4A1 DUP3 DUP3 DUP6 PUSH3 0x3C6 JUMP JUMPDEST PUSH1 0x0 PUSH1 0x20 SWAP1 POP PUSH1 0x1F DUP4 GT PUSH1 0x1 DUP2 EQ PUSH3 0x4D9 JUMPI PUSH1 0x0 DUP5 ISZERO PUSH3 0x4C4 JUMPI DUP3 DUP8 ADD MLOAD SWAP1 POP JUMPDEST PUSH3 0x4D0 DUP6 DUP3 PUSH3 0x443 JUMP JUMPDEST DUP7 SSTORE POP PUSH3 0x540 JUMP JUMPDEST PUSH1 0x1F NOT DUP5 AND PUSH3 0x4E9 DUP7 PUSH3 0x285 JUMP JUMPDEST PUSH1 0x0 JUMPDEST DUP3 DUP2 LT ISZERO PUSH3 0x513 JUMPI DUP5 DUP10 ADD MLOAD DUP3 SSTORE PUSH1 0x1 DUP3 ADD SWAP2 POP PUSH1 0x20 DUP6 ADD SWAP5 POP PUSH1 0x20 DUP2 ADD SWAP1 POP PUSH3 0x4EC JUMP JUMPDEST DUP7 DUP4 LT ISZERO PUSH3 0x533 JUMPI DUP5 DUP10 ADD MLOAD PUSH3 0x52F PUSH1 0x1F DUP10 AND DUP3 PUSH3 0x423 JUMP JUMPDEST DUP4 SSTORE POP JUMPDEST PUSH1 0x1 PUSH1 0x2 DUP9 MUL ADD DUP9 SSTORE POP POP POP JUMPDEST POP POP POP POP POP POP JUMP JUMPDEST PUSH2 0x4A06 DUP1 PUSH3 0x558 PUSH1 0x0 CODECOPY PUSH1 0x0 RETURN INVALID PUSH1 0x80 PUSH1 0x40 MSTORE PUSH1 0x4 CALLDATASIZE LT PUSH2 0x1D8 JUMPI PUSH1 0x0 CALLDATALOAD PUSH1 0xE0 SHR DUP1 PUSH4 0x70A08231 GT PUSH2 0x102 JUMPI DUP1 PUSH4 0xA9E7C2E5 GT PUSH2 0x95 JUMPI DUP1 PUSH4 0xE3EB28FD GT PUSH2 0x64 JUMPI DUP1 PUSH4 0xE3EB28FD EQ PUSH2 0x673 JUMPI DUP1 PUSH4 0xE985E9C5 EQ PUSH2 0x6B0 JUMPI DUP1 PUSH4 0xF2FDE38B EQ PUSH2 0x6ED JUMPI DUP1 PUSH4 0xF4A0A528 EQ PUSH2 0x716 JUMPI PUSH2 0x1D8 JUMP JUMPDEST DUP1 PUSH4 0xA9E7C2E5 EQ PUSH2 0x5BB JUMPI DUP1 PUSH4 0xB0FBC276 EQ PUSH2 0x5E4 JUMPI DUP1 PUSH4 0xB88D4FDE EQ PUSH2 0x60D JUMPI DUP1 PUSH4 0xC87B56DD EQ PUSH2 0x636 JUMPI PUSH2 0x1D8 JUMP JUMPDEST DUP1 PUSH4 0x8467BE0D GT PUSH2 0xD1 JUMPI DUP1 PUSH4 0x8467BE0D EQ PUSH2 0x513 JUMPI DUP1 PUSH4 0x8DA5CB5B EQ PUSH2 0x53C JUMPI DUP1 PUSH4 0x95D89B41 EQ PUSH2 0x567 JUMPI DUP1 PUSH4 0xA22CB465 EQ PUSH2 0x592 JUMPI PUSH2 0x1D8 JUMP JUMPDEST DUP1 PUSH4 0x70A08231 EQ PUSH2 0x47F JUMPI DUP1 PUSH4 0x715018A6 EQ PUSH2 0x4BC JUMPI DUP1 PUSH4 0x82B2E44D EQ PUSH2 0x4D3 JUMPI DUP1 PUSH4 0x8456CB59 EQ PUSH2 0x4FC JUMPI PUSH2 0x1D8 JUMP JUMPDEST DUP1 PUSH4 0x3F4BA83A GT PUSH2 0x17A JUMPI DUP1 PUSH4 0x5C975ABB GT PUSH2 0x149 JUMPI DUP1 PUSH4 0x5C975ABB EQ PUSH2 0x3C1 JUMPI DUP1 PUSH4 0x6352211E EQ PUSH2 0x3EC JUMPI DUP1 PUSH4 0x65E4E1C0 EQ PUSH2 0x429 JUMPI DUP1 PUSH4 0x6817C76C EQ PUSH2 0x454 JUMPI PUSH2 0x1D8 JUMP JUMPDEST DUP1 PUSH4 0x3F4BA83A EQ PUSH2 0x31B JUMPI DUP1 PUSH4 0x42842E0E EQ PUSH2 0x332 JUMPI DUP1 PUSH4 0x4FED1C94 EQ PUSH2 0x35B JUMPI DUP1 PUSH4 0x55F804B3 EQ PUSH2 0x398 JUMPI PUSH2 0x1D8 JUMP JUMPDEST DUP1 PUSH4 0x95EA7B3 GT PUSH2 0x1B6 JUMPI DUP1 PUSH4 0x95EA7B3 EQ PUSH2 0x282 JUMPI DUP1 PUSH4 0x150BDE03 EQ PUSH2 0x2AB JUMPI DUP1 PUSH4 0x23B872DD EQ PUSH2 0x2C7 JUMPI DUP1 PUSH4 0x32CB6B0C EQ PUSH2 0x2F0 JUMPI PUSH2 0x1D8 JUMP JUMPDEST DUP1 PUSH4 0x1FFC9A7 EQ PUSH2 0x1DD JUMPI DUP1 PUSH4 0x6FDDE03 EQ PUSH2 0x21A JUMPI DUP1 PUSH4 0x81812FC EQ PUSH2 0x245 JUMPI JUMPDEST PUSH1 0x0 DUP1 REVERT JUMPDEST CALLVALUE DUP1 ISZERO PUSH2 0x1E9 JUMPI PUSH1 0x0 DUP1 REVERT JUMPDEST POP PUSH2 0x204 PUSH1 0x4 DUP1 CALLDATASIZE SUB DUP2 ADD SWAP1 PUSH2 0x1FF SWAP2 SWAP1 PUSH2 0x2DFF JUMP JUMPDEST PUSH2 0x73F JUMP JUMPDEST PUSH1 0x40 MLOAD PUSH2 0x211 SWAP2 SWAP1 PUSH2 0x2E47 JUMP JUMPDEST PUSH1 0x40 MLOAD DUP1 SWAP2 SUB SWAP1 RETURN JUMPDEST CALLVALUE DUP1 ISZERO PUSH2 0x226 JUMPI PUSH1 0x0 DUP1 REVERT JUMPDEST POP PUSH2 0x22F PUSH2 0x821 JUMP JUMPDEST PUSH1 0x40 MLOAD PUSH2 0x23C SWAP2 SWAP1 PUSH2 0x2EF2 JUMP JUMPDEST PUSH1 0x40 MLOAD DUP1 SWAP2 SUB SWAP1 RETURN JUMPDEST CALLVALUE DUP1 ISZERO PUSH2 0x251 JUMPI PUSH1 0x0 DUP1 REVERT JUMPDEST POP PUSH2 0x26C PUSH1 0x4 DUP1 CALLDATASIZE SUB DUP2 ADD SWAP1 PUSH2 0x267 SWAP2 SWAP1 PUSH2 0x2F4A JUMP JUMPDEST PUSH2 0x8B3 JUMP JUMPDEST PUSH1 0x40 MLOAD PUSH2 0x279 SWAP2 SWAP1 PUSH2 0x2FB8 JUMP JUMPDEST PUSH1 0x40 MLOAD DUP1 SWAP2 SUB SWAP1 RETURN JUMPDEST CALLVALUE DUP1 ISZERO PUSH2 0x28E JUMPI PUSH1 0x0 DUP1 REVERT JUMPDEST POP PUSH2 0x2A9 PUSH1 0x4 DUP1 CALLDATASIZE SUB DUP2 ADD SWAP1 PUSH2 0x2A4 SWAP2 SWAP1 PUSH2 0x2FFF JUMP JUMPDEST PUSH2 0x8F9 JUMP JUMPDEST STOP JUMPDEST PUSH2 0x2C5 PUSH1 0x4 DUP1 CALLDATASIZE SUB DUP2 ADD SWAP1 PUSH2 0x2C0 SWAP2 SWAP1 PUSH2 0x2F4A JUMP JUMPDEST PUSH2 0xA10 JUMP JUMPDEST STOP JUMPDEST CALLVALUE DUP1 ISZERO PUSH2 0x2D3 JUMPI PUSH1 0x0 DUP1 REVERT JUMPDEST POP PUSH2 0x2EE PUSH1 0x4 DUP1 CALLDATASIZE SUB DUP2 ADD SWAP1 PUSH2 0x2E9 SWAP2 SWAP1 PUSH2 0x303F JUMP JUMPDEST PUSH2 0xDEC JUMP JUMPDEST STOP JUMPDEST CALLVALUE DUP1 ISZERO PUSH2 0x2FC JUMPI PUSH1 0x0 DUP1 REVERT JUMPDEST POP PUSH2 0x305 PUSH2 0xE4C JUMP JUMPDEST PUSH1 0x40 MLOAD PUSH2 0x312 SWAP2 SWAP1 PUSH2 0x30A1 JUMP JUMPDEST PUSH1 0x40 MLOAD DUP1 SWAP2 SUB SWAP1 RETURN JUMPDEST CALLVALUE DUP1 ISZERO PUSH2 0x327 JUMPI PUSH1 0x0 DUP1 REVERT JUMPDEST POP PUSH2 0x330 PUSH2 0xE51 JUMP JUMPDEST STOP JUMPDEST CALLVALUE DUP1 ISZERO PUSH2 0x33E JUMPI PUSH1 0x0 DUP1 REVERT JUMPDEST POP PUSH2 0x359 PUSH1 0x4 DUP1 CALLDATASIZE SUB DUP2 ADD SWAP1 PUSH2 0x354 SWAP2 SWAP1 PUSH2 0x303F JUMP JUMPDEST PUSH2 0xEA6 JUMP JUMPDEST STOP JUMPDEST CALLVALUE DUP1 ISZERO PUSH2 0x367 JUMPI PUSH1 0x0 DUP1 REVERT JUMPDEST POP PUSH2 0x382 PUSH1 0x4 DUP1 CALLDATASIZE SUB DUP2 ADD SWAP1 PUSH2 0x37D SWAP2 SWAP1 PUSH2 0x2F4A JUMP JUMPDEST PUSH2 0xEC6 JUMP JUMPDEST PUSH1 0x40 MLOAD PUSH2 0x38F SWAP2 SWAP1 PUSH2 0x2E47 JUMP JUMPDEST PUSH1 0x40 MLOAD DUP1 SWAP2 SUB SWAP1 RETURN JUMPDEST CALLVALUE DUP1 ISZERO PUSH2 0x3A4 JUMPI PUSH1 0x0 DUP1 REVERT JUMPDEST POP PUSH2 0x3BF PUSH1 0x4 DUP1 CALLDATASIZE SUB DUP2 ADD SWAP1 PUSH2 0x3BA SWAP2 SWAP1 PUSH2 0x31F1 JUMP JUMPDEST PUSH2 0xF37 JUMP JUMPDEST STOP JUMPDEST CALLVALUE DUP1 ISZERO PUSH2 0x3CD JUMPI PUSH1 0x0 DUP1 REVERT JUMPDEST POP PUSH2 0x3D6 PUSH2 0xF52 JUMP JUMPDEST PUSH1 0x40 MLOAD PUSH2 0x3E3 SWAP2 SWAP1 PUSH2 0x2E47 JUMP JUMPDEST PUSH1 0x40 MLOAD DUP1 SWAP2 SUB SWAP1 RETURN JUMPDEST CALLVALUE DUP1 ISZERO PUSH2 0x3F8 JUMPI PUSH1 0x0 DUP1 REVERT JUMPDEST POP PUSH2 0x413 PUSH1 0x4 DUP1 CALLDATASIZE SUB DUP2 ADD SWAP1 PUSH2 0x40E SWAP2 SWAP1 PUSH2 0x2F4A JUMP JUMPDEST PUSH2 0xF69 JUMP JUMPDEST PUSH1 0x40 MLOAD PUSH2 0x420 SWAP2 SWAP1 PUSH2 0x2FB8 JUMP JUMPDEST PUSH1 0x40 MLOAD DUP1 SWAP2 SUB SWAP1 RETURN JUMPDEST CALLVALUE DUP1 ISZERO PUSH2 0x435 JUMPI PUSH1 0x0 DUP1 REVERT JUMPDEST POP PUSH2 0x43E PUSH2 0xFEF JUMP JUMPDEST PUSH1 0x40 MLOAD PUSH2 0x44B SWAP2 SWAP1 PUSH2 0x32F8 JUMP JUMPDEST PUSH1 0x40 MLOAD DUP1 SWAP2 SUB SWAP1 RETURN JUMPDEST CALLVALUE DUP1 ISZERO PUSH2 0x460 JUMPI PUSH1 0x0 DUP1 REVERT JUMPDEST POP PUSH2 0x469 PUSH2 0x11BC JUMP JUMPDEST PUSH1 0x40 MLOAD PUSH2 0x476 SWAP2 SWAP1 PUSH2 0x30A1 JUMP JUMPDEST PUSH1 0x40 MLOAD DUP1 SWAP2 SUB SWAP1 RETURN JUMPDEST CALLVALUE DUP1 ISZERO PUSH2 0x48B JUMPI PUSH1 0x0 DUP1 REVERT JUMPDEST POP PUSH2 0x4A6 PUSH1 0x4 DUP1 CALLDATASIZE SUB DUP2 ADD SWAP1 PUSH2 0x4A1 SWAP2 SWAP1 PUSH2 0x331A JUMP JUMPDEST PUSH2 0x11C2 JUMP JUMPDEST PUSH1 0x40 MLOAD PUSH2 0x4B3 SWAP2 SWAP1 PUSH2 0x30A1 JUMP JUMPDEST PUSH1 0x40 MLOAD DUP1 SWAP2 SUB SWAP1 RETURN JUMPDEST CALLVALUE DUP1 ISZERO PUSH2 0x4C8 JUMPI PUSH1 0x0 DUP1 REVERT JUMPDEST POP PUSH2 0x4D1 PUSH2 0x1279 JUMP JUMPDEST STOP JUMPDEST CALLVALUE DUP1 ISZERO PUSH2 0x4DF JUMPI PUSH1 0x0 DUP1 REVERT JUMPDEST POP PUSH2 0x4FA PUSH1 0x4 DUP1 CALLDATASIZE SUB DUP2 ADD SWAP1 PUSH2 0x4F5 SWAP2 SWAP1 PUSH2 0x3373 JUMP JUMPDEST PUSH2 0x128D JUMP JUMPDEST STOP JUMPDEST CALLVALUE DUP1 ISZERO PUSH2 0x508 JUMPI PUSH1 0x0 DUP1 REVERT JUMPDEST POP PUSH2 0x511 PUSH2 0x13DA JUMP JUMPDEST STOP JUMPDEST CALLVALUE DUP1 ISZERO PUSH2 0x51F JUMPI PUSH1 0x0 DUP1 REVERT JUMPDEST POP PUSH2 0x53A PUSH1 0x4 DUP1 CALLDATASIZE SUB DUP2 ADD SWAP1 PUSH2 0x535 SWAP2 SWAP1 PUSH2 0x2F4A JUMP JUMPDEST PUSH2 0x142F JUMP JUMPDEST STOP JUMPDEST CALLVALUE DUP1 ISZERO PUSH2 0x548 JUMPI PUSH1 0x0 DUP1 REVERT JUMPDEST POP PUSH2 0x551 PUSH2 0x1523 JUMP JUMPDEST PUSH1 0x40 MLOAD PUSH2 0x55E SWAP2 SWAP1 PUSH2 0x2FB8 JUMP JUMPDEST PUSH1 0x40 MLOAD DUP1 SWAP2 SUB SWAP1 RETURN JUMPDEST CALLVALUE DUP1 ISZERO PUSH2 0x573 JUMPI PUSH1 0x0 DUP1 REVERT JUMPDEST POP PUSH2 0x57C PUSH2 0x154D JUMP JUMPDEST PUSH1 0x40 MLOAD PUSH2 0x589 SWAP2 SWAP1 PUSH2 0x2EF2 JUMP JUMPDEST PUSH1 0x40 MLOAD DUP1 SWAP2 SUB SWAP1 RETURN JUMPDEST CALLVALUE DUP1 ISZERO PUSH2 0x59E JUMPI PUSH1 0x0 DUP1 REVERT JUMPDEST POP PUSH2 0x5B9 PUSH1 0x4 DUP1 CALLDATASIZE SUB DUP2 ADD SWAP1 PUSH2 0x5B4 SWAP2 SWAP1 PUSH2 0x33B3 JUMP JUMPDEST PUSH2 0x15DF JUMP JUMPDEST STOP JUMPDEST CALLVALUE DUP1 ISZERO PUSH2 0x5C7 JUMPI PUSH1 0x0 DUP1 REVERT JUMPDEST POP PUSH2 0x5E2 PUSH1 0x4 DUP1 CALLDATASIZE SUB DUP2 ADD SWAP1 PUSH2 0x5DD SWAP2 SWAP1 PUSH2 0x2F4A JUMP JUMPDEST PUSH2 0x15F5 JUMP JUMPDEST STOP JUMPDEST CALLVALUE DUP1 ISZERO PUSH2 0x5F0 JUMPI PUSH1 0x0 DUP1 REVERT JUMPDEST POP PUSH2 0x60B PUSH1 0x4 DUP1 CALLDATASIZE SUB DUP2 ADD SWAP1 PUSH2 0x606 SWAP2 SWAP1 PUSH2 0x33F3 JUMP JUMPDEST PUSH2 0x1813 JUMP JUMPDEST STOP JUMPDEST CALLVALUE DUP1 ISZERO PUSH2 0x619 JUMPI PUSH1 0x0 DUP1 REVERT JUMPDEST POP PUSH2 0x634 PUSH1 0x4 DUP1 CALLDATASIZE SUB DUP2 ADD SWAP1 PUSH2 0x62F SWAP2 SWAP1 PUSH2 0x34D4 JUMP JUMPDEST PUSH2 0x1A56 JUMP JUMPDEST STOP JUMPDEST CALLVALUE DUP1 ISZERO PUSH2 0x642 JUMPI PUSH1 0x0 DUP1 REVERT JUMPDEST POP PUSH2 0x65D PUSH1 0x4 DUP1 CALLDATASIZE SUB DUP2 ADD SWAP1 PUSH2 0x658 SWAP2 SWAP1 PUSH2 0x2F4A JUMP JUMPDEST PUSH2 0x1AB8 JUMP JUMPDEST PUSH1 0x40 MLOAD PUSH2 0x66A SWAP2 SWAP1 PUSH2 0x2EF2 JUMP JUMPDEST PUSH1 0x40 MLOAD DUP1 SWAP2 SUB SWAP1 RETURN JUMPDEST CALLVALUE DUP1 ISZERO PUSH2 0x67F JUMPI PUSH1 0x0 DUP1 REVERT JUMPDEST POP PUSH2 0x69A PUSH1 0x4 DUP1 CALLDATASIZE SUB DUP2 ADD SWAP1 PUSH2 0x695 SWAP2 SWAP1 PUSH2 0x2F4A JUMP JUMPDEST PUSH2 0x1B20 JUMP JUMPDEST PUSH1 0x40 MLOAD PUSH2 0x6A7 SWAP2 SWAP1 PUSH2 0x2FB8 JUMP JUMPDEST PUSH1 0x40 MLOAD DUP1 SWAP2 SUB SWAP1 RETURN JUMPDEST CALLVALUE DUP1 ISZERO PUSH2 0x6BC JUMPI PUSH1 0x0 DUP1 REVERT JUMPDEST POP PUSH2 0x6D7 PUSH1 0x4 DUP1 CALLDATASIZE SUB DUP2 ADD SWAP1 PUSH2 0x6D2 SWAP2 SWAP1 PUSH2 0x3557 JUMP JUMPDEST PUSH2 0x1B53 JUMP JUMPDEST PUSH1 0x40 MLOAD PUSH2 0x6E4 SWAP2 SWAP1 PUSH2 0x2E47 JUMP JUMPDEST PUSH1 0x40 MLOAD DUP1 SWAP2 SUB SWAP1 RETURN JUMPDEST CALLVALUE DUP1 ISZERO PUSH2 0x6F9 JUMPI PUSH1 0x0 DUP1 REVERT JUMPDEST POP PUSH2 0x714 PUSH1 0x4 DUP1 CALLDATASIZE SUB DUP2 ADD SWAP1 PUSH2 0x70F SWAP2 SWAP1 PUSH2 0x331A JUMP JUMPDEST PUSH2 0x1BE7 JUMP JUMPDEST STOP JUMPDEST CALLVALUE DUP1 ISZERO PUSH2 0x722 JUMPI PUSH1 0x0 DUP1 REVERT JUMPDEST POP PUSH2 0x73D PUSH1 0x4 DUP1 CALLDATASIZE SUB DUP2 ADD SWAP1 PUSH2 0x738 SWAP2 SWAP1 PUSH2 0x2F4A JUMP JUMPDEST PUSH2 0x1C6A JUMP JUMPDEST STOP JUMPDEST PUSH1 0x0 PUSH32 0x80AC58CD00000000000000000000000000000000000000000000000000000000 PUSH28 0xFFFFFFFFFFFFFFFFFFFFFFFFFFFFFFFFFFFFFFFFFFFFFFFFFFFFFFFF NOT AND DUP3 PUSH28 0xFFFFFFFFFFFFFFFFFFFFFFFFFFFFFFFFFFFFFFFFFFFFFFFFFFFFFFFF NOT AND EQ DUP1 PUSH2 0x80A JUMPI POP PUSH32 0x5B5E139F00000000000000000000000000000000000000000000000000000000 PUSH28 0xFFFFFFFFFFFFFFFFFFFFFFFFFFFFFFFFFFFFFFFFFFFFFFFFFFFFFFFF NOT AND DUP3 PUSH28 0xFFFFFFFFFFFFFFFFFFFFFFFFFFFFFFFFFFFFFFFFFFFFFFFFFFFFFFFF NOT AND EQ JUMPDEST DUP1 PUSH2 0x81A JUMPI POP PUSH2 0x819 DUP3 PUSH2 0x1C7C JUMP JUMPDEST JUMPDEST SWAP1 POP SWAP2 SWAP1 POP JUMP JUMPDEST PUSH1 0x60 PUSH1 0x0 DUP1 SLOAD PUSH2 0x830 SWAP1 PUSH2 0x35C6 JUMP JUMPDEST DUP1 PUSH1 0x1F ADD PUSH1 0x20 DUP1 SWAP2 DIV MUL PUSH1 0x20 ADD PUSH1 0x40 MLOAD SWAP1 DUP2 ADD PUSH1 0x40 MSTORE DUP1 SWAP3 SWAP2 SWAP1 DUP2 DUP2 MSTORE PUSH1 0x20 ADD DUP3 DUP1 SLOAD PUSH2 0x85C SWAP1 PUSH2 0x35C6 JUMP JUMPDEST DUP1 ISZERO PUSH2 0x8A9 JUMPI DUP1 PUSH1 0x1F LT PUSH2 0x87E JUMPI PUSH2 0x100 DUP1 DUP4 SLOAD DIV MUL DUP4 MSTORE SWAP2 PUSH1 0x20 ADD SWAP2 PUSH2 0x8A9 JUMP JUMPDEST DUP3 ADD SWAP2 SWAP1 PUSH1 0x0 MSTORE PUSH1 0x20 PUSH1 0x0 KECCAK256 SWAP1 JUMPDEST DUP2 SLOAD DUP2 MSTORE SWAP1 PUSH1 0x1 ADD SWAP1 PUSH1 0x20 ADD DUP1 DUP4 GT PUSH2 0x88C JUMPI DUP3 SWAP1 SUB PUSH1 0x1F AND DUP3 ADD SWAP2 JUMPDEST POP POP POP POP POP SWAP1 POP SWAP1 JUMP JUMPDEST PUSH1 0x0 PUSH2 0x8BE DUP3 PUSH2 0x1CE6 JUMP JUMPDEST PUSH1 0x4 PUSH1 0x0 DUP4 DUP2 MSTORE PUSH1 0x20 ADD SWAP1 DUP2 MSTORE PUSH1 0x20 ADD PUSH1 0x0 KECCAK256 PUSH1 0x0 SWAP1 SLOAD SWAP1 PUSH2 0x100 EXP SWAP1 DIV PUSH20 0xFFFFFFFFFFFFFFFFFFFFFFFFFFFFFFFFFFFFFFFF AND SWAP1 POP SWAP2 SWAP1 POP JUMP JUMPDEST PUSH1 0x0 PUSH2 0x904 DUP3 PUSH2 0xF69 JUMP JUMPDEST SWAP1 POP DUP1 PUSH20 0xFFFFFFFFFFFFFFFFFFFFFFFFFFFFFFFFFFFFFFFF AND DUP4 PUSH20 0xFFFFFFFFFFFFFFFFFFFFFFFFFFFFFFFFFFFFFFFF AND SUB PUSH2 0x974 JUMPI PUSH1 0x40 MLOAD PUSH32 0x8C379A000000000000000000000000000000000000000000000000000000000 DUP2 MSTORE PUSH1 0x4 ADD PUSH2 0x96B SWAP1 PUSH2 0x3669 JUMP JUMPDEST PUSH1 0x40 MLOAD DUP1 SWAP2 SUB SWAP1 REVERT JUMPDEST DUP1 PUSH20 0xFFFFFFFFFFFFFFFFFFFFFFFFFFFFFFFFFFFFFFFF AND PUSH2 0x993 PUSH2 0x1D31 JUMP JUMPDEST PUSH20 0xFFFFFFFFFFFFFFFFFFFFFFFFFFFFFFFFFFFFFFFF AND EQ DUP1 PUSH2 0x9C2 JUMPI POP PUSH2 0x9C1 DUP2 PUSH2 0x9BC PUSH2 0x1D31 JUMP JUMPDEST PUSH2 0x1B53 JUMP JUMPDEST JUMPDEST PUSH2 0xA01 JUMPI PUSH1 0x40 MLOAD PUSH32 0x8C379A000000000000000000000000000000000000000000000000000000000 DUP2 MSTORE PUSH1 0x4 ADD PUSH2 0x9F8 SWAP1 PUSH2 0x36FB JUMP JUMPDEST PUSH1 0x40 MLOAD DUP1 SWAP2 SUB SWAP1 REVERT JUMPDEST PUSH2 0xA0B DUP4 DUP4 PUSH2 0x1D39 JUMP JUMPDEST POP POP POP JUMP JUMPDEST PUSH2 0xA18 PUSH2 0x1DF2 JUMP JUMPDEST PUSH2 0xA20 PUSH2 0x1E41 JUMP JUMPDEST PUSH2 0xA29 DUP2 PUSH2 0x1E8B JUMP JUMPDEST PUSH2 0xA68 JUMPI PUSH1 0x40 MLOAD PUSH32 0x8C379A000000000000000000000000000000000000000000000000000000000 DUP2 MSTORE PUSH1 0x4 ADD PUSH2 0xA5F SWAP1 PUSH2 0x3767 JUMP JUMPDEST PUSH1 0x40 MLOAD DUP1 SWAP2 SUB SWAP1 REVERT JUMPDEST PUSH2 0xA71 DUP2 PUSH2 0xEC6 JUMP JUMPDEST PUSH2 0xAB0 JUMPI PUSH1 0x40 MLOAD PUSH32 0x8C379A000000000000000000000000000000000000000000000000000000000 DUP2 MSTORE PUSH1 0x4 ADD PUSH2 0xAA7 SWAP1 PUSH2 0x37D3 JUMP JUMPDEST PUSH1 0x40 MLOAD DUP1 SWAP2 SUB SWAP1 REVERT JUMPDEST PUSH1 0xA SLOAD CALLVALUE LT ISZERO PUSH2 0xAF5 JUMPI PUSH1 0x40 MLOAD PUSH32 0x8C379A000000000000000000000000000000000000000000000000000000000 DUP2 MSTORE PUSH1 0x4 ADD PUSH2 0xAEC SWAP1 PUSH2 0x383F JUMP JUMPDEST PUSH1 0x40 MLOAD DUP1 SWAP2 SUB SWAP1 REVERT JUMPDEST PUSH1 0x0 PUSH20 0xFFFFFFFFFFFFFFFFFFFFFFFFFFFFFFFFFFFFFFFF AND PUSH1 0xD PUSH1 0x0 DUP4 DUP2 MSTORE PUSH1 0x20 ADD SWAP1 DUP2 MSTORE PUSH1 0x20 ADD PUSH1 0x0 KECCAK256 PUSH1 0x0 SWAP1 SLOAD SWAP1 PUSH2 0x100 EXP SWAP1 DIV PUSH20 0xFFFFFFFFFFFFFFFFFFFFFFFFFFFFFFFFFFFFFFFF AND PUSH20 0xFFFFFFFFFFFFFFFFFFFFFFFFFFFFFFFFFFFFFFFF AND EQ PUSH2 0xB97 JUMPI PUSH1 0x40 MLOAD PUSH32 0x8C379A000000000000000000000000000000000000000000000000000000000 DUP2 MSTORE PUSH1 0x4 ADD PUSH2 0xB8E SWAP1 PUSH2 0x38AB JUMP JUMPDEST PUSH1 0x40 MLOAD DUP1 SWAP2 SUB SWAP1 REVERT JUMPDEST PUSH1 0x0 PUSH2 0xBA2 DUP3 PUSH2 0xF69 JUMP JUMPDEST SWAP1 POP CALLER PUSH20 0xFFFFFFFFFFFFFFFFFFFFFFFFFFFFFFFFFFFFFFFF AND DUP2 PUSH20 0xFFFFFFFFFFFFFFFFFFFFFFFFFFFFFFFFFFFFFFFF AND SUB PUSH2 0xC12 JUMPI PUSH1 0x40 MLOAD PUSH32 0x8C379A000000000000000000000000000000000000000000000000000000000 DUP2 MSTORE PUSH1 0x4 ADD PUSH2 0xC09 SWAP1 PUSH2 0x3917 JUMP JUMPDEST PUSH1 0x40 MLOAD DUP1 SWAP2 SUB SWAP1 REVERT JUMPDEST PUSH1 0x0 PUSH1 0xA SLOAD CALLVALUE PUSH2 0xC22 SWAP2 SWAP1 PUSH2 0x3966 JUMP JUMPDEST SWAP1 POP PUSH2 0xC2F DUP3 CALLER DUP6 PUSH2 0x1ECC JUMP JUMPDEST PUSH2 0xC3A DUP4 PUSH1 0x0 PUSH2 0x21C5 JUMP JUMPDEST PUSH1 0x0 DUP3 PUSH20 0xFFFFFFFFFFFFFFFFFFFFFFFFFFFFFFFFFFFFFFFF AND PUSH1 0xA SLOAD PUSH1 0x40 MLOAD PUSH2 0xC62 SWAP1 PUSH2 0x39CB JUMP JUMPDEST PUSH1 0x0 PUSH1 0x40 MLOAD DUP1 DUP4 SUB DUP2 DUP6 DUP8 GAS CALL SWAP3 POP POP POP RETURNDATASIZE DUP1 PUSH1 0x0 DUP2 EQ PUSH2 0xC9F JUMPI PUSH1 0x40 MLOAD SWAP2 POP PUSH1 0x1F NOT PUSH1 0x3F RETURNDATASIZE ADD AND DUP3 ADD PUSH1 0x40 MSTORE RETURNDATASIZE DUP3 MSTORE RETURNDATASIZE PUSH1 0x0 PUSH1 0x20 DUP5 ADD RETURNDATACOPY PUSH2 0xCA4 JUMP JUMPDEST PUSH1 0x60 SWAP2 POP JUMPDEST POP POP SWAP1 POP DUP1 PUSH2 0xCE8 JUMPI PUSH1 0x40 MLOAD PUSH32 0x8C379A000000000000000000000000000000000000000000000000000000000 DUP2 MSTORE PUSH1 0x4 ADD PUSH2 0xCDF SWAP1 PUSH2 0x3A2C JUMP JUMPDEST PUSH1 0x40 MLOAD DUP1 SWAP2 SUB SWAP1 REVERT JUMPDEST PUSH1 0x0 DUP3 GT ISZERO PUSH2 0xD9F JUMPI PUSH1 0x0 CALLER PUSH20 0xFFFFFFFFFFFFFFFFFFFFFFFFFFFFFFFFFFFFFFFF AND DUP4 PUSH1 0x40 MLOAD PUSH2 0xD17 SWAP1 PUSH2 0x39CB JUMP JUMPDEST PUSH1 0x0 PUSH1 0x40 MLOAD DUP1 DUP4 SUB DUP2 DUP6 DUP8 GAS CALL SWAP3 POP POP POP RETURNDATASIZE DUP1 PUSH1 0x0 DUP2 EQ PUSH2 0xD54 JUMPI PUSH1 0x40 MLOAD SWAP2 POP PUSH1 0x1F NOT PUSH1 0x3F RETURNDATASIZE ADD AND DUP3 ADD PUSH1 0x40 MSTORE RETURNDATASIZE DUP3 MSTORE RETURNDATASIZE PUSH1 0x0 PUSH1 0x20 DUP5 ADD RETURNDATACOPY PUSH2 0xD59 JUMP JUMPDEST PUSH1 0x60 SWAP2 POP JUMPDEST POP POP SWAP1 POP DUP1 PUSH2 0xD9D JUMPI PUSH1 0x40 MLOAD PUSH32 0x8C379A000000000000000000000000000000000000000000000000000000000 DUP2 MSTORE PUSH1 0x4 ADD PUSH2 0xD94 SWAP1 PUSH2 0x3A98 JUMP JUMPDEST PUSH1 0x40 MLOAD DUP1 SWAP2 SUB SWAP1 REVERT JUMPDEST POP JUMPDEST PUSH32 0xF6CCC0CF89C21C54724EA6EF2EC01DA8FE33A1CEBE06607E160FD78483EBA302 DUP4 CALLER DUP7 PUSH1 0xA SLOAD PUSH1 0x40 MLOAD PUSH2 0xDD6 SWAP5 SWAP4 SWAP3 SWAP2 SWAP1 PUSH2 0x3AB8 JUMP JUMPDEST PUSH1 0x40 MLOAD DUP1 SWAP2 SUB SWAP1 LOG1 POP POP POP PUSH2 0xDE9 PUSH2 0x2216 JUMP JUMPDEST POP JUMP JUMPDEST PUSH2 0xDFD PUSH2 0xDF7 PUSH2 0x1D31 JUMP JUMPDEST DUP3 PUSH2 0x2220 JUMP JUMPDEST PUSH2 0xE3C JUMPI PUSH1 0x40 MLOAD PUSH32 0x8C379A000000000000000000000000000000000000000000000000000000000 DUP2 MSTORE PUSH1 0x4 ADD PUSH2 0xE33 SWAP1 PUSH2 0x3B6F JUMP JUMPDEST PUSH1 0x40 MLOAD DUP1 SWAP2 SUB SWAP1 REVERT JUMPDEST PUSH2 0xE47 DUP4 DUP4 DUP4 PUSH2 0x1ECC JUMP JUMPDEST POP POP POP JUMP JUMPDEST PUSH1 0x14 DUP2 JUMP JUMPDEST PUSH2 0xE59 PUSH2 0x22B5 JUMP JUMPDEST PUSH2 0xE61 PUSH2 0x2333 JUMP JUMPDEST CALLER PUSH20 0xFFFFFFFFFFFFFFFFFFFFFFFFFFFFFFFFFFFFFFFF AND PUSH32 0x5B65B0C1363B3003DB9BCC5E1FD8805A6D6BF5BF6DC9D3431EE4494CD7D11766 PUSH1 0x40 MLOAD PUSH1 0x40 MLOAD DUP1 SWAP2 SUB SWAP1 LOG2 JUMP JUMPDEST PUSH2 0xEC1 DUP4 DUP4 DUP4 PUSH1 0x40 MLOAD DUP1 PUSH1 0x20 ADD PUSH1 0x40 MSTORE DUP1 PUSH1 0x0 DUP2 MSTORE POP PUSH2 0x1A56 JUMP JUMPDEST POP POP POP JUMP JUMPDEST PUSH1 0x0 DUP1 DUP3 GT DUP1 ISZERO PUSH2 0xED8 JUMPI POP PUSH1 0x14 DUP3 GT ISZERO JUMPDEST PUSH2 0xF17 JUMPI PUSH1 0x40 MLOAD PUSH32 0x8C379A000000000000000000000000000000000000000000000000000000000 DUP2 MSTORE PUSH1 0x4 ADD PUSH2 0xF0E SWAP1 PUSH2 0x3BDB JUMP JUMPDEST PUSH1 0x40 MLOAD DUP1 SWAP2 SUB SWAP1 REVERT JUMPDEST PUSH1 0x0 PUSH1 0x1 DUP4 PUSH2 0xF26 SWAP2 SWAP1 PUSH2 0x3966 JUMP JUMPDEST PUSH1 0x1 SWAP1 SHL PUSH1 0xB SLOAD AND EQ ISZERO SWAP1 POP SWAP2 SWAP1 POP JUMP JUMPDEST PUSH2 0xF3F PUSH2 0x22B5 JUMP JUMPDEST DUP1 PUSH1 0x9 SWAP1 DUP2 PUSH2 0xF4E SWAP2 SWAP1 PUSH2 0x3DA7 JUMP JUMPDEST POP POP JUMP JUMPDEST PUSH1 0x0 PUSH1 0x8 PUSH1 0x0 SWAP1 SLOAD SWAP1 PUSH2 0x100 EXP SWAP1 DIV PUSH1 0xFF AND SWAP1 POP SWAP1 JUMP JUMPDEST PUSH1 0x0 DUP1 PUSH2 0xF75 DUP4 PUSH2 0x2396 JUMP JUMPDEST SWAP1 POP PUSH1 0x0 PUSH20 0xFFFFFFFFFFFFFFFFFFFFFFFFFFFFFFFFFFFFFFFF AND DUP2 PUSH20 0xFFFFFFFFFFFFFFFFFFFFFFFFFFFFFFFFFFFFFFFF AND SUB PUSH2 0xFE6 JUMPI PUSH1 0x40 MLOAD PUSH32 0x8C379A000000000000000000000000000000000000000000000000000000000 DUP2 MSTORE PUSH1 0x4 ADD PUSH2 0xFDD SWAP1 PUSH2 0x3EC5 JUMP JUMPDEST PUSH1 0x40 MLOAD DUP1 SWAP2 SUB SWAP1 REVERT JUMPDEST DUP1 SWAP2 POP POP SWAP2 SWAP1 POP JUMP JUMPDEST PUSH1 0x60 PUSH1 0x0 PUSH1 0xC SLOAD PUSH8 0xFFFFFFFFFFFFFFFF DUP2 GT ISZERO PUSH2 0x100F JUMPI PUSH2 0x100E PUSH2 0x30C6 JUMP JUMPDEST JUMPDEST PUSH1 0x40 MLOAD SWAP1 DUP1 DUP3 MSTORE DUP1 PUSH1 0x20 MUL PUSH1 0x20 ADD DUP3 ADD PUSH1 0x40 MSTORE DUP1 ISZERO PUSH2 0x103D JUMPI DUP2 PUSH1 0x20 ADD PUSH1 0x20 DUP3 MUL DUP1 CALLDATASIZE DUP4 CALLDATACOPY DUP1 DUP3 ADD SWAP2 POP POP SWAP1 POP JUMPDEST POP SWAP1 POP PUSH1 0x0 DUP1 PUSH1 0x1 SWAP1 POP JUMPDEST PUSH1 0xC SLOAD DUP2 GT PUSH2 0x110C JUMPI PUSH2 0x105A DUP2 PUSH2 0xEC6 JUMP JUMPDEST DUP1 ISZERO PUSH2 0x10C5 JUMPI POP PUSH1 0x0 PUSH20 0xFFFFFFFFFFFFFFFFFFFFFFFFFFFFFFFFFFFFFFFF AND PUSH1 0xD PUSH1 0x0 DUP4 DUP2 MSTORE PUSH1 0x20 ADD SWAP1 DUP2 MSTORE PUSH1 0x20 ADD PUSH1 0x0 KECCAK256 PUSH1 0x0 SWAP1 SLOAD SWAP1 PUSH2 0x100 EXP SWAP1 DIV PUSH20 0xFFFFFFFFFFFFFFFFFFFFFFFFFFFFFFFFFFFFFFFF AND PUSH20 0xFFFFFFFFFFFFFFFFFFFFFFFFFFFFFFFFFFFFFFFF AND EQ JUMPDEST ISZERO PUSH2 0x10F9 JUMPI DUP1 DUP4 DUP4 DUP2 MLOAD DUP2 LT PUSH2 0x10DE JUMPI PUSH2 0x10DD PUSH2 0x3EE5 JUMP JUMPDEST JUMPDEST PUSH1 0x20 MUL PUSH1 0x20 ADD ADD DUP2 DUP2 MSTORE POP POP DUP2 DUP1 PUSH2 0x10F5 SWAP1 PUSH2 0x3F14 JUMP JUMPDEST SWAP3 POP POP JUMPDEST DUP1 DUP1 PUSH2 0x1104 SWAP1 PUSH2 0x3F14 JUMP JUMPDEST SWAP2 POP POP PUSH2 0x1048 JUMP JUMPDEST POP PUSH1 0x0 DUP2 PUSH8 0xFFFFFFFFFFFFFFFF DUP2 GT ISZERO PUSH2 0x1129 JUMPI PUSH2 0x1128 PUSH2 0x30C6 JUMP JUMPDEST JUMPDEST PUSH1 0x40 MLOAD SWAP1 DUP1 DUP3 MSTORE DUP1 PUSH1 0x20 MUL PUSH1 0x20 ADD DUP3 ADD PUSH1 0x40 MSTORE DUP1 ISZERO PUSH2 0x1157 JUMPI DUP2 PUSH1 0x20 ADD PUSH1 0x20 DUP3 MUL DUP1 CALLDATASIZE DUP4 CALLDATACOPY DUP1 DUP3 ADD SWAP2 POP POP SWAP1 POP JUMPDEST POP SWAP1 POP PUSH1 0x0 JUMPDEST DUP3 DUP2 LT ISZERO PUSH2 0x11B2 JUMPI DUP4 DUP2 DUP2 MLOAD DUP2 LT PUSH2 0x1178 JUMPI PUSH2 0x1177 PUSH2 0x3EE5 JUMP JUMPDEST JUMPDEST PUSH1 0x20 MUL PUSH1 0x20 ADD ADD MLOAD DUP3 DUP3 DUP2 MLOAD DUP2 LT PUSH2 0x1193 JUMPI PUSH2 0x1192 PUSH2 0x3EE5 JUMP JUMPDEST JUMPDEST PUSH1 0x20 MUL PUSH1 0x20 ADD ADD DUP2 DUP2 MSTORE POP POP DUP1 DUP1 PUSH2 0x11AA SWAP1 PUSH2 0x3F14 JUMP JUMPDEST SWAP2 POP POP PUSH2 0x115D JUMP JUMPDEST POP DUP1 SWAP4 POP POP POP POP SWAP1 JUMP JUMPDEST PUSH1 0xA SLOAD DUP2 JUMP JUMPDEST PUSH1 0x0 DUP1 PUSH20 0xFFFFFFFFFFFFFFFFFFFFFFFFFFFFFFFFFFFFFFFF AND DUP3 PUSH20 0xFFFFFFFFFFFFFFFFFFFFFFFFFFFFFFFFFFFFFFFF AND SUB PUSH2 0x1232 JUMPI PUSH1 0x40 MLOAD PUSH32 0x8C379A000000000000000000000000000000000000000000000000000000000 DUP2 MSTORE PUSH1 0x4 ADD PUSH2 0x1229 SWAP1 PUSH2 0x3FCE JUMP JUMPDEST PUSH1 0x40 MLOAD DUP1 SWAP2 SUB SWAP1 REVERT JUMPDEST PUSH1 0x3 PUSH1 0x0 DUP4 PUSH20 0xFFFFFFFFFFFFFFFFFFFFFFFFFFFFFFFFFFFFFFFF AND PUSH20 0xFFFFFFFFFFFFFFFFFFFFFFFFFFFFFFFFFFFFFFFF AND DUP2 MSTORE PUSH1 0x20 ADD SWAP1 DUP2 MSTORE PUSH1 0x20 ADD PUSH1 0x0 KECCAK256 SLOAD SWAP1 POP SWAP2 SWAP1 POP JUMP JUMPDEST PUSH2 0x1281 PUSH2 0x22B5 JUMP JUMPDEST PUSH2 0x128B PUSH1 0x0 PUSH2 0x23D3 JUMP JUMPDEST JUMP JUMPDEST PUSH2 0x1296 DUP3 PUSH2 0x1E8B JUMP JUMPDEST PUSH2 0x12D5 JUMPI PUSH1 0x40 MLOAD PUSH32 0x8C379A000000000000000000000000000000000000000000000000000000000 DUP2 MSTORE PUSH1 0x4 ADD PUSH2 0x12CC SWAP1 PUSH2 0x3767 JUMP JUMPDEST PUSH1 0x40 MLOAD DUP1 SWAP2 SUB SWAP1 REVERT JUMPDEST PUSH2 0x12DD PUSH2 0x1D31 JUMP JUMPDEST PUSH20 0xFFFFFFFFFFFFFFFFFFFFFFFFFFFFFFFFFFFFFFFF AND PUSH2 0x12FC DUP4 PUSH2 0xF69 JUMP JUMPDEST PUSH20 0xFFFFFFFFFFFFFFFFFFFFFFFFFFFFFFFFFFFFFFFF AND EQ PUSH2 0x1352 JUMPI PUSH1 0x40 MLOAD PUSH32 0x8C379A000000000000000000000000000000000000000000000000000000000 DUP2 MSTORE PUSH1 0x4 ADD PUSH2 0x1349 SWAP1 PUSH2 0x403A JUMP JUMPDEST PUSH1 0x40 MLOAD DUP1 SWAP2 SUB SWAP1 REVERT JUMPDEST PUSH2 0x135C DUP3 DUP3 PUSH2 0x21C5 JUMP JUMPDEST DUP1 ISZERO PUSH2 0x139E JUMPI PUSH32 0xBF9C5E85A8D8565A3D499B4EA68B35DA3E8466CC67B9DCE4EBD4BF93BC90D538 DUP3 PUSH1 0x40 MLOAD PUSH2 0x1391 SWAP2 SWAP1 PUSH2 0x30A1 JUMP JUMPDEST PUSH1 0x40 MLOAD DUP1 SWAP2 SUB SWAP1 LOG1 PUSH2 0x13D6 JUMP JUMPDEST PUSH32 0xCCD0B7AF52BF5F08EC6781299E66283301E612D1CA1FFCEAB3579A6364073C30 DUP3 PUSH1 0x40 MLOAD PUSH2 0x13CD SWAP2 SWAP1 PUSH2 0x30A1 JUMP JUMPDEST PUSH1 0x40 MLOAD DUP1 SWAP2 SUB SWAP1 LOG1 JUMPDEST POP POP JUMP JUMPDEST PUSH2 0x13E2 PUSH2 0x22B5 JUMP JUMPDEST PUSH2 0x13EA PUSH2 0x2499 JUMP JUMPDEST CALLER PUSH20 0xFFFFFFFFFFFFFFFFFFFFFFFFFFFFFFFFFFFFFFFF AND PUSH32 0x81990FD9A5C552B8E3677917D8A03C07678F0D2CB68F88B634ACA2022E9BD19F PUSH1 0x40 MLOAD PUSH1 0x40 MLOAD DUP1 SWAP2 SUB SWAP1 LOG2 JUMP JUMPDEST PUSH2 0x1437 PUSH2 0x22B5 JUMP JUMPDEST PUSH1 0x14 DUP2 PUSH1 0xC SLOAD PUSH2 0x1447 SWAP2 SWAP1 PUSH2 0x405A JUMP JUMPDEST GT ISZERO PUSH2 0x1488 JUMPI PUSH1 0x40 MLOAD PUSH32 0x8C379A000000000000000000000000000000000000000000000000000000000 DUP2 MSTORE PUSH1 0x4 ADD PUSH2 0x147F SWAP1 PUSH2 0x40DA JUMP JUMPDEST PUSH1 0x40 MLOAD DUP1 SWAP2 SUB SWAP1 REVERT JUMPDEST PUSH1 0x0 PUSH2 0x1492 PUSH2 0x1D31 JUMP JUMPDEST SWAP1 POP PUSH1 0x0 JUMPDEST DUP3 DUP2 LT ISZERO PUSH2 0x151E JUMPI PUSH1 0xC PUSH1 0x0 DUP2 SLOAD DUP1 SWAP3 SWAP2 SWAP1 PUSH2 0x14B2 SWAP1 PUSH2 0x3F14 JUMP JUMPDEST SWAP2 SWAP1 POP SSTORE POP PUSH2 0x14C3 DUP3 PUSH1 0xC SLOAD PUSH2 0x24FC JUMP JUMPDEST PUSH2 0x14D0 PUSH1 0xC SLOAD PUSH1 0x1 PUSH2 0x21C5 JUMP JUMPDEST PUSH32 0x4CC0A9C4A99DDC700DE1AF2C9F916A7CBFDB71F14801CCFF94061AD1EF8A8040 DUP3 PUSH1 0xC SLOAD PUSH1 0x40 MLOAD PUSH2 0x1503 SWAP3 SWAP2 SWAP1 PUSH2 0x40FA JUMP JUMPDEST PUSH1 0x40 MLOAD DUP1 SWAP2 SUB SWAP1 LOG1 DUP1 DUP1 PUSH2 0x1516 SWAP1 PUSH2 0x3F14 JUMP JUMPDEST SWAP2 POP POP PUSH2 0x1497 JUMP JUMPDEST POP POP POP JUMP JUMPDEST PUSH1 0x0 PUSH1 0x6 PUSH1 0x0 SWAP1 SLOAD SWAP1 PUSH2 0x100 EXP SWAP1 DIV PUSH20 0xFFFFFFFFFFFFFFFFFFFFFFFFFFFFFFFFFFFFFFFF AND SWAP1 POP SWAP1 JUMP JUMPDEST PUSH1 0x60 PUSH1 0x1 DUP1 SLOAD PUSH2 0x155C SWAP1 PUSH2 0x35C6 JUMP JUMPDEST DUP1 PUSH1 0x1F ADD PUSH1 0x20 DUP1 SWAP2 DIV MUL PUSH1 0x20 ADD PUSH1 0x40 MLOAD SWAP1 DUP2 ADD PUSH1 0x40 MSTORE DUP1 SWAP3 SWAP2 SWAP1 DUP2 DUP2 MSTORE PUSH1 0x20 ADD DUP3 DUP1 SLOAD PUSH2 0x1588 SWAP1 PUSH2 0x35C6 JUMP JUMPDEST DUP1 ISZERO PUSH2 0x15D5 JUMPI DUP1 PUSH1 0x1F LT PUSH2 0x15AA JUMPI PUSH2 0x100 DUP1 DUP4 SLOAD DIV MUL DUP4 MSTORE SWAP2 PUSH1 0x20 ADD SWAP2 PUSH2 0x15D5 JUMP JUMPDEST DUP3 ADD SWAP2 SWAP1 PUSH1 0x0 MSTORE PUSH1 0x20 PUSH1 0x0 KECCAK256 SWAP1 JUMPDEST DUP2 SLOAD DUP2 MSTORE SWAP1 PUSH1 0x1 ADD SWAP1 PUSH1 0x20 ADD DUP1 DUP4 GT PUSH2 0x15B8 JUMPI DUP3 SWAP1 SUB PUSH1 0x1F AND DUP3 ADD SWAP2 JUMPDEST POP POP POP POP POP SWAP1 POP SWAP1 JUMP JUMPDEST PUSH2 0x15F1 PUSH2 0x15EA PUSH2 0x1D31 JUMP JUMPDEST DUP4 DUP4 PUSH2 0x2719 JUMP JUMPDEST POP POP JUMP JUMPDEST PUSH2 0x15FD PUSH2 0x1DF2 JUMP JUMPDEST PUSH2 0x1605 PUSH2 0x1E41 JUMP JUMPDEST PUSH2 0x160E DUP2 PUSH2 0x1E8B JUMP JUMPDEST PUSH2 0x164D JUMPI PUSH1 0x40 MLOAD PUSH32 0x8C379A000000000000000000000000000000000000000000000000000000000 DUP2 MSTORE PUSH1 0x4 ADD PUSH2 0x1644 SWAP1 PUSH2 0x3767 JUMP JUMPDEST PUSH1 0x40 MLOAD DUP1 SWAP2 SUB SWAP1 REVERT JUMPDEST CALLER PUSH20 0xFFFFFFFFFFFFFFFFFFFFFFFFFFFFFFFFFFFFFFFF AND PUSH1 0xD PUSH1 0x0 DUP4 DUP2 MSTORE PUSH1 0x20 ADD SWAP1 DUP2 MSTORE PUSH1 0x20 ADD PUSH1 0x0 KECCAK256 PUSH1 0x0 SWAP1 SLOAD SWAP1 PUSH2 0x100 EXP SWAP1 DIV PUSH20 0xFFFFFFFFFFFFFFFFFFFFFFFFFFFFFFFFFFFFFFFF AND PUSH20 0xFFFFFFFFFFFFFFFFFFFFFFFFFFFFFFFFFFFFFFFF AND EQ PUSH2 0x16EE JUMPI PUSH1 0x40 MLOAD PUSH32 0x8C379A000000000000000000000000000000000000000000000000000000000 DUP2 MSTORE PUSH1 0x4 ADD PUSH2 0x16E5 SWAP1 PUSH2 0x416F JUMP JUMPDEST PUSH1 0x40 MLOAD DUP1 SWAP2 SUB SWAP1 REVERT JUMPDEST PUSH1 0x0 PUSH2 0x16F9 DUP3 PUSH2 0xF69 JUMP JUMPDEST SWAP1 POP PUSH2 0x1703 PUSH2 0x1523 JUMP JUMPDEST PUSH20 0xFFFFFFFFFFFFFFFFFFFFFFFFFFFFFFFFFFFFFFFF AND DUP2 PUSH20 0xFFFFFFFFFFFFFFFFFFFFFFFFFFFFFFFFFFFFFFFF AND EQ PUSH2 0x1770 JUMPI PUSH1 0x40 MLOAD PUSH32 0x8C379A000000000000000000000000000000000000000000000000000000000 DUP2 MSTORE PUSH1 0x4 ADD PUSH2 0x1767 SWAP1 PUSH2 0x4201 JUMP JUMPDEST PUSH1 0x40 MLOAD DUP1 SWAP2 SUB SWAP1 REVERT JUMPDEST PUSH2 0x177B DUP2 CALLER DUP5 PUSH2 0x1ECC JUMP JUMPDEST PUSH1 0x0 PUSH1 0xD PUSH1 0x0 DUP5 DUP2 MSTORE PUSH1 0x20 ADD SWAP1 DUP2 MSTORE PUSH1 0x20 ADD PUSH1 0x0 KECCAK256 PUSH1 0x0 PUSH2 0x100 EXP DUP2 SLOAD DUP2 PUSH20 0xFFFFFFFFFFFFFFFFFFFFFFFFFFFFFFFFFFFFFFFF MUL NOT AND SWAP1 DUP4 PUSH20 0xFFFFFFFFFFFFFFFFFFFFFFFFFFFFFFFFFFFFFFFF AND MUL OR SWAP1 SSTORE POP PUSH32 0x8B224B108D8F9C6D554B41182503C3F8B79DFCF17233A9366D50C386C28AF850 DUP3 CALLER PUSH1 0x40 MLOAD PUSH2 0x17FF SWAP3 SWAP2 SWAP1 PUSH2 0x4221 JUMP JUMPDEST PUSH1 0x40 MLOAD DUP1 SWAP2 SUB SWAP1 LOG1 POP PUSH2 0x1810 PUSH2 0x2216 JUMP JUMPDEST POP JUMP JUMPDEST PUSH2 0x181B PUSH2 0x22B5 JUMP JUMPDEST PUSH2 0x1824 DUP3 PUSH2 0x1E8B JUMP JUMPDEST PUSH2 0x1863 JUMPI PUSH1 0x40 MLOAD PUSH32 0x8C379A000000000000000000000000000000000000000000000000000000000 DUP2 MSTORE PUSH1 0x4 ADD PUSH2 0x185A SWAP1 PUSH2 0x3767 JUMP JUMPDEST PUSH1 0x40 MLOAD DUP1 SWAP2 SUB SWAP1 REVERT JUMPDEST PUSH2 0x186C DUP3 PUSH2 0xEC6 JUMP JUMPDEST PUSH2 0x18AB JUMPI PUSH1 0x40 MLOAD PUSH32 0x8C379A000000000000000000000000000000000000000000000000000000000 DUP2 MSTORE PUSH1 0x4 ADD PUSH2 0x18A2 SWAP1 PUSH2 0x37D3 JUMP JUMPDEST PUSH1 0x40 MLOAD DUP1 SWAP2 SUB SWAP1 REVERT JUMPDEST PUSH1 0x0 PUSH20 0xFFFFFFFFFFFFFFFFFFFFFFFFFFFFFFFFFFFFFFFF AND DUP2 PUSH20 0xFFFFFFFFFFFFFFFFFFFFFFFFFFFFFFFFFFFFFFFF AND SUB PUSH2 0x191A JUMPI PUSH1 0x40 MLOAD PUSH32 0x8C379A000000000000000000000000000000000000000000000000000000000 DUP2 MSTORE PUSH1 0x4 ADD PUSH2 0x1911 SWAP1 PUSH2 0x4296 JUMP JUMPDEST PUSH1 0x40 MLOAD DUP1 SWAP2 SUB SWAP1 REVERT JUMPDEST PUSH1 0x0 PUSH20 0xFFFFFFFFFFFFFFFFFFFFFFFFFFFFFFFFFFFFFFFF AND PUSH1 0xD PUSH1 0x0 DUP5 DUP2 MSTORE PUSH1 0x20 ADD SWAP1 DUP2 MSTORE PUSH1 0x20 ADD PUSH1 0x0 KECCAK256 PUSH1 0x0 SWAP1 SLOAD SWAP1 PUSH2 0x100 EXP SWAP1 DIV PUSH20 0xFFFFFFFFFFFFFFFFFFFFFFFFFFFFFFFFFFFFFFFF AND PUSH20 0xFFFFFFFFFFFFFFFFFFFFFFFFFFFFFFFFFFFFFFFF AND EQ PUSH2 0x19BC JUMPI PUSH1 0x40 MLOAD PUSH32 0x8C379A000000000000000000000000000000000000000000000000000000000 DUP2 MSTORE PUSH1 0x4 ADD PUSH2 0x19B3 SWAP1 PUSH2 0x4302 JUMP JUMPDEST PUSH1 0x40 MLOAD DUP1 SWAP2 SUB SWAP1 REVERT JUMPDEST PUSH2 0x19C7 DUP3 PUSH1 0x0 PUSH2 0x21C5 JUMP JUMPDEST DUP1 PUSH1 0xD PUSH1 0x0 DUP5 DUP2 MSTORE PUSH1 0x20 ADD SWAP1 DUP2 MSTORE PUSH1 0x20 ADD PUSH1 0x0 KECCAK256 PUSH1 0x0 PUSH2 0x100 EXP DUP2 SLOAD DUP2 PUSH20 0xFFFFFFFFFFFFFFFFFFFFFFFFFFFFFFFFFFFFFFFF MUL NOT AND SWAP1 DUP4 PUSH20 0xFFFFFFFFFFFFFFFFFFFFFFFFFFFFFFFFFFFFFFFF AND MUL OR SWAP1 SSTORE POP PUSH32 0xD9E06ACA9C09BFEC0D0ACFDFC2DC2D2AA8564C3E0950891DC198FF7809146A3E DUP3 DUP3 PUSH1 0x40 MLOAD PUSH2 0x1A4A SWAP3 SWAP2 SWAP1 PUSH2 0x4221 JUMP JUMPDEST PUSH1 0x40 MLOAD DUP1 SWAP2 SUB SWAP1 LOG1 POP POP JUMP JUMPDEST PUSH2 0x1A67 PUSH2 0x1A61 PUSH2 0x1D31 JUMP JUMPDEST DUP4 PUSH2 0x2220 JUMP JUMPDEST PUSH2 0x1AA6 JUMPI PUSH1 0x40 MLOAD PUSH32 0x8C379A000000000000000000000000000000000000000000000000000000000 DUP2 MSTORE PUSH1 0x4 ADD PUSH2 0x1A9D SWAP1 PUSH2 0x3B6F JUMP JUMPDEST PUSH1 0x40 MLOAD DUP1 SWAP2 SUB SWAP1 REVERT JUMPDEST PUSH2 0x1AB2 DUP5 DUP5 DUP5 DUP5 PUSH2 0x2885 JUMP JUMPDEST POP POP POP POP JUMP JUMPDEST PUSH1 0x60 PUSH2 0x1AC3 DUP3 PUSH2 0x1CE6 JUMP JUMPDEST PUSH1 0x0 PUSH2 0x1ACD PUSH2 0x28E1 JUMP JUMPDEST SWAP1 POP PUSH1 0x0 DUP2 MLOAD GT PUSH2 0x1AED JUMPI PUSH1 0x40 MLOAD DUP1 PUSH1 0x20 ADD PUSH1 0x40 MSTORE DUP1 PUSH1 0x0 DUP2 MSTORE POP PUSH2 0x1B18 JUMP JUMPDEST DUP1 PUSH2 0x1AF7 DUP5 PUSH2 0x2973 JUMP JUMPDEST PUSH1 0x40 MLOAD PUSH1 0x20 ADD PUSH2 0x1B08 SWAP3 SWAP2 SWAP1 PUSH2 0x435E JUMP JUMPDEST PUSH1 0x40 MLOAD PUSH1 0x20 DUP2 DUP4 SUB SUB DUP2 MSTORE SWAP1 PUSH1 0x40 MSTORE JUMPDEST SWAP2 POP POP SWAP2 SWAP1 POP JUMP JUMPDEST PUSH1 0xD PUSH1 0x20 MSTORE DUP1 PUSH1 0x0 MSTORE PUSH1 0x40 PUSH1 0x0 KECCAK256 PUSH1 0x0 SWAP2 POP SLOAD SWAP1 PUSH2 0x100 EXP SWAP1 DIV PUSH20 0xFFFFFFFFFFFFFFFFFFFFFFFFFFFFFFFFFFFFFFFF AND DUP2 JUMP JUMPDEST PUSH1 0x0 PUSH1 0x5 PUSH1 0x0 DUP5 PUSH20 0xFFFFFFFFFFFFFFFFFFFFFFFFFFFFFFFFFFFFFFFF AND PUSH20 0xFFFFFFFFFFFFFFFFFFFFFFFFFFFFFFFFFFFFFFFF AND DUP2 MSTORE PUSH1 0x20 ADD SWAP1 DUP2 MSTORE PUSH1 0x20 ADD PUSH1 0x0 KECCAK256 PUSH1 0x0 DUP4 PUSH20 0xFFFFFFFFFFFFFFFFFFFFFFFFFFFFFFFFFFFFFFFF AND PUSH20 0xFFFFFFFFFFFFFFFFFFFFFFFFFFFFFFFFFFFFFFFF AND DUP2 MSTORE PUSH1 0x20 ADD SWAP1 DUP2 MSTORE PUSH1 0x20 ADD PUSH1 0x0 KECCAK256 PUSH1 0x0 SWAP1 SLOAD SWAP1 PUSH2 0x100 EXP SWAP1 DIV PUSH1 0xFF AND SWAP1 POP SWAP3 SWAP2 POP POP JUMP JUMPDEST PUSH2 0x1BEF PUSH2 0x22B5 JUMP JUMPDEST PUSH1 0x0 PUSH20 0xFFFFFFFFFFFFFFFFFFFFFFFFFFFFFFFFFFFFFFFF AND DUP2 PUSH20 0xFFFFFFFFFFFFFFFFFFFFFFFFFFFFFFFFFFFFFFFF AND SUB PUSH2 0x1C5E JUMPI PUSH1 0x40 MLOAD PUSH32 0x8C379A000000000000000000000000000000000000000000000000000000000 DUP2 MSTORE PUSH1 0x4 ADD PUSH2 0x1C55 SWAP1 PUSH2 0x43F4 JUMP JUMPDEST PUSH1 0x40 MLOAD DUP1 SWAP2 SUB SWAP1 REVERT JUMPDEST PUSH2 0x1C67 DUP2 PUSH2 0x23D3 JUMP JUMPDEST POP JUMP JUMPDEST PUSH2 0x1C72 PUSH2 0x22B5 JUMP JUMPDEST DUP1 PUSH1 0xA DUP2 SWAP1 SSTORE POP POP JUMP JUMPDEST PUSH1 0x0 PUSH32 0x1FFC9A700000000000000000000000000000000000000000000000000000000 PUSH28 0xFFFFFFFFFFFFFFFFFFFFFFFFFFFFFFFFFFFFFFFFFFFFFFFFFFFFFFFF NOT AND DUP3 PUSH28 0xFFFFFFFFFFFFFFFFFFFFFFFFFFFFFFFFFFFFFFFFFFFFFFFFFFFFFFFF NOT AND EQ SWAP1 POP SWAP2 SWAP1 POP JUMP JUMPDEST PUSH2 0x1CEF DUP2 PUSH2 0x1E8B JUMP JUMPDEST PUSH2 0x1D2E JUMPI PUSH1 0x40 MLOAD PUSH32 0x8C379A000000000000000000000000000000000000000000000000000000000 DUP2 MSTORE PUSH1 0x4 ADD PUSH2 0x1D25 SWAP1 PUSH2 0x3EC5 JUMP JUMPDEST PUSH1 0x40 MLOAD DUP1 SWAP2 SUB SWAP1 REVERT JUMPDEST POP JUMP JUMPDEST PUSH1 0x0 CALLER SWAP1 POP SWAP1 JUMP JUMPDEST DUP2 PUSH1 0x4 PUSH1 0x0 DUP4 DUP2 MSTORE PUSH1 0x20 ADD SWAP1 DUP2 MSTORE PUSH1 0x20 ADD PUSH1 0x0 KECCAK256 PUSH1 0x0 PUSH2 0x100 EXP DUP2 SLOAD DUP2 PUSH20 0xFFFFFFFFFFFFFFFFFFFFFFFFFFFFFFFFFFFFFFFF MUL NOT AND SWAP1 DUP4 PUSH20 0xFFFFFFFFFFFFFFFFFFFFFFFFFFFFFFFFFFFFFFFF AND MUL OR SWAP1 SSTORE POP DUP1 DUP3 PUSH20 0xFFFFFFFFFFFFFFFFFFFFFFFFFFFFFFFFFFFFFFFF AND PUSH2 0x1DAC DUP4 PUSH2 0xF69 JUMP JUMPDEST PUSH20 0xFFFFFFFFFFFFFFFFFFFFFFFFFFFFFFFFFFFFFFFF AND PUSH32 0x8C5BE1E5EBEC7D5BD14F71427D1E84F3DD0314C0F7B2291E5B200AC8C7C3B925 PUSH1 0x40 MLOAD PUSH1 0x40 MLOAD DUP1 SWAP2 SUB SWAP1 LOG4 POP POP JUMP JUMPDEST PUSH1 0x2 PUSH1 0x7 SLOAD SUB PUSH2 0x1E37 JUMPI PUSH1 0x40 MLOAD PUSH32 0x8C379A000000000000000000000000000000000000000000000000000000000 DUP2 MSTORE PUSH1 0x4 ADD PUSH2 0x1E2E SWAP1 PUSH2 0x4460 JUMP JUMPDEST PUSH1 0x40 MLOAD DUP1 SWAP2 SUB SWAP1 REVERT JUMPDEST PUSH1 0x2 PUSH1 0x7 DUP2 SWAP1 SSTORE POP JUMP JUMPDEST PUSH2 0x1E49 PUSH2 0xF52 JUMP JUMPDEST ISZERO PUSH2 0x1E89 JUMPI PUSH1 0x40 MLOAD PUSH32 0x8C379A000000000000000000000000000000000000000000000000000000000 DUP2 MSTORE PUSH1 0x4 ADD PUSH2 0x1E80 SWAP1 PUSH2 0x44CC JUMP JUMPDEST PUSH1 0x40 MLOAD DUP1 SWAP2 SUB SWAP1 REVERT JUMPDEST JUMP JUMPDEST PUSH1 0x0 DUP1 PUSH20 0xFFFFFFFFFFFFFFFFFFFFFFFFFFFFFFFFFFFFFFFF AND PUSH2 0x1EAD DUP4 PUSH2 0x2396 JUMP JUMPDEST PUSH20 0xFFFFFFFFFFFFFFFFFFFFFFFFFFFFFFFFFFFFFFFF AND EQ ISZERO SWAP1 POP SWAP2 SWAP1 POP JUMP JUMPDEST DUP3 PUSH20 0xFFFFFFFFFFFFFFFFFFFFFFFFFFFFFFFFFFFFFFFF AND PUSH2 0x1EEC DUP3 PUSH2 0xF69 JUMP JUMPDEST PUSH20 0xFFFFFFFFFFFFFFFFFFFFFFFFFFFFFFFFFFFFFFFF AND EQ PUSH2 0x1F42 JUMPI PUSH1 0x40 MLOAD PUSH32 0x8C379A000000000000000000000000000000000000000000000000000000000 DUP2 MSTORE PUSH1 0x4 ADD PUSH2 0x1F39 SWAP1 PUSH2 0x455E JUMP JUMPDEST PUSH1 0x40 MLOAD DUP1 SWAP2 SUB SWAP1 REVERT JUMPDEST PUSH1 0x0 PUSH20 0xFFFFFFFFFFFFFFFFFFFFFFFFFFFFFFFFFFFFFFFF AND DUP3 PUSH20 0xFFFFFFFFFFFFFFFFFFFFFFFFFFFFFFFFFFFFFFFF AND SUB PUSH2 0x1FB1 JUMPI PUSH1 0x40 MLOAD PUSH32 0x8C379A000000000000000000000000000000000000000000000000000000000 DUP2 MSTORE PUSH1 0x4 ADD PUSH2 0x1FA8 SWAP1 PUSH2 0x45F0 JUMP JUMPDEST PUSH1 0x40 MLOAD DUP1 SWAP2 SUB SWAP1 REVERT JUMPDEST PUSH2 0x1FBE DUP4 DUP4 DUP4 PUSH1 0x1 PUSH2 0x2A41 JUMP JUMPDEST DUP3 PUSH20 0xFFFFFFFFFFFFFFFFFFFFFFFFFFFFFFFFFFFFFFFF AND PUSH2 0x1FDE DUP3 PUSH2 0xF69 JUMP JUMPDEST PUSH20 0xFFFFFFFFFFFFFFFFFFFFFFFFFFFFFFFFFFFFFFFF AND EQ PUSH2 0x2034 JUMPI PUSH1 0x40 MLOAD PUSH32 0x8C379A000000000000000000000000000000000000000000000000000000000 DUP2 MSTORE PUSH1 0x4 ADD PUSH2 0x202B SWAP1 PUSH2 0x455E JUMP JUMPDEST PUSH1 0x40 MLOAD DUP1 SWAP2 SUB SWAP1 REVERT JUMPDEST PUSH1 0x4 PUSH1 0x0 DUP3 DUP2 MSTORE PUSH1 0x20 ADD SWAP1 DUP2 MSTORE PUSH1 0x20 ADD PUSH1 0x0 KECCAK256 PUSH1 0x0 PUSH2 0x100 EXP DUP2 SLOAD SWAP1 PUSH20 0xFFFFFFFFFFFFFFFFFFFFFFFFFFFFFFFFFFFFFFFF MUL NOT AND SWAP1 SSTORE PUSH1 0x1 PUSH1 0x3 PUSH1 0x0 DUP6 PUSH20 0xFFFFFFFFFFFFFFFFFFFFFFFFFFFFFFFFFFFFFFFF AND PUSH20 0xFFFFFFFFFFFFFFFFFFFFFFFFFFFFFFFFFFFFFFFF AND DUP2 MSTORE PUSH1 0x20 ADD SWAP1 DUP2 MSTORE PUSH1 0x20 ADD PUSH1 0x0 KECCAK256 PUSH1 0x0 DUP3 DUP3 SLOAD SUB SWAP3 POP POP DUP2 SWAP1 SSTORE POP PUSH1 0x1 PUSH1 0x3 PUSH1 0x0 DUP5 PUSH20 0xFFFFFFFFFFFFFFFFFFFFFFFFFFFFFFFFFFFFFFFF AND PUSH20 0xFFFFFFFFFFFFFFFFFFFFFFFFFFFFFFFFFFFFFFFF AND DUP2 MSTORE PUSH1 0x20 ADD SWAP1 DUP2 MSTORE PUSH1 0x20 ADD PUSH1 0x0 KECCAK256 PUSH1 0x0 DUP3 DUP3 SLOAD ADD SWAP3 POP POP DUP2 SWAP1 SSTORE POP DUP2 PUSH1 0x2 PUSH1 0x0 DUP4 DUP2 MSTORE PUSH1 0x20 ADD SWAP1 DUP2 MSTORE PUSH1 0x20 ADD PUSH1 0x0 KECCAK256 PUSH1 0x0 PUSH2 0x100 EXP DUP2 SLOAD DUP2 PUSH20 0xFFFFFFFFFFFFFFFFFFFFFFFFFFFFFFFFFFFFFFFF MUL NOT AND SWAP1 DUP4 PUSH20 0xFFFFFFFFFFFFFFFFFFFFFFFFFFFFFFFFFFFFFFFF AND MUL OR SWAP1 SSTORE POP DUP1 DUP3 PUSH20 0xFFFFFFFFFFFFFFFFFFFFFFFFFFFFFFFFFFFFFFFF AND DUP5 PUSH20 0xFFFFFFFFFFFFFFFFFFFFFFFFFFFFFFFFFFFFFFFF AND PUSH32 0xDDF252AD1BE2C89B69C2B068FC378DAA952BA7F163C4A11628F55A4DF523B3EF PUSH1 0x40 MLOAD PUSH1 0x40 MLOAD DUP1 SWAP2 SUB SWAP1 LOG4 PUSH2 0x21C0 DUP4 DUP4 DUP4 PUSH1 0x1 PUSH2 0x2A47 JUMP JUMPDEST POP POP POP JUMP JUMPDEST DUP1 ISZERO PUSH2 0x21F0 JUMPI PUSH1 0x1 DUP3 PUSH2 0x21D8 SWAP2 SWAP1 PUSH2 0x3966 JUMP JUMPDEST PUSH1 0x1 SWAP1 SHL PUSH1 0xB PUSH1 0x0 DUP3 DUP3 SLOAD OR SWAP3 POP POP DUP2 SWAP1 SSTORE POP PUSH2 0x2212 JUMP JUMPDEST PUSH1 0x1 DUP3 PUSH2 0x21FD SWAP2 SWAP1 PUSH2 0x3966 JUMP JUMPDEST PUSH1 0x1 SWAP1 SHL NOT PUSH1 0xB PUSH1 0x0 DUP3 DUP3 SLOAD AND SWAP3 POP POP DUP2 SWAP1 SSTORE POP JUMPDEST POP POP JUMP JUMPDEST PUSH1 0x1 PUSH1 0x7 DUP2 SWAP1 SSTORE POP JUMP JUMPDEST PUSH1 0x0 DUP1 PUSH2 0x222C DUP4 PUSH2 0xF69 JUMP JUMPDEST SWAP1 POP DUP1 PUSH20 0xFFFFFFFFFFFFFFFFFFFFFFFFFFFFFFFFFFFFFFFF AND DUP5 PUSH20 0xFFFFFFFFFFFFFFFFFFFFFFFFFFFFFFFFFFFFFFFF AND EQ DUP1 PUSH2 0x226E JUMPI POP PUSH2 0x226D DUP2 DUP6 PUSH2 0x1B53 JUMP JUMPDEST JUMPDEST DUP1 PUSH2 0x22AC JUMPI POP DUP4 PUSH20 0xFFFFFFFFFFFFFFFFFFFFFFFFFFFFFFFFFFFFFFFF AND PUSH2 0x2294 DUP5 PUSH2 0x8B3 JUMP JUMPDEST PUSH20 0xFFFFFFFFFFFFFFFFFFFFFFFFFFFFFFFFFFFFFFFF AND EQ JUMPDEST SWAP2 POP POP SWAP3 SWAP2 POP POP JUMP JUMPDEST PUSH2 0x22BD PUSH2 0x1D31 JUMP JUMPDEST PUSH20 0xFFFFFFFFFFFFFFFFFFFFFFFFFFFFFFFFFFFFFFFF AND PUSH2 0x22DB PUSH2 0x1523 JUMP JUMPDEST PUSH20 0xFFFFFFFFFFFFFFFFFFFFFFFFFFFFFFFFFFFFFFFF AND EQ PUSH2 0x2331 JUMPI PUSH1 0x40 MLOAD PUSH32 0x8C379A000000000000000000000000000000000000000000000000000000000 DUP2 MSTORE PUSH1 0x4 ADD PUSH2 0x2328 SWAP1 PUSH2 0x465C JUMP JUMPDEST PUSH1 0x40 MLOAD DUP1 SWAP2 SUB SWAP1 REVERT JUMPDEST JUMP JUMPDEST PUSH2 0x233B PUSH2 0x2A4D JUMP JUMPDEST PUSH1 0x0 PUSH1 0x8 PUSH1 0x0 PUSH2 0x100 EXP DUP2 SLOAD DUP2 PUSH1 0xFF MUL NOT AND SWAP1 DUP4 ISZERO ISZERO MUL OR SWAP1 SSTORE POP PUSH32 0x5DB9EE0A495BF2E6FF9C91A7834C1BA4FDD244A5E8AA4E537BD38AEAE4B073AA PUSH2 0x237F PUSH2 0x1D31 JUMP JUMPDEST PUSH1 0x40 MLOAD PUSH2 0x238C SWAP2 SWAP1 PUSH2 0x2FB8 JUMP JUMPDEST PUSH1 0x40 MLOAD DUP1 SWAP2 SUB SWAP1 LOG1 JUMP JUMPDEST PUSH1 0x0 PUSH1 0x2 PUSH1 0x0 DUP4 DUP2 MSTORE PUSH1 0x20 ADD SWAP1 DUP2 MSTORE PUSH1 0x20 ADD PUSH1 0x0 KECCAK256 PUSH1 0x0 SWAP1 SLOAD SWAP1 PUSH2 0x100 EXP SWAP1 DIV PUSH20 0xFFFFFFFFFFFFFFFFFFFFFFFFFFFFFFFFFFFFFFFF AND SWAP1 POP SWAP2 SWAP1 POP JUMP JUMPDEST PUSH1 0x0 PUSH1 0x6 PUSH1 0x0 SWAP1 SLOAD SWAP1 PUSH2 0x100 EXP SWAP1 DIV PUSH20 0xFFFFFFFFFFFFFFFFFFFFFFFFFFFFFFFFFFFFFFFF AND SWAP1 POP DUP2 PUSH1 0x6 PUSH1 0x0 PUSH2 0x100 EXP DUP2 SLOAD DUP2 PUSH20 0xFFFFFFFFFFFFFFFFFFFFFFFFFFFFFFFFFFFFFFFF MUL NOT AND SWAP1 DUP4 PUSH20 0xFFFFFFFFFFFFFFFFFFFFFFFFFFFFFFFFFFFFFFFF AND MUL OR SWAP1 SSTORE POP DUP2 PUSH20 0xFFFFFFFFFFFFFFFFFFFFFFFFFFFFFFFFFFFFFFFF AND DUP2 PUSH20 0xFFFFFFFFFFFFFFFFFFFFFFFFFFFFFFFFFFFFFFFF AND PUSH32 0x8BE0079C531659141344CD1FD0A4F28419497F9722A3DAAFE3B4186F6B6457E0 PUSH1 0x40 MLOAD PUSH1 0x40 MLOAD DUP1 SWAP2 SUB SWAP1 LOG3 POP POP JUMP JUMPDEST PUSH2 0x24A1 PUSH2 0x1E41 JUMP JUMPDEST PUSH1 0x1 PUSH1 0x8 PUSH1 0x0 PUSH2 0x100 EXP DUP2 SLOAD DUP2 PUSH1 0xFF MUL NOT AND SWAP1 DUP4 ISZERO ISZERO MUL OR SWAP1 SSTORE POP PUSH32 0x62E78CEA01BEE320CD4E420270B5EA74000D11B0C9F74754EBDBFC544B05A258 PUSH2 0x24E5 PUSH2 0x1D31 JUMP JUMPDEST PUSH1 0x40 MLOAD PUSH2 0x24F2 SWAP2 SWAP1 PUSH2 0x2FB8 JUMP JUMPDEST PUSH1 0x40 MLOAD DUP1 SWAP2 SUB SWAP1 LOG1 JUMP JUMPDEST PUSH1 0x0 PUSH20 0xFFFFFFFFFFFFFFFFFFFFFFFFFFFFFFFFFFFFFFFF AND DUP3 PUSH20 0xFFFFFFFFFFFFFFFFFFFFFFFFFFFFFFFFFFFFFFFF AND SUB PUSH2 0x256B JUMPI PUSH1 0x40 MLOAD PUSH32 0x8C379A000000000000000000000000000000000000000000000000000000000 DUP2 MSTORE PUSH1 0x4 ADD PUSH2 0x2562 SWAP1 PUSH2 0x46C8 JUMP JUMPDEST PUSH1 0x40 MLOAD DUP1 SWAP2 SUB SWAP1 REVERT JUMPDEST PUSH2 0x2574 DUP2 PUSH2 0x1E8B JUMP JUMPDEST ISZERO PUSH2 0x25B4 JUMPI PUSH1 0x40 MLOAD PUSH32 0x8C379A000000000000000000000000000000000000000000000000000000000 DUP2 MSTORE PUSH1 0x4 ADD PUSH2 0x25AB SWAP1 PUSH2 0x4734 JUMP JUMPDEST PUSH1 0x40 MLOAD DUP1 SWAP2 SUB SWAP1 REVERT JUMPDEST PUSH2 0x25C2 PUSH1 0x0 DUP4 DUP4 PUSH1 0x1 PUSH2 0x2A41 JUMP JUMPDEST PUSH2 0x25CB DUP2 PUSH2 0x1E8B JUMP JUMPDEST ISZERO PUSH2 0x260B JUMPI PUSH1 0x40 MLOAD PUSH32 0x8C379A000000000000000000000000000000000000000000000000000000000 DUP2 MSTORE PUSH1 0x4 ADD PUSH2 0x2602 SWAP1 PUSH2 0x4734 JUMP JUMPDEST PUSH1 0x40 MLOAD DUP1 SWAP2 SUB SWAP1 REVERT JUMPDEST PUSH1 0x1 PUSH1 0x3 PUSH1 0x0 DUP5 PUSH20 0xFFFFFFFFFFFFFFFFFFFFFFFFFFFFFFFFFFFFFFFF AND PUSH20 0xFFFFFFFFFFFFFFFFFFFFFFFFFFFFFFFFFFFFFFFF AND DUP2 MSTORE PUSH1 0x20 ADD SWAP1 DUP2 MSTORE PUSH1 0x20 ADD PUSH1 0x0 KECCAK256 PUSH1 0x0 DUP3 DUP3 SLOAD ADD SWAP3 POP POP DUP2 SWAP1 SSTORE POP DUP2 PUSH1 0x2 PUSH1 0x0 DUP4 DUP2 MSTORE PUSH1 0x20 ADD SWAP1 DUP2 MSTORE PUSH1 0x20 ADD PUSH1 0x0 KECCAK256 PUSH1 0x0 PUSH2 0x100 EXP DUP2 SLOAD DUP2 PUSH20 0xFFFFFFFFFFFFFFFFFFFFFFFFFFFFFFFFFFFFFFFF MUL NOT AND SWAP1 DUP4 PUSH20 0xFFFFFFFFFFFFFFFFFFFFFFFFFFFFFFFFFFFFFFFF AND MUL OR SWAP1 SSTORE POP DUP1 DUP3 PUSH20 0xFFFFFFFFFFFFFFFFFFFFFFFFFFFFFFFFFFFFFFFF AND PUSH1 0x0 PUSH20 0xFFFFFFFFFFFFFFFFFFFFFFFFFFFFFFFFFFFFFFFF AND PUSH32 0xDDF252AD1BE2C89B69C2B068FC378DAA952BA7F163C4A11628F55A4DF523B3EF PUSH1 0x40 MLOAD PUSH1 0x40 MLOAD DUP1 SWAP2 SUB SWAP1 LOG4 PUSH2 0x2715 PUSH1 0x0 DUP4 DUP4 PUSH1 0x1 PUSH2 0x2A47 JUMP JUMPDEST POP POP JUMP JUMPDEST DUP2 PUSH20 0xFFFFFFFFFFFFFFFFFFFFFFFFFFFFFFFFFFFFFFFF AND DUP4 PUSH20 0xFFFFFFFFFFFFFFFFFFFFFFFFFFFFFFFFFFFFFFFF AND SUB PUSH2 0x2787 JUMPI PUSH1 0x40 MLOAD PUSH32 0x8C379A000000000000000000000000000000000000000000000000000000000 DUP2 MSTORE PUSH1 0x4 ADD PUSH2 0x277E SWAP1 PUSH2 0x47A0 JUMP JUMPDEST PUSH1 0x40 MLOAD DUP1 SWAP2 SUB SWAP1 REVERT JUMPDEST DUP1 PUSH1 0x5 PUSH1 0x0 DUP6 PUSH20 0xFFFFFFFFFFFFFFFFFFFFFFFFFFFFFFFFFFFFFFFF AND PUSH20 0xFFFFFFFFFFFFFFFFFFFFFFFFFFFFFFFFFFFFFFFF AND DUP2 MSTORE PUSH1 0x20 ADD SWAP1 DUP2 MSTORE PUSH1 0x20 ADD PUSH1 0x0 KECCAK256 PUSH1 0x0 DUP5 PUSH20 0xFFFFFFFFFFFFFFFFFFFFFFFFFFFFFFFFFFFFFFFF AND PUSH20 0xFFFFFFFFFFFFFFFFFFFFFFFFFFFFFFFFFFFFFFFF AND DUP2 MSTORE PUSH1 0x20 ADD SWAP1 DUP2 MSTORE PUSH1 0x20 ADD PUSH1 0x0 KECCAK256 PUSH1 0x0 PUSH2 0x100 EXP DUP2 SLOAD DUP2 PUSH1 0xFF MUL NOT AND SWAP1 DUP4 ISZERO ISZERO MUL OR SWAP1 SSTORE POP DUP2 PUSH20 0xFFFFFFFFFFFFFFFFFFFFFFFFFFFFFFFFFFFFFFFF AND DUP4 PUSH20 0xFFFFFFFFFFFFFFFFFFFFFFFFFFFFFFFFFFFFFFFF AND PUSH32 0x17307EAB39AB6107E8899845AD3D59BD9653F200F220920489CA2B5937696C31 DUP4 PUSH1 0x40 MLOAD PUSH2 0x2878 SWAP2 SWAP1 PUSH2 0x2E47 JUMP JUMPDEST PUSH1 0x40 MLOAD DUP1 SWAP2 SUB SWAP1 LOG3 POP POP POP JUMP JUMPDEST PUSH2 0x2890 DUP5 DUP5 DUP5 PUSH2 0x1ECC JUMP JUMPDEST PUSH2 0x289C DUP5 DUP5 DUP5 DUP5 PUSH2 0x2A96 JUMP JUMPDEST PUSH2 0x28DB JUMPI PUSH1 0x40 MLOAD PUSH32 0x8C379A000000000000000000000000000000000000000000000000000000000 DUP2 MSTORE PUSH1 0x4 ADD PUSH2 0x28D2 SWAP1 PUSH2 0x4832 JUMP JUMPDEST PUSH1 0x40 MLOAD DUP1 SWAP2 SUB SWAP1 REVERT JUMPDEST POP POP POP POP JUMP JUMPDEST PUSH1 0x60 PUSH1 0x9 DUP1 SLOAD PUSH2 0x28F0 SWAP1 PUSH2 0x35C6 JUMP JUMPDEST DUP1 PUSH1 0x1F ADD PUSH1 0x20 DUP1 SWAP2 DIV MUL PUSH1 0x20 ADD PUSH1 0x40 MLOAD SWAP1 DUP2 ADD PUSH1 0x40 MSTORE DUP1 SWAP3 SWAP2 SWAP1 DUP2 DUP2 MSTORE PUSH1 0x20 ADD DUP3 DUP1 SLOAD PUSH2 0x291C SWAP1 PUSH2 0x35C6 JUMP JUMPDEST DUP1 ISZERO PUSH2 0x2969 JUMPI DUP1 PUSH1 0x1F LT PUSH2 0x293E JUMPI PUSH2 0x100 DUP1 DUP4 SLOAD DIV MUL DUP4 MSTORE SWAP2 PUSH1 0x20 ADD SWAP2 PUSH2 0x2969 JUMP JUMPDEST DUP3 ADD SWAP2 SWAP1 PUSH1 0x0 MSTORE PUSH1 0x20 PUSH1 0x0 KECCAK256 SWAP1 JUMPDEST DUP2 SLOAD DUP2 MSTORE SWAP1 PUSH1 0x1 ADD SWAP1 PUSH1 0x20 ADD DUP1 DUP4 GT PUSH2 0x294C JUMPI DUP3 SWAP1 SUB PUSH1 0x1F AND DUP3 ADD SWAP2 JUMPDEST POP POP POP POP POP SWAP1 POP SWAP1 JUMP JUMPDEST PUSH1 0x60 PUSH1 0x0 PUSH1 0x1 PUSH2 0x2982 DUP5 PUSH2 0x2C1D JUMP JUMPDEST ADD SWAP1 POP PUSH1 0x0 DUP2 PUSH8 0xFFFFFFFFFFFFFFFF DUP2 GT ISZERO PUSH2 0x29A1 JUMPI PUSH2 0x29A0 PUSH2 0x30C6 JUMP JUMPDEST JUMPDEST PUSH1 0x40 MLOAD SWAP1 DUP1 DUP3 MSTORE DUP1 PUSH1 0x1F ADD PUSH1 0x1F NOT AND PUSH1 0x20 ADD DUP3 ADD PUSH1 0x40 MSTORE DUP1 ISZERO PUSH2 0x29D3 JUMPI DUP2 PUSH1 0x20 ADD PUSH1 0x1 DUP3 MUL DUP1 CALLDATASIZE DUP4 CALLDATACOPY DUP1 DUP3 ADD SWAP2 POP POP SWAP1 POP JUMPDEST POP SWAP1 POP PUSH1 0x0 DUP3 PUSH1 0x20 ADD DUP3 ADD SWAP1 POP JUMPDEST PUSH1 0x1 ISZERO PUSH2 0x2A36 JUMPI DUP1 DUP1 PUSH1 0x1 SWAP1 SUB SWAP2 POP POP PUSH32 0x3031323334353637383961626364656600000000000000000000000000000000 PUSH1 0xA DUP7 MOD BYTE DUP2 MSTORE8 PUSH1 0xA DUP6 DUP2 PUSH2 0x2A2A JUMPI PUSH2 0x2A29 PUSH2 0x4852 JUMP JUMPDEST JUMPDEST DIV SWAP5 POP PUSH1 0x0 DUP6 SUB PUSH2 0x29E1 JUMPI JUMPDEST DUP2 SWAP4 POP POP POP POP SWAP2 SWAP1 POP JUMP JUMPDEST POP POP POP POP JUMP JUMPDEST POP POP POP POP JUMP JUMPDEST PUSH2 0x2A55 PUSH2 0xF52 JUMP JUMPDEST PUSH2 0x2A94 JUMPI PUSH1 0x40 MLOAD PUSH32 0x8C379A000000000000000000000000000000000000000000000000000000000 DUP2 MSTORE PUSH1 0x4 ADD PUSH2 0x2A8B SWAP1 PUSH2 0x48CD JUMP JUMPDEST PUSH1 0x40 MLOAD DUP1 SWAP2 SUB SWAP1 REVERT JUMPDEST JUMP JUMPDEST PUSH1 0x0 PUSH2 0x2AB7 DUP5 PUSH20 0xFFFFFFFFFFFFFFFFFFFFFFFFFFFFFFFFFFFFFFFF AND PUSH2 0x2D70 JUMP JUMPDEST ISZERO PUSH2 0x2C10 JUMPI DUP4 PUSH20 0xFFFFFFFFFFFFFFFFFFFFFFFFFFFFFFFFFFFFFFFF AND PUSH4 0x150B7A02 PUSH2 0x2AE0 PUSH2 0x1D31 JUMP JUMPDEST DUP8 DUP7 DUP7 PUSH1 0x40 MLOAD DUP6 PUSH4 0xFFFFFFFF AND PUSH1 0xE0 SHL DUP2 MSTORE PUSH1 0x4 ADD PUSH2 0x2B02 SWAP5 SWAP4 SWAP3 SWAP2 SWAP1 PUSH2 0x4942 JUMP JUMPDEST PUSH1 0x20 PUSH1 0x40 MLOAD DUP1 DUP4 SUB DUP2 PUSH1 0x0 DUP8 GAS CALL SWAP3 POP POP POP DUP1 ISZERO PUSH2 0x2B3E JUMPI POP PUSH1 0x40 MLOAD RETURNDATASIZE PUSH1 0x1F NOT PUSH1 0x1F DUP3 ADD AND DUP3 ADD DUP1 PUSH1 0x40 MSTORE POP DUP2 ADD SWAP1 PUSH2 0x2B3B SWAP2 SWAP1 PUSH2 0x49A3 JUMP JUMPDEST PUSH1 0x1 JUMPDEST PUSH2 0x2BC0 JUMPI RETURNDATASIZE DUP1 PUSH1 0x0 DUP2 EQ PUSH2 0x2B6E JUMPI PUSH1 0x40 MLOAD SWAP2 POP PUSH1 0x1F NOT PUSH1 0x3F RETURNDATASIZE ADD AND DUP3 ADD PUSH1 0x40 MSTORE RETURNDATASIZE DUP3 MSTORE RETURNDATASIZE PUSH1 0x0 PUSH1 0x20 DUP5 ADD RETURNDATACOPY PUSH2 0x2B73 JUMP JUMPDEST PUSH1 0x60 SWAP2 POP JUMPDEST POP PUSH1 0x0 DUP2 MLOAD SUB PUSH2 0x2BB8 JUMPI PUSH1 0x40 MLOAD PUSH32 0x8C379A000000000000000000000000000000000000000000000000000000000 DUP2 MSTORE PUSH1 0x4 ADD PUSH2 0x2BAF SWAP1 PUSH2 0x4832 JUMP JUMPDEST PUSH1 0x40 MLOAD DUP1 SWAP2 SUB SWAP1 REVERT JUMPDEST DUP1 MLOAD DUP2 PUSH1 0x20 ADD REVERT JUMPDEST PUSH4 0x150B7A02 PUSH1 0xE0 SHL PUSH28 0xFFFFFFFFFFFFFFFFFFFFFFFFFFFFFFFFFFFFFFFFFFFFFFFFFFFFFFFF NOT AND DUP2 PUSH28 0xFFFFFFFFFFFFFFFFFFFFFFFFFFFFFFFFFFFFFFFFFFFFFFFFFFFFFFFF NOT AND EQ SWAP2 POP POP PUSH2 0x2C15 JUMP JUMPDEST PUSH1 0x1 SWAP1 POP JUMPDEST SWAP5 SWAP4 POP POP POP POP JUMP JUMPDEST PUSH1 0x0 DUP1 PUSH1 0x0 SWAP1 POP PUSH27 0x184F03E93FF9F4DAA797ED6E38ED64BF6A1F010000000000000000 DUP4 LT PUSH2 0x2C7B JUMPI PUSH27 0x184F03E93FF9F4DAA797ED6E38ED64BF6A1F010000000000000000 DUP4 DUP2 PUSH2 0x2C71 JUMPI PUSH2 0x2C70 PUSH2 0x4852 JUMP JUMPDEST JUMPDEST DIV SWAP3 POP PUSH1 0x40 DUP2 ADD SWAP1 POP JUMPDEST PUSH14 0x4EE2D6D415B85ACEF8100000000 DUP4 LT PUSH2 0x2CB8 JUMPI PUSH14 0x4EE2D6D415B85ACEF8100000000 DUP4 DUP2 PUSH2 0x2CAE JUMPI PUSH2 0x2CAD PUSH2 0x4852 JUMP JUMPDEST JUMPDEST DIV SWAP3 POP PUSH1 0x20 DUP2 ADD SWAP1 POP JUMPDEST PUSH7 0x2386F26FC10000 DUP4 LT PUSH2 0x2CE7 JUMPI PUSH7 0x2386F26FC10000 DUP4 DUP2 PUSH2 0x2CDD JUMPI PUSH2 0x2CDC PUSH2 0x4852 JUMP JUMPDEST JUMPDEST DIV SWAP3 POP PUSH1 0x10 DUP2 ADD SWAP1 POP JUMPDEST PUSH4 0x5F5E100 DUP4 LT PUSH2 0x2D10 JUMPI PUSH4 0x5F5E100 DUP4 DUP2 PUSH2 0x2D06 JUMPI PUSH2 0x2D05 PUSH2 0x4852 JUMP JUMPDEST JUMPDEST DIV SWAP3 POP PUSH1 0x8 DUP2 ADD SWAP1 POP JUMPDEST PUSH2 0x2710 DUP4 LT PUSH2 0x2D35 JUMPI PUSH2 0x2710 DUP4 DUP2 PUSH2 0x2D2B JUMPI PUSH2 0x2D2A PUSH2 0x4852 JUMP JUMPDEST JUMPDEST DIV SWAP3 POP PUSH1 0x4 DUP2 ADD SWAP1 POP JUMPDEST PUSH1 0x64 DUP4 LT PUSH2 0x2D58 JUMPI PUSH1 0x64 DUP4 DUP2 PUSH2 0x2D4E JUMPI PUSH2 0x2D4D PUSH2 0x4852 JUMP JUMPDEST JUMPDEST DIV SWAP3 POP PUSH1 0x2 DUP2 ADD SWAP1 POP JUMPDEST PUSH1 0xA DUP4 LT PUSH2 0x2D67 JUMPI PUSH1 0x1 DUP2 ADD SWAP1 POP JUMPDEST DUP1 SWAP2 POP POP SWAP2 SWAP1 POP JUMP JUMPDEST PUSH1 0x0 DUP1 DUP3 PUSH20 0xFFFFFFFFFFFFFFFFFFFFFFFFFFFFFFFFFFFFFFFF AND EXTCODESIZE GT SWAP1 POP SWAP2 SWAP1 POP JUMP JUMPDEST PUSH1 0x0 PUSH1 0x40 MLOAD SWAP1 POP SWAP1 JUMP JUMPDEST PUSH1 0x0 DUP1 REVERT JUMPDEST PUSH1 0x0 DUP1 REVERT JUMPDEST PUSH1 0x0 PUSH32 0xFFFFFFFF00000000000000000000000000000000000000000000000000000000 DUP3 AND SWAP1 POP SWAP2 SWAP1 POP JUMP JUMPDEST PUSH2 0x2DDC DUP2 PUSH2 0x2DA7 JUMP JUMPDEST DUP2 EQ PUSH2 0x2DE7 JUMPI PUSH1 0x0 DUP1 REVERT JUMPDEST POP JUMP JUMPDEST PUSH1 0x0 DUP2 CALLDATALOAD SWAP1 POP PUSH2 0x2DF9 DUP2 PUSH2 0x2DD3 JUMP JUMPDEST SWAP3 SWAP2 POP POP JUMP JUMPDEST PUSH1 0x0 PUSH1 0x20 DUP3 DUP5 SUB SLT ISZERO PUSH2 0x2E15 JUMPI PUSH2 0x2E14 PUSH2 0x2D9D JUMP JUMPDEST JUMPDEST PUSH1 0x0 PUSH2 0x2E23 DUP5 DUP3 DUP6 ADD PUSH2 0x2DEA JUMP JUMPDEST SWAP2 POP POP SWAP3 SWAP2 POP POP JUMP JUMPDEST PUSH1 0x0 DUP2 ISZERO ISZERO SWAP1 POP SWAP2 SWAP1 POP JUMP JUMPDEST PUSH2 0x2E41 DUP2 PUSH2 0x2E2C JUMP JUMPDEST DUP3 MSTORE POP POP JUMP JUMPDEST PUSH1 0x0 PUSH1 0x20 DUP3 ADD SWAP1 POP PUSH2 0x2E5C PUSH1 0x0 DUP4 ADD DUP5 PUSH2 0x2E38 JUMP JUMPDEST SWAP3 SWAP2 POP POP JUMP JUMPDEST PUSH1 0x0 DUP2 MLOAD SWAP1 POP SWAP2 SWAP1 POP JUMP JUMPDEST PUSH1 0x0 DUP3 DUP3 MSTORE PUSH1 0x20 DUP3 ADD SWAP1 POP SWAP3 SWAP2 POP POP JUMP JUMPDEST PUSH1 0x0 JUMPDEST DUP4 DUP2 LT ISZERO PUSH2 0x2E9C JUMPI DUP1 DUP3 ADD MLOAD DUP2 DUP5 ADD MSTORE PUSH1 0x20 DUP2 ADD SWAP1 POP PUSH2 0x2E81 JUMP JUMPDEST PUSH1 0x0 DUP5 DUP5 ADD MSTORE POP POP POP POP JUMP JUMPDEST PUSH1 0x0 PUSH1 0x1F NOT PUSH1 0x1F DUP4 ADD AND SWAP1 POP SWAP2 SWAP1 POP JUMP JUMPDEST PUSH1 0x0 PUSH2 0x2EC4 DUP3 PUSH2 0x2E62 JUMP JUMPDEST PUSH2 0x2ECE DUP2 DUP6 PUSH2 0x2E6D JUMP JUMPDEST SWAP4 POP PUSH2 0x2EDE DUP2 DUP6 PUSH1 0x20 DUP7 ADD PUSH2 0x2E7E JUMP JUMPDEST PUSH2 0x2EE7 DUP2 PUSH2 0x2EA8 JUMP JUMPDEST DUP5 ADD SWAP2 POP POP SWAP3 SWAP2 POP POP JUMP JUMPDEST PUSH1 0x0 PUSH1 0x20 DUP3 ADD SWAP1 POP DUP2 DUP2 SUB PUSH1 0x0 DUP4 ADD MSTORE PUSH2 0x2F0C DUP2 DUP5 PUSH2 0x2EB9 JUMP JUMPDEST SWAP1 POP SWAP3 SWAP2 POP POP JUMP JUMPDEST PUSH1 0x0 DUP2 SWAP1 POP SWAP2 SWAP1 POP JUMP JUMPDEST PUSH2 0x2F27 DUP2 PUSH2 0x2F14 JUMP JUMPDEST DUP2 EQ PUSH2 0x2F32 JUMPI PUSH1 0x0 DUP1 REVERT JUMPDEST POP JUMP JUMPDEST PUSH1 0x0 DUP2 CALLDATALOAD SWAP1 POP PUSH2 0x2F44 DUP2 PUSH2 0x2F1E JUMP JUMPDEST SWAP3 SWAP2 POP POP JUMP JUMPDEST PUSH1 0x0 PUSH1 0x20 DUP3 DUP5 SUB SLT ISZERO PUSH2 0x2F60 JUMPI PUSH2 0x2F5F PUSH2 0x2D9D JUMP JUMPDEST JUMPDEST PUSH1 0x0 PUSH2 0x2F6E DUP5 DUP3 DUP6 ADD PUSH2 0x2F35 JUMP JUMPDEST SWAP2 POP POP SWAP3 SWAP2 POP POP JUMP JUMPDEST PUSH1 0x0 PUSH20 0xFFFFFFFFFFFFFFFFFFFFFFFFFFFFFFFFFFFFFFFF DUP3 AND SWAP1 POP SWAP2 SWAP1 POP JUMP JUMPDEST PUSH1 0x0 PUSH2 0x2FA2 DUP3 PUSH2 0x2F77 JUMP JUMPDEST SWAP1 POP SWAP2 SWAP1 POP JUMP JUMPDEST PUSH2 0x2FB2 DUP2 PUSH2 0x2F97 JUMP JUMPDEST DUP3 MSTORE POP POP JUMP JUMPDEST PUSH1 0x0 PUSH1 0x20 DUP3 ADD SWAP1 POP PUSH2 0x2FCD PUSH1 0x0 DUP4 ADD DUP5 PUSH2 0x2FA9 JUMP JUMPDEST SWAP3 SWAP2 POP POP JUMP JUMPDEST PUSH2 0x2FDC DUP2 PUSH2 0x2F97 JUMP JUMPDEST DUP2 EQ PUSH2 0x2FE7 JUMPI PUSH1 0x0 DUP1 REVERT JUMPDEST POP JUMP JUMPDEST PUSH1 0x0 DUP2 CALLDATALOAD SWAP1 POP PUSH2 0x2FF9 DUP2 PUSH2 0x2FD3 JUMP JUMPDEST SWAP3 SWAP2 POP POP JUMP JUMPDEST PUSH1 0x0 DUP1 PUSH1 0x40 DUP4 DUP6 SUB SLT ISZERO PUSH2 0x3016 JUMPI PUSH2 0x3015 PUSH2 0x2D9D JUMP JUMPDEST JUMPDEST PUSH1 0x0 PUSH2 0x3024 DUP6 DUP3 DUP7 ADD PUSH2 0x2FEA JUMP JUMPDEST SWAP3 POP POP PUSH1 0x20 PUSH2 0x3035 DUP6 DUP3 DUP7 ADD PUSH2 0x2F35 JUMP JUMPDEST SWAP2 POP POP SWAP3 POP SWAP3 SWAP1 POP JUMP JUMPDEST PUSH1 0x0 DUP1 PUSH1 0x0 PUSH1 0x60 DUP5 DUP7 SUB SLT ISZERO PUSH2 0x3058 JUMPI PUSH2 0x3057 PUSH2 0x2D9D JUMP JUMPDEST JUMPDEST PUSH1 0x0 PUSH2 0x3066 DUP7 DUP3 DUP8 ADD PUSH2 0x2FEA JUMP JUMPDEST SWAP4 POP POP PUSH1 0x20 PUSH2 0x3077 DUP7 DUP3 DUP8 ADD PUSH2 0x2FEA JUMP JUMPDEST SWAP3 POP POP PUSH1 0x40 PUSH2 0x3088 DUP7 DUP3 DUP8 ADD PUSH2 0x2F35 JUMP JUMPDEST SWAP2 POP POP SWAP3 POP SWAP3 POP SWAP3 JUMP JUMPDEST PUSH2 0x309B DUP2 PUSH2 0x2F14 JUMP JUMPDEST DUP3 MSTORE POP POP JUMP JUMPDEST PUSH1 0x0 PUSH1 0x20 DUP3 ADD SWAP1 POP PUSH2 0x30B6 PUSH1 0x0 DUP4 ADD DUP5 PUSH2 0x3092 JUMP JUMPDEST SWAP3 SWAP2 POP POP JUMP JUMPDEST PUSH1 0x0 DUP1 REVERT JUMPDEST PUSH1 0x0 DUP1 REVERT JUMPDEST PUSH32 0x4E487B7100000000000000000000000000000000000000000000000000000000 PUSH1 0x0 MSTORE PUSH1 0x41 PUSH1 0x4 MSTORE PUSH1 0x24 PUSH1 0x0 REVERT JUMPDEST PUSH2 0x30FE DUP3 PUSH2 0x2EA8 JUMP JUMPDEST DUP2 ADD DUP2 DUP2 LT PUSH8 0xFFFFFFFFFFFFFFFF DUP3 GT OR ISZERO PUSH2 0x311D JUMPI PUSH2 0x311C PUSH2 0x30C6 JUMP JUMPDEST JUMPDEST DUP1 PUSH1 0x40 MSTORE POP POP POP JUMP JUMPDEST PUSH1 0x0 PUSH2 0x3130 PUSH2 0x2D93 JUMP JUMPDEST SWAP1 POP PUSH2 0x313C DUP3 DUP3 PUSH2 0x30F5 JUMP JUMPDEST SWAP2 SWAP1 POP JUMP JUMPDEST PUSH1 0x0 PUSH8 0xFFFFFFFFFFFFFFFF DUP3 GT ISZERO PUSH2 0x315C JUMPI PUSH2 0x315B PUSH2 0x30C6 JUMP JUMPDEST JUMPDEST PUSH2 0x3165 DUP3 PUSH2 0x2EA8 JUMP JUMPDEST SWAP1 POP PUSH1 0x20 DUP2 ADD SWAP1 POP SWAP2 SWAP1 POP JUMP JUMPDEST DUP3 DUP2 DUP4 CALLDATACOPY PUSH1 0x0 DUP4 DUP4 ADD MSTORE POP POP POP JUMP JUMPDEST PUSH1 0x0 PUSH2 0x3194 PUSH2 0x318F DUP5 PUSH2 0x3141 JUMP JUMPDEST PUSH2 0x3126 JUMP JUMPDEST SWAP1 POP DUP3 DUP2 MSTORE PUSH1 0x20 DUP2 ADD DUP5 DUP5 DUP5 ADD GT ISZERO PUSH2 0x31B0 JUMPI PUSH2 0x31AF PUSH2 0x30C1 JUMP JUMPDEST JUMPDEST PUSH2 0x31BB DUP5 DUP3 DUP6 PUSH2 0x3172 JUMP JUMPDEST POP SWAP4 SWAP3 POP POP POP JUMP JUMPDEST PUSH1 0x0 DUP3 PUSH1 0x1F DUP4 ADD SLT PUSH2 0x31D8 JUMPI PUSH2 0x31D7 PUSH2 0x30BC JUMP JUMPDEST JUMPDEST DUP2 CALLDATALOAD PUSH2 0x31E8 DUP5 DUP3 PUSH1 0x20 DUP7 ADD PUSH2 0x3181 JUMP JUMPDEST SWAP2 POP POP SWAP3 SWAP2 POP POP JUMP JUMPDEST PUSH1 0x0 PUSH1 0x20 DUP3 DUP5 SUB SLT ISZERO PUSH2 0x3207 JUMPI PUSH2 0x3206 PUSH2 0x2D9D JUMP JUMPDEST JUMPDEST PUSH1 0x0 DUP3 ADD CALLDATALOAD PUSH8 0xFFFFFFFFFFFFFFFF DUP2 GT ISZERO PUSH2 0x3225 JUMPI PUSH2 0x3224 PUSH2 0x2DA2 JUMP JUMPDEST JUMPDEST PUSH2 0x3231 DUP5 DUP3 DUP6 ADD PUSH2 0x31C3 JUMP JUMPDEST SWAP2 POP POP SWAP3 SWAP2 POP POP JUMP JUMPDEST PUSH1 0x0 DUP2 MLOAD SWAP1 POP SWAP2 SWAP1 POP JUMP JUMPDEST PUSH1 0x0 DUP3 DUP3 MSTORE PUSH1 0x20 DUP3 ADD SWAP1 POP SWAP3 SWAP2 POP POP JUMP JUMPDEST PUSH1 0x0 DUP2 SWAP1 POP PUSH1 0x20 DUP3 ADD SWAP1 POP SWAP2 SWAP1 POP JUMP JUMPDEST PUSH2 0x326F DUP2 PUSH2 0x2F14 JUMP JUMPDEST DUP3 MSTORE POP POP JUMP JUMPDEST PUSH1 0x0 PUSH2 0x3281 DUP4 DUP4 PUSH2 0x3266 JUMP JUMPDEST PUSH1 0x20 DUP4 ADD SWAP1 POP SWAP3 SWAP2 POP POP JUMP JUMPDEST PUSH1 0x0 PUSH1 0x20 DUP3 ADD SWAP1 POP SWAP2 SWAP1 POP JUMP JUMPDEST PUSH1 0x0 PUSH2 0x32A5 DUP3 PUSH2 0x323A JUMP JUMPDEST PUSH2 0x32AF DUP2 DUP6 PUSH2 0x3245 JUMP JUMPDEST SWAP4 POP PUSH2 0x32BA DUP4 PUSH2 0x3256 JUMP JUMPDEST DUP1 PUSH1 0x0 JUMPDEST DUP4 DUP2 LT ISZERO PUSH2 0x32EB JUMPI DUP2 MLOAD PUSH2 0x32D2 DUP9 DUP3 PUSH2 0x3275 JUMP JUMPDEST SWAP8 POP PUSH2 0x32DD DUP4 PUSH2 0x328D JUMP JUMPDEST SWAP3 POP POP PUSH1 0x1 DUP2 ADD SWAP1 POP PUSH2 0x32BE JUMP JUMPDEST POP DUP6 SWAP4 POP POP POP POP SWAP3 SWAP2 POP POP JUMP JUMPDEST PUSH1 0x0 PUSH1 0x20 DUP3 ADD SWAP1 POP DUP2 DUP2 SUB PUSH1 0x0 DUP4 ADD MSTORE PUSH2 0x3312 DUP2 DUP5 PUSH2 0x329A JUMP JUMPDEST SWAP1 POP SWAP3 SWAP2 POP POP JUMP JUMPDEST PUSH1 0x0 PUSH1 0x20 DUP3 DUP5 SUB SLT ISZERO PUSH2 0x3330 JUMPI PUSH2 0x332F PUSH2 0x2D9D JUMP JUMPDEST JUMPDEST PUSH1 0x0 PUSH2 0x333E DUP5 DUP3 DUP6 ADD PUSH2 0x2FEA JUMP JUMPDEST SWAP2 POP POP SWAP3 SWAP2 POP POP JUMP JUMPDEST PUSH2 0x3350 DUP2 PUSH2 0x2E2C JUMP JUMPDEST DUP2 EQ PUSH2 0x335B JUMPI PUSH1 0x0 DUP1 REVERT JUMPDEST POP JUMP JUMPDEST PUSH1 0x0 DUP2 CALLDATALOAD SWAP1 POP PUSH2 0x336D DUP2 PUSH2 0x3347 JUMP JUMPDEST SWAP3 SWAP2 POP POP JUMP JUMPDEST PUSH1 0x0 DUP1 PUSH1 0x40 DUP4 DUP6 SUB SLT ISZERO PUSH2 0x338A JUMPI PUSH2 0x3389 PUSH2 0x2D9D JUMP JUMPDEST JUMPDEST PUSH1 0x0 PUSH2 0x3398 DUP6 DUP3 DUP7 ADD PUSH2 0x2F35 JUMP JUMPDEST SWAP3 POP POP PUSH1 0x20 PUSH2 0x33A9 DUP6 DUP3 DUP7 ADD PUSH2 0x335E JUMP JUMPDEST SWAP2 POP POP SWAP3 POP SWAP3 SWAP1 POP JUMP JUMPDEST PUSH1 0x0 DUP1 PUSH1 0x40 DUP4 DUP6 SUB SLT ISZERO PUSH2 0x33CA JUMPI PUSH2 0x33C9 PUSH2 0x2D9D JUMP JUMPDEST JUMPDEST PUSH1 0x0 PUSH2 0x33D8 DUP6 DUP3 DUP7 ADD PUSH2 0x2FEA JUMP JUMPDEST SWAP3 POP POP PUSH1 0x20 PUSH2 0x33E9 DUP6 DUP3 DUP7 ADD PUSH2 0x335E JUMP JUMPDEST SWAP2 POP POP SWAP3 POP SWAP3 SWAP1 POP JUMP JUMPDEST PUSH1 0x0 DUP1 PUSH1 0x40 DUP4 DUP6 SUB SLT ISZERO PUSH2 0x340A JUMPI PUSH2 0x3409 PUSH2 0x2D9D JUMP JUMPDEST JUMPDEST PUSH1 0x0 PUSH2 0x3418 DUP6 DUP3 DUP7 ADD PUSH2 0x2F35 JUMP JUMPDEST SWAP3 POP POP PUSH1 0x20 PUSH2 0x3429 DUP6 DUP3 DUP7 ADD PUSH2 0x2FEA JUMP JUMPDEST SWAP2 POP POP SWAP3 POP SWAP3 SWAP1 POP JUMP JUMPDEST PUSH1 0x0 PUSH8 0xFFFFFFFFFFFFFFFF DUP3 GT ISZERO PUSH2 0x344E JUMPI PUSH2 0x344D PUSH2 0x30C6 JUMP JUMPDEST JUMPDEST PUSH2 0x3457 DUP3 PUSH2 0x2EA8 JUMP JUMPDEST SWAP1 POP PUSH1 0x20 DUP2 ADD SWAP1 POP SWAP2 SWAP1 POP JUMP JUMPDEST PUSH1 0x0 PUSH2 0x3477 PUSH2 0x3472 DUP5 PUSH2 0x3433 JUMP JUMPDEST PUSH2 0x3126 JUMP JUMPDEST SWAP1 POP DUP3 DUP2 MSTORE PUSH1 0x20 DUP2 ADD DUP5 DUP5 DUP5 ADD GT ISZERO PUSH2 0x3493 JUMPI PUSH2 0x3492 PUSH2 0x30C1 JUMP JUMPDEST JUMPDEST PUSH2 0x349E DUP5 DUP3 DUP6 PUSH2 0x3172 JUMP JUMPDEST POP SWAP4 SWAP3 POP POP POP JUMP JUMPDEST PUSH1 0x0 DUP3 PUSH1 0x1F DUP4 ADD SLT PUSH2 0x34BB JUMPI PUSH2 0x34BA PUSH2 0x30BC JUMP JUMPDEST JUMPDEST DUP2 CALLDATALOAD PUSH2 0x34CB DUP5 DUP3 PUSH1 0x20 DUP7 ADD PUSH2 0x3464 JUMP JUMPDEST SWAP2 POP POP SWAP3 SWAP2 POP POP JUMP JUMPDEST PUSH1 0x0 DUP1 PUSH1 0x0 DUP1 PUSH1 0x80 DUP6 DUP8 SUB SLT ISZERO PUSH2 0x34EE JUMPI PUSH2 0x34ED PUSH2 0x2D9D JUMP JUMPDEST JUMPDEST PUSH1 0x0 PUSH2 0x34FC DUP8 DUP3 DUP9 ADD PUSH2 0x2FEA JUMP JUMPDEST SWAP5 POP POP PUSH1 0x20 PUSH2 0x350D DUP8 DUP3 DUP9 ADD PUSH2 0x2FEA JUMP JUMPDEST SWAP4 POP POP PUSH1 0x40 PUSH2 0x351E DUP8 DUP3 DUP9 ADD PUSH2 0x2F35 JUMP JUMPDEST SWAP3 POP POP PUSH1 0x60 DUP6 ADD CALLDATALOAD PUSH8 0xFFFFFFFFFFFFFFFF DUP2 GT ISZERO PUSH2 0x353F JUMPI PUSH2 0x353E PUSH2 0x2DA2 JUMP JUMPDEST JUMPDEST PUSH2 0x354B DUP8 DUP3 DUP9 ADD PUSH2 0x34A6 JUMP JUMPDEST SWAP2 POP POP SWAP3 SWAP6 SWAP2 SWAP5 POP SWAP3 POP JUMP JUMPDEST PUSH1 0x0 DUP1 PUSH1 0x40 DUP4 DUP6 SUB SLT ISZERO PUSH2 0x356E JUMPI PUSH2 0x356D PUSH2 0x2D9D JUMP JUMPDEST JUMPDEST PUSH1 0x0 PUSH2 0x357C DUP6 DUP3 DUP7 ADD PUSH2 0x2FEA JUMP JUMPDEST SWAP3 POP POP PUSH1 0x20 PUSH2 0x358D DUP6 DUP3 DUP7 ADD PUSH2 0x2FEA JUMP JUMPDEST SWAP2 POP POP SWAP3 POP SWAP3 SWAP1 POP JUMP JUMPDEST PUSH32 0x4E487B7100000000000000000000000000000000000000000000000000000000 PUSH1 0x0 MSTORE PUSH1 0x22 PUSH1 0x4 MSTORE PUSH1 0x24 PUSH1 0x0 REVERT JUMPDEST PUSH1 0x0 PUSH1 0x2 DUP3 DIV SWAP1 POP PUSH1 0x1 DUP3 AND DUP1 PUSH2 0x35DE JUMPI PUSH1 0x7F DUP3 AND SWAP2 POP JUMPDEST PUSH1 0x20 DUP3 LT DUP2 SUB PUSH2 0x35F1 JUMPI PUSH2 0x35F0 PUSH2 0x3597 JUMP JUMPDEST JUMPDEST POP SWAP2 SWAP1 POP JUMP JUMPDEST PUSH32 0x4552433732313A20617070726F76616C20746F2063757272656E74206F776E65 PUSH1 0x0 DUP3 ADD MSTORE PUSH32 0x7200000000000000000000000000000000000000000000000000000000000000 PUSH1 0x20 DUP3 ADD MSTORE POP JUMP JUMPDEST PUSH1 0x0 PUSH2 0x3653 PUSH1 0x21 DUP4 PUSH2 0x2E6D JUMP JUMPDEST SWAP2 POP PUSH2 0x365E DUP3 PUSH2 0x35F7 JUMP JUMPDEST PUSH1 0x40 DUP3 ADD SWAP1 POP SWAP2 SWAP1 POP JUMP JUMPDEST PUSH1 0x0 PUSH1 0x20 DUP3 ADD SWAP1 POP DUP2 DUP2 SUB PUSH1 0x0 DUP4 ADD MSTORE PUSH2 0x3682 DUP2 PUSH2 0x3646 JUMP JUMPDEST SWAP1 POP SWAP2 SWAP1 POP JUMP JUMPDEST PUSH32 0x4552433732313A20617070726F76652063616C6C6572206973206E6F7420746F PUSH1 0x0 DUP3 ADD MSTORE PUSH32 0x6B656E206F776E6572206F7220617070726F76656420666F7220616C6C000000 PUSH1 0x20 DUP3 ADD MSTORE POP JUMP JUMPDEST PUSH1 0x0 PUSH2 0x36E5 PUSH1 0x3D DUP4 PUSH2 0x2E6D JUMP JUMPDEST SWAP2 POP PUSH2 0x36F0 DUP3 PUSH2 0x3689 JUMP JUMPDEST PUSH1 0x40 DUP3 ADD SWAP1 POP SWAP2 SWAP1 POP JUMP JUMPDEST PUSH1 0x0 PUSH1 0x20 DUP3 ADD SWAP1 POP DUP2 DUP2 SUB PUSH1 0x0 DUP4 ADD MSTORE PUSH2 0x3714 DUP2 PUSH2 0x36D8 JUMP JUMPDEST SWAP1 POP SWAP2 SWAP1 POP JUMP JUMPDEST PUSH32 0x546F6B656E20646F6573206E6F74206578697374000000000000000000000000 PUSH1 0x0 DUP3 ADD MSTORE POP JUMP JUMPDEST PUSH1 0x0 PUSH2 0x3751 PUSH1 0x14 DUP4 PUSH2 0x2E6D JUMP JUMPDEST SWAP2 POP PUSH2 0x375C DUP3 PUSH2 0x371B JUMP JUMPDEST PUSH1 0x20 DUP3 ADD SWAP1 POP SWAP2 SWAP1 POP JUMP JUMPDEST PUSH1 0x0 PUSH1 0x20 DUP3 ADD SWAP1 POP DUP2 DUP2 SUB PUSH1 0x0 DUP4 ADD MSTORE PUSH2 0x3780 DUP2 PUSH2 0x3744 JUMP JUMPDEST SWAP1 POP SWAP2 SWAP1 POP JUMP JUMPDEST PUSH32 0x546F6B656E206973206E6F7420666F722073616C650000000000000000000000 PUSH1 0x0 DUP3 ADD MSTORE POP JUMP JUMPDEST PUSH1 0x0 PUSH2 0x37BD PUSH1 0x15 DUP4 PUSH2 0x2E6D JUMP JUMPDEST SWAP2 POP PUSH2 0x37C8 DUP3 PUSH2 0x3787 JUMP JUMPDEST PUSH1 0x20 DUP3 ADD SWAP1 POP SWAP2 SWAP1 POP JUMP JUMPDEST PUSH1 0x0 PUSH1 0x20 DUP3 ADD SWAP1 POP DUP2 DUP2 SUB PUSH1 0x0 DUP4 ADD MSTORE PUSH2 0x37EC DUP2 PUSH2 0x37B0 JUMP JUMPDEST SWAP1 POP SWAP2 SWAP1 POP JUMP JUMPDEST PUSH32 0x496E73756666696369656E74204554482073656E740000000000000000000000 PUSH1 0x0 DUP3 ADD MSTORE POP JUMP JUMPDEST PUSH1 0x0 PUSH2 0x3829 PUSH1 0x15 DUP4 PUSH2 0x2E6D JUMP JUMPDEST SWAP2 POP PUSH2 0x3834 DUP3 PUSH2 0x37F3 JUMP JUMPDEST PUSH1 0x20 DUP3 ADD SWAP1 POP SWAP2 SWAP1 POP JUMP JUMPDEST PUSH1 0x0 PUSH1 0x20 DUP3 ADD SWAP1 POP DUP2 DUP2 SUB PUSH1 0x0 DUP4 ADD MSTORE PUSH2 0x3858 DUP2 PUSH2 0x381C JUMP JUMPDEST SWAP1 POP SWAP2 SWAP1 POP JUMP JUMPDEST PUSH32 0x546F6B656E206973207072652D70757263686173656400000000000000000000 PUSH1 0x0 DUP3 ADD MSTORE POP JUMP JUMPDEST PUSH1 0x0 PUSH2 0x3895 PUSH1 0x16 DUP4 PUSH2 0x2E6D JUMP JUMPDEST SWAP2 POP PUSH2 0x38A0 DUP3 PUSH2 0x385F JUMP JUMPDEST PUSH1 0x20 DUP3 ADD SWAP1 POP SWAP2 SWAP1 POP JUMP JUMPDEST PUSH1 0x0 PUSH1 0x20 DUP3 ADD SWAP1 POP DUP2 DUP2 SUB PUSH1 0x0 DUP4 ADD MSTORE PUSH2 0x38C4 DUP2 PUSH2 0x3888 JUMP JUMPDEST SWAP1 POP SWAP2 SWAP1 POP JUMP JUMPDEST PUSH32 0x43616E6E6F742062757920796F7572206F776E20746F6B656E00000000000000 PUSH1 0x0 DUP3 ADD MSTORE POP JUMP JUMPDEST PUSH1 0x0 PUSH2 0x3901 PUSH1 0x19 DUP4 PUSH2 0x2E6D JUMP JUMPDEST SWAP2 POP PUSH2 0x390C DUP3 PUSH2 0x38CB JUMP JUMPDEST PUSH1 0x20 DUP3 ADD SWAP1 POP SWAP2 SWAP1 POP JUMP JUMPDEST PUSH1 0x0 PUSH1 0x20 DUP3 ADD SWAP1 POP DUP2 DUP2 SUB PUSH1 0x0 DUP4 ADD MSTORE PUSH2 0x3930 DUP2 PUSH2 0x38F4 JUMP JUMPDEST SWAP1 POP SWAP2 SWAP1 POP JUMP JUMPDEST PUSH32 0x4E487B7100000000000000000000000000000000000000000000000000000000 PUSH1 0x0 MSTORE PUSH1 0x11 PUSH1 0x4 MSTORE PUSH1 0x24 PUSH1 0x0 REVERT JUMPDEST PUSH1 0x0 PUSH2 0x3971 DUP3 PUSH2 0x2F14 JUMP JUMPDEST SWAP2 POP PUSH2 0x397C DUP4 PUSH2 0x2F14 JUMP JUMPDEST SWAP3 POP DUP3 DUP3 SUB SWAP1 POP DUP2 DUP2 GT ISZERO PUSH2 0x3994 JUMPI PUSH2 0x3993 PUSH2 0x3937 JUMP JUMPDEST JUMPDEST SWAP3 SWAP2 POP POP JUMP JUMPDEST PUSH1 0x0 DUP2 SWAP1 POP SWAP3 SWAP2 POP POP JUMP JUMPDEST POP JUMP JUMPDEST PUSH1 0x0 PUSH2 0x39B5 PUSH1 0x0 DUP4 PUSH2 0x399A JUMP JUMPDEST SWAP2 POP PUSH2 0x39C0 DUP3 PUSH2 0x39A5 JUMP JUMPDEST PUSH1 0x0 DUP3 ADD SWAP1 POP SWAP2 SWAP1 POP JUMP JUMPDEST PUSH1 0x0 PUSH2 0x39D6 DUP3 PUSH2 0x39A8 JUMP JUMPDEST SWAP2 POP DUP2 SWAP1 POP SWAP2 SWAP1 POP JUMP JUMPDEST PUSH32 0x5061796D656E7420746F2073656C6C6572206661696C65640000000000000000 PUSH1 0x0 DUP3 ADD MSTORE POP JUMP JUMPDEST PUSH1 0x0 PUSH2 0x3A16 PUSH1 0x18 DUP4 PUSH2 0x2E6D JUMP JUMPDEST SWAP2 POP PUSH2 0x3A21 DUP3 PUSH2 0x39E0 JUMP JUMPDEST PUSH1 0x20 DUP3 ADD SWAP1 POP SWAP2 SWAP1 POP JUMP JUMPDEST PUSH1 0x0 PUSH1 0x20 DUP3 ADD SWAP1 POP DUP2 DUP2 SUB PUSH1 0x0 DUP4 ADD MSTORE PUSH2 0x3A45 DUP2 PUSH2 0x3A09 JUMP JUMPDEST SWAP1 POP SWAP2 SWAP1 POP JUMP JUMPDEST PUSH32 0x526566756E64206661696C656400000000000000000000000000000000000000 PUSH1 0x0 DUP3 ADD MSTORE POP JUMP JUMPDEST PUSH1 0x0 PUSH2 0x3A82 PUSH1 0xD DUP4 PUSH2 0x2E6D JUMP JUMPDEST SWAP2 POP PUSH2 0x3A8D DUP3 PUSH2 0x3A4C JUMP JUMPDEST PUSH1 0x20 DUP3 ADD SWAP1 POP SWAP2 SWAP1 POP JUMP JUMPDEST PUSH1 0x0 PUSH1 0x20 DUP3 ADD SWAP1 POP DUP2 DUP2 SUB PUSH1 0x0 DUP4 ADD MSTORE PUSH2 0x3AB1 DUP2 PUSH2 0x3A75 JUMP JUMPDEST SWAP1 POP SWAP2 SWAP1 POP JUMP JUMPDEST PUSH1 0x0 PUSH1 0x80 DUP3 ADD SWAP1 POP PUSH2 0x3ACD PUSH1 0x0 DUP4 ADD DUP8 PUSH2 0x2FA9 JUMP JUMPDEST PUSH2 0x3ADA PUSH1 0x20 DUP4 ADD DUP7 PUSH2 0x2FA9 JUMP JUMPDEST PUSH2 0x3AE7 PUSH1 0x40 DUP4 ADD DUP6 PUSH2 0x3092 JUMP JUMPDEST PUSH2 0x3AF4 PUSH1 0x60 DUP4 ADD DUP5 PUSH2 0x3092 JUMP JUMPDEST SWAP6 SWAP5 POP POP POP POP POP JUMP JUMPDEST PUSH32 0x4552433732313A2063616C6C6572206973206E6F7420746F6B656E206F776E65 PUSH1 0x0 DUP3 ADD MSTORE PUSH32 0x72206F7220617070726F76656400000000000000000000000000000000000000 PUSH1 0x20 DUP3 ADD MSTORE POP JUMP JUMPDEST PUSH1 0x0 PUSH2 0x3B59 PUSH1 0x2D DUP4 PUSH2 0x2E6D JUMP JUMPDEST SWAP2 POP PUSH2 0x3B64 DUP3 PUSH2 0x3AFD JUMP JUMPDEST PUSH1 0x40 DUP3 ADD SWAP1 POP SWAP2 SWAP1 POP JUMP JUMPDEST PUSH1 0x0 PUSH1 0x20 DUP3 ADD SWAP1 POP DUP2 DUP2 SUB PUSH1 0x0 DUP4 ADD MSTORE PUSH2 0x3B88 DUP2 PUSH2 0x3B4C JUMP JUMPDEST SWAP1 POP SWAP2 SWAP1 POP JUMP JUMPDEST PUSH32 0x496E76616C696420746F6B656E20494400000000000000000000000000000000 PUSH1 0x0 DUP3 ADD MSTORE POP JUMP JUMPDEST PUSH1 0x0 PUSH2 0x3BC5 PUSH1 0x10 DUP4 PUSH2 0x2E6D JUMP JUMPDEST SWAP2 POP PUSH2 0x3BD0 DUP3 PUSH2 0x3B8F JUMP JUMPDEST PUSH1 0x20 DUP3 ADD SWAP1 POP SWAP2 SWAP1 POP JUMP JUMPDEST PUSH1 0x0 PUSH1 0x20 DUP3 ADD SWAP1 POP DUP2 DUP2 SUB PUSH1 0x0 DUP4 ADD MSTORE PUSH2 0x3BF4 DUP2 PUSH2 0x3BB8 JUMP JUMPDEST SWAP1 POP SWAP2 SWAP1 POP JUMP JUMPDEST PUSH1 0x0 DUP2 SWAP1 POP DUP2 PUSH1 0x0 MSTORE PUSH1 0x20 PUSH1 0x0 KECCAK256 SWAP1 POP SWAP2 SWAP1 POP JUMP JUMPDEST PUSH1 0x0 PUSH1 0x20 PUSH1 0x1F DUP4 ADD DIV SWAP1 POP SWAP2 SWAP1 POP JUMP JUMPDEST PUSH1 0x0 DUP3 DUP3 SHL SWAP1 POP SWAP3 SWAP2 POP POP JUMP JUMPDEST PUSH1 0x0 PUSH1 0x8 DUP4 MUL PUSH2 0x3C5D PUSH32 0xFFFFFFFFFFFFFFFFFFFFFFFFFFFFFFFFFFFFFFFFFFFFFFFFFFFFFFFFFFFFFFFF DUP3 PUSH2 0x3C20 JUMP JUMPDEST PUSH2 0x3C67 DUP7 DUP4 PUSH2 0x3C20 JUMP JUMPDEST SWAP6 POP DUP1 NOT DUP5 AND SWAP4 POP DUP1 DUP7 AND DUP5 OR SWAP3 POP POP POP SWAP4 SWAP3 POP POP POP JUMP JUMPDEST PUSH1 0x0 DUP2 SWAP1 POP SWAP2 SWAP1 POP JUMP JUMPDEST PUSH1 0x0 PUSH2 0x3CA4 PUSH2 0x3C9F PUSH2 0x3C9A DUP5 PUSH2 0x2F14 JUMP JUMPDEST PUSH2 0x3C7F JUMP JUMPDEST PUSH2 0x2F14 JUMP JUMPDEST SWAP1 POP SWAP2 SWAP1 POP JUMP JUMPDEST PUSH1 0x0 DUP2 SWAP1 POP SWAP2 SWAP1 POP JUMP JUMPDEST PUSH2 0x3CBE DUP4 PUSH2 0x3C89 JUMP JUMPDEST PUSH2 0x3CD2 PUSH2 0x3CCA DUP3 PUSH2 0x3CAB JUMP JUMPDEST DUP5 DUP5 SLOAD PUSH2 0x3C2D JUMP JUMPDEST DUP3 SSTORE POP POP POP POP JUMP JUMPDEST PUSH1 0x0 SWAP1 JUMP JUMPDEST PUSH2 0x3CE7 PUSH2 0x3CDA JUMP JUMPDEST PUSH2 0x3CF2 DUP2 DUP5 DUP5 PUSH2 0x3CB5 JUMP JUMPDEST POP POP POP JUMP JUMPDEST JUMPDEST DUP2 DUP2 LT ISZERO PUSH2 0x3D16 JUMPI PUSH2 0x3D0B PUSH1 0x0 DUP3 PUSH2 0x3CDF JUMP JUMPDEST PUSH1 0x1 DUP2 ADD SWAP1 POP PUSH2 0x3CF8 JUMP JUMPDEST POP POP JUMP JUMPDEST PUSH1 0x1F DUP3 GT ISZERO PUSH2 0x3D5B JUMPI PUSH2 0x3D2C DUP2 PUSH2 0x3BFB JUMP JUMPDEST PUSH2 0x3D35 DUP5 PUSH2 0x3C10 JUMP JUMPDEST DUP2 ADD PUSH1 0x20 DUP6 LT ISZERO PUSH2 0x3D44 JUMPI DUP2 SWAP1 POP JUMPDEST PUSH2 0x3D58 PUSH2 0x3D50 DUP6 PUSH2 0x3C10 JUMP JUMPDEST DUP4 ADD DUP3 PUSH2 0x3CF7 JUMP JUMPDEST POP POP JUMPDEST POP POP POP JUMP JUMPDEST PUSH1 0x0 DUP3 DUP3 SHR SWAP1 POP SWAP3 SWAP2 POP POP JUMP JUMPDEST PUSH1 0x0 PUSH2 0x3D7E PUSH1 0x0 NOT DUP5 PUSH1 0x8 MUL PUSH2 0x3D60 JUMP JUMPDEST NOT DUP1 DUP4 AND SWAP2 POP POP SWAP3 SWAP2 POP POP JUMP JUMPDEST PUSH1 0x0 PUSH2 0x3D97 DUP4 DUP4 PUSH2 0x3D6D JUMP JUMPDEST SWAP2 POP DUP3 PUSH1 0x2 MUL DUP3 OR SWAP1 POP SWAP3 SWAP2 POP POP JUMP JUMPDEST PUSH2 0x3DB0 DUP3 PUSH2 0x2E62 JUMP JUMPDEST PUSH8 0xFFFFFFFFFFFFFFFF DUP2 GT ISZERO PUSH2 0x3DC9 JUMPI PUSH2 0x3DC8 PUSH2 0x30C6 JUMP JUMPDEST JUMPDEST PUSH2 0x3DD3 DUP3 SLOAD PUSH2 0x35C6 JUMP JUMPDEST PUSH2 0x3DDE DUP3 DUP3 DUP6 PUSH2 0x3D1A JUMP JUMPDEST PUSH1 0x0 PUSH1 0x20 SWAP1 POP PUSH1 0x1F DUP4 GT PUSH1 0x1 DUP2 EQ PUSH2 0x3E11 JUMPI PUSH1 0x0 DUP5 ISZERO PUSH2 0x3DFF JUMPI DUP3 DUP8 ADD MLOAD SWAP1 POP JUMPDEST PUSH2 0x3E09 DUP6 DUP3 PUSH2 0x3D8B JUMP JUMPDEST DUP7 SSTORE POP PUSH2 0x3E71 JUMP JUMPDEST PUSH1 0x1F NOT DUP5 AND PUSH2 0x3E1F DUP7 PUSH2 0x3BFB JUMP JUMPDEST PUSH1 0x0 JUMPDEST DUP3 DUP2 LT ISZERO PUSH2 0x3E47 JUMPI DUP5 DUP10 ADD MLOAD DUP3 SSTORE PUSH1 0x1 DUP3 ADD SWAP2 POP PUSH1 0x20 DUP6 ADD SWAP5 POP PUSH1 0x20 DUP2 ADD SWAP1 POP PUSH2 0x3E22 JUMP JUMPDEST DUP7 DUP4 LT ISZERO PUSH2 0x3E64 JUMPI DUP5 DUP10 ADD MLOAD PUSH2 0x3E60 PUSH1 0x1F DUP10 AND DUP3 PUSH2 0x3D6D JUMP JUMPDEST DUP4 SSTORE POP JUMPDEST PUSH1 0x1 PUSH1 0x2 DUP9 MUL ADD DUP9 SSTORE POP POP POP JUMPDEST POP POP POP POP POP POP JUMP JUMPDEST PUSH32 0x4552433732313A20696E76616C696420746F6B656E2049440000000000000000 PUSH1 0x0 DUP3 ADD MSTORE POP JUMP JUMPDEST PUSH1 0x0 PUSH2 0x3EAF PUSH1 0x18 DUP4 PUSH2 0x2E6D JUMP JUMPDEST SWAP2 POP PUSH2 0x3EBA DUP3 PUSH2 0x3E79 JUMP JUMPDEST PUSH1 0x20 DUP3 ADD SWAP1 POP SWAP2 SWAP1 POP JUMP JUMPDEST PUSH1 0x0 PUSH1 0x20 DUP3 ADD SWAP1 POP DUP2 DUP2 SUB PUSH1 0x0 DUP4 ADD MSTORE PUSH2 0x3EDE DUP2 PUSH2 0x3EA2 JUMP JUMPDEST SWAP1 POP SWAP2 SWAP1 POP JUMP JUMPDEST PUSH32 0x4E487B7100000000000000000000000000000000000000000000000000000000 PUSH1 0x0 MSTORE PUSH1 0x32 PUSH1 0x4 MSTORE PUSH1 0x24 PUSH1 0x0 REVERT JUMPDEST PUSH1 0x0 PUSH2 0x3F1F DUP3 PUSH2 0x2F14 JUMP JUMPDEST SWAP2 POP PUSH32 0xFFFFFFFFFFFFFFFFFFFFFFFFFFFFFFFFFFFFFFFFFFFFFFFFFFFFFFFFFFFFFFFF DUP3 SUB PUSH2 0x3F51 JUMPI PUSH2 0x3F50 PUSH2 0x3937 JUMP JUMPDEST JUMPDEST PUSH1 0x1 DUP3 ADD SWAP1 POP SWAP2 SWAP1 POP JUMP JUMPDEST PUSH32 0x4552433732313A2061646472657373207A65726F206973206E6F742061207661 PUSH1 0x0 DUP3 ADD MSTORE PUSH32 0x6C6964206F776E65720000000000000000000000000000000000000000000000 PUSH1 0x20 DUP3 ADD MSTORE POP JUMP JUMPDEST PUSH1 0x0 PUSH2 0x3FB8 PUSH1 0x29 DUP4 PUSH2 0x2E6D JUMP JUMPDEST SWAP2 POP PUSH2 0x3FC3 DUP3 PUSH2 0x3F5C JUMP JUMPDEST PUSH1 0x40 DUP3 ADD SWAP1 POP SWAP2 SWAP1 POP JUMP JUMPDEST PUSH1 0x0 PUSH1 0x20 DUP3 ADD SWAP1 POP DUP2 DUP2 SUB PUSH1 0x0 DUP4 ADD MSTORE PUSH2 0x3FE7 DUP2 PUSH2 0x3FAB JUMP JUMPDEST SWAP1 POP SWAP2 SWAP1 POP JUMP JUMPDEST PUSH32 0x4E6F7420746F6B656E206F776E65720000000000000000000000000000000000 PUSH1 0x0 DUP3 ADD MSTORE POP JUMP JUMPDEST PUSH1 0x0 PUSH2 0x4024 PUSH1 0xF DUP4 PUSH2 0x2E6D JUMP JUMPDEST SWAP2 POP PUSH2 0x402F DUP3 PUSH2 0x3FEE JUMP JUMPDEST PUSH1 0x20 DUP3 ADD SWAP1 POP SWAP2 SWAP1 POP JUMP JUMPDEST PUSH1 0x0 PUSH1 0x20 DUP3 ADD SWAP1 POP DUP2 DUP2 SUB PUSH1 0x0 DUP4 ADD MSTORE PUSH2 0x4053 DUP2 PUSH2 0x4017 JUMP JUMPDEST SWAP1 POP SWAP2 SWAP1 POP JUMP JUMPDEST PUSH1 0x0 PUSH2 0x4065 DUP3 PUSH2 0x2F14 JUMP JUMPDEST SWAP2 POP PUSH2 0x4070 DUP4 PUSH2 0x2F14 JUMP JUMPDEST SWAP3 POP DUP3 DUP3 ADD SWAP1 POP DUP1 DUP3 GT ISZERO PUSH2 0x4088 JUMPI PUSH2 0x4087 PUSH2 0x3937 JUMP JUMPDEST JUMPDEST SWAP3 SWAP2 POP POP JUMP JUMPDEST PUSH32 0x576F756C6420657863656564206D617820737570706C79000000000000000000 PUSH1 0x0 DUP3 ADD MSTORE POP JUMP JUMPDEST PUSH1 0x0 PUSH2 0x40C4 PUSH1 0x17 DUP4 PUSH2 0x2E6D JUMP JUMPDEST SWAP2 POP PUSH2 0x40CF DUP3 PUSH2 0x408E JUMP JUMPDEST PUSH1 0x20 DUP3 ADD SWAP1 POP SWAP2 SWAP1 POP JUMP JUMPDEST PUSH1 0x0 PUSH1 0x20 DUP3 ADD SWAP1 POP DUP2 DUP2 SUB PUSH1 0x0 DUP4 ADD MSTORE PUSH2 0x40F3 DUP2 PUSH2 0x40B7 JUMP JUMPDEST SWAP1 POP SWAP2 SWAP1 POP JUMP JUMPDEST PUSH1 0x0 PUSH1 0x40 DUP3 ADD SWAP1 POP PUSH2 0x410F PUSH1 0x0 DUP4 ADD DUP6 PUSH2 0x2FA9 JUMP JUMPDEST PUSH2 0x411C PUSH1 0x20 DUP4 ADD DUP5 PUSH2 0x3092 JUMP JUMPDEST SWAP4 SWAP3 POP POP POP JUMP JUMPDEST PUSH32 0x4E6F7420617574686F72697A656420746F20636C61696D000000000000000000 PUSH1 0x0 DUP3 ADD MSTORE POP JUMP JUMPDEST PUSH1 0x0 PUSH2 0x4159 PUSH1 0x17 DUP4 PUSH2 0x2E6D JUMP JUMPDEST SWAP2 POP PUSH2 0x4164 DUP3 PUSH2 0x4123 JUMP JUMPDEST PUSH1 0x20 DUP3 ADD SWAP1 POP SWAP2 SWAP1 POP JUMP JUMPDEST PUSH1 0x0 PUSH1 0x20 DUP3 ADD SWAP1 POP DUP2 DUP2 SUB PUSH1 0x0 DUP4 ADD MSTORE PUSH2 0x4188 DUP2 PUSH2 0x414C JUMP JUMPDEST SWAP1 POP SWAP2 SWAP1 POP JUMP JUMPDEST PUSH32 0x546F6B656E206E6F74206F776E656420627920636F6E7472616374206F776E65 PUSH1 0x0 DUP3 ADD MSTORE PUSH32 0x7200000000000000000000000000000000000000000000000000000000000000 PUSH1 0x20 DUP3 ADD MSTORE POP JUMP JUMPDEST PUSH1 0x0 PUSH2 0x41EB PUSH1 0x21 DUP4 PUSH2 0x2E6D JUMP JUMPDEST SWAP2 POP PUSH2 0x41F6 DUP3 PUSH2 0x418F JUMP JUMPDEST PUSH1 0x40 DUP3 ADD SWAP1 POP SWAP2 SWAP1 POP JUMP JUMPDEST PUSH1 0x0 PUSH1 0x20 DUP3 ADD SWAP1 POP DUP2 DUP2 SUB PUSH1 0x0 DUP4 ADD MSTORE PUSH2 0x421A DUP2 PUSH2 0x41DE JUMP JUMPDEST SWAP1 POP SWAP2 SWAP1 POP JUMP JUMPDEST PUSH1 0x0 PUSH1 0x40 DUP3 ADD SWAP1 POP PUSH2 0x4236 PUSH1 0x0 DUP4 ADD DUP6 PUSH2 0x3092 JUMP JUMPDEST PUSH2 0x4243 PUSH1 0x20 DUP4 ADD DUP5 PUSH2 0x2FA9 JUMP JUMPDEST SWAP4 SWAP3 POP POP POP JUMP JUMPDEST PUSH32 0x496E76616C696420707572636861736572206164647265737300000000000000 PUSH1 0x0 DUP3 ADD MSTORE POP JUMP JUMPDEST PUSH1 0x0 PUSH2 0x4280 PUSH1 0x19 DUP4 PUSH2 0x2E6D JUMP JUMPDEST SWAP2 POP PUSH2 0x428B DUP3 PUSH2 0x424A JUMP JUMPDEST PUSH1 0x20 DUP3 ADD SWAP1 POP SWAP2 SWAP1 POP JUMP JUMPDEST PUSH1 0x0 PUSH1 0x20 DUP3 ADD SWAP1 POP DUP2 DUP2 SUB PUSH1 0x0 DUP4 ADD MSTORE PUSH2 0x42AF DUP2 PUSH2 0x4273 JUMP JUMPDEST SWAP1 POP SWAP2 SWAP1 POP JUMP JUMPDEST PUSH32 0x546F6B656E20616C7265616479207072652D7075726368617365640000000000 PUSH1 0x0 DUP3 ADD MSTORE POP JUMP JUMPDEST PUSH1 0x0 PUSH2 0x42EC PUSH1 0x1B DUP4 PUSH2 0x2E6D JUMP JUMPDEST SWAP2 POP PUSH2 0x42F7 DUP3 PUSH2 0x42B6 JUMP JUMPDEST PUSH1 0x20 DUP3 ADD SWAP1 POP SWAP2 SWAP1 POP JUMP JUMPDEST PUSH1 0x0 PUSH1 0x20 DUP3 ADD SWAP1 POP DUP2 DUP2 SUB PUSH1 0x0 DUP4 ADD MSTORE PUSH2 0x431B DUP2 PUSH2 0x42DF JUMP JUMPDEST SWAP1 POP SWAP2 SWAP1 POP JUMP JUMPDEST PUSH1 0x0 DUP2 SWAP1 POP SWAP3 SWAP2 POP POP JUMP JUMPDEST PUSH1 0x0 PUSH2 0x4338 DUP3 PUSH2 0x2E62 JUMP JUMPDEST PUSH2 0x4342 DUP2 DUP6 PUSH2 0x4322 JUMP JUMPDEST SWAP4 POP PUSH2 0x4352 DUP2 DUP6 PUSH1 0x20 DUP7 ADD PUSH2 0x2E7E JUMP JUMPDEST DUP1 DUP5 ADD SWAP2 POP POP SWAP3 SWAP2 POP POP JUMP JUMPDEST PUSH1 0x0 PUSH2 0x436A DUP3 DUP6 PUSH2 0x432D JUMP JUMPDEST SWAP2 POP PUSH2 0x4376 DUP3 DUP5 PUSH2 0x432D JUMP JUMPDEST SWAP2 POP DUP2 SWAP1 POP SWAP4 SWAP3 POP POP POP JUMP JUMPDEST PUSH32 0x4F776E61626C653A206E6577206F776E657220697320746865207A65726F2061 PUSH1 0x0 DUP3 ADD MSTORE PUSH32 0x6464726573730000000000000000000000000000000000000000000000000000 PUSH1 0x20 DUP3 ADD MSTORE POP JUMP JUMPDEST PUSH1 0x0 PUSH2 0x43DE PUSH1 0x26 DUP4 PUSH2 0x2E6D JUMP JUMPDEST SWAP2 POP PUSH2 0x43E9 DUP3 PUSH2 0x4382 JUMP JUMPDEST PUSH1 0x40 DUP3 ADD SWAP1 POP SWAP2 SWAP1 POP JUMP JUMPDEST PUSH1 0x0 PUSH1 0x20 DUP3 ADD SWAP1 POP DUP2 DUP2 SUB PUSH1 0x0 DUP4 ADD MSTORE PUSH2 0x440D DUP2 PUSH2 0x43D1 JUMP JUMPDEST SWAP1 POP SWAP2 SWAP1 POP JUMP JUMPDEST PUSH32 0x5265656E7472616E637947756172643A207265656E7472616E742063616C6C00 PUSH1 0x0 DUP3 ADD MSTORE POP JUMP JUMPDEST PUSH1 0x0 PUSH2 0x444A PUSH1 0x1F DUP4 PUSH2 0x2E6D JUMP JUMPDEST SWAP2 POP PUSH2 0x4455 DUP3 PUSH2 0x4414 JUMP JUMPDEST PUSH1 0x20 DUP3 ADD SWAP1 POP SWAP2 SWAP1 POP JUMP JUMPDEST PUSH1 0x0 PUSH1 0x20 DUP3 ADD SWAP1 POP DUP2 DUP2 SUB PUSH1 0x0 DUP4 ADD MSTORE PUSH2 0x4479 DUP2 PUSH2 0x443D JUMP JUMPDEST SWAP1 POP SWAP2 SWAP1 POP JUMP JUMPDEST PUSH32 0x5061757361626C653A2070617573656400000000000000000000000000000000 PUSH1 0x0 DUP3 ADD MSTORE POP JUMP JUMPDEST PUSH1 0x0 PUSH2 0x44B6 PUSH1 0x10 DUP4 PUSH2 0x2E6D JUMP JUMPDEST SWAP2 POP PUSH2 0x44C1 DUP3 PUSH2 0x4480 JUMP JUMPDEST PUSH1 0x20 DUP3 ADD SWAP1 POP SWAP2 SWAP1 POP JUMP JUMPDEST PUSH1 0x0 PUSH1 0x20 DUP3 ADD SWAP1 POP DUP2 DUP2 SUB PUSH1 0x0 DUP4 ADD MSTORE PUSH2 0x44E5 DUP2 PUSH2 0x44A9 JUMP JUMPDEST SWAP1 POP SWAP2 SWAP1 POP JUMP JUMPDEST PUSH32 0x4552433732313A207472616E736665722066726F6D20696E636F727265637420 PUSH1 0x0 DUP3 ADD MSTORE PUSH32 0x6F776E6572000000000000000000000000000000000000000000000000000000 PUSH1 0x20 DUP3 ADD MSTORE POP JUMP JUMPDEST PUSH1 0x0 PUSH2 0x4548 PUSH1 0x25 DUP4 PUSH2 0x2E6D JUMP JUMPDEST SWAP2 POP PUSH2 0x4553 DUP3 PUSH2 0x44EC JUMP JUMPDEST PUSH1 0x40 DUP3 ADD SWAP1 POP SWAP2 SWAP1 POP JUMP JUMPDEST PUSH1 0x0 PUSH1 0x20 DUP3 ADD SWAP1 POP DUP2 DUP2 SUB PUSH1 0x0 DUP4 ADD MSTORE PUSH2 0x4577 DUP2 PUSH2 0x453B JUMP JUMPDEST SWAP1 POP SWAP2 SWAP1 POP JUMP JUMPDEST PUSH32 0x4552433732313A207472616E7366657220746F20746865207A65726F20616464 PUSH1 0x0 DUP3 ADD MSTORE PUSH32 0x7265737300000000000000000000000000000000000000000000000000000000 PUSH1 0x20 DUP3 ADD MSTORE POP JUMP JUMPDEST PUSH1 0x0 PUSH2 0x45DA PUSH1 0x24 DUP4 PUSH2 0x2E6D JUMP JUMPDEST SWAP2 POP PUSH2 0x45E5 DUP3 PUSH2 0x457E JUMP JUMPDEST PUSH1 0x40 DUP3 ADD SWAP1 POP SWAP2 SWAP1 POP JUMP JUMPDEST PUSH1 0x0 PUSH1 0x20 DUP3 ADD SWAP1 POP DUP2 DUP2 SUB PUSH1 0x0 DUP4 ADD MSTORE PUSH2 0x4609 DUP2 PUSH2 0x45CD JUMP JUMPDEST SWAP1 POP SWAP2 SWAP1 POP JUMP JUMPDEST PUSH32 0x4F776E61626C653A2063616C6C6572206973206E6F7420746865206F776E6572 PUSH1 0x0 DUP3 ADD MSTORE POP JUMP JUMPDEST PUSH1 0x0 PUSH2 0x4646 PUSH1 0x20 DUP4 PUSH2 0x2E6D JUMP JUMPDEST SWAP2 POP PUSH2 0x4651 DUP3 PUSH2 0x4610 JUMP JUMPDEST PUSH1 0x20 DUP3 ADD SWAP1 POP SWAP2 SWAP1 POP JUMP JUMPDEST PUSH1 0x0 PUSH1 0x20 DUP3 ADD SWAP1 POP DUP2 DUP2 SUB PUSH1 0x0 DUP4 ADD MSTORE PUSH2 0x4675 DUP2 PUSH2 0x4639 JUMP JUMPDEST SWAP1 POP SWAP2 SWAP1 POP JUMP JUMPDEST PUSH32 0x4552433732313A206D696E7420746F20746865207A65726F2061646472657373 PUSH1 0x0 DUP3 ADD MSTORE POP JUMP JUMPDEST PUSH1 0x0 PUSH2 0x46B2 PUSH1 0x20 DUP4 PUSH2 0x2E6D JUMP JUMPDEST SWAP2 POP PUSH2 0x46BD DUP3 PUSH2 0x467C JUMP JUMPDEST PUSH1 0x20 DUP3 ADD SWAP1 POP SWAP2 SWAP1 POP JUMP JUMPDEST PUSH1 0x0 PUSH1 0x20 DUP3 ADD SWAP1 POP DUP2 DUP2 SUB PUSH1 0x0 DUP4 ADD MSTORE PUSH2 0x46E1 DUP2 PUSH2 0x46A5 JUMP JUMPDEST SWAP1 POP SWAP2 SWAP1 POP JUMP JUMPDEST PUSH32 0x4552433732313A20746F6B656E20616C7265616479206D696E74656400000000 PUSH1 0x0 DUP3 ADD MSTORE POP JUMP JUMPDEST PUSH1 0x0 PUSH2 0x471E PUSH1 0x1C DUP4 PUSH2 0x2E6D JUMP JUMPDEST SWAP2 POP PUSH2 0x4729 DUP3 PUSH2 0x46E8 JUMP JUMPDEST PUSH1 0x20 DUP3 ADD SWAP1 POP SWAP2 SWAP1 POP JUMP JUMPDEST PUSH1 0x0 PUSH1 0x20 DUP3 ADD SWAP1 POP DUP2 DUP2 SUB PUSH1 0x0 DUP4 ADD MSTORE PUSH2 0x474D DUP2 PUSH2 0x4711 JUMP JUMPDEST SWAP1 POP SWAP2 SWAP1 POP JUMP JUMPDEST PUSH32 0x4552433732313A20617070726F766520746F2063616C6C657200000000000000 PUSH1 0x0 DUP3 ADD MSTORE POP JUMP JUMPDEST PUSH1 0x0 PUSH2 0x478A PUSH1 0x19 DUP4 PUSH2 0x2E6D JUMP JUMPDEST SWAP2 POP PUSH2 0x4795 DUP3 PUSH2 0x4754 JUMP JUMPDEST PUSH1 0x20 DUP3 ADD SWAP1 POP SWAP2 SWAP1 POP JUMP JUMPDEST PUSH1 0x0 PUSH1 0x20 DUP3 ADD SWAP1 POP DUP2 DUP2 SUB PUSH1 0x0 DUP4 ADD MSTORE PUSH2 0x47B9 DUP2 PUSH2 0x477D JUMP JUMPDEST SWAP1 POP SWAP2 SWAP1 POP JUMP JUMPDEST PUSH32 0x4552433732313A207472616E7366657220746F206E6F6E204552433732315265 PUSH1 0x0 DUP3 ADD MSTORE PUSH32 0x63656976657220696D706C656D656E7465720000000000000000000000000000 PUSH1 0x20 DUP3 ADD MSTORE POP JUMP JUMPDEST PUSH1 0x0 PUSH2 0x481C PUSH1 0x32 DUP4 PUSH2 0x2E6D JUMP JUMPDEST SWAP2 POP PUSH2 0x4827 DUP3 PUSH2 0x47C0 JUMP JUMPDEST PUSH1 0x40 DUP3 ADD SWAP1 POP SWAP2 SWAP1 POP JUMP JUMPDEST PUSH1 0x0 PUSH1 0x20 DUP3 ADD SWAP1 POP DUP2 DUP2 SUB PUSH1 0x0 DUP4 ADD MSTORE PUSH2 0x484B DUP2 PUSH2 0x480F JUMP JUMPDEST SWAP1 POP SWAP2 SWAP1 POP JUMP JUMPDEST PUSH32 0x4E487B7100000000000000000000000000000000000000000000000000000000 PUSH1 0x0 MSTORE PUSH1 0x12 PUSH1 0x4 MSTORE PUSH1 0x24 PUSH1 0x0 REVERT JUMPDEST PUSH32 0x5061757361626C653A206E6F7420706175736564000000000000000000000000 PUSH1 0x0 DUP3 ADD MSTORE POP JUMP JUMPDEST PUSH1 0x0 PUSH2 0x48B7 PUSH1 0x14 DUP4 PUSH2 0x2E6D JUMP JUMPDEST SWAP2 POP PUSH2 0x48C2 DUP3 PUSH2 0x4881 JUMP JUMPDEST PUSH1 0x20 DUP3 ADD SWAP1 POP SWAP2 SWAP1 POP JUMP JUMPDEST PUSH1 0x0 PUSH1 0x20 DUP3 ADD SWAP1 POP DUP2 DUP2 SUB PUSH1 0x0 DUP4 ADD MSTORE PUSH2 0x48E6 DUP2 PUSH2 0x48AA JUMP JUMPDEST SWAP1 POP SWAP2 SWAP1 POP JUMP JUMPDEST PUSH1 0x0 DUP2 MLOAD SWAP1 POP SWAP2 SWAP1 POP JUMP JUMPDEST PUSH1 0x0 DUP3 DUP3 MSTORE PUSH1 0x20 DUP3 ADD SWAP1 POP SWAP3 SWAP2 POP POP JUMP JUMPDEST PUSH1 0x0 PUSH2 0x4914 DUP3 PUSH2 0x48ED JUMP JUMPDEST PUSH2 0x491E DUP2 DUP6 PUSH2 0x48F8 JUMP JUMPDEST SWAP4 POP PUSH2 0x492E DUP2 DUP6 PUSH1 0x20 DUP7 ADD PUSH2 0x2E7E JUMP JUMPDEST PUSH2 0x4937 DUP2 PUSH2 0x2EA8 JUMP JUMPDEST DUP5 ADD SWAP2 POP POP SWAP3 SWAP2 POP POP JUMP JUMPDEST PUSH1 0x0 PUSH1 0x80 DUP3 ADD SWAP1 POP PUSH2 0x4957 PUSH1 0x0 DUP4 ADD DUP8 PUSH2 0x2FA9 JUMP JUMPDEST PUSH2 0x4964 PUSH1 0x20 DUP4 ADD DUP7 PUSH2 0x2FA9 JUMP JUMPDEST PUSH2 0x4971 PUSH1 0x40 DUP4 ADD DUP6 PUSH2 0x3092 JUMP JUMPDEST DUP2 DUP2 SUB PUSH1 0x60 DUP4 ADD MSTORE PUSH2 0x4983 DUP2 DUP5 PUSH2 0x4909 JUMP JUMPDEST SWAP1 POP SWAP6 SWAP5 POP POP POP POP POP JUMP JUMPDEST PUSH1 0x0 DUP2 MLOAD SWAP1 POP PUSH2 0x499D DUP2 PUSH2 0x2DD3 JUMP JUMPDEST SWAP3 SWAP2 POP POP JUMP JUMPDEST PUSH1 0x0 PUSH1 0x20 DUP3 DUP5 SUB SLT ISZERO PUSH2 0x49B9 JUMPI PUSH2 0x49B8 PUSH2 0x2D9D JUMP JUMPDEST JUMPDEST PUSH1 0x0 PUSH2 0x49C7 DUP5 DUP3 DUP6 ADD PUSH2 0x498E JUMP JUMPDEST SWAP2 POP POP SWAP3 SWAP2 POP POP JUMP INVALID LOG2 PUSH5 0x6970667358 0x22 SLT KECCAK256 0xAB PUSH23 0xED8FB5B8268ACA804E187780755AF1A89716FB9C15E4A0 0xDD 0x5D SSTORE 0x4D 0xB6 0xDB 0x1E PUSH5 0x736F6C6343 STOP ADDMOD EQ STOP CALLER "},"methodIdentifiers":{"MAX_SUPPLY()":"32cb6b0c","approve(address,uint256)":"095ea7b3","balanceOf(address)":"70a08231","batchMint(uint256)":"8467be0d","claimToken(uint256)":"a9e7c2e5","getApproved(uint256)":"081812fc","getTokensForSale()":"65e4e1c0","isApprovedForAll(address,address)":"e985e9c5","isTokenForSale(uint256)":"4fed1c94","markTokenAsPrePurchased(uint256,address)":"b0fbc276","mintPrice()":"6817c76c","name()":"06fdde03","owner()":"8da5cb5b","ownerOf(uint256)":"6352211e","pause()":"8456cb59","paused()":"5c975abb","purchaseNFT(uint256)":"150bde03","renounceOwnership()":"715018a6","safeTransferFrom(address,address,uint256)":"42842e0e","safeTransferFrom(address,address,uint256,bytes)":"b88d4fde","setApprovalForAll(address,bool)":"a22cb465","setBaseURI(string)":"55f804b3","setMintPrice(uint256)":"f4a0a528","setTokenSaleStatus(uint256,bool)":"82b2e44d","stripePurchases(uint256)":"e3eb28fd","supportsInterface(bytes4)":"01ffc9a7","symbol()":"95d89b41","tokenURI(uint256)":"c87b56dd","transferFrom(address,address,uint256)":"23b872dd","transferOwnership(address)":"f2fde38b","unpause()":"3f4ba83a"}}}}}