{
  "_format": "hh-sol-artifact-1",
  "contractName": "TurtleTimepieceNFT",
  "sourceName": "contracts/TurtleTimepieceNFT.sol",
  "abi": [
    {
      "inputs": [],
      "stateMutability": "nonpayable",
      "type": "constructor"
    },
    {
      "anonymous": false,
      "inputs": [
        {
          "indexed": true,
          "internalType": "address",
          "name": "owner",
          "type": "address"
        },
        {
          "indexed": true,
          "internalType": "address",
          "name": "approved",
          "type": "address"
        },
        {
          "indexed": true,
          "internalType": "uint256",
          "name": "tokenId",
          "type": "uint256"
        }
      ],
      "name": "Approval",
      "type": "event"
    },
    {
      "anonymous": false,
      "inputs": [
        {
          "indexed": true,
          "internalType": "address",
          "name": "owner",
          "type": "address"
        },
        {
          "indexed": true,
          "internalType": "address",
          "name": "operator",
          "type": "address"
        },
        {
          "indexed": false,
          "internalType": "bool",
          "name": "approved",
          "type": "bool"
        }
      ],
      "name": "ApprovalForAll",
      "type": "event"
    },
    {
      "anonymous": false,
      "inputs": [
        {
          "indexed": true,
          "internalType": "address",
          "name": "by",
          "type": "address"
        }
      ],
      "name": "ContractPaused",
      "type": "event"
    },
    {
      "anonymous": false,
      "inputs": [
        {
          "indexed": true,
          "internalType": "address",
          "name": "by",
          "type": "address"
        }
      ],
      "name": "ContractUnpaused",
      "type": "event"
    },
    {
      "anonymous": false,
      "inputs": [
        {
          "indexed": false,
          "internalType": "address",
          "name": "owner",
          "type": "address"
        },
        {
          "indexed": false,
          "internalType": "uint256",
          "name": "tokenId",
          "type": "uint256"
        }
      ],
      "name": "NFTMinted",
      "type": "event"
    },
    {
      "anonymous": false,
      "inputs": [
        {
          "indexed": false,
          "internalType": "address",
          "name": "from",
          "type": "address"
        },
        {
          "indexed": false,
          "internalType": "address",
          "name": "to",
          "type": "address"
        },
        {
          "indexed": false,
          "internalType": "uint256",
          "name": "tokenId",
          "type": "uint256"
        },
        {
          "indexed": false,
          "internalType": "uint256",
          "name": "price",
          "type": "uint256"
        }
      ],
      "name": "NFTSold",
      "type": "event"
    },
    {
      "anonymous": false,
      "inputs": [
        {
          "indexed": true,
          "internalType": "address",
          "name": "previousOwner",
          "type": "address"
        },
        {
          "indexed": true,
          "internalType": "address",
          "name": "newOwner",
          "type": "address"
        }
      ],
      "name": "OwnershipTransferred",
      "type": "event"
    },
    {
      "anonymous": false,
      "inputs": [
        {
          "indexed": false,
          "internalType": "address",
          "name": "account",
          "type": "address"
        }
      ],
      "name": "Paused",
      "type": "event"
    },
    {
      "anonymous": false,
      "inputs": [
        {
          "indexed": false,
          "internalType": "uint256",
          "name": "tokenId",
          "type": "uint256"
        },
        {
          "indexed": false,
          "internalType": "address",
          "name": "claimer",
          "type": "address"
        }
      ],
      "name": "TokenClaimed",
      "type": "event"
    },
    {
      "anonymous": false,
      "inputs": [
        {
          "indexed": false,
          "internalType": "uint256",
          "name": "tokenId",
          "type": "uint256"
        },
        {
          "indexed": false,
          "internalType": "address",
          "name": "purchaser",
          "type": "address"
        }
      ],
      "name": "TokenPrePurchased",
      "type": "event"
    },
    {
      "anonymous": false,
      "inputs": [
        {
          "indexed": false,
          "internalType": "uint256",
          "name": "tokenId",
          "type": "uint256"
        }
      ],
      "name": "TokenPutForSale",
      "type": "event"
    },
    {
      "anonymous": false,
      "inputs": [
        {
          "indexed": false,
          "internalType": "uint256",
          "name": "tokenId",
          "type": "uint256"
        }
      ],
      "name": "TokenRemovedFromSale",
      "type": "event"
    },
    {
      "anonymous": false,
      "inputs": [
        {
          "indexed": true,
          "internalType": "address",
          "name": "from",
          "type": "address"
        },
        {
          "indexed": true,
          "internalType": "address",
          "name": "to",
          "type": "address"
        },
        {
          "indexed": true,
          "internalType": "uint256",
          "name": "tokenId",
          "type": "uint256"
        }
      ],
      "name": "Transfer",
      "type": "event"
    },
    {
      "anonymous": false,
      "inputs": [
        {
          "indexed": false,
          "internalType": "address",
          "name": "account",
          "type": "address"
        }
      ],
      "name": "Unpaused",
      "type": "event"
    },
    {
      "inputs": [],
      "name": "MAX_SUPPLY",
      "outputs": [
        {
          "internalType": "uint256",
          "name": "",
          "type": "uint256"
        }
      ],
      "stateMutability": "view",
      "type": "function"
    },
    {
      "inputs": [
        {
          "internalType": "address",
          "name": "to",
          "type": "address"
        },
        {
          "internalType": "uint256",
          "name": "tokenId",
          "type": "uint256"
        }
      ],
      "name": "approve",
      "outputs": [],
      "stateMutability": "nonpayable",
      "type": "function"
    },
    {
      "inputs": [
        {
          "internalType": "address",
          "name": "owner",
          "type": "address"
        }
      ],
      "name": "balanceOf",
      "outputs": [
        {
          "internalType": "uint256",
          "name": "",
          "type": "uint256"
        }
      ],
      "stateMutability": "view",
      "type": "function"
    },
    {
      "inputs": [
        {
          "internalType": "uint256",
          "name": "amount",
          "type": "uint256"
        }
      ],
      "name": "batchMint",
      "outputs": [],
      "stateMutability": "nonpayable",
      "type": "function"
    },
    {
      "inputs": [
        {
          "internalType": "uint256",
          "name": "tokenId",
          "type": "uint256"
        }
      ],
      "name": "claimToken",
      "outputs": [],
      "stateMutability": "nonpayable",
      "type": "function"
    },
    {
      "inputs": [
        {
          "internalType": "uint256",
          "name": "tokenId",
          "type": "uint256"
        }
      ],
      "name": "getApproved",
      "outputs": [
        {
          "internalType": "address",
          "name": "",
          "type": "address"
        }
      ],
      "stateMutability": "view",
      "type": "function"
    },
    {
      "inputs": [],
      "name": "getTokensForSale",
      "outputs": [
        {
          "internalType": "uint256[]",
          "name": "",
          "type": "uint256[]"
        }
      ],
      "stateMutability": "view",
      "type": "function"
    },
    {
      "inputs": [
        {
          "internalType": "address",
          "name": "owner",
          "type": "address"
        },
        {
          "internalType": "address",
          "name": "operator",
          "type": "address"
        }
      ],
      "name": "isApprovedForAll",
      "outputs": [
        {
          "internalType": "bool",
          "name": "",
          "type": "bool"
        }
      ],
      "stateMutability": "view",
      "type": "function"
    },
    {
      "inputs": [
        {
          "internalType": "uint256",
          "name": "tokenId",
          "type": "uint256"
        }
      ],
      "name": "isTokenForSale",
      "outputs": [
        {
          "internalType": "bool",
          "name": "",
          "type": "bool"
        }
      ],
      "stateMutability": "view",
      "type": "function"
    },
    {
      "inputs": [
        {
          "internalType": "uint256",
          "name": "tokenId",
          "type": "uint256"
        },
        {
          "internalType": "address",
          "name": "purchaser",
          "type": "address"
        }
      ],
      "name": "markTokenAsPrePurchased",
      "outputs": [],
      "stateMutability": "nonpayable",
      "type": "function"
    },
    {
      "inputs": [],
      "name": "mintPrice",
      "outputs": [
        {
          "internalType": "uint256",
          "name": "",
          "type": "uint256"
        }
      ],
      "stateMutability": "view",
      "type": "function"
    },
    {
      "inputs": [],
      "name": "name",
      "outputs": [
        {
          "internalType": "string",
          "name": "",
          "type": "string"
        }
      ],
      "stateMutability": "view",
      "type": "function"
    },
    {
      "inputs": [],
      "name": "owner",
      "outputs": [
        {
          "internalType": "address",
          "name": "",
          "type": "address"
        }
      ],
      "stateMutability": "view",
      "type": "function"
    },
    {
      "inputs": [
        {
          "internalType": "uint256",
          "name": "tokenId",
          "type": "uint256"
        }
      ],
      "name": "ownerOf",
      "outputs": [
        {
          "internalType": "address",
          "name": "",
          "type": "address"
        }
      ],
      "stateMutability": "view",
      "type": "function"
    },
    {
      "inputs": [],
      "name": "pause",
      "outputs": [],
      "stateMutability": "nonpayable",
      "type": "function"
    },
    {
      "inputs": [],
      "name": "paused",
      "outputs": [
        {
          "internalType": "bool",
          "name": "",
          "type": "bool"
        }
      ],
      "stateMutability": "view",
      "type": "function"
    },
    {
      "inputs": [
        {
          "internalType": "uint256",
          "name": "tokenId",
          "type": "uint256"
        }
      ],
      "name": "purchaseNFT",
      "outputs": [],
      "stateMutability": "payable",
      "type": "function"
    },
    {
      "inputs": [],
      "name": "renounceOwnership",
      "outputs": [],
      "stateMutability": "nonpayable",
      "type": "function"
    },
    {
      "inputs": [
        {
          "internalType": "address",
          "name": "from",
          "type": "address"
        },
        {
          "internalType": "address",
          "name": "to",
          "type": "address"
        },
        {
          "internalType": "uint256",
          "name": "tokenId",
          "type": "uint256"
        }
      ],
      "name": "safeTransferFrom",
      "outputs": [],
      "stateMutability": "nonpayable",
      "type": "function"
    },
    {
      "inputs": [
        {
          "internalType": "address",
          "name": "from",
          "type": "address"
        },
        {
          "internalType": "address",
          "name": "to",
          "type": "address"
        },
        {
          "internalType": "uint256",
          "name": "tokenId",
          "type": "uint256"
        },
        {
          "internalType": "bytes",
          "name": "data",
          "type": "bytes"
        }
      ],
      "name": "safeTransferFrom",
      "outputs": [],
      "stateMutability": "nonpayable",
      "type": "function"
    },
    {
      "inputs": [
        {
          "internalType": "address",
          "name": "operator",
          "type": "address"
        },
        {
          "internalType": "bool",
          "name": "approved",
          "type": "bool"
        }
      ],
      "name": "setApprovalForAll",
      "outputs": [],
      "stateMutability": "nonpayable",
      "type": "function"
    },
    {
      "inputs": [
        {
          "internalType": "string",
          "name": "baseURI",
          "type": "string"
        }
      ],
      "name": "setBaseURI",
      "outputs": [],
      "stateMutability": "nonpayable",
      "type": "function"
    },
    {
      "inputs": [
        {
          "internalType": "uint256",
          "name": "newPrice",
          "type": "uint256"
        }
      ],
      "name": "setMintPrice",
      "outputs": [],
      "stateMutability": "nonpayable",
      "type": "function"
    },
    {
      "inputs": [
        {
          "internalType": "uint256",
          "name": "tokenId",
          "type": "uint256"
        },
        {
          "internalType": "bool",
          "name": "forSale",
          "type": "bool"
        }
      ],
      "name": "setTokenSaleStatus",
      "outputs": [],
      "stateMutability": "nonpayable",
      "type": "function"
    },
    {
      "inputs": [
        {
          "internalType": "uint256",
          "name": "",
          "type": "uint256"
        }
      ],
      "name": "stripePurchases",
      "outputs": [
        {
          "internalType": "address",
          "name": "",
          "type": "address"
        }
      ],
      "stateMutability": "view",
      "type": "function"
    },
    {
      "inputs": [
        {
          "internalType": "bytes4",
          "name": "interfaceId",
          "type": "bytes4"
        }
      ],
      "name": "supportsInterface",
      "outputs": [
        {
          "internalType": "bool",
          "name": "",
          "type": "bool"
        }
      ],
      "stateMutability": "view",
      "type": "function"
    },
    {
      "inputs": [],
      "name": "symbol",
      "outputs": [
        {
          "internalType": "string",
          "name": "",
          "type": "string"
        }
      ],
      "stateMutability": "view",
      "type": "function"
    },
    {
      "inputs": [
        {
          "internalType": "uint256",
          "name": "tokenId",
          "type": "uint256"
        }
      ],
      "name": "tokenURI",
      "outputs": [
        {
          "internalType": "string",
          "name": "",
          "type": "string"
        }
      ],
      "stateMutability": "view",
      "type": "function"
    },
    {
      "inputs": [
        {
          "internalType": "address",
          "name": "from",
          "type": "address"
        },
        {
          "internalType": "address",
          "name": "to",
          "type": "address"
        },
        {
          "internalType": "uint256",
          "name": "tokenId",
          "type": "uint256"
        }
      ],
      "name": "transferFrom",
      "outputs": [],
      "stateMutability": "nonpayable",
      "type": "function"
    },
    {
      "inputs": [
        {
          "internalType": "address",
          "name": "newOwner",
          "type": "address"
        }
      ],
      "name": "transferOwnership",
      "outputs": [],
      "stateMutability": "nonpayable",
      "type": "function"
    },
    {
      "inputs": [],
      "name": "unpause",
      "outputs": [],
      "stateMutability": "nonpayable",
      "type": "function"
    }
  ],
  "bytecode": "0x608060405266038d7ea4c68000600a553480156200001c57600080fd5b506040518060400160405280601581526020017f4469616d6f6e6420416363657373205469636b657400000000000000000000008152506040518060400160405280600781526020017f4449414d4f4e440000000000000000000000000000000000000000000000000081525081600090816200009a919062000461565b508060019081620000ac919062000461565b505050620000cf620000c36200011960201b60201c565b6200012160201b60201c565b60016007819055506000600860006101000a81548160ff021916908315150217905550604051806020016040528060008152506009908162000112919062000461565b5062000548565b600033905090565b6000600660009054906101000a900473ffffffffffffffffffffffffffffffffffffffff16905081600660006101000a81548173ffffffffffffffffffffffffffffffffffffffff021916908373ffffffffffffffffffffffffffffffffffffffff1602179055508173ffffffffffffffffffffffffffffffffffffffff168173ffffffffffffffffffffffffffffffffffffffff167f8be0079c531659141344cd1fd0a4f28419497f9722a3daafe3b4186f6b6457e060405160405180910390a35050565b600081519050919050565b7f4e487b7100000000000000000000000000000000000000000000000000000000600052604160045260246000fd5b7f4e487b7100000000000000000000000000000000000000000000000000000000600052602260045260246000fd5b600060028204905060018216806200026957607f821691505b6020821081036200027f576200027e62000221565b5b50919050565b60008190508160005260206000209050919050565b60006020601f8301049050919050565b600082821b905092915050565b600060088302620002e97fffffffffffffffffffffffffffffffffffffffffffffffffffffffffffffffff82620002aa565b620002f58683620002aa565b95508019841693508086168417925050509392505050565b6000819050919050565b6000819050919050565b6000620003426200033c62000336846200030d565b62000317565b6200030d565b9050919050565b6000819050919050565b6200035e8362000321565b620003766200036d8262000349565b848454620002b7565b825550505050565b600090565b6200038d6200037e565b6200039a81848462000353565b505050565b5b81811015620003c257620003b660008262000383565b600181019050620003a0565b5050565b601f8211156200041157620003db8162000285565b620003e6846200029a565b81016020851015620003f6578190505b6200040e62000405856200029a565b8301826200039f565b50505b505050565b600082821c905092915050565b6000620004366000198460080262000416565b1980831691505092915050565b600062000451838362000423565b9150826002028217905092915050565b6200046c82620001e7565b67ffffffffffffffff811115620004885762000487620001f2565b5b62000494825462000250565b620004a1828285620003c6565b600060209050601f831160018114620004d95760008415620004c4578287015190505b620004d0858262000443565b86555062000540565b601f198416620004e98662000285565b60005b828110156200051357848901518255600182019150602085019450602081019050620004ec565b868310156200053357848901516200052f601f89168262000423565b8355505b6001600288020188555050505b505050505050565b614a0680620005586000396000f3fe6080604052600436106101d85760003560e01c806370a0823111610102578063a9e7c2e511610095578063e3eb28fd11610064578063e3eb28fd14610673578063e985e9c5146106b0578063f2fde38b146106ed578063f4a0a52814610716576101d8565b8063a9e7c2e5146105bb578063b0fbc276146105e4578063b88d4fde1461060d578063c87b56dd14610636576101d8565b80638467be0d116100d15780638467be0d146105135780638da5cb5b1461053c57806395d89b4114610567578063a22cb46514610592576101d8565b806370a082311461047f578063715018a6146104bc57806382b2e44d146104d35780638456cb59146104fc576101d8565b80633f4ba83a1161017a5780635c975abb116101495780635c975abb146103c15780636352211e146103ec57806365e4e1c0146104295780636817c76c14610454576101d8565b80633f4ba83a1461031b57806342842e0e146103325780634fed1c941461035b57806355f804b314610398576101d8565b8063095ea7b3116101b6578063095ea7b314610282578063150bde03146102ab57806323b872dd146102c757806332cb6b0c146102f0576101d8565b806301ffc9a7146101dd57806306fdde031461021a578063081812fc14610245575b600080fd5b3480156101e957600080fd5b5061020460048036038101906101ff9190612dff565b61073f565b6040516102119190612e47565b60405180910390f35b34801561022657600080fd5b5061022f610821565b60405161023c9190612ef2565b60405180910390f35b34801561025157600080fd5b5061026c60048036038101906102679190612f4a565b6108b3565b6040516102799190612fb8565b60405180910390f35b34801561028e57600080fd5b506102a960048036038101906102a49190612fff565b6108f9565b005b6102c560048036038101906102c09190612f4a565b610a10565b005b3480156102d357600080fd5b506102ee60048036038101906102e9919061303f565b610dec565b005b3480156102fc57600080fd5b50610305610e4c565b60405161031291906130a1565b60405180910390f35b34801561032757600080fd5b50610330610e51565b005b34801561033e57600080fd5b506103596004803603810190610354919061303f565b610ea6565b005b34801561036757600080fd5b50610382600480360381019061037d9190612f4a565b610ec6565b60405161038f9190612e47565b60405180910390f35b3480156103a457600080fd5b506103bf60048036038101906103ba91906131f1565b610f37565b005b3480156103cd57600080fd5b506103d6610f52565b6040516103e39190612e47565b60405180910390f35b3480156103f857600080fd5b50610413600480360381019061040e9190612f4a565b610f69565b6040516104209190612fb8565b60405180910390f35b34801561043557600080fd5b5061043e610fef565b60405161044b91906132f8565b60405180910390f35b34801561046057600080fd5b506104696111bc565b60405161047691906130a1565b60405180910390f35b34801561048b57600080fd5b506104a660048036038101906104a1919061331a565b6111c2565b6040516104b391906130a1565b60405180910390f35b3480156104c857600080fd5b506104d1611279565b005b3480156104df57600080fd5b506104fa60048036038101906104f59190613373565b61128d565b005b34801561050857600080fd5b506105116113da565b005b34801561051f57600080fd5b5061053a60048036038101906105359190612f4a565b61142f565b005b34801561054857600080fd5b50610551611523565b60405161055e9190612fb8565b60405180910390f35b34801561057357600080fd5b5061057c61154d565b6040516105899190612ef2565b60405180910390f35b34801561059e57600080fd5b506105b960048036038101906105b491906133b3565b6115df565b005b3480156105c757600080fd5b506105e260048036038101906105dd9190612f4a565b6115f5565b005b3480156105f057600080fd5b5061060b600480360381019061060691906133f3565b611813565b005b34801561061957600080fd5b50610634600480360381019061062f91906134d4565b611a56565b005b34801561064257600080fd5b5061065d60048036038101906106589190612f4a565b611ab8565b60405161066a9190612ef2565b60405180910390f35b34801561067f57600080fd5b5061069a60048036038101906106959190612f4a565b611b20565b6040516106a79190612fb8565b60405180910390f35b3480156106bc57600080fd5b506106d760048036038101906106d29190613557565b611b53565b6040516106e49190612e47565b60405180910390f35b3480156106f957600080fd5b50610714600480360381019061070f919061331a565b611be7565b005b34801561072257600080fd5b5061073d60048036038101906107389190612f4a565b611c6a565b005b60007f80ac58cd000000000000000000000000000000000000000000000000000000007bffffffffffffffffffffffffffffffffffffffffffffffffffffffff1916827bffffffffffffffffffffffffffffffffffffffffffffffffffffffff1916148061080a57507f5b5e139f000000000000000000000000000000000000000000000000000000007bffffffffffffffffffffffffffffffffffffffffffffffffffffffff1916827bffffffffffffffffffffffffffffffffffffffffffffffffffffffff1916145b8061081a575061081982611c7c565b5b9050919050565b606060008054610830906135c6565b80601f016020809104026020016040519081016040528092919081815260200182805461085c906135c6565b80156108a95780601f1061087e576101008083540402835291602001916108a9565b820191906000526020600020905b81548152906001019060200180831161088c57829003601f168201915b5050505050905090565b60006108be82611ce6565b6004600083815260200190815260200160002060009054906101000a900473ffffffffffffffffffffffffffffffffffffffff169050919050565b600061090482610f69565b90508073ffffffffffffffffffffffffffffffffffffffff168373ffffffffffffffffffffffffffffffffffffffff1603610974576040517f08c379a000000000000000000000000000000000000000000000000000000000815260040161096b90613669565b60405180910390fd5b8073ffffffffffffffffffffffffffffffffffffffff16610993611d31565b73ffffffffffffffffffffffffffffffffffffffff1614806109c257506109c1816109bc611d31565b611b53565b5b610a01576040517f08c379a00000000000000000000000000000000000000000000000000000000081526004016109f8906136fb565b60405180910390fd5b610a0b8383611d39565b505050565b610a18611df2565b610a20611e41565b610a2981611e8b565b610a68576040517f08c379a0000000000000000000000000000000000000000000000000000000008152600401610a5f90613767565b60405180910390fd5b610a7181610ec6565b610ab0576040517f08c379a0000000000000000000000000000000000000000000000000000000008152600401610aa7906137d3565b60405180910390fd5b600a54341015610af5576040517f08c379a0000000000000000000000000000000000000000000000000000000008152600401610aec9061383f565b60405180910390fd5b600073ffffffffffffffffffffffffffffffffffffffff16600d600083815260200190815260200160002060009054906101000a900473ffffffffffffffffffffffffffffffffffffffff1673ffffffffffffffffffffffffffffffffffffffff1614610b97576040517f08c379a0000000000000000000000000000000000000000000000000000000008152600401610b8e906138ab565b60405180910390fd5b6000610ba282610f69565b90503373ffffffffffffffffffffffffffffffffffffffff168173ffffffffffffffffffffffffffffffffffffffff1603610c12576040517f08c379a0000000000000000000000000000000000000000000000000000000008152600401610c0990613917565b60405180910390fd5b6000600a5434610c229190613966565b9050610c2f823385611ecc565b610c3a8360006121c5565b60008273ffffffffffffffffffffffffffffffffffffffff16600a54604051610c62906139cb565b60006040518083038185875af1925050503d8060008114610c9f576040519150601f19603f3d011682016040523d82523d6000602084013e610ca4565b606091505b5050905080610ce8576040517f08c379a0000000000000000000000000000000000000000000000000000000008152600401610cdf90613a2c565b60405180910390fd5b6000821115610d9f5760003373ffffffffffffffffffffffffffffffffffffffff1683604051610d17906139cb565b60006040518083038185875af1925050503d8060008114610d54576040519150601f19603f3d011682016040523d82523d6000602084013e610d59565b606091505b5050905080610d9d576040517f08c379a0000000000000000000000000000000000000000000000000000000008152600401610d9490613a98565b60405180910390fd5b505b7ff6ccc0cf89c21c54724ea6ef2ec01da8fe33a1cebe06607e160fd78483eba302833386600a54604051610dd69493929190613ab8565b60405180910390a1505050610de9612216565b50565b610dfd610df7611d31565b82612220565b610e3c576040517f08c379a0000000000000000000000000000000000000000000000000000000008152600401610e3390613b6f565b60405180910390fd5b610e47838383611ecc565b505050565b601481565b610e596122b5565b610e61612333565b3373ffffffffffffffffffffffffffffffffffffffff167f5b65b0c1363b3003db9bcc5e1fd8805a6d6bf5bf6dc9d3431ee4494cd7d1176660405160405180910390a2565b610ec183838360405180602001604052806000815250611a56565b505050565b60008082118015610ed8575060148211155b610f17576040517f08c379a0000000000000000000000000000000000000000000000000000000008152600401610f0e90613bdb565b60405180910390fd5b6000600183610f269190613966565b6001901b600b541614159050919050565b610f3f6122b5565b8060099081610f4e9190613da7565b5050565b6000600860009054906101000a900460ff16905090565b600080610f7583612396565b9050600073ffffffffffffffffffffffffffffffffffffffff168173ffffffffffffffffffffffffffffffffffffffff1603610fe6576040517f08c379a0000000000000000000000000000000000000000000000000000000008152600401610fdd90613ec5565b60405180910390fd5b80915050919050565b60606000600c5467ffffffffffffffff81111561100f5761100e6130c6565b5b60405190808252806020026020018201604052801561103d5781602001602082028036833780820191505090505b509050600080600190505b600c54811161110c5761105a81610ec6565b80156110c55750600073ffffffffffffffffffffffffffffffffffffffff16600d600083815260200190815260200160002060009054906101000a900473ffffffffffffffffffffffffffffffffffffffff1673ffffffffffffffffffffffffffffffffffffffff16145b156110f957808383815181106110de576110dd613ee5565b5b60200260200101818152505081806110f590613f14565b9250505b808061110490613f14565b915050611048565b5060008167ffffffffffffffff811115611129576111286130c6565b5b6040519080825280602002602001820160405280156111575781602001602082028036833780820191505090505b50905060005b828110156111b25783818151811061117857611177613ee5565b5b602002602001015182828151811061119357611192613ee5565b5b60200260200101818152505080806111aa90613f14565b91505061115d565b5080935050505090565b600a5481565b60008073ffffffffffffffffffffffffffffffffffffffff168273ffffffffffffffffffffffffffffffffffffffff1603611232576040517f08c379a000000000000000000000000000000000000000000000000000000000815260040161122990613fce565b60405180910390fd5b600360008373ffffffffffffffffffffffffffffffffffffffff1673ffffffffffffffffffffffffffffffffffffffff168152602001908152602001600020549050919050565b6112816122b5565b61128b60006123d3565b565b61129682611e8b565b6112d5576040517f08c379a00000000000000000000000000000000000000000000000000000000081526004016112cc90613767565b60405180910390fd5b6112dd611d31565b73ffffffffffffffffffffffffffffffffffffffff166112fc83610f69565b73ffffffffffffffffffffffffffffffffffffffff1614611352576040517f08c379a00000000000000000000000000000000000000000000000000000000081526004016113499061403a565b60405180910390fd5b61135c82826121c5565b801561139e577fbf9c5e85a8d8565a3d499b4ea68b35da3e8466cc67b9dce4ebd4bf93bc90d5388260405161139191906130a1565b60405180910390a16113d6565b7fccd0b7af52bf5f08ec6781299e66283301e612d1ca1ffceab3579a6364073c30826040516113cd91906130a1565b60405180910390a15b5050565b6113e26122b5565b6113ea612499565b3373ffffffffffffffffffffffffffffffffffffffff167f81990fd9a5c552b8e3677917d8a03c07678f0d2cb68f88b634aca2022e9bd19f60405160405180910390a2565b6114376122b5565b601481600c54611447919061405a565b1115611488576040517f08c379a000000000000000000000000000000000000000000000000000000000815260040161147f906140da565b60405180910390fd5b6000611492611d31565b905060005b8281101561151e57600c60008154809291906114b290613f14565b91905055506114c382600c546124fc565b6114d0600c5460016121c5565b7f4cc0a9c4a99ddc700de1af2c9f916a7cbfdb71f14801ccff94061ad1ef8a804082600c546040516115039291906140fa565b60405180910390a1808061151690613f14565b915050611497565b505050565b6000600660009054906101000a900473ffffffffffffffffffffffffffffffffffffffff16905090565b60606001805461155c906135c6565b80601f0160208091040260200160405190810160405280929190818152602001828054611588906135c6565b80156115d55780601f106115aa576101008083540402835291602001916115d5565b820191906000526020600020905b8154815290600101906020018083116115b857829003601f168201915b5050505050905090565b6115f16115ea611d31565b8383612719565b5050565b6115fd611df2565b611605611e41565b61160e81611e8b565b61164d576040517f08c379a000000000000000000000000000000000000000000000000000000000815260040161164490613767565b60405180910390fd5b3373ffffffffffffffffffffffffffffffffffffffff16600d600083815260200190815260200160002060009054906101000a900473ffffffffffffffffffffffffffffffffffffffff1673ffffffffffffffffffffffffffffffffffffffff16146116ee576040517f08c379a00000000000000000000000000000000000000000000000000000000081526004016116e59061416f565b60405180910390fd5b60006116f982610f69565b9050611703611523565b73ffffffffffffffffffffffffffffffffffffffff168173ffffffffffffffffffffffffffffffffffffffff1614611770576040517f08c379a000000000000000000000000000000000000000000000000000000000815260040161176790614201565b60405180910390fd5b61177b813384611ecc565b6000600d600084815260200190815260200160002060006101000a81548173ffffffffffffffffffffffffffffffffffffffff021916908373ffffffffffffffffffffffffffffffffffffffff1602179055507f8b224b108d8f9c6d554b41182503c3f8b79dfcf17233a9366d50c386c28af85082336040516117ff929190614221565b60405180910390a150611810612216565b50565b61181b6122b5565b61182482611e8b565b611863576040517f08c379a000000000000000000000000000000000000000000000000000000000815260040161185a90613767565b60405180910390fd5b61186c82610ec6565b6118ab576040517f08c379a00000000000000000000000000000000000000000000000000000000081526004016118a2906137d3565b60405180910390fd5b600073ffffffffffffffffffffffffffffffffffffffff168173ffffffffffffffffffffffffffffffffffffffff160361191a576040517f08c379a000000000000000000000000000000000000000000000000000000000815260040161191190614296565b60405180910390fd5b600073ffffffffffffffffffffffffffffffffffffffff16600d600084815260200190815260200160002060009054906101000a900473ffffffffffffffffffffffffffffffffffffffff1673ffffffffffffffffffffffffffffffffffffffff16146119bc576040517f08c379a00000000000000000000000000000000000000000000000000000000081526004016119b390614302565b60405180910390fd5b6119c78260006121c5565b80600d600084815260200190815260200160002060006101000a81548173ffffffffffffffffffffffffffffffffffffffff021916908373ffffffffffffffffffffffffffffffffffffffff1602179055507fd9e06aca9c09bfec0d0acfdfc2dc2d2aa8564c3e0950891dc198ff7809146a3e8282604051611a4a929190614221565b60405180910390a15050565b611a67611a61611d31565b83612220565b611aa6576040517f08c379a0000000000000000000000000000000000000000000000000000000008152600401611a9d90613b6f565b60405180910390fd5b611ab284848484612885565b50505050565b6060611ac382611ce6565b6000611acd6128e1565b90506000815111611aed5760405180602001604052806000815250611b18565b80611af784612973565b604051602001611b0892919061435e565b6040516020818303038152906040525b915050919050565b600d6020528060005260406000206000915054906101000a900473ffffffffffffffffffffffffffffffffffffffff1681565b6000600560008473ffffffffffffffffffffffffffffffffffffffff1673ffffffffffffffffffffffffffffffffffffffff16815260200190815260200160002060008373ffffffffffffffffffffffffffffffffffffffff1673ffffffffffffffffffffffffffffffffffffffff16815260200190815260200160002060009054906101000a900460ff16905092915050565b611bef6122b5565b600073ffffffffffffffffffffffffffffffffffffffff168173ffffffffffffffffffffffffffffffffffffffff1603611c5e576040517f08c379a0000000000000000000000000000000000000000000000000000000008152600401611c55906143f4565b60405180910390fd5b611c67816123d3565b50565b611c726122b5565b80600a8190555050565b60007f01ffc9a7000000000000000000000000000000000000000000000000000000007bffffffffffffffffffffffffffffffffffffffffffffffffffffffff1916827bffffffffffffffffffffffffffffffffffffffffffffffffffffffff1916149050919050565b611cef81611e8b565b611d2e576040517f08c379a0000000000000000000000000000000000000000000000000000000008152600401611d2590613ec5565b60405180910390fd5b50565b600033905090565b816004600083815260200190815260200160002060006101000a81548173ffffffffffffffffffffffffffffffffffffffff021916908373ffffffffffffffffffffffffffffffffffffffff160217905550808273ffffffffffffffffffffffffffffffffffffffff16611dac83610f69565b73ffffffffffffffffffffffffffffffffffffffff167f8c5be1e5ebec7d5bd14f71427d1e84f3dd0314c0f7b2291e5b200ac8c7c3b92560405160405180910390a45050565b600260075403611e37576040517f08c379a0000000000000000000000000000000000000000000000000000000008152600401611e2e90614460565b60405180910390fd5b6002600781905550565b611e49610f52565b15611e89576040517f08c379a0000000000000000000000000000000000000000000000000000000008152600401611e80906144cc565b60405180910390fd5b565b60008073ffffffffffffffffffffffffffffffffffffffff16611ead83612396565b73ffffffffffffffffffffffffffffffffffffffff1614159050919050565b8273ffffffffffffffffffffffffffffffffffffffff16611eec82610f69565b73ffffffffffffffffffffffffffffffffffffffff1614611f42576040517f08c379a0000000000000000000000000000000000000000000000000000000008152600401611f399061455e565b60405180910390fd5b600073ffffffffffffffffffffffffffffffffffffffff168273ffffffffffffffffffffffffffffffffffffffff1603611fb1576040517f08c379a0000000000000000000000000000000000000000000000000000000008152600401611fa8906145f0565b60405180910390fd5b611fbe8383836001612a41565b8273ffffffffffffffffffffffffffffffffffffffff16611fde82610f69565b73ffffffffffffffffffffffffffffffffffffffff1614612034576040517f08c379a000000000000000000000000000000000000000000000000000000000815260040161202b9061455e565b60405180910390fd5b6004600082815260200190815260200160002060006101000a81549073ffffffffffffffffffffffffffffffffffffffff02191690556001600360008573ffffffffffffffffffffffffffffffffffffffff1673ffffffffffffffffffffffffffffffffffffffff168152602001908152602001600020600082825403925050819055506001600360008473ffffffffffffffffffffffffffffffffffffffff1673ffffffffffffffffffffffffffffffffffffffff16815260200190815260200160002060008282540192505081905550816002600083815260200190815260200160002060006101000a81548173ffffffffffffffffffffffffffffffffffffffff021916908373ffffffffffffffffffffffffffffffffffffffff160217905550808273ffffffffffffffffffffffffffffffffffffffff168473ffffffffffffffffffffffffffffffffffffffff167fddf252ad1be2c89b69c2b068fc378daa952ba7f163c4a11628f55a4df523b3ef60405160405180910390a46121c08383836001612a47565b505050565b80156121f0576001826121d89190613966565b6001901b600b60008282541792505081905550612212565b6001826121fd9190613966565b6001901b19600b600082825416925050819055505b5050565b6001600781905550565b60008061222c83610f69565b90508073ffffffffffffffffffffffffffffffffffffffff168473ffffffffffffffffffffffffffffffffffffffff16148061226e575061226d8185611b53565b5b806122ac57508373ffffffffffffffffffffffffffffffffffffffff16612294846108b3565b73ffffffffffffffffffffffffffffffffffffffff16145b91505092915050565b6122bd611d31565b73ffffffffffffffffffffffffffffffffffffffff166122db611523565b73ffffffffffffffffffffffffffffffffffffffff1614612331576040517f08c379a00000000000000000000000000000000000000000000000000000000081526004016123289061465c565b60405180910390fd5b565b61233b612a4d565b6000600860006101000a81548160ff0219169083151502179055507f5db9ee0a495bf2e6ff9c91a7834c1ba4fdd244a5e8aa4e537bd38aeae4b073aa61237f611d31565b60405161238c9190612fb8565b60405180910390a1565b60006002600083815260200190815260200160002060009054906101000a900473ffffffffffffffffffffffffffffffffffffffff169050919050565b6000600660009054906101000a900473ffffffffffffffffffffffffffffffffffffffff16905081600660006101000a81548173ffffffffffffffffffffffffffffffffffffffff021916908373ffffffffffffffffffffffffffffffffffffffff1602179055508173ffffffffffffffffffffffffffffffffffffffff168173ffffffffffffffffffffffffffffffffffffffff167f8be0079c531659141344cd1fd0a4f28419497f9722a3daafe3b4186f6b6457e060405160405180910390a35050565b6124a1611e41565b6001600860006101000a81548160ff0219169083151502179055507f62e78cea01bee320cd4e420270b5ea74000d11b0c9f74754ebdbfc544b05a2586124e5611d31565b6040516124f29190612fb8565b60405180910390a1565b600073ffffffffffffffffffffffffffffffffffffffff168273ffffffffffffffffffffffffffffffffffffffff160361256b576040517f08c379a0000000000000000000000000000000000000000000000000000000008152600401612562906146c8565b60405180910390fd5b61257481611e8b565b156125b4576040517f08c379a00000000000000000000000000000000000000000000000000000000081526004016125ab90614734565b60405180910390fd5b6125c2600083836001612a41565b6125cb81611e8b565b1561260b576040517f08c379a000000000000000000000000000000000000000000000000000000000815260040161260290614734565b60405180910390fd5b6001600360008473ffffffffffffffffffffffffffffffffffffffff1673ffffffffffffffffffffffffffffffffffffffff16815260200190815260200160002060008282540192505081905550816002600083815260200190815260200160002060006101000a81548173ffffffffffffffffffffffffffffffffffffffff021916908373ffffffffffffffffffffffffffffffffffffffff160217905550808273ffffffffffffffffffffffffffffffffffffffff16600073ffffffffffffffffffffffffffffffffffffffff167fddf252ad1be2c89b69c2b068fc378daa952ba7f163c4a11628f55a4df523b3ef60405160405180910390a4612715600083836001612a47565b5050565b8173ffffffffffffffffffffffffffffffffffffffff168373ffffffffffffffffffffffffffffffffffffffff1603612787576040517f08c379a000000000000000000000000000000000000000000000000000000000815260040161277e906147a0565b60405180910390fd5b80600560008573ffffffffffffffffffffffffffffffffffffffff1673ffffffffffffffffffffffffffffffffffffffff16815260200190815260200160002060008473ffffffffffffffffffffffffffffffffffffffff1673ffffffffffffffffffffffffffffffffffffffff16815260200190815260200160002060006101000a81548160ff0219169083151502179055508173ffffffffffffffffffffffffffffffffffffffff168373ffffffffffffffffffffffffffffffffffffffff167f17307eab39ab6107e8899845ad3d59bd9653f200f220920489ca2b5937696c31836040516128789190612e47565b60405180910390a3505050565b612890848484611ecc565b61289c84848484612a96565b6128db576040517f08c379a00000000000000000000000000000000000000000000000000000000081526004016128d290614832565b60405180910390fd5b50505050565b6060600980546128f0906135c6565b80601f016020809104026020016040519081016040528092919081815260200182805461291c906135c6565b80156129695780601f1061293e57610100808354040283529160200191612969565b820191906000526020600020905b81548152906001019060200180831161294c57829003601f168201915b5050505050905090565b60606000600161298284612c1d565b01905060008167ffffffffffffffff8111156129a1576129a06130c6565b5b6040519080825280601f01601f1916602001820160405280156129d35781602001600182028036833780820191505090505b509050600082602001820190505b600115612a36578080600190039150507f3031323334353637383961626364656600000000000000000000000000000000600a86061a8153600a8581612a2a57612a29614852565b5b049450600085036129e1575b819350505050919050565b50505050565b50505050565b612a55610f52565b612a94576040517f08c379a0000000000000000000000000000000000000000000000000000000008152600401612a8b906148cd565b60405180910390fd5b565b6000612ab78473ffffffffffffffffffffffffffffffffffffffff16612d70565b15612c10578373ffffffffffffffffffffffffffffffffffffffff1663150b7a02612ae0611d31565b8786866040518563ffffffff1660e01b8152600401612b029493929190614942565b6020604051808303816000875af1925050508015612b3e57506040513d601f19601f82011682018060405250810190612b3b91906149a3565b60015b612bc0573d8060008114612b6e576040519150601f19603f3d011682016040523d82523d6000602084013e612b73565b606091505b506000815103612bb8576040517f08c379a0000000000000000000000000000000000000000000000000000000008152600401612baf90614832565b60405180910390fd5b805181602001fd5b63150b7a0260e01b7bffffffffffffffffffffffffffffffffffffffffffffffffffffffff1916817bffffffffffffffffffffffffffffffffffffffffffffffffffffffff191614915050612c15565b600190505b949350505050565b600080600090507a184f03e93ff9f4daa797ed6e38ed64bf6a1f0100000000000000008310612c7b577a184f03e93ff9f4daa797ed6e38ed64bf6a1f0100000000000000008381612c7157612c70614852565b5b0492506040810190505b6d04ee2d6d415b85acef81000000008310612cb8576d04ee2d6d415b85acef81000000008381612cae57612cad614852565b5b0492506020810190505b662386f26fc100008310612ce757662386f26fc100008381612cdd57612cdc614852565b5b0492506010810190505b6305f5e1008310612d10576305f5e1008381612d0657612d05614852565b5b0492506008810190505b6127108310612d35576127108381612d2b57612d2a614852565b5b0492506004810190505b60648310612d585760648381612d4e57612d4d614852565b5b0492506002810190505b600a8310612d67576001810190505b80915050919050565b6000808273ffffffffffffffffffffffffffffffffffffffff163b119050919050565b6000604051905090565b600080fd5b600080fd5b60007fffffffff0000000000000000000000000000000000000000000000000000000082169050919050565b612ddc81612da7565b8114612de757600080fd5b50565b600081359050612df981612dd3565b92915050565b600060208284031215612e1557612e14612d9d565b5b6000612e2384828501612dea565b91505092915050565b60008115159050919050565b612e4181612e2c565b82525050565b6000602082019050612e5c6000830184612e38565b92915050565b600081519050919050565b600082825260208201905092915050565b60005b83811015612e9c578082015181840152602081019050612e81565b60008484015250505050565b6000601f19601f8301169050919050565b6000612ec482612e62565b612ece8185612e6d565b9350612ede818560208601612e7e565b612ee781612ea8565b840191505092915050565b60006020820190508181036000830152612f0c8184612eb9565b905092915050565b6000819050919050565b612f2781612f14565b8114612f3257600080fd5b50565b600081359050612f4481612f1e565b92915050565b600060208284031215612f6057612f5f612d9d565b5b6000612f6e84828501612f35565b91505092915050565b600073ffffffffffffffffffffffffffffffffffffffff82169050919050565b6000612fa282612f77565b9050919050565b612fb281612f97565b82525050565b6000602082019050612fcd6000830184612fa9565b92915050565b612fdc81612f97565b8114612fe757600080fd5b50565b600081359050612ff981612fd3565b92915050565b6000806040838503121561301657613015612d9d565b5b600061302485828601612fea565b925050602061303585828601612f35565b9150509250929050565b60008060006060848603121561305857613057612d9d565b5b600061306686828701612fea565b935050602061307786828701612fea565b925050604061308886828701612f35565b9150509250925092565b61309b81612f14565b82525050565b60006020820190506130b66000830184613092565b92915050565b600080fd5b600080fd5b7f4e487b7100000000000000000000000000000000000000000000000000000000600052604160045260246000fd5b6130fe82612ea8565b810181811067ffffffffffffffff8211171561311d5761311c6130c6565b5b80604052505050565b6000613130612d93565b905061313c82826130f5565b919050565b600067ffffffffffffffff82111561315c5761315b6130c6565b5b61316582612ea8565b9050602081019050919050565b82818337600083830152505050565b600061319461318f84613141565b613126565b9050828152602081018484840111156131b0576131af6130c1565b5b6131bb848285613172565b509392505050565b600082601f8301126131d8576131d76130bc565b5b81356131e8848260208601613181565b91505092915050565b60006020828403121561320757613206612d9d565b5b600082013567ffffffffffffffff81111561322557613224612da2565b5b613231848285016131c3565b91505092915050565b600081519050919050565b600082825260208201905092915050565b6000819050602082019050919050565b61326f81612f14565b82525050565b60006132818383613266565b60208301905092915050565b6000602082019050919050565b60006132a58261323a565b6132af8185613245565b93506132ba83613256565b8060005b838110156132eb5781516132d28882613275565b97506132dd8361328d565b9250506001810190506132be565b5085935050505092915050565b60006020820190508181036000830152613312818461329a565b905092915050565b6000602082840312156133305761332f612d9d565b5b600061333e84828501612fea565b91505092915050565b61335081612e2c565b811461335b57600080fd5b50565b60008135905061336d81613347565b92915050565b6000806040838503121561338a57613389612d9d565b5b600061339885828601612f35565b92505060206133a98582860161335e565b9150509250929050565b600080604083850312156133ca576133c9612d9d565b5b60006133d885828601612fea565b92505060206133e98582860161335e565b9150509250929050565b6000806040838503121561340a57613409612d9d565b5b600061341885828601612f35565b925050602061342985828601612fea565b9150509250929050565b600067ffffffffffffffff82111561344e5761344d6130c6565b5b61345782612ea8565b9050602081019050919050565b600061347761347284613433565b613126565b905082815260208101848484011115613493576134926130c1565b5b61349e848285613172565b509392505050565b600082601f8301126134bb576134ba6130bc565b5b81356134cb848260208601613464565b91505092915050565b600080600080608085870312156134ee576134ed612d9d565b5b60006134fc87828801612fea565b945050602061350d87828801612fea565b935050604061351e87828801612f35565b925050606085013567ffffffffffffffff81111561353f5761353e612da2565b5b61354b878288016134a6565b91505092959194509250565b6000806040838503121561356e5761356d612d9d565b5b600061357c85828601612fea565b925050602061358d85828601612fea565b9150509250929050565b7f4e487b7100000000000000000000000000000000000000000000000000000000600052602260045260246000fd5b600060028204905060018216806135de57607f821691505b6020821081036135f1576135f0613597565b5b50919050565b7f4552433732313a20617070726f76616c20746f2063757272656e74206f776e6560008201527f7200000000000000000000000000000000000000000000000000000000000000602082015250565b6000613653602183612e6d565b915061365e826135f7565b604082019050919050565b6000602082019050818103600083015261368281613646565b9050919050565b7f4552433732313a20617070726f76652063616c6c6572206973206e6f7420746f60008201527f6b656e206f776e6572206f7220617070726f76656420666f7220616c6c000000602082015250565b60006136e5603d83612e6d565b91506136f082613689565b604082019050919050565b60006020820190508181036000830152613714816136d8565b9050919050565b7f546f6b656e20646f6573206e6f74206578697374000000000000000000000000600082015250565b6000613751601483612e6d565b915061375c8261371b565b602082019050919050565b6000602082019050818103600083015261378081613744565b9050919050565b7f546f6b656e206973206e6f7420666f722073616c650000000000000000000000600082015250565b60006137bd601583612e6d565b91506137c882613787565b602082019050919050565b600060208201905081810360008301526137ec816137b0565b9050919050565b7f496e73756666696369656e74204554482073656e740000000000000000000000600082015250565b6000613829601583612e6d565b9150613834826137f3565b602082019050919050565b600060208201905081810360008301526138588161381c565b9050919050565b7f546f6b656e206973207072652d70757263686173656400000000000000000000600082015250565b6000613895601683612e6d565b91506138a08261385f565b602082019050919050565b600060208201905081810360008301526138c481613888565b9050919050565b7f43616e6e6f742062757920796f7572206f776e20746f6b656e00000000000000600082015250565b6000613901601983612e6d565b915061390c826138cb565b602082019050919050565b60006020820190508181036000830152613930816138f4565b9050919050565b7f4e487b7100000000000000000000000000000000000000000000000000000000600052601160045260246000fd5b600061397182612f14565b915061397c83612f14565b925082820390508181111561399457613993613937565b5b92915050565b600081905092915050565b50565b60006139b560008361399a565b91506139c0826139a5565b600082019050919050565b60006139d6826139a8565b9150819050919050565b7f5061796d656e7420746f2073656c6c6572206661696c65640000000000000000600082015250565b6000613a16601883612e6d565b9150613a21826139e0565b602082019050919050565b60006020820190508181036000830152613a4581613a09565b9050919050565b7f526566756e64206661696c656400000000000000000000000000000000000000600082015250565b6000613a82600d83612e6d565b9150613a8d82613a4c565b602082019050919050565b60006020820190508181036000830152613ab181613a75565b9050919050565b6000608082019050613acd6000830187612fa9565b613ada6020830186612fa9565b613ae76040830185613092565b613af46060830184613092565b95945050505050565b7f4552433732313a2063616c6c6572206973206e6f7420746f6b656e206f776e6560008201527f72206f7220617070726f76656400000000000000000000000000000000000000602082015250565b6000613b59602d83612e6d565b9150613b6482613afd565b604082019050919050565b60006020820190508181036000830152613b8881613b4c565b9050919050565b7f496e76616c696420746f6b656e20494400000000000000000000000000000000600082015250565b6000613bc5601083612e6d565b9150613bd082613b8f565b602082019050919050565b60006020820190508181036000830152613bf481613bb8565b9050919050565b60008190508160005260206000209050919050565b60006020601f8301049050919050565b600082821b905092915050565b600060088302613c5d7fffffffffffffffffffffffffffffffffffffffffffffffffffffffffffffffff82613c20565b613c678683613c20565b95508019841693508086168417925050509392505050565b6000819050919050565b6000613ca4613c9f613c9a84612f14565b613c7f565b612f14565b9050919050565b6000819050919050565b613cbe83613c89565b613cd2613cca82613cab565b848454613c2d565b825550505050565b600090565b613ce7613cda565b613cf2818484613cb5565b505050565b5b81811015613d1657613d0b600082613cdf565b600181019050613cf8565b5050565b601f821115613d5b57613d2c81613bfb565b613d3584613c10565b81016020851015613d44578190505b613d58613d5085613c10565b830182613cf7565b50505b505050565b600082821c905092915050565b6000613d7e60001984600802613d60565b1980831691505092915050565b6000613d978383613d6d565b9150826002028217905092915050565b613db082612e62565b67ffffffffffffffff811115613dc957613dc86130c6565b5b613dd382546135c6565b613dde828285613d1a565b600060209050601f831160018114613e115760008415613dff578287015190505b613e098582613d8b565b865550613e71565b601f198416613e1f86613bfb565b60005b82811015613e4757848901518255600182019150602085019450602081019050613e22565b86831015613e645784890151613e60601f891682613d6d565b8355505b6001600288020188555050505b505050505050565b7f4552433732313a20696e76616c696420746f6b656e2049440000000000000000600082015250565b6000613eaf601883612e6d565b9150613eba82613e79565b602082019050919050565b60006020820190508181036000830152613ede81613ea2565b9050919050565b7f4e487b7100000000000000000000000000000000000000000000000000000000600052603260045260246000fd5b6000613f1f82612f14565b91507fffffffffffffffffffffffffffffffffffffffffffffffffffffffffffffffff8203613f5157613f50613937565b5b600182019050919050565b7f4552433732313a2061646472657373207a65726f206973206e6f74206120766160008201527f6c6964206f776e65720000000000000000000000000000000000000000000000602082015250565b6000613fb8602983612e6d565b9150613fc382613f5c565b604082019050919050565b60006020820190508181036000830152613fe781613fab565b9050919050565b7f4e6f7420746f6b656e206f776e65720000000000000000000000000000000000600082015250565b6000614024600f83612e6d565b915061402f82613fee565b602082019050919050565b6000602082019050818103600083015261405381614017565b9050919050565b600061406582612f14565b915061407083612f14565b925082820190508082111561408857614087613937565b5b92915050565b7f576f756c6420657863656564206d617820737570706c79000000000000000000600082015250565b60006140c4601783612e6d565b91506140cf8261408e565b602082019050919050565b600060208201905081810360008301526140f3816140b7565b9050919050565b600060408201905061410f6000830185612fa9565b61411c6020830184613092565b9392505050565b7f4e6f7420617574686f72697a656420746f20636c61696d000000000000000000600082015250565b6000614159601783612e6d565b915061416482614123565b602082019050919050565b600060208201905081810360008301526141888161414c565b9050919050565b7f546f6b656e206e6f74206f776e656420627920636f6e7472616374206f776e6560008201527f7200000000000000000000000000000000000000000000000000000000000000602082015250565b60006141eb602183612e6d565b91506141f68261418f565b604082019050919050565b6000602082019050818103600083015261421a816141de565b9050919050565b60006040820190506142366000830185613092565b6142436020830184612fa9565b9392505050565b7f496e76616c696420707572636861736572206164647265737300000000000000600082015250565b6000614280601983612e6d565b915061428b8261424a565b602082019050919050565b600060208201905081810360008301526142af81614273565b9050919050565b7f546f6b656e20616c7265616479207072652d7075726368617365640000000000600082015250565b60006142ec601b83612e6d565b91506142f7826142b6565b602082019050919050565b6000602082019050818103600083015261431b816142df565b9050919050565b600081905092915050565b600061433882612e62565b6143428185614322565b9350614352818560208601612e7e565b80840191505092915050565b600061436a828561432d565b9150614376828461432d565b91508190509392505050565b7f4f776e61626c653a206e6577206f776e657220697320746865207a65726f206160008201527f6464726573730000000000000000000000000000000000000000000000000000602082015250565b60006143de602683612e6d565b91506143e982614382565b604082019050919050565b6000602082019050818103600083015261440d816143d1565b9050919050565b7f5265656e7472616e637947756172643a207265656e7472616e742063616c6c00600082015250565b600061444a601f83612e6d565b915061445582614414565b602082019050919050565b600060208201905081810360008301526144798161443d565b9050919050565b7f5061757361626c653a2070617573656400000000000000000000000000000000600082015250565b60006144b6601083612e6d565b91506144c182614480565b602082019050919050565b600060208201905081810360008301526144e5816144a9565b9050919050565b7f4552433732313a207472616e736665722066726f6d20696e636f72726563742060008201527f6f776e6572000000000000000000000000000000000000000000000000000000602082015250565b6000614548602583612e6d565b9150614553826144ec565b604082019050919050565b600060208201905081810360008301526145778161453b565b9050919050565b7f4552433732313a207472616e7366657220746f20746865207a65726f2061646460008201527f7265737300000000000000000000000000000000000000000000000000000000602082015250565b60006145da602483612e6d565b91506145e58261457e565b604082019050919050565b60006020820190508181036000830152614609816145cd565b9050919050565b7f4f776e61626c653a2063616c6c6572206973206e6f7420746865206f776e6572600082015250565b6000614646602083612e6d565b915061465182614610565b602082019050919050565b6000602082019050818103600083015261467581614639565b9050919050565b7f4552433732313a206d696e7420746f20746865207a65726f2061646472657373600082015250565b60006146b2602083612e6d565b91506146bd8261467c565b602082019050919050565b600060208201905081810360008301526146e1816146a5565b9050919050565b7f4552433732313a20746f6b656e20616c7265616479206d696e74656400000000600082015250565b600061471e601c83612e6d565b9150614729826146e8565b602082019050919050565b6000602082019050818103600083015261474d81614711565b9050919050565b7f4552433732313a20617070726f766520746f2063616c6c657200000000000000600082015250565b600061478a601983612e6d565b915061479582614754565b602082019050919050565b600060208201905081810360008301526147b98161477d565b9050919050565b7f4552433732313a207472616e7366657220746f206e6f6e20455243373231526560008201527f63656976657220696d706c656d656e7465720000000000000000000000000000602082015250565b600061481c603283612e6d565b9150614827826147c0565b604082019050919050565b6000602082019050818103600083015261484b8161480f565b9050919050565b7f4e487b7100000000000000000000000000000000000000000000000000000000600052601260045260246000fd5b7f5061757361626c653a206e6f7420706175736564000000000000000000000000600082015250565b60006148b7601483612e6d565b91506148c282614881565b602082019050919050565b600060208201905081810360008301526148e6816148aa565b9050919050565b600081519050919050565b600082825260208201905092915050565b6000614914826148ed565b61491e81856148f8565b935061492e818560208601612e7e565b61493781612ea8565b840191505092915050565b60006080820190506149576000830187612fa9565b6149646020830186612fa9565b6149716040830185613092565b81810360608301526149838184614909565b905095945050505050565b60008151905061499d81612dd3565b92915050565b6000602082840312156149b9576149b8612d9d565b5b60006149c78482850161498e565b9150509291505056fea2646970667358221220ab76ed8fb5b8268aca804e187780755af1a89716fb9c15e4a0dd5d554db6db1e64736f6c63430008140033",
  "linkReferences": {},
  "deployedLinkReferences": {}
}