{
  "_format": "hh-sol-artifact-1",
  "contractName": "TurtleTimepieceNFT",
  "sourceName": "contracts/TurtleTimepieceNFT.sol",
  "abi": [
    {
      "inputs": [],
      "stateMutability": "nonpayable",
      "type": "constructor"
    },
    {
      "anonymous": false,
      "inputs": [
        {
          "indexed": true,
          "internalType": "address",
          "name": "owner",
          "type": "address"
        },
        {
          "indexed": true,
          "internalType": "address",
          "name": "approved",
          "type": "address"
        },
        {
          "indexed": true,
          "internalType": "uint256",
          "name": "tokenId",
          "type": "uint256"
        }
      ],
      "name": "Approval",
      "type": "event"
    },
    {
      "anonymous": false,
      "inputs": [
        {
          "indexed": true,
          "internalType": "address",
          "name": "owner",
          "type": "address"
        },
        {
          "indexed": true,
          "internalType": "address",
          "name": "operator",
          "type": "address"
        },
        {
          "indexed": false,
          "internalType": "bool",
          "name": "approved",
          "type": "bool"
        }
      ],
      "name": "ApprovalForAll",
      "type": "event"
    },
    {
      "anonymous": false,
      "inputs": [
        {
          "indexed": false,
          "internalType": "uint256",
          "name": "_fromTokenId",
          "type": "uint256"
        },
        {
          "indexed": false,
          "internalType": "uint256",
          "name": "_toTokenId",
          "type": "uint256"
        }
      ],
      "name": "BatchMetadataUpdate",
      "type": "event"
    },
    {
      "anonymous": false,
      "inputs": [
        {
          "indexed": true,
          "internalType": "address",
          "name": "by",
          "type": "address"
        }
      ],
      "name": "ContractPaused",
      "type": "event"
    },
    {
      "anonymous": false,
      "inputs": [
        {
          "indexed": true,
          "internalType": "address",
          "name": "by",
          "type": "address"
        }
      ],
      "name": "ContractUnpaused",
      "type": "event"
    },
    {
      "anonymous": false,
      "inputs": [
        {
          "indexed": false,
          "internalType": "uint256",
          "name": "_tokenId",
          "type": "uint256"
        }
      ],
      "name": "MetadataUpdate",
      "type": "event"
    },
    {
      "anonymous": false,
      "inputs": [
        {
          "indexed": false,
          "internalType": "address",
          "name": "owner",
          "type": "address"
        },
        {
          "indexed": false,
          "internalType": "uint256",
          "name": "tokenId",
          "type": "uint256"
        },
        {
          "indexed": false,
          "internalType": "string",
          "name": "tokenURI",
          "type": "string"
        }
      ],
      "name": "NFTMinted",
      "type": "event"
    },
    {
      "anonymous": false,
      "inputs": [
        {
          "indexed": false,
          "internalType": "address",
          "name": "from",
          "type": "address"
        },
        {
          "indexed": false,
          "internalType": "address",
          "name": "to",
          "type": "address"
        },
        {
          "indexed": false,
          "internalType": "uint256",
          "name": "tokenId",
          "type": "uint256"
        },
        {
          "indexed": false,
          "internalType": "uint256",
          "name": "price",
          "type": "uint256"
        }
      ],
      "name": "NFTSold",
      "type": "event"
    },
    {
      "anonymous": false,
      "inputs": [
        {
          "indexed": true,
          "internalType": "address",
          "name": "previousOwner",
          "type": "address"
        },
        {
          "indexed": true,
          "internalType": "address",
          "name": "newOwner",
          "type": "address"
        }
      ],
      "name": "OwnershipTransferred",
      "type": "event"
    },
    {
      "anonymous": false,
      "inputs": [
        {
          "indexed": false,
          "internalType": "address",
          "name": "account",
          "type": "address"
        }
      ],
      "name": "Paused",
      "type": "event"
    },
    {
      "anonymous": false,
      "inputs": [
        {
          "indexed": false,
          "internalType": "uint256",
          "name": "tokenId",
          "type": "uint256"
        },
        {
          "indexed": false,
          "internalType": "address",
          "name": "claimer",
          "type": "address"
        }
      ],
      "name": "TokenClaimed",
      "type": "event"
    },
    {
      "anonymous": false,
      "inputs": [
        {
          "indexed": false,
          "internalType": "uint256",
          "name": "tokenId",
          "type": "uint256"
        },
        {
          "indexed": false,
          "internalType": "address",
          "name": "purchaser",
          "type": "address"
        }
      ],
      "name": "TokenPrePurchased",
      "type": "event"
    },
    {
      "anonymous": false,
      "inputs": [
        {
          "indexed": false,
          "internalType": "uint256",
          "name": "tokenId",
          "type": "uint256"
        }
      ],
      "name": "TokenPutForSale",
      "type": "event"
    },
    {
      "anonymous": false,
      "inputs": [
        {
          "indexed": false,
          "internalType": "uint256",
          "name": "tokenId",
          "type": "uint256"
        }
      ],
      "name": "TokenRemovedFromSale",
      "type": "event"
    },
    {
      "anonymous": false,
      "inputs": [
        {
          "indexed": true,
          "internalType": "address",
          "name": "from",
          "type": "address"
        },
        {
          "indexed": true,
          "internalType": "address",
          "name": "to",
          "type": "address"
        },
        {
          "indexed": true,
          "internalType": "uint256",
          "name": "tokenId",
          "type": "uint256"
        }
      ],
      "name": "Transfer",
      "type": "event"
    },
    {
      "anonymous": false,
      "inputs": [
        {
          "indexed": false,
          "internalType": "address",
          "name": "account",
          "type": "address"
        }
      ],
      "name": "Unpaused",
      "type": "event"
    },
    {
      "inputs": [],
      "name": "MAX_SUPPLY",
      "outputs": [
        {
          "internalType": "uint256",
          "name": "",
          "type": "uint256"
        }
      ],
      "stateMutability": "view",
      "type": "function"
    },
    {
      "inputs": [
        {
          "internalType": "address",
          "name": "to",
          "type": "address"
        },
        {
          "internalType": "uint256",
          "name": "tokenId",
          "type": "uint256"
        }
      ],
      "name": "approve",
      "outputs": [],
      "stateMutability": "nonpayable",
      "type": "function"
    },
    {
      "inputs": [
        {
          "internalType": "address",
          "name": "owner",
          "type": "address"
        }
      ],
      "name": "balanceOf",
      "outputs": [
        {
          "internalType": "uint256",
          "name": "",
          "type": "uint256"
        }
      ],
      "stateMutability": "view",
      "type": "function"
    },
    {
      "inputs": [
        {
          "internalType": "uint256",
          "name": "tokenId",
          "type": "uint256"
        }
      ],
      "name": "claimToken",
      "outputs": [],
      "stateMutability": "nonpayable",
      "type": "function"
    },
    {
      "inputs": [
        {
          "internalType": "uint256",
          "name": "tokenId",
          "type": "uint256"
        }
      ],
      "name": "getApproved",
      "outputs": [
        {
          "internalType": "address",
          "name": "",
          "type": "address"
        }
      ],
      "stateMutability": "view",
      "type": "function"
    },
    {
      "inputs": [
        {
          "internalType": "uint256",
          "name": "tokenId",
          "type": "uint256"
        }
      ],
      "name": "getPrePurchaser",
      "outputs": [
        {
          "internalType": "address",
          "name": "",
          "type": "address"
        }
      ],
      "stateMutability": "view",
      "type": "function"
    },
    {
      "inputs": [],
      "name": "getTokenCount",
      "outputs": [
        {
          "internalType": "uint256",
          "name": "",
          "type": "uint256"
        }
      ],
      "stateMutability": "view",
      "type": "function"
    },
    {
      "inputs": [],
      "name": "getTokensForSale",
      "outputs": [
        {
          "internalType": "uint256[]",
          "name": "",
          "type": "uint256[]"
        }
      ],
      "stateMutability": "view",
      "type": "function"
    },
    {
      "inputs": [
        {
          "internalType": "address",
          "name": "owner",
          "type": "address"
        },
        {
          "internalType": "address",
          "name": "operator",
          "type": "address"
        }
      ],
      "name": "isApprovedForAll",
      "outputs": [
        {
          "internalType": "bool",
          "name": "",
          "type": "bool"
        }
      ],
      "stateMutability": "view",
      "type": "function"
    },
    {
      "inputs": [
        {
          "internalType": "uint256",
          "name": "",
          "type": "uint256"
        }
      ],
      "name": "isTokenForSale",
      "outputs": [
        {
          "internalType": "bool",
          "name": "",
          "type": "bool"
        }
      ],
      "stateMutability": "view",
      "type": "function"
    },
    {
      "inputs": [
        {
          "internalType": "uint256",
          "name": "tokenId",
          "type": "uint256"
        },
        {
          "internalType": "address",
          "name": "purchaser",
          "type": "address"
        }
      ],
      "name": "markTokenAsPrePurchased",
      "outputs": [],
      "stateMutability": "nonpayable",
      "type": "function"
    },
    {
      "inputs": [],
      "name": "mintPrice",
      "outputs": [
        {
          "internalType": "uint256",
          "name": "",
          "type": "uint256"
        }
      ],
      "stateMutability": "view",
      "type": "function"
    },
    {
      "inputs": [],
      "name": "name",
      "outputs": [
        {
          "internalType": "string",
          "name": "",
          "type": "string"
        }
      ],
      "stateMutability": "view",
      "type": "function"
    },
    {
      "inputs": [],
      "name": "owner",
      "outputs": [
        {
          "internalType": "address",
          "name": "",
          "type": "address"
        }
      ],
      "stateMutability": "view",
      "type": "function"
    },
    {
      "inputs": [
        {
          "internalType": "uint256",
          "name": "tokenId",
          "type": "uint256"
        }
      ],
      "name": "ownerOf",
      "outputs": [
        {
          "internalType": "address",
          "name": "",
          "type": "address"
        }
      ],
      "stateMutability": "view",
      "type": "function"
    },
    {
      "inputs": [],
      "name": "pause",
      "outputs": [],
      "stateMutability": "nonpayable",
      "type": "function"
    },
    {
      "inputs": [],
      "name": "paused",
      "outputs": [
        {
          "internalType": "bool",
          "name": "",
          "type": "bool"
        }
      ],
      "stateMutability": "view",
      "type": "function"
    },
    {
      "inputs": [
        {
          "internalType": "uint256",
          "name": "tokenId",
          "type": "uint256"
        }
      ],
      "name": "purchaseNFT",
      "outputs": [],
      "stateMutability": "payable",
      "type": "function"
    },
    {
      "inputs": [],
      "name": "renounceOwnership",
      "outputs": [],
      "stateMutability": "nonpayable",
      "type": "function"
    },
    {
      "inputs": [
        {
          "internalType": "address",
          "name": "from",
          "type": "address"
        },
        {
          "internalType": "address",
          "name": "to",
          "type": "address"
        },
        {
          "internalType": "uint256",
          "name": "tokenId",
          "type": "uint256"
        }
      ],
      "name": "safeTransferFrom",
      "outputs": [],
      "stateMutability": "nonpayable",
      "type": "function"
    },
    {
      "inputs": [
        {
          "internalType": "address",
          "name": "from",
          "type": "address"
        },
        {
          "internalType": "address",
          "name": "to",
          "type": "address"
        },
        {
          "internalType": "uint256",
          "name": "tokenId",
          "type": "uint256"
        },
        {
          "internalType": "bytes",
          "name": "data",
          "type": "bytes"
        }
      ],
      "name": "safeTransferFrom",
      "outputs": [],
      "stateMutability": "nonpayable",
      "type": "function"
    },
    {
      "inputs": [
        {
          "internalType": "address",
          "name": "operator",
          "type": "address"
        },
        {
          "internalType": "bool",
          "name": "approved",
          "type": "bool"
        }
      ],
      "name": "setApprovalForAll",
      "outputs": [],
      "stateMutability": "nonpayable",
      "type": "function"
    },
    {
      "inputs": [
        {
          "internalType": "string",
          "name": "baseURI",
          "type": "string"
        }
      ],
      "name": "setBaseURI",
      "outputs": [],
      "stateMutability": "nonpayable",
      "type": "function"
    },
    {
      "inputs": [
        {
          "internalType": "uint256",
          "name": "newPrice",
          "type": "uint256"
        }
      ],
      "name": "setMintPrice",
      "outputs": [],
      "stateMutability": "nonpayable",
      "type": "function"
    },
    {
      "inputs": [
        {
          "internalType": "uint256",
          "name": "tokenId",
          "type": "uint256"
        },
        {
          "internalType": "bool",
          "name": "forSale",
          "type": "bool"
        }
      ],
      "name": "setTokenSaleStatus",
      "outputs": [],
      "stateMutability": "nonpayable",
      "type": "function"
    },
    {
      "inputs": [
        {
          "internalType": "uint256",
          "name": "",
          "type": "uint256"
        }
      ],
      "name": "stripePurchases",
      "outputs": [
        {
          "internalType": "address",
          "name": "",
          "type": "address"
        }
      ],
      "stateMutability": "view",
      "type": "function"
    },
    {
      "inputs": [
        {
          "internalType": "bytes4",
          "name": "interfaceId",
          "type": "bytes4"
        }
      ],
      "name": "supportsInterface",
      "outputs": [
        {
          "internalType": "bool",
          "name": "",
          "type": "bool"
        }
      ],
      "stateMutability": "view",
      "type": "function"
    },
    {
      "inputs": [],
      "name": "symbol",
      "outputs": [
        {
          "internalType": "string",
          "name": "",
          "type": "string"
        }
      ],
      "stateMutability": "view",
      "type": "function"
    },
    {
      "inputs": [
        {
          "internalType": "uint256",
          "name": "tokenId",
          "type": "uint256"
        }
      ],
      "name": "tokenURI",
      "outputs": [
        {
          "internalType": "string",
          "name": "",
          "type": "string"
        }
      ],
      "stateMutability": "view",
      "type": "function"
    },
    {
      "inputs": [
        {
          "internalType": "address",
          "name": "from",
          "type": "address"
        },
        {
          "internalType": "address",
          "name": "to",
          "type": "address"
        },
        {
          "internalType": "uint256",
          "name": "tokenId",
          "type": "uint256"
        }
      ],
      "name": "transferFrom",
      "outputs": [],
      "stateMutability": "nonpayable",
      "type": "function"
    },
    {
      "inputs": [
        {
          "internalType": "address",
          "name": "newOwner",
          "type": "address"
        }
      ],
      "name": "transferOwnership",
      "outputs": [],
      "stateMutability": "nonpayable",
      "type": "function"
    },
    {
      "inputs": [],
      "name": "unpause",
      "outputs": [],
      "stateMutability": "nonpayable",
      "type": "function"
    }
  ],
  "bytecode": "0x6080604052670195026560650000600d553480156200001d57600080fd5b506040518060400160405280601581526020017f4469616d6f6e6420416363657373205469636b657400000000000000000000008152506040518060400160405280600781526020017f4449414d4f4e440000000000000000000000000000000000000000000000000081525081600090816200009b919062000d20565b508060019081620000ad919062000d20565b505050620000d0620000c4620001f360201b60201c565b620001fb60201b60201c565b60016008819055506000600960006101000a81548160ff02191690831515021790555060405180602001604052806000815250600c908162000113919062000d20565b50600062000126620001f360201b60201c565b90506000600190505b60148111620001eb576200014a600a620002c160201b60201c565b6200015c8282620002d760201b60201c565b6001600e600083815260200190815260200160002060006101000a81548160ff0219169083151502179055507fd35bb95e09c04b219e35047ce7b7b300e3384264ef84a40456943dbc0fc17c148282620001bc846200051d60201b60201c565b604051620001cd9392919062000eec565b60405180910390a18080620001e29062000f5f565b9150506200012f565b50506200119b565b600033905090565b6000600760009054906101000a900473ffffffffffffffffffffffffffffffffffffffff16905081600760006101000a81548173ffffffffffffffffffffffffffffffffffffffff021916908373ffffffffffffffffffffffffffffffffffffffff1602179055508173ffffffffffffffffffffffffffffffffffffffff168173ffffffffffffffffffffffffffffffffffffffff167f8be0079c531659141344cd1fd0a4f28419497f9722a3daafe3b4186f6b6457e060405160405180910390a35050565b6001816000016000828254019250508190555050565b600073ffffffffffffffffffffffffffffffffffffffff168273ffffffffffffffffffffffffffffffffffffffff160362000349576040517f08c379a0000000000000000000000000000000000000000000000000000000008152600401620003409062000ffc565b60405180910390fd5b6200035a816200065560201b60201c565b156200039d576040517f08c379a000000000000000000000000000000000000000000000000000000000815260040162000394906200106e565b60405180910390fd5b620003b36000838360016200069e60201b60201c565b620003c4816200065560201b60201c565b1562000407576040517f08c379a0000000000000000000000000000000000000000000000000000000008152600401620003fe906200106e565b60405180910390fd5b6001600360008473ffffffffffffffffffffffffffffffffffffffff1673ffffffffffffffffffffffffffffffffffffffff16815260200190815260200160002060008282540192505081905550816002600083815260200190815260200160002060006101000a81548173ffffffffffffffffffffffffffffffffffffffff021916908373ffffffffffffffffffffffffffffffffffffffff160217905550808273ffffffffffffffffffffffffffffffffffffffff16600073ffffffffffffffffffffffffffffffffffffffff167fddf252ad1be2c89b69c2b068fc378daa952ba7f163c4a11628f55a4df523b3ef60405160405180910390a462000519600083836001620006a460201b60201c565b5050565b60606200053082620006aa60201b60201c565b6000600660008481526020019081526020016000208054620005529062000b0f565b80601f0160208091040260200160405190810160405280929190818152602001828054620005809062000b0f565b8015620005d15780601f10620005a557610100808354040283529160200191620005d1565b820191906000526020600020905b815481529060010190602001808311620005b357829003601f168201915b505050505090506000620005ea6200070060201b60201c565b905060008151036200060157819250505062000650565b6000825111156200063a57808260405160200162000621929190620010d2565b6040516020818303038152906040529250505062000650565b6200064b846200079a60201b60201c565b925050505b919050565b60008073ffffffffffffffffffffffffffffffffffffffff166200067f836200081e60201b60201c565b73ffffffffffffffffffffffffffffffffffffffff1614159050919050565b50505050565b50505050565b620006bb816200065560201b60201c565b620006fd576040517f08c379a0000000000000000000000000000000000000000000000000000000008152600401620006f4906200114a565b60405180910390fd5b50565b6060600c8054620007119062000b0f565b80601f01602080910402602001604051908101604052809291908181526020018280546200073f9062000b0f565b8015620007905780601f10620007645761010080835404028352916020019162000790565b820191906000526020600020905b8154815290600101906020018083116200077257829003601f168201915b5050505050905090565b6060620007ad82620006aa60201b60201c565b6000620007bf6200070060201b60201c565b90506000815111620007e1576040518060200160405280600081525062000816565b80620007f3846200085b60201b60201c565b60405160200162000806929190620010d2565b6040516020818303038152906040525b915050919050565b60006002600083815260200190815260200160002060009054906101000a900473ffffffffffffffffffffffffffffffffffffffff169050919050565b60606000600162000872846200093a60201b60201c565b01905060008167ffffffffffffffff81111562000894576200089362000ab1565b5b6040519080825280601f01601f191660200182016040528015620008c75781602001600182028036833780820191505090505b509050600082602001820190505b6001156200092f578080600190039150507f3031323334353637383961626364656600000000000000000000000000000000600a86061a8153600a85816200092257620009216200116c565b5b04945060008503620008d5575b819350505050919050565b600080600090507a184f03e93ff9f4daa797ed6e38ed64bf6a1f01000000000000000083106200099c577a184f03e93ff9f4daa797ed6e38ed64bf6a1f01000000000000000083816200099257620009916200116c565b5b0492506040810190505b6d04ee2d6d415b85acef81000000008310620009dd576d04ee2d6d415b85acef81000000008381620009d357620009d26200116c565b5b0492506020810190505b662386f26fc10000831062000a1057662386f26fc10000838162000a065762000a056200116c565b5b0492506010810190505b6305f5e100831062000a3d576305f5e100838162000a335762000a326200116c565b5b0492506008810190505b612710831062000a6657612710838162000a5c5762000a5b6200116c565b5b0492506004810190505b6064831062000a8d576064838162000a835762000a826200116c565b5b0492506002810190505b600a831062000a9d576001810190505b80915050919050565b600081519050919050565b7f4e487b7100000000000000000000000000000000000000000000000000000000600052604160045260246000fd5b7f4e487b7100000000000000000000000000000000000000000000000000000000600052602260045260246000fd5b6000600282049050600182168062000b2857607f821691505b60208210810362000b3e5762000b3d62000ae0565b5b50919050565b60008190508160005260206000209050919050565b60006020601f8301049050919050565b600082821b905092915050565b60006008830262000ba87fffffffffffffffffffffffffffffffffffffffffffffffffffffffffffffffff8262000b69565b62000bb4868362000b69565b95508019841693508086168417925050509392505050565b6000819050919050565b6000819050919050565b600062000c0162000bfb62000bf58462000bcc565b62000bd6565b62000bcc565b9050919050565b6000819050919050565b62000c1d8362000be0565b62000c3562000c2c8262000c08565b84845462000b76565b825550505050565b600090565b62000c4c62000c3d565b62000c5981848462000c12565b505050565b5b8181101562000c815762000c7560008262000c42565b60018101905062000c5f565b5050565b601f82111562000cd05762000c9a8162000b44565b62000ca58462000b59565b8101602085101562000cb5578190505b62000ccd62000cc48562000b59565b83018262000c5e565b50505b505050565b600082821c905092915050565b600062000cf56000198460080262000cd5565b1980831691505092915050565b600062000d10838362000ce2565b9150826002028217905092915050565b62000d2b8262000aa6565b67ffffffffffffffff81111562000d475762000d4662000ab1565b5b62000d53825462000b0f565b62000d6082828562000c85565b600060209050601f83116001811462000d98576000841562000d83578287015190505b62000d8f858262000d02565b86555062000dff565b601f19841662000da88662000b44565b60005b8281101562000dd25784890151825560018201915060208501945060208101905062000dab565b8683101562000df2578489015162000dee601f89168262000ce2565b8355505b6001600288020188555050505b505050505050565b600073ffffffffffffffffffffffffffffffffffffffff82169050919050565b600062000e348262000e07565b9050919050565b62000e468162000e27565b82525050565b62000e578162000bcc565b82525050565b600082825260208201905092915050565b60005b8381101562000e8e57808201518184015260208101905062000e71565b60008484015250505050565b6000601f19601f8301169050919050565b600062000eb88262000aa6565b62000ec4818562000e5d565b935062000ed681856020860162000e6e565b62000ee18162000e9a565b840191505092915050565b600060608201905062000f03600083018662000e3b565b62000f12602083018562000e4c565b818103604083015262000f26818462000eab565b9050949350505050565b7f4e487b7100000000000000000000000000000000000000000000000000000000600052601160045260246000fd5b600062000f6c8262000bcc565b91507fffffffffffffffffffffffffffffffffffffffffffffffffffffffffffffffff820362000fa15762000fa062000f30565b5b600182019050919050565b7f4552433732313a206d696e7420746f20746865207a65726f2061646472657373600082015250565b600062000fe460208362000e5d565b915062000ff18262000fac565b602082019050919050565b60006020820190508181036000830152620010178162000fd5565b9050919050565b7f4552433732313a20746f6b656e20616c7265616479206d696e74656400000000600082015250565b600062001056601c8362000e5d565b915062001063826200101e565b602082019050919050565b60006020820190508181036000830152620010898162001047565b9050919050565b600081905092915050565b6000620010a88262000aa6565b620010b4818562001090565b9350620010c681856020860162000e6e565b80840191505092915050565b6000620010e082856200109b565b9150620010ee82846200109b565b91508190509392505050565b7f4552433732313a20696e76616c696420746f6b656e2049440000000000000000600082015250565b60006200113260188362000e5d565b91506200113f82620010fa565b602082019050919050565b60006020820190508181036000830152620011658162001123565b9050919050565b7f4e487b7100000000000000000000000000000000000000000000000000000000600052601260045260246000fd5b61471880620011ab6000396000f3fe6080604052600436106101e35760003560e01c8063715018a611610102578063b0fbc27611610095578063e3eb28fd11610064578063e3eb28fd146106bd578063e985e9c5146106fa578063f2fde38b14610737578063f4a0a52814610760576101e3565b8063b0fbc276146105f1578063b88d4fde1461061a578063c87b56dd14610643578063deabb1b814610680576101e3565b80638da5cb5b116100d15780638da5cb5b1461054957806395d89b4114610574578063a22cb4651461059f578063a9e7c2e5146105c8576101e3565b8063715018a6146104c757806378a89567146104de57806382b2e44d146105095780638456cb5914610532576101e3565b806342842e0e1161017a5780636352211e116101495780636352211e146103f757806365e4e1c0146104345780636817c76c1461045f57806370a082311461048a576101e3565b806342842e0e1461033d5780634fed1c941461036657806355f804b3146103a35780635c975abb146103cc576101e3565b8063150bde03116101b6578063150bde03146102b657806323b872dd146102d257806332cb6b0c146102fb5780633f4ba83a14610326576101e3565b806301ffc9a7146101e857806306fdde0314610225578063081812fc14610250578063095ea7b31461028d575b600080fd5b3480156101f457600080fd5b5061020f600480360381019061020a9190612d1e565b610789565b60405161021c9190612d66565b60405180910390f35b34801561023157600080fd5b5061023a6107ea565b6040516102479190612e11565b60405180910390f35b34801561025c57600080fd5b5061027760048036038101906102729190612e69565b61087c565b6040516102849190612ed7565b60405180910390f35b34801561029957600080fd5b506102b460048036038101906102af9190612f1e565b6108c2565b005b6102d060048036038101906102cb9190612e69565b6109d9565b005b3480156102de57600080fd5b506102f960048036038101906102f49190612f5e565b610dee565b005b34801561030757600080fd5b50610310610e4e565b60405161031d9190612fc0565b60405180910390f35b34801561033257600080fd5b5061033b610e53565b005b34801561034957600080fd5b50610364600480360381019061035f9190612f5e565b610ea8565b005b34801561037257600080fd5b5061038d60048036038101906103889190612e69565b610ec8565b60405161039a9190612d66565b60405180910390f35b3480156103af57600080fd5b506103ca60048036038101906103c59190613110565b610ee8565b005b3480156103d857600080fd5b506103e1610f03565b6040516103ee9190612d66565b60405180910390f35b34801561040357600080fd5b5061041e60048036038101906104199190612e69565b610f1a565b60405161042b9190612ed7565b60405180910390f35b34801561044057600080fd5b50610449610fa0565b6040516104569190613217565b60405180910390f35b34801561046b57600080fd5b50610474611193565b6040516104819190612fc0565b60405180910390f35b34801561049657600080fd5b506104b160048036038101906104ac9190613239565b611199565b6040516104be9190612fc0565b60405180910390f35b3480156104d357600080fd5b506104dc611250565b005b3480156104ea57600080fd5b506104f3611264565b6040516105009190612fc0565b60405180910390f35b34801561051557600080fd5b50610530600480360381019061052b9190613292565b611275565b005b34801561053e57600080fd5b506105476113e3565b005b34801561055557600080fd5b5061055e611438565b60405161056b9190612ed7565b60405180910390f35b34801561058057600080fd5b50610589611462565b6040516105969190612e11565b60405180910390f35b3480156105ab57600080fd5b506105c660048036038101906105c191906132d2565b6114f4565b005b3480156105d457600080fd5b506105ef60048036038101906105ea9190612e69565b61150a565b005b3480156105fd57600080fd5b5061061860048036038101906106139190613312565b611728565b005b34801561062657600080fd5b50610641600480360381019061063c91906133f3565b6119a4565b005b34801561064f57600080fd5b5061066a60048036038101906106659190612e69565b611a06565b6040516106779190612e11565b60405180910390f35b34801561068c57600080fd5b506106a760048036038101906106a29190612e69565b611b18565b6040516106b49190612ed7565b60405180910390f35b3480156106c957600080fd5b506106e460048036038101906106df9190612e69565b611b55565b6040516106f19190612ed7565b60405180910390f35b34801561070657600080fd5b50610721600480360381019061071c9190613476565b611b88565b60405161072e9190612d66565b60405180910390f35b34801561074357600080fd5b5061075e60048036038101906107599190613239565b611c1c565b005b34801561076c57600080fd5b5061078760048036038101906107829190612e69565b611c9f565b005b6000634906490660e01b7bffffffffffffffffffffffffffffffffffffffffffffffffffffffff1916827bffffffffffffffffffffffffffffffffffffffffffffffffffffffff191614806107e357506107e282611cb1565b5b9050919050565b6060600080546107f9906134e5565b80601f0160208091040260200160405190810160405280929190818152602001828054610825906134e5565b80156108725780601f1061084757610100808354040283529160200191610872565b820191906000526020600020905b81548152906001019060200180831161085557829003601f168201915b5050505050905090565b600061088782611d93565b6004600083815260200190815260200160002060009054906101000a900473ffffffffffffffffffffffffffffffffffffffff169050919050565b60006108cd82610f1a565b90508073ffffffffffffffffffffffffffffffffffffffff168373ffffffffffffffffffffffffffffffffffffffff160361093d576040517f08c379a000000000000000000000000000000000000000000000000000000000815260040161093490613588565b60405180910390fd5b8073ffffffffffffffffffffffffffffffffffffffff1661095c611dde565b73ffffffffffffffffffffffffffffffffffffffff16148061098b575061098a81610985611dde565b611b88565b5b6109ca576040517f08c379a00000000000000000000000000000000000000000000000000000000081526004016109c19061361a565b60405180910390fd5b6109d48383611de6565b505050565b6109e1611e9f565b6109e9611eee565b6109f281611f38565b610a31576040517f08c379a0000000000000000000000000000000000000000000000000000000008152600401610a2890613686565b60405180910390fd5b600e600082815260200190815260200160002060009054906101000a900460ff16610a91576040517f08c379a0000000000000000000000000000000000000000000000000000000008152600401610a88906136f2565b60405180910390fd5b600d54341015610ad6576040517f08c379a0000000000000000000000000000000000000000000000000000000008152600401610acd9061375e565b60405180910390fd5b600073ffffffffffffffffffffffffffffffffffffffff16600f600083815260200190815260200160002060009054906101000a900473ffffffffffffffffffffffffffffffffffffffff1673ffffffffffffffffffffffffffffffffffffffff1614610b78576040517f08c379a0000000000000000000000000000000000000000000000000000000008152600401610b6f906137ca565b60405180910390fd5b6000610b8382610f1a565b90503373ffffffffffffffffffffffffffffffffffffffff168173ffffffffffffffffffffffffffffffffffffffff1603610bf3576040517f08c379a0000000000000000000000000000000000000000000000000000000008152600401610bea90613836565b60405180910390fd5b6000600d5434610c039190613885565b9050610c10823385611f79565b6000600e600085815260200190815260200160002060006101000a81548160ff02191690831515021790555060008273ffffffffffffffffffffffffffffffffffffffff16600d54604051610c64906138ea565b60006040518083038185875af1925050503d8060008114610ca1576040519150601f19603f3d011682016040523d82523d6000602084013e610ca6565b606091505b5050905080610cea576040517f08c379a0000000000000000000000000000000000000000000000000000000008152600401610ce19061394b565b60405180910390fd5b6000821115610da15760003373ffffffffffffffffffffffffffffffffffffffff1683604051610d19906138ea565b60006040518083038185875af1925050503d8060008114610d56576040519150601f19603f3d011682016040523d82523d6000602084013e610d5b565b606091505b5050905080610d9f576040517f08c379a0000000000000000000000000000000000000000000000000000000008152600401610d96906139b7565b60405180910390fd5b505b7ff6ccc0cf89c21c54724ea6ef2ec01da8fe33a1cebe06607e160fd78483eba302833386600d54604051610dd894939291906139d7565b60405180910390a1505050610deb612272565b50565b610dff610df9611dde565b8261227c565b610e3e576040517f08c379a0000000000000000000000000000000000000000000000000000000008152600401610e3590613a8e565b60405180910390fd5b610e49838383611f79565b505050565b601481565b610e5b612311565b610e6361238f565b3373ffffffffffffffffffffffffffffffffffffffff167f5b65b0c1363b3003db9bcc5e1fd8805a6d6bf5bf6dc9d3431ee4494cd7d1176660405160405180910390a2565b610ec3838383604051806020016040528060008152506119a4565b505050565b600e6020528060005260406000206000915054906101000a900460ff1681565b610ef0612311565b80600c9081610eff9190613c5a565b5050565b6000600960009054906101000a900460ff16905090565b600080610f26836123f2565b9050600073ffffffffffffffffffffffffffffffffffffffff168173ffffffffffffffffffffffffffffffffffffffff1603610f97576040517f08c379a0000000000000000000000000000000000000000000000000000000008152600401610f8e90613d78565b60405180910390fd5b80915050919050565b60606000610fae600a61242f565b67ffffffffffffffff811115610fc757610fc6612fe5565b5b604051908082528060200260200182016040528015610ff55781602001602082028036833780820191505090505b509050600080600190505b61100a600a61242f565b81116110e357600e600082815260200190815260200160002060009054906101000a900460ff16801561109c5750600073ffffffffffffffffffffffffffffffffffffffff16600f600083815260200190815260200160002060009054906101000a900473ffffffffffffffffffffffffffffffffffffffff1673ffffffffffffffffffffffffffffffffffffffff16145b156110d057808383815181106110b5576110b4613d98565b5b60200260200101818152505081806110cc90613dc7565b9250505b80806110db90613dc7565b915050611000565b5060008167ffffffffffffffff811115611100576110ff612fe5565b5b60405190808252806020026020018201604052801561112e5781602001602082028036833780820191505090505b50905060005b828110156111895783818151811061114f5761114e613d98565b5b602002602001015182828151811061116a57611169613d98565b5b602002602001018181525050808061118190613dc7565b915050611134565b5080935050505090565b600d5481565b60008073ffffffffffffffffffffffffffffffffffffffff168273ffffffffffffffffffffffffffffffffffffffff1603611209576040517f08c379a000000000000000000000000000000000000000000000000000000000815260040161120090613e81565b60405180910390fd5b600360008373ffffffffffffffffffffffffffffffffffffffff1673ffffffffffffffffffffffffffffffffffffffff168152602001908152602001600020549050919050565b611258612311565b611262600061243d565b565b6000611270600a61242f565b905090565b61127e82611f38565b6112bd576040517f08c379a00000000000000000000000000000000000000000000000000000000081526004016112b490613686565b60405180910390fd5b6112c5611dde565b73ffffffffffffffffffffffffffffffffffffffff166112e483610f1a565b73ffffffffffffffffffffffffffffffffffffffff161461133a576040517f08c379a000000000000000000000000000000000000000000000000000000000815260040161133190613eed565b60405180910390fd5b80600e600084815260200190815260200160002060006101000a81548160ff02191690831515021790555080156113a7577fbf9c5e85a8d8565a3d499b4ea68b35da3e8466cc67b9dce4ebd4bf93bc90d5388260405161139a9190612fc0565b60405180910390a16113df565b7fccd0b7af52bf5f08ec6781299e66283301e612d1ca1ffceab3579a6364073c30826040516113d69190612fc0565b60405180910390a15b5050565b6113eb612311565b6113f3612503565b3373ffffffffffffffffffffffffffffffffffffffff167f81990fd9a5c552b8e3677917d8a03c07678f0d2cb68f88b634aca2022e9bd19f60405160405180910390a2565b6000600760009054906101000a900473ffffffffffffffffffffffffffffffffffffffff16905090565b606060018054611471906134e5565b80601f016020809104026020016040519081016040528092919081815260200182805461149d906134e5565b80156114ea5780601f106114bf576101008083540402835291602001916114ea565b820191906000526020600020905b8154815290600101906020018083116114cd57829003601f168201915b5050505050905090565b6115066114ff611dde565b8383612566565b5050565b611512611e9f565b61151a611eee565b61152381611f38565b611562576040517f08c379a000000000000000000000000000000000000000000000000000000000815260040161155990613686565b60405180910390fd5b3373ffffffffffffffffffffffffffffffffffffffff16600f600083815260200190815260200160002060009054906101000a900473ffffffffffffffffffffffffffffffffffffffff1673ffffffffffffffffffffffffffffffffffffffff1614611603576040517f08c379a00000000000000000000000000000000000000000000000000000000081526004016115fa90613f59565b60405180910390fd5b600061160e82610f1a565b9050611618611438565b73ffffffffffffffffffffffffffffffffffffffff168173ffffffffffffffffffffffffffffffffffffffff1614611685576040517f08c379a000000000000000000000000000000000000000000000000000000000815260040161167c90613feb565b60405180910390fd5b611690813384611f79565b6000600f600084815260200190815260200160002060006101000a81548173ffffffffffffffffffffffffffffffffffffffff021916908373ffffffffffffffffffffffffffffffffffffffff1602179055507f8b224b108d8f9c6d554b41182503c3f8b79dfcf17233a9366d50c386c28af850823360405161171492919061400b565b60405180910390a150611725612272565b50565b611730612311565b61173982611f38565b611778576040517f08c379a000000000000000000000000000000000000000000000000000000000815260040161176f90613686565b60405180910390fd5b600e600083815260200190815260200160002060009054906101000a900460ff166117d8576040517f08c379a00000000000000000000000000000000000000000000000000000000081526004016117cf906136f2565b60405180910390fd5b600073ffffffffffffffffffffffffffffffffffffffff168173ffffffffffffffffffffffffffffffffffffffff1603611847576040517f08c379a000000000000000000000000000000000000000000000000000000000815260040161183e90614080565b60405180910390fd5b600073ffffffffffffffffffffffffffffffffffffffff16600f600084815260200190815260200160002060009054906101000a900473ffffffffffffffffffffffffffffffffffffffff1673ffffffffffffffffffffffffffffffffffffffff16146118e9576040517f08c379a00000000000000000000000000000000000000000000000000000000081526004016118e0906140ec565b60405180910390fd5b6000600e600084815260200190815260200160002060006101000a81548160ff02191690831515021790555080600f600084815260200190815260200160002060006101000a81548173ffffffffffffffffffffffffffffffffffffffff021916908373ffffffffffffffffffffffffffffffffffffffff1602179055507fd9e06aca9c09bfec0d0acfdfc2dc2d2aa8564c3e0950891dc198ff7809146a3e828260405161199892919061400b565b60405180910390a15050565b6119b56119af611dde565b8361227c565b6119f4576040517f08c379a00000000000000000000000000000000000000000000000000000000081526004016119eb90613a8e565b60405180910390fd5b611a00848484846126d2565b50505050565b6060611a1182611d93565b6000600660008481526020019081526020016000208054611a31906134e5565b80601f0160208091040260200160405190810160405280929190818152602001828054611a5d906134e5565b8015611aaa5780601f10611a7f57610100808354040283529160200191611aaa565b820191906000526020600020905b815481529060010190602001808311611a8d57829003601f168201915b505050505090506000611abb61272e565b90506000815103611ad0578192505050611b13565b600082511115611b05578082604051602001611aed929190614148565b60405160208183030381529060405292505050611b13565b611b0e846127c0565b925050505b919050565b6000600f600083815260200190815260200160002060009054906101000a900473ffffffffffffffffffffffffffffffffffffffff169050919050565b600f6020528060005260406000206000915054906101000a900473ffffffffffffffffffffffffffffffffffffffff1681565b6000600560008473ffffffffffffffffffffffffffffffffffffffff1673ffffffffffffffffffffffffffffffffffffffff16815260200190815260200160002060008373ffffffffffffffffffffffffffffffffffffffff1673ffffffffffffffffffffffffffffffffffffffff16815260200190815260200160002060009054906101000a900460ff16905092915050565b611c24612311565b600073ffffffffffffffffffffffffffffffffffffffff168173ffffffffffffffffffffffffffffffffffffffff1603611c93576040517f08c379a0000000000000000000000000000000000000000000000000000000008152600401611c8a906141de565b60405180910390fd5b611c9c8161243d565b50565b611ca7612311565b80600d8190555050565b60007f80ac58cd000000000000000000000000000000000000000000000000000000007bffffffffffffffffffffffffffffffffffffffffffffffffffffffff1916827bffffffffffffffffffffffffffffffffffffffffffffffffffffffff19161480611d7c57507f5b5e139f000000000000000000000000000000000000000000000000000000007bffffffffffffffffffffffffffffffffffffffffffffffffffffffff1916827bffffffffffffffffffffffffffffffffffffffffffffffffffffffff1916145b80611d8c5750611d8b82612828565b5b9050919050565b611d9c81611f38565b611ddb576040517f08c379a0000000000000000000000000000000000000000000000000000000008152600401611dd290613d78565b60405180910390fd5b50565b600033905090565b816004600083815260200190815260200160002060006101000a81548173ffffffffffffffffffffffffffffffffffffffff021916908373ffffffffffffffffffffffffffffffffffffffff160217905550808273ffffffffffffffffffffffffffffffffffffffff16611e5983610f1a565b73ffffffffffffffffffffffffffffffffffffffff167f8c5be1e5ebec7d5bd14f71427d1e84f3dd0314c0f7b2291e5b200ac8c7c3b92560405160405180910390a45050565b600260085403611ee4576040517f08c379a0000000000000000000000000000000000000000000000000000000008152600401611edb9061424a565b60405180910390fd5b6002600881905550565b611ef6610f03565b15611f36576040517f08c379a0000000000000000000000000000000000000000000000000000000008152600401611f2d906142b6565b60405180910390fd5b565b60008073ffffffffffffffffffffffffffffffffffffffff16611f5a836123f2565b73ffffffffffffffffffffffffffffffffffffffff1614159050919050565b8273ffffffffffffffffffffffffffffffffffffffff16611f9982610f1a565b73ffffffffffffffffffffffffffffffffffffffff1614611fef576040517f08c379a0000000000000000000000000000000000000000000000000000000008152600401611fe690614348565b60405180910390fd5b600073ffffffffffffffffffffffffffffffffffffffff168273ffffffffffffffffffffffffffffffffffffffff160361205e576040517f08c379a0000000000000000000000000000000000000000000000000000000008152600401612055906143da565b60405180910390fd5b61206b8383836001612892565b8273ffffffffffffffffffffffffffffffffffffffff1661208b82610f1a565b73ffffffffffffffffffffffffffffffffffffffff16146120e1576040517f08c379a00000000000000000000000000000000000000000000000000000000081526004016120d890614348565b60405180910390fd5b6004600082815260200190815260200160002060006101000a81549073ffffffffffffffffffffffffffffffffffffffff02191690556001600360008573ffffffffffffffffffffffffffffffffffffffff1673ffffffffffffffffffffffffffffffffffffffff168152602001908152602001600020600082825403925050819055506001600360008473ffffffffffffffffffffffffffffffffffffffff1673ffffffffffffffffffffffffffffffffffffffff16815260200190815260200160002060008282540192505081905550816002600083815260200190815260200160002060006101000a81548173ffffffffffffffffffffffffffffffffffffffff021916908373ffffffffffffffffffffffffffffffffffffffff160217905550808273ffffffffffffffffffffffffffffffffffffffff168473ffffffffffffffffffffffffffffffffffffffff167fddf252ad1be2c89b69c2b068fc378daa952ba7f163c4a11628f55a4df523b3ef60405160405180910390a461226d8383836001612898565b505050565b6001600881905550565b60008061228883610f1a565b90508073ffffffffffffffffffffffffffffffffffffffff168473ffffffffffffffffffffffffffffffffffffffff1614806122ca57506122c98185611b88565b5b8061230857508373ffffffffffffffffffffffffffffffffffffffff166122f08461087c565b73ffffffffffffffffffffffffffffffffffffffff16145b91505092915050565b612319611dde565b73ffffffffffffffffffffffffffffffffffffffff16612337611438565b73ffffffffffffffffffffffffffffffffffffffff161461238d576040517f08c379a000000000000000000000000000000000000000000000000000000000815260040161238490614446565b60405180910390fd5b565b61239761289e565b6000600960006101000a81548160ff0219169083151502179055507f5db9ee0a495bf2e6ff9c91a7834c1ba4fdd244a5e8aa4e537bd38aeae4b073aa6123db611dde565b6040516123e89190612ed7565b60405180910390a1565b60006002600083815260200190815260200160002060009054906101000a900473ffffffffffffffffffffffffffffffffffffffff169050919050565b600081600001549050919050565b6000600760009054906101000a900473ffffffffffffffffffffffffffffffffffffffff16905081600760006101000a81548173ffffffffffffffffffffffffffffffffffffffff021916908373ffffffffffffffffffffffffffffffffffffffff1602179055508173ffffffffffffffffffffffffffffffffffffffff168173ffffffffffffffffffffffffffffffffffffffff167f8be0079c531659141344cd1fd0a4f28419497f9722a3daafe3b4186f6b6457e060405160405180910390a35050565b61250b611eee565b6001600960006101000a81548160ff0219169083151502179055507f62e78cea01bee320cd4e420270b5ea74000d11b0c9f74754ebdbfc544b05a25861254f611dde565b60405161255c9190612ed7565b60405180910390a1565b8173ffffffffffffffffffffffffffffffffffffffff168373ffffffffffffffffffffffffffffffffffffffff16036125d4576040517f08c379a00000000000000000000000000000000000000000000000000000000081526004016125cb906144b2565b60405180910390fd5b80600560008573ffffffffffffffffffffffffffffffffffffffff1673ffffffffffffffffffffffffffffffffffffffff16815260200190815260200160002060008473ffffffffffffffffffffffffffffffffffffffff1673ffffffffffffffffffffffffffffffffffffffff16815260200190815260200160002060006101000a81548160ff0219169083151502179055508173ffffffffffffffffffffffffffffffffffffffff168373ffffffffffffffffffffffffffffffffffffffff167f17307eab39ab6107e8899845ad3d59bd9653f200f220920489ca2b5937696c31836040516126c59190612d66565b60405180910390a3505050565b6126dd848484611f79565b6126e9848484846128e7565b612728576040517f08c379a000000000000000000000000000000000000000000000000000000000815260040161271f90614544565b60405180910390fd5b50505050565b6060600c805461273d906134e5565b80601f0160208091040260200160405190810160405280929190818152602001828054612769906134e5565b80156127b65780601f1061278b576101008083540402835291602001916127b6565b820191906000526020600020905b81548152906001019060200180831161279957829003601f168201915b5050505050905090565b60606127cb82611d93565b60006127d561272e565b905060008151116127f55760405180602001604052806000815250612820565b806127ff84612a6e565b604051602001612810929190614148565b6040516020818303038152906040525b915050919050565b60007f01ffc9a7000000000000000000000000000000000000000000000000000000007bffffffffffffffffffffffffffffffffffffffffffffffffffffffff1916827bffffffffffffffffffffffffffffffffffffffffffffffffffffffff1916149050919050565b50505050565b50505050565b6128a6610f03565b6128e5576040517f08c379a00000000000000000000000000000000000000000000000000000000081526004016128dc906145b0565b60405180910390fd5b565b60006129088473ffffffffffffffffffffffffffffffffffffffff16612b3c565b15612a61578373ffffffffffffffffffffffffffffffffffffffff1663150b7a02612931611dde565b8786866040518563ffffffff1660e01b81526004016129539493929190614625565b6020604051808303816000875af192505050801561298f57506040513d601f19601f8201168201806040525081019061298c9190614686565b60015b612a11573d80600081146129bf576040519150601f19603f3d011682016040523d82523d6000602084013e6129c4565b606091505b506000815103612a09576040517f08c379a0000000000000000000000000000000000000000000000000000000008152600401612a0090614544565b60405180910390fd5b805181602001fd5b63150b7a0260e01b7bffffffffffffffffffffffffffffffffffffffffffffffffffffffff1916817bffffffffffffffffffffffffffffffffffffffffffffffffffffffff191614915050612a66565b600190505b949350505050565b606060006001612a7d84612b5f565b01905060008167ffffffffffffffff811115612a9c57612a9b612fe5565b5b6040519080825280601f01601f191660200182016040528015612ace5781602001600182028036833780820191505090505b509050600082602001820190505b600115612b31578080600190039150507f3031323334353637383961626364656600000000000000000000000000000000600a86061a8153600a8581612b2557612b246146b3565b5b04945060008503612adc575b819350505050919050565b6000808273ffffffffffffffffffffffffffffffffffffffff163b119050919050565b600080600090507a184f03e93ff9f4daa797ed6e38ed64bf6a1f0100000000000000008310612bbd577a184f03e93ff9f4daa797ed6e38ed64bf6a1f0100000000000000008381612bb357612bb26146b3565b5b0492506040810190505b6d04ee2d6d415b85acef81000000008310612bfa576d04ee2d6d415b85acef81000000008381612bf057612bef6146b3565b5b0492506020810190505b662386f26fc100008310612c2957662386f26fc100008381612c1f57612c1e6146b3565b5b0492506010810190505b6305f5e1008310612c52576305f5e1008381612c4857612c476146b3565b5b0492506008810190505b6127108310612c77576127108381612c6d57612c6c6146b3565b5b0492506004810190505b60648310612c9a5760648381612c9057612c8f6146b3565b5b0492506002810190505b600a8310612ca9576001810190505b80915050919050565b6000604051905090565b600080fd5b600080fd5b60007fffffffff0000000000000000000000000000000000000000000000000000000082169050919050565b612cfb81612cc6565b8114612d0657600080fd5b50565b600081359050612d1881612cf2565b92915050565b600060208284031215612d3457612d33612cbc565b5b6000612d4284828501612d09565b91505092915050565b60008115159050919050565b612d6081612d4b565b82525050565b6000602082019050612d7b6000830184612d57565b92915050565b600081519050919050565b600082825260208201905092915050565b60005b83811015612dbb578082015181840152602081019050612da0565b60008484015250505050565b6000601f19601f8301169050919050565b6000612de382612d81565b612ded8185612d8c565b9350612dfd818560208601612d9d565b612e0681612dc7565b840191505092915050565b60006020820190508181036000830152612e2b8184612dd8565b905092915050565b6000819050919050565b612e4681612e33565b8114612e5157600080fd5b50565b600081359050612e6381612e3d565b92915050565b600060208284031215612e7f57612e7e612cbc565b5b6000612e8d84828501612e54565b91505092915050565b600073ffffffffffffffffffffffffffffffffffffffff82169050919050565b6000612ec182612e96565b9050919050565b612ed181612eb6565b82525050565b6000602082019050612eec6000830184612ec8565b92915050565b612efb81612eb6565b8114612f0657600080fd5b50565b600081359050612f1881612ef2565b92915050565b60008060408385031215612f3557612f34612cbc565b5b6000612f4385828601612f09565b9250506020612f5485828601612e54565b9150509250929050565b600080600060608486031215612f7757612f76612cbc565b5b6000612f8586828701612f09565b9350506020612f9686828701612f09565b9250506040612fa786828701612e54565b9150509250925092565b612fba81612e33565b82525050565b6000602082019050612fd56000830184612fb1565b92915050565b600080fd5b600080fd5b7f4e487b7100000000000000000000000000000000000000000000000000000000600052604160045260246000fd5b61301d82612dc7565b810181811067ffffffffffffffff8211171561303c5761303b612fe5565b5b80604052505050565b600061304f612cb2565b905061305b8282613014565b919050565b600067ffffffffffffffff82111561307b5761307a612fe5565b5b61308482612dc7565b9050602081019050919050565b82818337600083830152505050565b60006130b36130ae84613060565b613045565b9050828152602081018484840111156130cf576130ce612fe0565b5b6130da848285613091565b509392505050565b600082601f8301126130f7576130f6612fdb565b5b81356131078482602086016130a0565b91505092915050565b60006020828403121561312657613125612cbc565b5b600082013567ffffffffffffffff81111561314457613143612cc1565b5b613150848285016130e2565b91505092915050565b600081519050919050565b600082825260208201905092915050565b6000819050602082019050919050565b61318e81612e33565b82525050565b60006131a08383613185565b60208301905092915050565b6000602082019050919050565b60006131c482613159565b6131ce8185613164565b93506131d983613175565b8060005b8381101561320a5781516131f18882613194565b97506131fc836131ac565b9250506001810190506131dd565b5085935050505092915050565b6000602082019050818103600083015261323181846131b9565b905092915050565b60006020828403121561324f5761324e612cbc565b5b600061325d84828501612f09565b91505092915050565b61326f81612d4b565b811461327a57600080fd5b50565b60008135905061328c81613266565b92915050565b600080604083850312156132a9576132a8612cbc565b5b60006132b785828601612e54565b92505060206132c88582860161327d565b9150509250929050565b600080604083850312156132e9576132e8612cbc565b5b60006132f785828601612f09565b92505060206133088582860161327d565b9150509250929050565b6000806040838503121561332957613328612cbc565b5b600061333785828601612e54565b925050602061334885828601612f09565b9150509250929050565b600067ffffffffffffffff82111561336d5761336c612fe5565b5b61337682612dc7565b9050602081019050919050565b600061339661339184613352565b613045565b9050828152602081018484840111156133b2576133b1612fe0565b5b6133bd848285613091565b509392505050565b600082601f8301126133da576133d9612fdb565b5b81356133ea848260208601613383565b91505092915050565b6000806000806080858703121561340d5761340c612cbc565b5b600061341b87828801612f09565b945050602061342c87828801612f09565b935050604061343d87828801612e54565b925050606085013567ffffffffffffffff81111561345e5761345d612cc1565b5b61346a878288016133c5565b91505092959194509250565b6000806040838503121561348d5761348c612cbc565b5b600061349b85828601612f09565b92505060206134ac85828601612f09565b9150509250929050565b7f4e487b7100000000000000000000000000000000000000000000000000000000600052602260045260246000fd5b600060028204905060018216806134fd57607f821691505b6020821081036135105761350f6134b6565b5b50919050565b7f4552433732313a20617070726f76616c20746f2063757272656e74206f776e6560008201527f7200000000000000000000000000000000000000000000000000000000000000602082015250565b6000613572602183612d8c565b915061357d82613516565b604082019050919050565b600060208201905081810360008301526135a181613565565b9050919050565b7f4552433732313a20617070726f76652063616c6c6572206973206e6f7420746f60008201527f6b656e206f776e6572206f7220617070726f76656420666f7220616c6c000000602082015250565b6000613604603d83612d8c565b915061360f826135a8565b604082019050919050565b60006020820190508181036000830152613633816135f7565b9050919050565b7f546f6b656e20646f6573206e6f74206578697374000000000000000000000000600082015250565b6000613670601483612d8c565b915061367b8261363a565b602082019050919050565b6000602082019050818103600083015261369f81613663565b9050919050565b7f546f6b656e206973206e6f7420666f722073616c650000000000000000000000600082015250565b60006136dc601583612d8c565b91506136e7826136a6565b602082019050919050565b6000602082019050818103600083015261370b816136cf565b9050919050565b7f496e73756666696369656e74204554482073656e740000000000000000000000600082015250565b6000613748601583612d8c565b915061375382613712565b602082019050919050565b600060208201905081810360008301526137778161373b565b9050919050565b7f546f6b656e206973207072652d70757263686173656400000000000000000000600082015250565b60006137b4601683612d8c565b91506137bf8261377e565b602082019050919050565b600060208201905081810360008301526137e3816137a7565b9050919050565b7f43616e6e6f742062757920796f7572206f776e20746f6b656e00000000000000600082015250565b6000613820601983612d8c565b915061382b826137ea565b602082019050919050565b6000602082019050818103600083015261384f81613813565b9050919050565b7f4e487b7100000000000000000000000000000000000000000000000000000000600052601160045260246000fd5b600061389082612e33565b915061389b83612e33565b92508282039050818111156138b3576138b2613856565b5b92915050565b600081905092915050565b50565b60006138d46000836138b9565b91506138df826138c4565b600082019050919050565b60006138f5826138c7565b9150819050919050565b7f5061796d656e7420746f2073656c6c6572206661696c65640000000000000000600082015250565b6000613935601883612d8c565b9150613940826138ff565b602082019050919050565b6000602082019050818103600083015261396481613928565b9050919050565b7f526566756e64206661696c656400000000000000000000000000000000000000600082015250565b60006139a1600d83612d8c565b91506139ac8261396b565b602082019050919050565b600060208201905081810360008301526139d081613994565b9050919050565b60006080820190506139ec6000830187612ec8565b6139f96020830186612ec8565b613a066040830185612fb1565b613a136060830184612fb1565b95945050505050565b7f4552433732313a2063616c6c6572206973206e6f7420746f6b656e206f776e6560008201527f72206f7220617070726f76656400000000000000000000000000000000000000602082015250565b6000613a78602d83612d8c565b9150613a8382613a1c565b604082019050919050565b60006020820190508181036000830152613aa781613a6b565b9050919050565b60008190508160005260206000209050919050565b60006020601f8301049050919050565b600082821b905092915050565b600060088302613b107fffffffffffffffffffffffffffffffffffffffffffffffffffffffffffffffff82613ad3565b613b1a8683613ad3565b95508019841693508086168417925050509392505050565b6000819050919050565b6000613b57613b52613b4d84612e33565b613b32565b612e33565b9050919050565b6000819050919050565b613b7183613b3c565b613b85613b7d82613b5e565b848454613ae0565b825550505050565b600090565b613b9a613b8d565b613ba5818484613b68565b505050565b5b81811015613bc957613bbe600082613b92565b600181019050613bab565b5050565b601f821115613c0e57613bdf81613aae565b613be884613ac3565b81016020851015613bf7578190505b613c0b613c0385613ac3565b830182613baa565b50505b505050565b600082821c905092915050565b6000613c3160001984600802613c13565b1980831691505092915050565b6000613c4a8383613c20565b9150826002028217905092915050565b613c6382612d81565b67ffffffffffffffff811115613c7c57613c7b612fe5565b5b613c8682546134e5565b613c91828285613bcd565b600060209050601f831160018114613cc45760008415613cb2578287015190505b613cbc8582613c3e565b865550613d24565b601f198416613cd286613aae565b60005b82811015613cfa57848901518255600182019150602085019450602081019050613cd5565b86831015613d175784890151613d13601f891682613c20565b8355505b6001600288020188555050505b505050505050565b7f4552433732313a20696e76616c696420746f6b656e2049440000000000000000600082015250565b6000613d62601883612d8c565b9150613d6d82613d2c565b602082019050919050565b60006020820190508181036000830152613d9181613d55565b9050919050565b7f4e487b7100000000000000000000000000000000000000000000000000000000600052603260045260246000fd5b6000613dd282612e33565b91507fffffffffffffffffffffffffffffffffffffffffffffffffffffffffffffffff8203613e0457613e03613856565b5b600182019050919050565b7f4552433732313a2061646472657373207a65726f206973206e6f74206120766160008201527f6c6964206f776e65720000000000000000000000000000000000000000000000602082015250565b6000613e6b602983612d8c565b9150613e7682613e0f565b604082019050919050565b60006020820190508181036000830152613e9a81613e5e565b9050919050565b7f4e6f7420746f6b656e206f776e65720000000000000000000000000000000000600082015250565b6000613ed7600f83612d8c565b9150613ee282613ea1565b602082019050919050565b60006020820190508181036000830152613f0681613eca565b9050919050565b7f4e6f7420617574686f72697a656420746f20636c61696d000000000000000000600082015250565b6000613f43601783612d8c565b9150613f4e82613f0d565b602082019050919050565b60006020820190508181036000830152613f7281613f36565b9050919050565b7f546f6b656e206e6f74206f776e656420627920636f6e7472616374206f776e6560008201527f7200000000000000000000000000000000000000000000000000000000000000602082015250565b6000613fd5602183612d8c565b9150613fe082613f79565b604082019050919050565b6000602082019050818103600083015261400481613fc8565b9050919050565b60006040820190506140206000830185612fb1565b61402d6020830184612ec8565b9392505050565b7f496e76616c696420707572636861736572206164647265737300000000000000600082015250565b600061406a601983612d8c565b915061407582614034565b602082019050919050565b600060208201905081810360008301526140998161405d565b9050919050565b7f546f6b656e20616c7265616479207072652d7075726368617365640000000000600082015250565b60006140d6601b83612d8c565b91506140e1826140a0565b602082019050919050565b60006020820190508181036000830152614105816140c9565b9050919050565b600081905092915050565b600061412282612d81565b61412c818561410c565b935061413c818560208601612d9d565b80840191505092915050565b60006141548285614117565b91506141608284614117565b91508190509392505050565b7f4f776e61626c653a206e6577206f776e657220697320746865207a65726f206160008201527f6464726573730000000000000000000000000000000000000000000000000000602082015250565b60006141c8602683612d8c565b91506141d38261416c565b604082019050919050565b600060208201905081810360008301526141f7816141bb565b9050919050565b7f5265656e7472616e637947756172643a207265656e7472616e742063616c6c00600082015250565b6000614234601f83612d8c565b915061423f826141fe565b602082019050919050565b6000602082019050818103600083015261426381614227565b9050919050565b7f5061757361626c653a2070617573656400000000000000000000000000000000600082015250565b60006142a0601083612d8c565b91506142ab8261426a565b602082019050919050565b600060208201905081810360008301526142cf81614293565b9050919050565b7f4552433732313a207472616e736665722066726f6d20696e636f72726563742060008201527f6f776e6572000000000000000000000000000000000000000000000000000000602082015250565b6000614332602583612d8c565b915061433d826142d6565b604082019050919050565b6000602082019050818103600083015261436181614325565b9050919050565b7f4552433732313a207472616e7366657220746f20746865207a65726f2061646460008201527f7265737300000000000000000000000000000000000000000000000000000000602082015250565b60006143c4602483612d8c565b91506143cf82614368565b604082019050919050565b600060208201905081810360008301526143f3816143b7565b9050919050565b7f4f776e61626c653a2063616c6c6572206973206e6f7420746865206f776e6572600082015250565b6000614430602083612d8c565b915061443b826143fa565b602082019050919050565b6000602082019050818103600083015261445f81614423565b9050919050565b7f4552433732313a20617070726f766520746f2063616c6c657200000000000000600082015250565b600061449c601983612d8c565b91506144a782614466565b602082019050919050565b600060208201905081810360008301526144cb8161448f565b9050919050565b7f4552433732313a207472616e7366657220746f206e6f6e20455243373231526560008201527f63656976657220696d706c656d656e7465720000000000000000000000000000602082015250565b600061452e603283612d8c565b9150614539826144d2565b604082019050919050565b6000602082019050818103600083015261455d81614521565b9050919050565b7f5061757361626c653a206e6f7420706175736564000000000000000000000000600082015250565b600061459a601483612d8c565b91506145a582614564565b602082019050919050565b600060208201905081810360008301526145c98161458d565b9050919050565b600081519050919050565b600082825260208201905092915050565b60006145f7826145d0565b61460181856145db565b9350614611818560208601612d9d565b61461a81612dc7565b840191505092915050565b600060808201905061463a6000830187612ec8565b6146476020830186612ec8565b6146546040830185612fb1565b818103606083015261466681846145ec565b905095945050505050565b60008151905061468081612cf2565b92915050565b60006020828403121561469c5761469b612cbc565b5b60006146aa84828501614671565b91505092915050565b7f4e487b7100000000000000000000000000000000000000000000000000000000600052601260045260246000fdfea26469706673582212207f78fca3e238e6152929db4af509c463bbd67ed29506d3dc1e53344f3ac69d6464736f6c63430008140033",
  "linkReferences": {},
  "deployedLinkReferences": {}
}