{
  "_format": "hh-sol-artifact-1",
  "contractName": "TurtleTimepieceNFT",
  "sourceName": "contracts/TurtleTimepieceNFT.sol",
  "abi": [
    {
      "inputs": [],
      "stateMutability": "nonpayable",
      "type": "constructor"
    },
    {
      "anonymous": false,
      "inputs": [
        {
          "indexed": true,
          "internalType": "address",
          "name": "owner",
          "type": "address"
        },
        {
          "indexed": true,
          "internalType": "address",
          "name": "approved",
          "type": "address"
        },
        {
          "indexed": true,
          "internalType": "uint256",
          "name": "tokenId",
          "type": "uint256"
        }
      ],
      "name": "Approval",
      "type": "event"
    },
    {
      "anonymous": false,
      "inputs": [
        {
          "indexed": true,
          "internalType": "address",
          "name": "owner",
          "type": "address"
        },
        {
          "indexed": true,
          "internalType": "address",
          "name": "operator",
          "type": "address"
        },
        {
          "indexed": false,
          "internalType": "bool",
          "name": "approved",
          "type": "bool"
        }
      ],
      "name": "ApprovalForAll",
      "type": "event"
    },
    {
      "anonymous": false,
      "inputs": [
        {
          "indexed": false,
          "internalType": "uint256",
          "name": "_fromTokenId",
          "type": "uint256"
        },
        {
          "indexed": false,
          "internalType": "uint256",
          "name": "_toTokenId",
          "type": "uint256"
        }
      ],
      "name": "BatchMetadataUpdate",
      "type": "event"
    },
    {
      "anonymous": false,
      "inputs": [
        {
          "indexed": true,
          "internalType": "address",
          "name": "by",
          "type": "address"
        }
      ],
      "name": "ContractPaused",
      "type": "event"
    },
    {
      "anonymous": false,
      "inputs": [
        {
          "indexed": true,
          "internalType": "address",
          "name": "by",
          "type": "address"
        }
      ],
      "name": "ContractUnpaused",
      "type": "event"
    },
    {
      "anonymous": false,
      "inputs": [
        {
          "indexed": false,
          "internalType": "uint256",
          "name": "_tokenId",
          "type": "uint256"
        }
      ],
      "name": "MetadataUpdate",
      "type": "event"
    },
    {
      "anonymous": false,
      "inputs": [
        {
          "indexed": false,
          "internalType": "address",
          "name": "owner",
          "type": "address"
        },
        {
          "indexed": false,
          "internalType": "uint256",
          "name": "tokenId",
          "type": "uint256"
        },
        {
          "indexed": false,
          "internalType": "string",
          "name": "tokenURI",
          "type": "string"
        }
      ],
      "name": "NFTMinted",
      "type": "event"
    },
    {
      "anonymous": false,
      "inputs": [
        {
          "indexed": false,
          "internalType": "address",
          "name": "from",
          "type": "address"
        },
        {
          "indexed": false,
          "internalType": "address",
          "name": "to",
          "type": "address"
        },
        {
          "indexed": false,
          "internalType": "uint256",
          "name": "tokenId",
          "type": "uint256"
        },
        {
          "indexed": false,
          "internalType": "uint256",
          "name": "price",
          "type": "uint256"
        }
      ],
      "name": "NFTSold",
      "type": "event"
    },
    {
      "anonymous": false,
      "inputs": [
        {
          "indexed": true,
          "internalType": "address",
          "name": "previousOwner",
          "type": "address"
        },
        {
          "indexed": true,
          "internalType": "address",
          "name": "newOwner",
          "type": "address"
        }
      ],
      "name": "OwnershipTransferred",
      "type": "event"
    },
    {
      "anonymous": false,
      "inputs": [
        {
          "indexed": false,
          "internalType": "address",
          "name": "account",
          "type": "address"
        }
      ],
      "name": "Paused",
      "type": "event"
    },
    {
      "anonymous": false,
      "inputs": [
        {
          "indexed": false,
          "internalType": "uint256",
          "name": "tokenId",
          "type": "uint256"
        },
        {
          "indexed": false,
          "internalType": "address",
          "name": "claimer",
          "type": "address"
        }
      ],
      "name": "TokenClaimed",
      "type": "event"
    },
    {
      "anonymous": false,
      "inputs": [
        {
          "indexed": false,
          "internalType": "uint256",
          "name": "tokenId",
          "type": "uint256"
        },
        {
          "indexed": false,
          "internalType": "address",
          "name": "purchaser",
          "type": "address"
        }
      ],
      "name": "TokenPrePurchased",
      "type": "event"
    },
    {
      "anonymous": false,
      "inputs": [
        {
          "indexed": false,
          "internalType": "uint256",
          "name": "tokenId",
          "type": "uint256"
        }
      ],
      "name": "TokenPutForSale",
      "type": "event"
    },
    {
      "anonymous": false,
      "inputs": [
        {
          "indexed": false,
          "internalType": "uint256",
          "name": "tokenId",
          "type": "uint256"
        }
      ],
      "name": "TokenRemovedFromSale",
      "type": "event"
    },
    {
      "anonymous": false,
      "inputs": [
        {
          "indexed": true,
          "internalType": "address",
          "name": "from",
          "type": "address"
        },
        {
          "indexed": true,
          "internalType": "address",
          "name": "to",
          "type": "address"
        },
        {
          "indexed": true,
          "internalType": "uint256",
          "name": "tokenId",
          "type": "uint256"
        }
      ],
      "name": "Transfer",
      "type": "event"
    },
    {
      "anonymous": false,
      "inputs": [
        {
          "indexed": false,
          "internalType": "address",
          "name": "account",
          "type": "address"
        }
      ],
      "name": "Unpaused",
      "type": "event"
    },
    {
      "inputs": [],
      "name": "MAX_SUPPLY",
      "outputs": [
        {
          "internalType": "uint256",
          "name": "",
          "type": "uint256"
        }
      ],
      "stateMutability": "view",
      "type": "function"
    },
    {
      "inputs": [
        {
          "internalType": "address",
          "name": "to",
          "type": "address"
        },
        {
          "internalType": "uint256",
          "name": "tokenId",
          "type": "uint256"
        }
      ],
      "name": "approve",
      "outputs": [],
      "stateMutability": "nonpayable",
      "type": "function"
    },
    {
      "inputs": [
        {
          "internalType": "address",
          "name": "owner",
          "type": "address"
        }
      ],
      "name": "balanceOf",
      "outputs": [
        {
          "internalType": "uint256",
          "name": "",
          "type": "uint256"
        }
      ],
      "stateMutability": "view",
      "type": "function"
    },
    {
      "inputs": [
        {
          "internalType": "uint256",
          "name": "tokenId",
          "type": "uint256"
        }
      ],
      "name": "claimToken",
      "outputs": [],
      "stateMutability": "nonpayable",
      "type": "function"
    },
    {
      "inputs": [
        {
          "internalType": "uint256",
          "name": "tokenId",
          "type": "uint256"
        }
      ],
      "name": "getApproved",
      "outputs": [
        {
          "internalType": "address",
          "name": "",
          "type": "address"
        }
      ],
      "stateMutability": "view",
      "type": "function"
    },
    {
      "inputs": [
        {
          "internalType": "uint256",
          "name": "tokenId",
          "type": "uint256"
        }
      ],
      "name": "getPrePurchaser",
      "outputs": [
        {
          "internalType": "address",
          "name": "",
          "type": "address"
        }
      ],
      "stateMutability": "view",
      "type": "function"
    },
    {
      "inputs": [],
      "name": "getTokenCount",
      "outputs": [
        {
          "internalType": "uint256",
          "name": "",
          "type": "uint256"
        }
      ],
      "stateMutability": "view",
      "type": "function"
    },
    {
      "inputs": [],
      "name": "getTokensForSale",
      "outputs": [
        {
          "internalType": "uint256[]",
          "name": "",
          "type": "uint256[]"
        }
      ],
      "stateMutability": "view",
      "type": "function"
    },
    {
      "inputs": [
        {
          "internalType": "address",
          "name": "owner",
          "type": "address"
        },
        {
          "internalType": "address",
          "name": "operator",
          "type": "address"
        }
      ],
      "name": "isApprovedForAll",
      "outputs": [
        {
          "internalType": "bool",
          "name": "",
          "type": "bool"
        }
      ],
      "stateMutability": "view",
      "type": "function"
    },
    {
      "inputs": [
        {
          "internalType": "uint256",
          "name": "",
          "type": "uint256"
        }
      ],
      "name": "isTokenForSale",
      "outputs": [
        {
          "internalType": "bool",
          "name": "",
          "type": "bool"
        }
      ],
      "stateMutability": "view",
      "type": "function"
    },
    {
      "inputs": [
        {
          "internalType": "uint256",
          "name": "tokenId",
          "type": "uint256"
        },
        {
          "internalType": "address",
          "name": "purchaser",
          "type": "address"
        }
      ],
      "name": "markTokenAsPrePurchased",
      "outputs": [],
      "stateMutability": "nonpayable",
      "type": "function"
    },
    {
      "inputs": [],
      "name": "mintPrice",
      "outputs": [
        {
          "internalType": "uint256",
          "name": "",
          "type": "uint256"
        }
      ],
      "stateMutability": "view",
      "type": "function"
    },
    {
      "inputs": [],
      "name": "name",
      "outputs": [
        {
          "internalType": "string",
          "name": "",
          "type": "string"
        }
      ],
      "stateMutability": "view",
      "type": "function"
    },
    {
      "inputs": [],
      "name": "owner",
      "outputs": [
        {
          "internalType": "address",
          "name": "",
          "type": "address"
        }
      ],
      "stateMutability": "view",
      "type": "function"
    },
    {
      "inputs": [
        {
          "internalType": "uint256",
          "name": "tokenId",
          "type": "uint256"
        }
      ],
      "name": "ownerOf",
      "outputs": [
        {
          "internalType": "address",
          "name": "",
          "type": "address"
        }
      ],
      "stateMutability": "view",
      "type": "function"
    },
    {
      "inputs": [],
      "name": "pause",
      "outputs": [],
      "stateMutability": "nonpayable",
      "type": "function"
    },
    {
      "inputs": [],
      "name": "paused",
      "outputs": [
        {
          "internalType": "bool",
          "name": "",
          "type": "bool"
        }
      ],
      "stateMutability": "view",
      "type": "function"
    },
    {
      "inputs": [
        {
          "internalType": "uint256",
          "name": "tokenId",
          "type": "uint256"
        }
      ],
      "name": "purchaseNFT",
      "outputs": [],
      "stateMutability": "payable",
      "type": "function"
    },
    {
      "inputs": [],
      "name": "renounceOwnership",
      "outputs": [],
      "stateMutability": "nonpayable",
      "type": "function"
    },
    {
      "inputs": [
        {
          "internalType": "address",
          "name": "from",
          "type": "address"
        },
        {
          "internalType": "address",
          "name": "to",
          "type": "address"
        },
        {
          "internalType": "uint256",
          "name": "tokenId",
          "type": "uint256"
        }
      ],
      "name": "safeTransferFrom",
      "outputs": [],
      "stateMutability": "nonpayable",
      "type": "function"
    },
    {
      "inputs": [
        {
          "internalType": "address",
          "name": "from",
          "type": "address"
        },
        {
          "internalType": "address",
          "name": "to",
          "type": "address"
        },
        {
          "internalType": "uint256",
          "name": "tokenId",
          "type": "uint256"
        },
        {
          "internalType": "bytes",
          "name": "data",
          "type": "bytes"
        }
      ],
      "name": "safeTransferFrom",
      "outputs": [],
      "stateMutability": "nonpayable",
      "type": "function"
    },
    {
      "inputs": [
        {
          "internalType": "address",
          "name": "operator",
          "type": "address"
        },
        {
          "internalType": "bool",
          "name": "approved",
          "type": "bool"
        }
      ],
      "name": "setApprovalForAll",
      "outputs": [],
      "stateMutability": "nonpayable",
      "type": "function"
    },
    {
      "inputs": [
        {
          "internalType": "uint256",
          "name": "newPrice",
          "type": "uint256"
        }
      ],
      "name": "setMintPrice",
      "outputs": [],
      "stateMutability": "nonpayable",
      "type": "function"
    },
    {
      "inputs": [
        {
          "internalType": "uint256",
          "name": "tokenId",
          "type": "uint256"
        },
        {
          "internalType": "bool",
          "name": "forSale",
          "type": "bool"
        }
      ],
      "name": "setTokenSaleStatus",
      "outputs": [],
      "stateMutability": "nonpayable",
      "type": "function"
    },
    {
      "inputs": [
        {
          "internalType": "uint256",
          "name": "",
          "type": "uint256"
        }
      ],
      "name": "stripePurchases",
      "outputs": [
        {
          "internalType": "address",
          "name": "",
          "type": "address"
        }
      ],
      "stateMutability": "view",
      "type": "function"
    },
    {
      "inputs": [
        {
          "internalType": "bytes4",
          "name": "interfaceId",
          "type": "bytes4"
        }
      ],
      "name": "supportsInterface",
      "outputs": [
        {
          "internalType": "bool",
          "name": "",
          "type": "bool"
        }
      ],
      "stateMutability": "view",
      "type": "function"
    },
    {
      "inputs": [],
      "name": "symbol",
      "outputs": [
        {
          "internalType": "string",
          "name": "",
          "type": "string"
        }
      ],
      "stateMutability": "view",
      "type": "function"
    },
    {
      "inputs": [
        {
          "internalType": "uint256",
          "name": "tokenId",
          "type": "uint256"
        }
      ],
      "name": "tokenURI",
      "outputs": [
        {
          "internalType": "string",
          "name": "",
          "type": "string"
        }
      ],
      "stateMutability": "view",
      "type": "function"
    },
    {
      "inputs": [
        {
          "internalType": "address",
          "name": "from",
          "type": "address"
        },
        {
          "internalType": "address",
          "name": "to",
          "type": "address"
        },
        {
          "internalType": "uint256",
          "name": "tokenId",
          "type": "uint256"
        }
      ],
      "name": "transferFrom",
      "outputs": [],
      "stateMutability": "nonpayable",
      "type": "function"
    },
    {
      "inputs": [
        {
          "internalType": "address",
          "name": "newOwner",
          "type": "address"
        }
      ],
      "name": "transferOwnership",
      "outputs": [],
      "stateMutability": "nonpayable",
      "type": "function"
    },
    {
      "inputs": [],
      "name": "unpause",
      "outputs": [],
      "stateMutability": "nonpayable",
      "type": "function"
    }
  ],
  "bytecode": "0x6080604052670195026560650000600b553480156200001d57600080fd5b506040518060400160405280600881526020017f41717561647563740000000000000000000000000000000000000000000000008152506040518060400160405280600881526020017f54696d656c65737300000000000000000000000000000000000000000000000081525081600090816200009b919062000cc5565b508060019081620000ad919062000cc5565b505050620000d0620000c46200027e60201b60201c565b6200028660201b60201c565b60016008819055506000600960006101000a81548160ff0219169083151502179055506000620001056200027e60201b60201c565b90506000600190505b60018111620002765762000129600a6200034c60201b60201c565b6200013b82826200036260201b60201c565b60006040518060600160405280602e8152602001620058ae602e91396200016883620005a860201b60201c565b6040516020016200017b92919062000f0a565b6040516020818303038152906040529050620001e46040518060400160405280601c81526020017f53657474696e672055524920666f7220746f6b656e2025733a20257300000000815250620001d784620005a860201b60201c565b836200068760201b60201c565b620001f682826200073060201b60201c565b6001600c600084815260200190815260200160002060006101000a81548160ff0219169083151502179055507fd35bb95e09c04b219e35047ce7b7b300e3384264ef84a40456943dbc0fc17c14838383604051620002579392919062001012565b60405180910390a15080806200026d9062001085565b9150506200010e565b50506200131b565b600033905090565b6000600760009054906101000a900473ffffffffffffffffffffffffffffffffffffffff16905081600760006101000a81548173ffffffffffffffffffffffffffffffffffffffff021916908373ffffffffffffffffffffffffffffffffffffffff1602179055508173ffffffffffffffffffffffffffffffffffffffff168173ffffffffffffffffffffffffffffffffffffffff167f8be0079c531659141344cd1fd0a4f28419497f9722a3daafe3b4186f6b6457e060405160405180910390a35050565b6001816000016000828254019250508190555050565b600073ffffffffffffffffffffffffffffffffffffffff168273ffffffffffffffffffffffffffffffffffffffff1603620003d4576040517f08c379a0000000000000000000000000000000000000000000000000000000008152600401620003cb9062001122565b60405180910390fd5b620003e581620007e360201b60201c565b1562000428576040517f08c379a00000000000000000000000000000000000000000000000000000000081526004016200041f9062001194565b60405180910390fd5b6200043e6000838360016200082c60201b60201c565b6200044f81620007e360201b60201c565b1562000492576040517f08c379a0000000000000000000000000000000000000000000000000000000008152600401620004899062001194565b60405180910390fd5b6001600360008473ffffffffffffffffffffffffffffffffffffffff1673ffffffffffffffffffffffffffffffffffffffff16815260200190815260200160002060008282540192505081905550816002600083815260200190815260200160002060006101000a81548173ffffffffffffffffffffffffffffffffffffffff021916908373ffffffffffffffffffffffffffffffffffffffff160217905550808273ffffffffffffffffffffffffffffffffffffffff16600073ffffffffffffffffffffffffffffffffffffffff167fddf252ad1be2c89b69c2b068fc378daa952ba7f163c4a11628f55a4df523b3ef60405160405180910390a4620005a46000838360016200083260201b60201c565b5050565b606060006001620005bf846200083860201b60201c565b01905060008167ffffffffffffffff811115620005e157620005e062000a56565b5b6040519080825280601f01601f191660200182016040528015620006145781602001600182028036833780820191505090505b509050600082602001820190505b6001156200067c578080600190039150507f3031323334353637383961626364656600000000000000000000000000000000600a86061a8153600a85816200066f576200066e620011b6565b5b0494506000850362000622575b819350505050919050565b6200072b838383604051602401620006a293929190620011e5565b6040516020818303038152906040527f2ced7cef000000000000000000000000000000000000000000000000000000007bffffffffffffffffffffffffffffffffffffffffffffffffffffffff19166020820180517bffffffffffffffffffffffffffffffffffffffffffffffffffffffff8381831617835250505050620009a460201b60201c565b505050565b6200074182620007e360201b60201c565b62000783576040517f08c379a00000000000000000000000000000000000000000000000000000000081526004016200077a90620012ad565b60405180910390fd5b80600660008481526020019081526020016000209081620007a5919062000cc5565b507ff8e1a15aba9398e019f0b49df1a4fde98ee17ae345cb5f6b5e2c27f5033e8ce782604051620007d79190620012cf565b60405180910390a15050565b60008073ffffffffffffffffffffffffffffffffffffffff166200080d83620009cd60201b60201c565b73ffffffffffffffffffffffffffffffffffffffff1614159050919050565b50505050565b50505050565b600080600090507a184f03e93ff9f4daa797ed6e38ed64bf6a1f01000000000000000083106200089a577a184f03e93ff9f4daa797ed6e38ed64bf6a1f010000000000000000838162000890576200088f620011b6565b5b0492506040810190505b6d04ee2d6d415b85acef81000000008310620008db576d04ee2d6d415b85acef81000000008381620008d157620008d0620011b6565b5b0492506020810190505b662386f26fc1000083106200090e57662386f26fc100008381620009045762000903620011b6565b5b0492506010810190505b6305f5e10083106200093b576305f5e1008381620009315762000930620011b6565b5b0492506008810190505b6127108310620009645761271083816200095a5762000959620011b6565b5b0492506004810190505b606483106200098b5760648381620009815762000980620011b6565b5b0492506002810190505b600a83106200099b576001810190505b80915050919050565b620009ca81620009c562000a0a60201b62001c751762000a2b60201b60201c565b60201c565b50565b60006002600083815260200190815260200160002060009054906101000a900473ffffffffffffffffffffffffffffffffffffffff169050919050565b60006a636f6e736f6c652e6c6f679050600080835160208501845afa505050565b62000a3f60201b62002c6117819050919050565b62000a49620012ec565b565b600081519050919050565b7f4e487b7100000000000000000000000000000000000000000000000000000000600052604160045260246000fd5b7f4e487b7100000000000000000000000000000000000000000000000000000000600052602260045260246000fd5b6000600282049050600182168062000acd57607f821691505b60208210810362000ae35762000ae262000a85565b5b50919050565b60008190508160005260206000209050919050565b60006020601f8301049050919050565b600082821b905092915050565b60006008830262000b4d7fffffffffffffffffffffffffffffffffffffffffffffffffffffffffffffffff8262000b0e565b62000b59868362000b0e565b95508019841693508086168417925050509392505050565b6000819050919050565b6000819050919050565b600062000ba662000ba062000b9a8462000b71565b62000b7b565b62000b71565b9050919050565b6000819050919050565b62000bc28362000b85565b62000bda62000bd18262000bad565b84845462000b1b565b825550505050565b600090565b62000bf162000be2565b62000bfe81848462000bb7565b505050565b5b8181101562000c265762000c1a60008262000be7565b60018101905062000c04565b5050565b601f82111562000c755762000c3f8162000ae9565b62000c4a8462000afe565b8101602085101562000c5a578190505b62000c7262000c698562000afe565b83018262000c03565b50505b505050565b600082821c905092915050565b600062000c9a6000198460080262000c7a565b1980831691505092915050565b600062000cb5838362000c87565b9150826002028217905092915050565b62000cd08262000a4b565b67ffffffffffffffff81111562000cec5762000ceb62000a56565b5b62000cf8825462000ab4565b62000d0582828562000c2a565b600060209050601f83116001811462000d3d576000841562000d28578287015190505b62000d34858262000ca7565b86555062000da4565b601f19841662000d4d8662000ae9565b60005b8281101562000d775784890151825560018201915060208501945060208101905062000d50565b8683101562000d97578489015162000d93601f89168262000c87565b8355505b6001600288020188555050505b505050505050565b600081905092915050565b7f697066733a2f2f00000000000000000000000000000000000000000000000000600082015250565b600062000def60078362000dac565b915062000dfc8262000db7565b600782019050919050565b60005b8381101562000e2757808201518184015260208101905062000e0a565b60008484015250505050565b600062000e408262000a4b565b62000e4c818562000dac565b935062000e5e81856020860162000e07565b80840191505092915050565b7f2f00000000000000000000000000000000000000000000000000000000000000600082015250565b600062000ea260018362000dac565b915062000eaf8262000e6a565b600182019050919050565b7f2e6a736f6e000000000000000000000000000000000000000000000000000000600082015250565b600062000ef260058362000dac565b915062000eff8262000eba565b600582019050919050565b600062000f178262000de0565b915062000f25828562000e33565b915062000f328262000e93565b915062000f40828462000e33565b915062000f4d8262000ee3565b91508190509392505050565b600073ffffffffffffffffffffffffffffffffffffffff82169050919050565b600062000f868262000f59565b9050919050565b62000f988162000f79565b82525050565b62000fa98162000b71565b82525050565b600082825260208201905092915050565b6000601f19601f8301169050919050565b600062000fde8262000a4b565b62000fea818562000faf565b935062000ffc81856020860162000e07565b620010078162000fc0565b840191505092915050565b600060608201905062001029600083018662000f8d565b62001038602083018562000f9e565b81810360408301526200104c818462000fd1565b9050949350505050565b7f4e487b7100000000000000000000000000000000000000000000000000000000600052601160045260246000fd5b6000620010928262000b71565b91507fffffffffffffffffffffffffffffffffffffffffffffffffffffffffffffffff8203620010c757620010c662001056565b5b600182019050919050565b7f4552433732313a206d696e7420746f20746865207a65726f2061646472657373600082015250565b60006200110a60208362000faf565b91506200111782620010d2565b602082019050919050565b600060208201905081810360008301526200113d81620010fb565b9050919050565b7f4552433732313a20746f6b656e20616c7265616479206d696e74656400000000600082015250565b60006200117c601c8362000faf565b9150620011898262001144565b602082019050919050565b60006020820190508181036000830152620011af816200116d565b9050919050565b7f4e487b7100000000000000000000000000000000000000000000000000000000600052601260045260246000fd5b6000606082019050818103600083015262001201818662000fd1565b9050818103602083015262001217818562000fd1565b905081810360408301526200122d818462000fd1565b9050949350505050565b7f45524337323155524953746f726167653a2055524920736574206f66206e6f6e60008201527f6578697374656e7420746f6b656e000000000000000000000000000000000000602082015250565b600062001295602e8362000faf565b9150620012a28262001237565b604082019050919050565b60006020820190508181036000830152620012c88162001286565b9050919050565b6000602082019050620012e6600083018462000f9e565b92915050565b7f4e487b7100000000000000000000000000000000000000000000000000000000600052605160045260246000fd5b614583806200132b6000396000f3fe6080604052600436106101d85760003560e01c8063715018a611610102578063b0fbc27611610095578063e3eb28fd11610064578063e3eb28fd14610689578063e985e9c5146106c6578063f2fde38b14610703578063f4a0a5281461072c576101d8565b8063b0fbc276146105bd578063b88d4fde146105e6578063c87b56dd1461060f578063deabb1b81461064c576101d8565b80638da5cb5b116100d15780638da5cb5b1461051557806395d89b4114610540578063a22cb4651461056b578063a9e7c2e514610594576101d8565b8063715018a61461049357806378a89567146104aa57806382b2e44d146104d55780638456cb59146104fe576101d8565b80633f4ba83a1161017a5780636352211e116101495780636352211e146103c357806365e4e1c0146104005780636817c76c1461042b57806370a0823114610456576101d8565b80633f4ba83a1461031b57806342842e0e146103325780634fed1c941461035b5780635c975abb14610398576101d8565b8063095ea7b3116101b6578063095ea7b314610282578063150bde03146102ab57806323b872dd146102c757806332cb6b0c146102f0576101d8565b806301ffc9a7146101dd57806306fdde031461021a578063081812fc14610245575b600080fd5b3480156101e957600080fd5b5061020460048036038101906101ff9190612cd7565b610755565b6040516102119190612d1f565b60405180910390f35b34801561022657600080fd5b5061022f6107b6565b60405161023c9190612dca565b60405180910390f35b34801561025157600080fd5b5061026c60048036038101906102679190612e22565b610848565b6040516102799190612e90565b60405180910390f35b34801561028e57600080fd5b506102a960048036038101906102a49190612ed7565b61088e565b005b6102c560048036038101906102c09190612e22565b6109a5565b005b3480156102d357600080fd5b506102ee60048036038101906102e99190612f17565b610dba565b005b3480156102fc57600080fd5b50610305610e1a565b6040516103129190612f79565b60405180910390f35b34801561032757600080fd5b50610330610e1f565b005b34801561033e57600080fd5b5061035960048036038101906103549190612f17565b610e74565b005b34801561036757600080fd5b50610382600480360381019061037d9190612e22565b610e94565b60405161038f9190612d1f565b60405180910390f35b3480156103a457600080fd5b506103ad610eb4565b6040516103ba9190612d1f565b60405180910390f35b3480156103cf57600080fd5b506103ea60048036038101906103e59190612e22565b610ecb565b6040516103f79190612e90565b60405180910390f35b34801561040c57600080fd5b50610415610f51565b6040516104229190613052565b60405180910390f35b34801561043757600080fd5b50610440611144565b60405161044d9190612f79565b60405180910390f35b34801561046257600080fd5b5061047d60048036038101906104789190613074565b61114a565b60405161048a9190612f79565b60405180910390f35b34801561049f57600080fd5b506104a8611201565b005b3480156104b657600080fd5b506104bf611215565b6040516104cc9190612f79565b60405180910390f35b3480156104e157600080fd5b506104fc60048036038101906104f791906130cd565b611226565b005b34801561050a57600080fd5b50610513611394565b005b34801561052157600080fd5b5061052a6113e9565b6040516105379190612e90565b60405180910390f35b34801561054c57600080fd5b50610555611413565b6040516105629190612dca565b60405180910390f35b34801561057757600080fd5b50610592600480360381019061058d919061310d565b6114a5565b005b3480156105a057600080fd5b506105bb60048036038101906105b69190612e22565b6114bb565b005b3480156105c957600080fd5b506105e460048036038101906105df919061314d565b6116d9565b005b3480156105f257600080fd5b5061060d600480360381019061060891906132c2565b611955565b005b34801561061b57600080fd5b5061063660048036038101906106319190612e22565b6119b7565b6040516106439190612dca565b60405180910390f35b34801561065857600080fd5b50610673600480360381019061066e9190612e22565b611adc565b6040516106809190612e90565b60405180910390f35b34801561069557600080fd5b506106b060048036038101906106ab9190612e22565b611b19565b6040516106bd9190612e90565b60405180910390f35b3480156106d257600080fd5b506106ed60048036038101906106e89190613345565b611b4c565b6040516106fa9190612d1f565b60405180910390f35b34801561070f57600080fd5b5061072a60048036038101906107259190613074565b611be0565b005b34801561073857600080fd5b50610753600480360381019061074e9190612e22565b611c63565b005b6000634906490660e01b7bffffffffffffffffffffffffffffffffffffffffffffffffffffffff1916827bffffffffffffffffffffffffffffffffffffffffffffffffffffffff191614806107af57506107ae82611c96565b5b9050919050565b6060600080546107c5906133b4565b80601f01602080910402602001604051908101604052809291908181526020018280546107f1906133b4565b801561083e5780601f106108135761010080835404028352916020019161083e565b820191906000526020600020905b81548152906001019060200180831161082157829003601f168201915b5050505050905090565b600061085382611d78565b6004600083815260200190815260200160002060009054906101000a900473ffffffffffffffffffffffffffffffffffffffff169050919050565b600061089982610ecb565b90508073ffffffffffffffffffffffffffffffffffffffff168373ffffffffffffffffffffffffffffffffffffffff1603610909576040517f08c379a000000000000000000000000000000000000000000000000000000000815260040161090090613457565b60405180910390fd5b8073ffffffffffffffffffffffffffffffffffffffff16610928611dc3565b73ffffffffffffffffffffffffffffffffffffffff161480610957575061095681610951611dc3565b611b4c565b5b610996576040517f08c379a000000000000000000000000000000000000000000000000000000000815260040161098d906134e9565b60405180910390fd5b6109a08383611dcb565b505050565b6109ad611e84565b6109b5611ed3565b6109be81611f1d565b6109fd576040517f08c379a00000000000000000000000000000000000000000000000000000000081526004016109f490613555565b60405180910390fd5b600c600082815260200190815260200160002060009054906101000a900460ff16610a5d576040517f08c379a0000000000000000000000000000000000000000000000000000000008152600401610a54906135c1565b60405180910390fd5b600b54341015610aa2576040517f08c379a0000000000000000000000000000000000000000000000000000000008152600401610a999061362d565b60405180910390fd5b600073ffffffffffffffffffffffffffffffffffffffff16600d600083815260200190815260200160002060009054906101000a900473ffffffffffffffffffffffffffffffffffffffff1673ffffffffffffffffffffffffffffffffffffffff1614610b44576040517f08c379a0000000000000000000000000000000000000000000000000000000008152600401610b3b90613699565b60405180910390fd5b6000610b4f82610ecb565b90503373ffffffffffffffffffffffffffffffffffffffff168173ffffffffffffffffffffffffffffffffffffffff1603610bbf576040517f08c379a0000000000000000000000000000000000000000000000000000000008152600401610bb690613705565b60405180910390fd5b6000600b5434610bcf9190613754565b9050610bdc823385611f5e565b6000600c600085815260200190815260200160002060006101000a81548160ff02191690831515021790555060008273ffffffffffffffffffffffffffffffffffffffff16600b54604051610c30906137b9565b60006040518083038185875af1925050503d8060008114610c6d576040519150601f19603f3d011682016040523d82523d6000602084013e610c72565b606091505b5050905080610cb6576040517f08c379a0000000000000000000000000000000000000000000000000000000008152600401610cad9061381a565b60405180910390fd5b6000821115610d6d5760003373ffffffffffffffffffffffffffffffffffffffff1683604051610ce5906137b9565b60006040518083038185875af1925050503d8060008114610d22576040519150601f19603f3d011682016040523d82523d6000602084013e610d27565b606091505b5050905080610d6b576040517f08c379a0000000000000000000000000000000000000000000000000000000008152600401610d6290613886565b60405180910390fd5b505b7ff6ccc0cf89c21c54724ea6ef2ec01da8fe33a1cebe06607e160fd78483eba302833386600b54604051610da494939291906138a6565b60405180910390a1505050610db7612257565b50565b610dcb610dc5611dc3565b82612261565b610e0a576040517f08c379a0000000000000000000000000000000000000000000000000000000008152600401610e019061395d565b60405180910390fd5b610e15838383611f5e565b505050565b600181565b610e276122f6565b610e2f612374565b3373ffffffffffffffffffffffffffffffffffffffff167f5b65b0c1363b3003db9bcc5e1fd8805a6d6bf5bf6dc9d3431ee4494cd7d1176660405160405180910390a2565b610e8f83838360405180602001604052806000815250611955565b505050565b600c6020528060005260406000206000915054906101000a900460ff1681565b6000600960009054906101000a900460ff16905090565b600080610ed7836123d7565b9050600073ffffffffffffffffffffffffffffffffffffffff168173ffffffffffffffffffffffffffffffffffffffff1603610f48576040517f08c379a0000000000000000000000000000000000000000000000000000000008152600401610f3f906139c9565b60405180910390fd5b80915050919050565b60606000610f5f600a612414565b67ffffffffffffffff811115610f7857610f77613197565b5b604051908082528060200260200182016040528015610fa65781602001602082028036833780820191505090505b509050600080600190505b610fbb600a612414565b811161109457600c600082815260200190815260200160002060009054906101000a900460ff16801561104d5750600073ffffffffffffffffffffffffffffffffffffffff16600d600083815260200190815260200160002060009054906101000a900473ffffffffffffffffffffffffffffffffffffffff1673ffffffffffffffffffffffffffffffffffffffff16145b156110815780838381518110611066576110656139e9565b5b602002602001018181525050818061107d90613a18565b9250505b808061108c90613a18565b915050610fb1565b5060008167ffffffffffffffff8111156110b1576110b0613197565b5b6040519080825280602002602001820160405280156110df5781602001602082028036833780820191505090505b50905060005b8281101561113a57838181518110611100576110ff6139e9565b5b602002602001015182828151811061111b5761111a6139e9565b5b602002602001018181525050808061113290613a18565b9150506110e5565b5080935050505090565b600b5481565b60008073ffffffffffffffffffffffffffffffffffffffff168273ffffffffffffffffffffffffffffffffffffffff16036111ba576040517f08c379a00000000000000000000000000000000000000000000000000000000081526004016111b190613ad2565b60405180910390fd5b600360008373ffffffffffffffffffffffffffffffffffffffff1673ffffffffffffffffffffffffffffffffffffffff168152602001908152602001600020549050919050565b6112096122f6565b6112136000612422565b565b6000611221600a612414565b905090565b61122f82611f1d565b61126e576040517f08c379a000000000000000000000000000000000000000000000000000000000815260040161126590613555565b60405180910390fd5b611276611dc3565b73ffffffffffffffffffffffffffffffffffffffff1661129583610ecb565b73ffffffffffffffffffffffffffffffffffffffff16146112eb576040517f08c379a00000000000000000000000000000000000000000000000000000000081526004016112e290613b3e565b60405180910390fd5b80600c600084815260200190815260200160002060006101000a81548160ff0219169083151502179055508015611358577fbf9c5e85a8d8565a3d499b4ea68b35da3e8466cc67b9dce4ebd4bf93bc90d5388260405161134b9190612f79565b60405180910390a1611390565b7fccd0b7af52bf5f08ec6781299e66283301e612d1ca1ffceab3579a6364073c30826040516113879190612f79565b60405180910390a15b5050565b61139c6122f6565b6113a46124e8565b3373ffffffffffffffffffffffffffffffffffffffff167f81990fd9a5c552b8e3677917d8a03c07678f0d2cb68f88b634aca2022e9bd19f60405160405180910390a2565b6000600760009054906101000a900473ffffffffffffffffffffffffffffffffffffffff16905090565b606060018054611422906133b4565b80601f016020809104026020016040519081016040528092919081815260200182805461144e906133b4565b801561149b5780601f106114705761010080835404028352916020019161149b565b820191906000526020600020905b81548152906001019060200180831161147e57829003601f168201915b5050505050905090565b6114b76114b0611dc3565b838361254b565b5050565b6114c3611e84565b6114cb611ed3565b6114d481611f1d565b611513576040517f08c379a000000000000000000000000000000000000000000000000000000000815260040161150a90613555565b60405180910390fd5b3373ffffffffffffffffffffffffffffffffffffffff16600d600083815260200190815260200160002060009054906101000a900473ffffffffffffffffffffffffffffffffffffffff1673ffffffffffffffffffffffffffffffffffffffff16146115b4576040517f08c379a00000000000000000000000000000000000000000000000000000000081526004016115ab90613baa565b60405180910390fd5b60006115bf82610ecb565b90506115c96113e9565b73ffffffffffffffffffffffffffffffffffffffff168173ffffffffffffffffffffffffffffffffffffffff1614611636576040517f08c379a000000000000000000000000000000000000000000000000000000000815260040161162d90613c3c565b60405180910390fd5b611641813384611f5e565b6000600d600084815260200190815260200160002060006101000a81548173ffffffffffffffffffffffffffffffffffffffff021916908373ffffffffffffffffffffffffffffffffffffffff1602179055507f8b224b108d8f9c6d554b41182503c3f8b79dfcf17233a9366d50c386c28af85082336040516116c5929190613c5c565b60405180910390a1506116d6612257565b50565b6116e16122f6565b6116ea82611f1d565b611729576040517f08c379a000000000000000000000000000000000000000000000000000000000815260040161172090613555565b60405180910390fd5b600c600083815260200190815260200160002060009054906101000a900460ff16611789576040517f08c379a0000000000000000000000000000000000000000000000000000000008152600401611780906135c1565b60405180910390fd5b600073ffffffffffffffffffffffffffffffffffffffff168173ffffffffffffffffffffffffffffffffffffffff16036117f8576040517f08c379a00000000000000000000000000000000000000000000000000000000081526004016117ef90613cd1565b60405180910390fd5b600073ffffffffffffffffffffffffffffffffffffffff16600d600084815260200190815260200160002060009054906101000a900473ffffffffffffffffffffffffffffffffffffffff1673ffffffffffffffffffffffffffffffffffffffff161461189a576040517f08c379a000000000000000000000000000000000000000000000000000000000815260040161189190613d3d565b60405180910390fd5b6000600c600084815260200190815260200160002060006101000a81548160ff02191690831515021790555080600d600084815260200190815260200160002060006101000a81548173ffffffffffffffffffffffffffffffffffffffff021916908373ffffffffffffffffffffffffffffffffffffffff1602179055507fd9e06aca9c09bfec0d0acfdfc2dc2d2aa8564c3e0950891dc198ff7809146a3e8282604051611949929190613c5c565b60405180910390a15050565b611966611960611dc3565b83612261565b6119a5576040517f08c379a000000000000000000000000000000000000000000000000000000000815260040161199c9061395d565b60405180910390fd5b6119b1848484846126b7565b50505050565b60606119c282611f1d565b611a01576040517f08c379a00000000000000000000000000000000000000000000000000000000081526004016119f890613555565b60405180910390fd5b6001821115611a45576040517f08c379a0000000000000000000000000000000000000000000000000000000008152600401611a3c90613da9565b60405180910390fd5b60006040518060600160405280602e8152602001614520602e9139611a6984612713565b604051602001611a7a929190613ee9565b6040516020818303038152906040529050611ad36040518060400160405280601e81526020017f52657475726e696e672055524920666f7220746f6b656e2025733a2025730000815250611acd85612713565b836127e1565b80915050919050565b6000600d600083815260200190815260200160002060009054906101000a900473ffffffffffffffffffffffffffffffffffffffff169050919050565b600d6020528060005260406000206000915054906101000a900473ffffffffffffffffffffffffffffffffffffffff1681565b6000600560008473ffffffffffffffffffffffffffffffffffffffff1673ffffffffffffffffffffffffffffffffffffffff16815260200190815260200160002060008373ffffffffffffffffffffffffffffffffffffffff1673ffffffffffffffffffffffffffffffffffffffff16815260200190815260200160002060009054906101000a900460ff16905092915050565b611be86122f6565b600073ffffffffffffffffffffffffffffffffffffffff168173ffffffffffffffffffffffffffffffffffffffff1603611c57576040517f08c379a0000000000000000000000000000000000000000000000000000000008152600401611c4e90613fa0565b60405180910390fd5b611c6081612422565b50565b611c6b6122f6565b80600b8190555050565b60006a636f6e736f6c652e6c6f679050600080835160208501845afa505050565b60007f80ac58cd000000000000000000000000000000000000000000000000000000007bffffffffffffffffffffffffffffffffffffffffffffffffffffffff1916827bffffffffffffffffffffffffffffffffffffffffffffffffffffffff19161480611d6157507f5b5e139f000000000000000000000000000000000000000000000000000000007bffffffffffffffffffffffffffffffffffffffffffffffffffffffff1916827bffffffffffffffffffffffffffffffffffffffffffffffffffffffff1916145b80611d715750611d7082612880565b5b9050919050565b611d8181611f1d565b611dc0576040517f08c379a0000000000000000000000000000000000000000000000000000000008152600401611db7906139c9565b60405180910390fd5b50565b600033905090565b816004600083815260200190815260200160002060006101000a81548173ffffffffffffffffffffffffffffffffffffffff021916908373ffffffffffffffffffffffffffffffffffffffff160217905550808273ffffffffffffffffffffffffffffffffffffffff16611e3e83610ecb565b73ffffffffffffffffffffffffffffffffffffffff167f8c5be1e5ebec7d5bd14f71427d1e84f3dd0314c0f7b2291e5b200ac8c7c3b92560405160405180910390a45050565b600260085403611ec9576040517f08c379a0000000000000000000000000000000000000000000000000000000008152600401611ec09061400c565b60405180910390fd5b6002600881905550565b611edb610eb4565b15611f1b576040517f08c379a0000000000000000000000000000000000000000000000000000000008152600401611f1290614078565b60405180910390fd5b565b60008073ffffffffffffffffffffffffffffffffffffffff16611f3f836123d7565b73ffffffffffffffffffffffffffffffffffffffff1614159050919050565b8273ffffffffffffffffffffffffffffffffffffffff16611f7e82610ecb565b73ffffffffffffffffffffffffffffffffffffffff1614611fd4576040517f08c379a0000000000000000000000000000000000000000000000000000000008152600401611fcb9061410a565b60405180910390fd5b600073ffffffffffffffffffffffffffffffffffffffff168273ffffffffffffffffffffffffffffffffffffffff1603612043576040517f08c379a000000000000000000000000000000000000000000000000000000000815260040161203a9061419c565b60405180910390fd5b61205083838360016128ea565b8273ffffffffffffffffffffffffffffffffffffffff1661207082610ecb565b73ffffffffffffffffffffffffffffffffffffffff16146120c6576040517f08c379a00000000000000000000000000000000000000000000000000000000081526004016120bd9061410a565b60405180910390fd5b6004600082815260200190815260200160002060006101000a81549073ffffffffffffffffffffffffffffffffffffffff02191690556001600360008573ffffffffffffffffffffffffffffffffffffffff1673ffffffffffffffffffffffffffffffffffffffff168152602001908152602001600020600082825403925050819055506001600360008473ffffffffffffffffffffffffffffffffffffffff1673ffffffffffffffffffffffffffffffffffffffff16815260200190815260200160002060008282540192505081905550816002600083815260200190815260200160002060006101000a81548173ffffffffffffffffffffffffffffffffffffffff021916908373ffffffffffffffffffffffffffffffffffffffff160217905550808273ffffffffffffffffffffffffffffffffffffffff168473ffffffffffffffffffffffffffffffffffffffff167fddf252ad1be2c89b69c2b068fc378daa952ba7f163c4a11628f55a4df523b3ef60405160405180910390a461225283838360016128f0565b505050565b6001600881905550565b60008061226d83610ecb565b90508073ffffffffffffffffffffffffffffffffffffffff168473ffffffffffffffffffffffffffffffffffffffff1614806122af57506122ae8185611b4c565b5b806122ed57508373ffffffffffffffffffffffffffffffffffffffff166122d584610848565b73ffffffffffffffffffffffffffffffffffffffff16145b91505092915050565b6122fe611dc3565b73ffffffffffffffffffffffffffffffffffffffff1661231c6113e9565b73ffffffffffffffffffffffffffffffffffffffff1614612372576040517f08c379a000000000000000000000000000000000000000000000000000000000815260040161236990614208565b60405180910390fd5b565b61237c6128f6565b6000600960006101000a81548160ff0219169083151502179055507f5db9ee0a495bf2e6ff9c91a7834c1ba4fdd244a5e8aa4e537bd38aeae4b073aa6123c0611dc3565b6040516123cd9190612e90565b60405180910390a1565b60006002600083815260200190815260200160002060009054906101000a900473ffffffffffffffffffffffffffffffffffffffff169050919050565b600081600001549050919050565b6000600760009054906101000a900473ffffffffffffffffffffffffffffffffffffffff16905081600760006101000a81548173ffffffffffffffffffffffffffffffffffffffff021916908373ffffffffffffffffffffffffffffffffffffffff1602179055508173ffffffffffffffffffffffffffffffffffffffff168173ffffffffffffffffffffffffffffffffffffffff167f8be0079c531659141344cd1fd0a4f28419497f9722a3daafe3b4186f6b6457e060405160405180910390a35050565b6124f0611ed3565b6001600960006101000a81548160ff0219169083151502179055507f62e78cea01bee320cd4e420270b5ea74000d11b0c9f74754ebdbfc544b05a258612534611dc3565b6040516125419190612e90565b60405180910390a1565b8173ffffffffffffffffffffffffffffffffffffffff168373ffffffffffffffffffffffffffffffffffffffff16036125b9576040517f08c379a00000000000000000000000000000000000000000000000000000000081526004016125b090614274565b60405180910390fd5b80600560008573ffffffffffffffffffffffffffffffffffffffff1673ffffffffffffffffffffffffffffffffffffffff16815260200190815260200160002060008473ffffffffffffffffffffffffffffffffffffffff1673ffffffffffffffffffffffffffffffffffffffff16815260200190815260200160002060006101000a81548160ff0219169083151502179055508173ffffffffffffffffffffffffffffffffffffffff168373ffffffffffffffffffffffffffffffffffffffff167f17307eab39ab6107e8899845ad3d59bd9653f200f220920489ca2b5937696c31836040516126aa9190612d1f565b60405180910390a3505050565b6126c2848484611f5e565b6126ce8484848461293f565b61270d576040517f08c379a000000000000000000000000000000000000000000000000000000000815260040161270490614306565b60405180910390fd5b50505050565b60606000600161272284612ac6565b01905060008167ffffffffffffffff81111561274157612740613197565b5b6040519080825280601f01601f1916602001820160405280156127735781602001600182028036833780820191505090505b509050600082602001820190505b6001156127d6578080600190039150507f3031323334353637383961626364656600000000000000000000000000000000600a86061a8153600a85816127ca576127c9614326565b5b04945060008503612781575b819350505050919050565b61287b8383836040516024016127f993929190614355565b6040516020818303038152906040527f2ced7cef000000000000000000000000000000000000000000000000000000007bffffffffffffffffffffffffffffffffffffffffffffffffffffffff19166020820180517bffffffffffffffffffffffffffffffffffffffffffffffffffffffff8381831617835250505050612c19565b505050565b60007f01ffc9a7000000000000000000000000000000000000000000000000000000007bffffffffffffffffffffffffffffffffffffffffffffffffffffffff1916827bffffffffffffffffffffffffffffffffffffffffffffffffffffffff1916149050919050565b50505050565b50505050565b6128fe610eb4565b61293d576040517f08c379a0000000000000000000000000000000000000000000000000000000008152600401612934906143ed565b60405180910390fd5b565b60006129608473ffffffffffffffffffffffffffffffffffffffff16612c33565b15612ab9578373ffffffffffffffffffffffffffffffffffffffff1663150b7a02612989611dc3565b8786866040518563ffffffff1660e01b81526004016129ab9493929190614462565b6020604051808303816000875af19250505080156129e757506040513d601f19601f820116820180604052508101906129e491906144c3565b60015b612a69573d8060008114612a17576040519150601f19603f3d011682016040523d82523d6000602084013e612a1c565b606091505b506000815103612a61576040517f08c379a0000000000000000000000000000000000000000000000000000000008152600401612a5890614306565b60405180910390fd5b805181602001fd5b63150b7a0260e01b7bffffffffffffffffffffffffffffffffffffffffffffffffffffffff1916817bffffffffffffffffffffffffffffffffffffffffffffffffffffffff191614915050612abe565b600190505b949350505050565b600080600090507a184f03e93ff9f4daa797ed6e38ed64bf6a1f0100000000000000008310612b24577a184f03e93ff9f4daa797ed6e38ed64bf6a1f0100000000000000008381612b1a57612b19614326565b5b0492506040810190505b6d04ee2d6d415b85acef81000000008310612b61576d04ee2d6d415b85acef81000000008381612b5757612b56614326565b5b0492506020810190505b662386f26fc100008310612b9057662386f26fc100008381612b8657612b85614326565b5b0492506010810190505b6305f5e1008310612bb9576305f5e1008381612baf57612bae614326565b5b0492506008810190505b6127108310612bde576127108381612bd457612bd3614326565b5b0492506004810190505b60648310612c015760648381612bf757612bf6614326565b5b0492506002810190505b600a8310612c10576001810190505b80915050919050565b612c3081612c28611c75612c56565b63ffffffff16565b50565b6000808273ffffffffffffffffffffffffffffffffffffffff163b119050919050565b612c61819050919050565b612c696144f0565b565b6000604051905090565b600080fd5b600080fd5b60007fffffffff0000000000000000000000000000000000000000000000000000000082169050919050565b612cb481612c7f565b8114612cbf57600080fd5b50565b600081359050612cd181612cab565b92915050565b600060208284031215612ced57612cec612c75565b5b6000612cfb84828501612cc2565b91505092915050565b60008115159050919050565b612d1981612d04565b82525050565b6000602082019050612d346000830184612d10565b92915050565b600081519050919050565b600082825260208201905092915050565b60005b83811015612d74578082015181840152602081019050612d59565b60008484015250505050565b6000601f19601f8301169050919050565b6000612d9c82612d3a565b612da68185612d45565b9350612db6818560208601612d56565b612dbf81612d80565b840191505092915050565b60006020820190508181036000830152612de48184612d91565b905092915050565b6000819050919050565b612dff81612dec565b8114612e0a57600080fd5b50565b600081359050612e1c81612df6565b92915050565b600060208284031215612e3857612e37612c75565b5b6000612e4684828501612e0d565b91505092915050565b600073ffffffffffffffffffffffffffffffffffffffff82169050919050565b6000612e7a82612e4f565b9050919050565b612e8a81612e6f565b82525050565b6000602082019050612ea56000830184612e81565b92915050565b612eb481612e6f565b8114612ebf57600080fd5b50565b600081359050612ed181612eab565b92915050565b60008060408385031215612eee57612eed612c75565b5b6000612efc85828601612ec2565b9250506020612f0d85828601612e0d565b9150509250929050565b600080600060608486031215612f3057612f2f612c75565b5b6000612f3e86828701612ec2565b9350506020612f4f86828701612ec2565b9250506040612f6086828701612e0d565b9150509250925092565b612f7381612dec565b82525050565b6000602082019050612f8e6000830184612f6a565b92915050565b600081519050919050565b600082825260208201905092915050565b6000819050602082019050919050565b612fc981612dec565b82525050565b6000612fdb8383612fc0565b60208301905092915050565b6000602082019050919050565b6000612fff82612f94565b6130098185612f9f565b935061301483612fb0565b8060005b8381101561304557815161302c8882612fcf565b975061303783612fe7565b925050600181019050613018565b5085935050505092915050565b6000602082019050818103600083015261306c8184612ff4565b905092915050565b60006020828403121561308a57613089612c75565b5b600061309884828501612ec2565b91505092915050565b6130aa81612d04565b81146130b557600080fd5b50565b6000813590506130c7816130a1565b92915050565b600080604083850312156130e4576130e3612c75565b5b60006130f285828601612e0d565b9250506020613103858286016130b8565b9150509250929050565b6000806040838503121561312457613123612c75565b5b600061313285828601612ec2565b9250506020613143858286016130b8565b9150509250929050565b6000806040838503121561316457613163612c75565b5b600061317285828601612e0d565b925050602061318385828601612ec2565b9150509250929050565b600080fd5b600080fd5b7f4e487b7100000000000000000000000000000000000000000000000000000000600052604160045260246000fd5b6131cf82612d80565b810181811067ffffffffffffffff821117156131ee576131ed613197565b5b80604052505050565b6000613201612c6b565b905061320d82826131c6565b919050565b600067ffffffffffffffff82111561322d5761322c613197565b5b61323682612d80565b9050602081019050919050565b82818337600083830152505050565b600061326561326084613212565b6131f7565b90508281526020810184848401111561328157613280613192565b5b61328c848285613243565b509392505050565b600082601f8301126132a9576132a861318d565b5b81356132b9848260208601613252565b91505092915050565b600080600080608085870312156132dc576132db612c75565b5b60006132ea87828801612ec2565b94505060206132fb87828801612ec2565b935050604061330c87828801612e0d565b925050606085013567ffffffffffffffff81111561332d5761332c612c7a565b5b61333987828801613294565b91505092959194509250565b6000806040838503121561335c5761335b612c75565b5b600061336a85828601612ec2565b925050602061337b85828601612ec2565b9150509250929050565b7f4e487b7100000000000000000000000000000000000000000000000000000000600052602260045260246000fd5b600060028204905060018216806133cc57607f821691505b6020821081036133df576133de613385565b5b50919050565b7f4552433732313a20617070726f76616c20746f2063757272656e74206f776e6560008201527f7200000000000000000000000000000000000000000000000000000000000000602082015250565b6000613441602183612d45565b915061344c826133e5565b604082019050919050565b6000602082019050818103600083015261347081613434565b9050919050565b7f4552433732313a20617070726f76652063616c6c6572206973206e6f7420746f60008201527f6b656e206f776e6572206f7220617070726f76656420666f7220616c6c000000602082015250565b60006134d3603d83612d45565b91506134de82613477565b604082019050919050565b60006020820190508181036000830152613502816134c6565b9050919050565b7f546f6b656e20646f6573206e6f74206578697374000000000000000000000000600082015250565b600061353f601483612d45565b915061354a82613509565b602082019050919050565b6000602082019050818103600083015261356e81613532565b9050919050565b7f546f6b656e206973206e6f7420666f722073616c650000000000000000000000600082015250565b60006135ab601583612d45565b91506135b682613575565b602082019050919050565b600060208201905081810360008301526135da8161359e565b9050919050565b7f496e73756666696369656e74204554482073656e740000000000000000000000600082015250565b6000613617601583612d45565b9150613622826135e1565b602082019050919050565b600060208201905081810360008301526136468161360a565b9050919050565b7f546f6b656e206973207072652d70757263686173656400000000000000000000600082015250565b6000613683601683612d45565b915061368e8261364d565b602082019050919050565b600060208201905081810360008301526136b281613676565b9050919050565b7f43616e6e6f742062757920796f7572206f776e20746f6b656e00000000000000600082015250565b60006136ef601983612d45565b91506136fa826136b9565b602082019050919050565b6000602082019050818103600083015261371e816136e2565b9050919050565b7f4e487b7100000000000000000000000000000000000000000000000000000000600052601160045260246000fd5b600061375f82612dec565b915061376a83612dec565b925082820390508181111561378257613781613725565b5b92915050565b600081905092915050565b50565b60006137a3600083613788565b91506137ae82613793565b600082019050919050565b60006137c482613796565b9150819050919050565b7f5061796d656e7420746f2073656c6c6572206661696c65640000000000000000600082015250565b6000613804601883612d45565b915061380f826137ce565b602082019050919050565b60006020820190508181036000830152613833816137f7565b9050919050565b7f526566756e64206661696c656400000000000000000000000000000000000000600082015250565b6000613870600d83612d45565b915061387b8261383a565b602082019050919050565b6000602082019050818103600083015261389f81613863565b9050919050565b60006080820190506138bb6000830187612e81565b6138c86020830186612e81565b6138d56040830185612f6a565b6138e26060830184612f6a565b95945050505050565b7f4552433732313a2063616c6c6572206973206e6f7420746f6b656e206f776e6560008201527f72206f7220617070726f76656400000000000000000000000000000000000000602082015250565b6000613947602d83612d45565b9150613952826138eb565b604082019050919050565b600060208201905081810360008301526139768161393a565b9050919050565b7f4552433732313a20696e76616c696420746f6b656e2049440000000000000000600082015250565b60006139b3601883612d45565b91506139be8261397d565b602082019050919050565b600060208201905081810360008301526139e2816139a6565b9050919050565b7f4e487b7100000000000000000000000000000000000000000000000000000000600052603260045260246000fd5b6000613a2382612dec565b91507fffffffffffffffffffffffffffffffffffffffffffffffffffffffffffffffff8203613a5557613a54613725565b5b600182019050919050565b7f4552433732313a2061646472657373207a65726f206973206e6f74206120766160008201527f6c6964206f776e65720000000000000000000000000000000000000000000000602082015250565b6000613abc602983612d45565b9150613ac782613a60565b604082019050919050565b60006020820190508181036000830152613aeb81613aaf565b9050919050565b7f4e6f7420746f6b656e206f776e65720000000000000000000000000000000000600082015250565b6000613b28600f83612d45565b9150613b3382613af2565b602082019050919050565b60006020820190508181036000830152613b5781613b1b565b9050919050565b7f4e6f7420617574686f72697a656420746f20636c61696d000000000000000000600082015250565b6000613b94601783612d45565b9150613b9f82613b5e565b602082019050919050565b60006020820190508181036000830152613bc381613b87565b9050919050565b7f546f6b656e206e6f74206f776e656420627920636f6e7472616374206f776e6560008201527f7200000000000000000000000000000000000000000000000000000000000000602082015250565b6000613c26602183612d45565b9150613c3182613bca565b604082019050919050565b60006020820190508181036000830152613c5581613c19565b9050919050565b6000604082019050613c716000830185612f6a565b613c7e6020830184612e81565b9392505050565b7f496e76616c696420707572636861736572206164647265737300000000000000600082015250565b6000613cbb601983612d45565b9150613cc682613c85565b602082019050919050565b60006020820190508181036000830152613cea81613cae565b9050919050565b7f546f6b656e20616c7265616479207072652d7075726368617365640000000000600082015250565b6000613d27601b83612d45565b9150613d3282613cf1565b602082019050919050565b60006020820190508181036000830152613d5681613d1a565b9050919050565b7f546f6b656e2049442065786365656473206d6178696d756d20737570706c7900600082015250565b6000613d93601f83612d45565b9150613d9e82613d5d565b602082019050919050565b60006020820190508181036000830152613dc281613d86565b9050919050565b600081905092915050565b7f697066733a2f2f00000000000000000000000000000000000000000000000000600082015250565b6000613e0a600783613dc9565b9150613e1582613dd4565b600782019050919050565b6000613e2b82612d3a565b613e358185613dc9565b9350613e45818560208601612d56565b80840191505092915050565b7f2f00000000000000000000000000000000000000000000000000000000000000600082015250565b6000613e87600183613dc9565b9150613e9282613e51565b600182019050919050565b7f2e6a736f6e000000000000000000000000000000000000000000000000000000600082015250565b6000613ed3600583613dc9565b9150613ede82613e9d565b600582019050919050565b6000613ef482613dfd565b9150613f008285613e20565b9150613f0b82613e7a565b9150613f178284613e20565b9150613f2282613ec6565b91508190509392505050565b7f4f776e61626c653a206e6577206f776e657220697320746865207a65726f206160008201527f6464726573730000000000000000000000000000000000000000000000000000602082015250565b6000613f8a602683612d45565b9150613f9582613f2e565b604082019050919050565b60006020820190508181036000830152613fb981613f7d565b9050919050565b7f5265656e7472616e637947756172643a207265656e7472616e742063616c6c00600082015250565b6000613ff6601f83612d45565b915061400182613fc0565b602082019050919050565b6000602082019050818103600083015261402581613fe9565b9050919050565b7f5061757361626c653a2070617573656400000000000000000000000000000000600082015250565b6000614062601083612d45565b915061406d8261402c565b602082019050919050565b6000602082019050818103600083015261409181614055565b9050919050565b7f4552433732313a207472616e736665722066726f6d20696e636f72726563742060008201527f6f776e6572000000000000000000000000000000000000000000000000000000602082015250565b60006140f4602583612d45565b91506140ff82614098565b604082019050919050565b60006020820190508181036000830152614123816140e7565b9050919050565b7f4552433732313a207472616e7366657220746f20746865207a65726f2061646460008201527f7265737300000000000000000000000000000000000000000000000000000000602082015250565b6000614186602483612d45565b91506141918261412a565b604082019050919050565b600060208201905081810360008301526141b581614179565b9050919050565b7f4f776e61626c653a2063616c6c6572206973206e6f7420746865206f776e6572600082015250565b60006141f2602083612d45565b91506141fd826141bc565b602082019050919050565b60006020820190508181036000830152614221816141e5565b9050919050565b7f4552433732313a20617070726f766520746f2063616c6c657200000000000000600082015250565b600061425e601983612d45565b915061426982614228565b602082019050919050565b6000602082019050818103600083015261428d81614251565b9050919050565b7f4552433732313a207472616e7366657220746f206e6f6e20455243373231526560008201527f63656976657220696d706c656d656e7465720000000000000000000000000000602082015250565b60006142f0603283612d45565b91506142fb82614294565b604082019050919050565b6000602082019050818103600083015261431f816142e3565b9050919050565b7f4e487b7100000000000000000000000000000000000000000000000000000000600052601260045260246000fd5b6000606082019050818103600083015261436f8186612d91565b905081810360208301526143838185612d91565b905081810360408301526143978184612d91565b9050949350505050565b7f5061757361626c653a206e6f7420706175736564000000000000000000000000600082015250565b60006143d7601483612d45565b91506143e2826143a1565b602082019050919050565b60006020820190508181036000830152614406816143ca565b9050919050565b600081519050919050565b600082825260208201905092915050565b60006144348261440d565b61443e8185614418565b935061444e818560208601612d56565b61445781612d80565b840191505092915050565b60006080820190506144776000830187612e81565b6144846020830186612e81565b6144916040830185612f6a565b81810360608301526144a38184614429565b905095945050505050565b6000815190506144bd81612cab565b92915050565b6000602082840312156144d9576144d8612c75565b5b60006144e7848285016144ae565b91505092915050565b7f4e487b7100000000000000000000000000000000000000000000000000000000600052605160045260246000fdfe516d5578776a4b45466f57416d6543516652427868567344617239434d7071427443454867706757336e4545384da2646970667358221220b8321e294be60fb0425186bbb237fa1fc8976430e687defea1493fff3948b43a64736f6c63430008140033516d5578776a4b45466f57416d6543516652427868567344617239434d7071427443454867706757336e4545384d",
  "linkReferences": {},
  "deployedLinkReferences": {}
}