{
  "_format": "hh-sol-artifact-1",
  "contractName": "TurtleTimepieceNFT",
  "sourceName": "contracts/TurtleTimepieceNFT.sol",
  "abi": [
    {
      "inputs": [],
      "stateMutability": "nonpayable",
      "type": "constructor"
    },
    {
      "anonymous": false,
      "inputs": [
        {
          "indexed": true,
          "internalType": "address",
          "name": "owner",
          "type": "address"
        },
        {
          "indexed": true,
          "internalType": "address",
          "name": "approved",
          "type": "address"
        },
        {
          "indexed": true,
          "internalType": "uint256",
          "name": "tokenId",
          "type": "uint256"
        }
      ],
      "name": "Approval",
      "type": "event"
    },
    {
      "anonymous": false,
      "inputs": [
        {
          "indexed": true,
          "internalType": "address",
          "name": "owner",
          "type": "address"
        },
        {
          "indexed": true,
          "internalType": "address",
          "name": "operator",
          "type": "address"
        },
        {
          "indexed": false,
          "internalType": "bool",
          "name": "approved",
          "type": "bool"
        }
      ],
      "name": "ApprovalForAll",
      "type": "event"
    },
    {
      "anonymous": false,
      "inputs": [
        {
          "indexed": false,
          "internalType": "uint256",
          "name": "_fromTokenId",
          "type": "uint256"
        },
        {
          "indexed": false,
          "internalType": "uint256",
          "name": "_toTokenId",
          "type": "uint256"
        }
      ],
      "name": "BatchMetadataUpdate",
      "type": "event"
    },
    {
      "anonymous": false,
      "inputs": [
        {
          "indexed": false,
          "internalType": "uint256",
          "name": "_tokenId",
          "type": "uint256"
        }
      ],
      "name": "MetadataUpdate",
      "type": "event"
    },
    {
      "anonymous": false,
      "inputs": [
        {
          "indexed": false,
          "internalType": "address",
          "name": "owner",
          "type": "address"
        },
        {
          "indexed": false,
          "internalType": "uint256",
          "name": "tokenId",
          "type": "uint256"
        },
        {
          "indexed": false,
          "internalType": "string",
          "name": "tokenURI",
          "type": "string"
        }
      ],
      "name": "NFTMinted",
      "type": "event"
    },
    {
      "anonymous": false,
      "inputs": [
        {
          "indexed": true,
          "internalType": "address",
          "name": "previousOwner",
          "type": "address"
        },
        {
          "indexed": true,
          "internalType": "address",
          "name": "newOwner",
          "type": "address"
        }
      ],
      "name": "OwnershipTransferred",
      "type": "event"
    },
    {
      "anonymous": false,
      "inputs": [
        {
          "indexed": true,
          "internalType": "address",
          "name": "from",
          "type": "address"
        },
        {
          "indexed": true,
          "internalType": "address",
          "name": "to",
          "type": "address"
        },
        {
          "indexed": true,
          "internalType": "uint256",
          "name": "tokenId",
          "type": "uint256"
        }
      ],
      "name": "Transfer",
      "type": "event"
    },
    {
      "inputs": [],
      "name": "MAX_SUPPLY",
      "outputs": [
        {
          "internalType": "uint256",
          "name": "",
          "type": "uint256"
        }
      ],
      "stateMutability": "view",
      "type": "function"
    },
    {
      "inputs": [
        {
          "internalType": "address",
          "name": "to",
          "type": "address"
        },
        {
          "internalType": "uint256",
          "name": "tokenId",
          "type": "uint256"
        }
      ],
      "name": "approve",
      "outputs": [],
      "stateMutability": "nonpayable",
      "type": "function"
    },
    {
      "inputs": [],
      "name": "availableToMint",
      "outputs": [
        {
          "internalType": "bool",
          "name": "",
          "type": "bool"
        }
      ],
      "stateMutability": "view",
      "type": "function"
    },
    {
      "inputs": [
        {
          "internalType": "address",
          "name": "owner",
          "type": "address"
        }
      ],
      "name": "balanceOf",
      "outputs": [
        {
          "internalType": "uint256",
          "name": "",
          "type": "uint256"
        }
      ],
      "stateMutability": "view",
      "type": "function"
    },
    {
      "inputs": [
        {
          "internalType": "uint256",
          "name": "tokenId",
          "type": "uint256"
        }
      ],
      "name": "getApproved",
      "outputs": [
        {
          "internalType": "address",
          "name": "",
          "type": "address"
        }
      ],
      "stateMutability": "view",
      "type": "function"
    },
    {
      "inputs": [],
      "name": "getTokenCount",
      "outputs": [
        {
          "internalType": "uint256",
          "name": "",
          "type": "uint256"
        }
      ],
      "stateMutability": "view",
      "type": "function"
    },
    {
      "inputs": [
        {
          "internalType": "address",
          "name": "",
          "type": "address"
        }
      ],
      "name": "hasPurchased",
      "outputs": [
        {
          "internalType": "bool",
          "name": "",
          "type": "bool"
        }
      ],
      "stateMutability": "view",
      "type": "function"
    },
    {
      "inputs": [
        {
          "internalType": "address",
          "name": "owner",
          "type": "address"
        },
        {
          "internalType": "address",
          "name": "operator",
          "type": "address"
        }
      ],
      "name": "isApprovedForAll",
      "outputs": [
        {
          "internalType": "bool",
          "name": "",
          "type": "bool"
        }
      ],
      "stateMutability": "view",
      "type": "function"
    },
    {
      "inputs": [
        {
          "internalType": "address",
          "name": "recipient",
          "type": "address"
        },
        {
          "internalType": "string",
          "name": "tokenURI",
          "type": "string"
        }
      ],
      "name": "mintNFT",
      "outputs": [
        {
          "internalType": "uint256",
          "name": "",
          "type": "uint256"
        }
      ],
      "stateMutability": "nonpayable",
      "type": "function"
    },
    {
      "inputs": [],
      "name": "mintPrice",
      "outputs": [
        {
          "internalType": "uint256",
          "name": "",
          "type": "uint256"
        }
      ],
      "stateMutability": "view",
      "type": "function"
    },
    {
      "inputs": [
        {
          "internalType": "address",
          "name": "recipient",
          "type": "address"
        }
      ],
      "name": "mintWithETH",
      "outputs": [
        {
          "internalType": "uint256",
          "name": "",
          "type": "uint256"
        }
      ],
      "stateMutability": "payable",
      "type": "function"
    },
    {
      "inputs": [],
      "name": "name",
      "outputs": [
        {
          "internalType": "string",
          "name": "",
          "type": "string"
        }
      ],
      "stateMutability": "view",
      "type": "function"
    },
    {
      "inputs": [],
      "name": "owner",
      "outputs": [
        {
          "internalType": "address",
          "name": "",
          "type": "address"
        }
      ],
      "stateMutability": "view",
      "type": "function"
    },
    {
      "inputs": [
        {
          "internalType": "uint256",
          "name": "tokenId",
          "type": "uint256"
        }
      ],
      "name": "ownerOf",
      "outputs": [
        {
          "internalType": "address",
          "name": "",
          "type": "address"
        }
      ],
      "stateMutability": "view",
      "type": "function"
    },
    {
      "inputs": [],
      "name": "renounceOwnership",
      "outputs": [],
      "stateMutability": "nonpayable",
      "type": "function"
    },
    {
      "inputs": [
        {
          "internalType": "address",
          "name": "from",
          "type": "address"
        },
        {
          "internalType": "address",
          "name": "to",
          "type": "address"
        },
        {
          "internalType": "uint256",
          "name": "tokenId",
          "type": "uint256"
        }
      ],
      "name": "safeTransferFrom",
      "outputs": [],
      "stateMutability": "nonpayable",
      "type": "function"
    },
    {
      "inputs": [
        {
          "internalType": "address",
          "name": "from",
          "type": "address"
        },
        {
          "internalType": "address",
          "name": "to",
          "type": "address"
        },
        {
          "internalType": "uint256",
          "name": "tokenId",
          "type": "uint256"
        },
        {
          "internalType": "bytes",
          "name": "data",
          "type": "bytes"
        }
      ],
      "name": "safeTransferFrom",
      "outputs": [],
      "stateMutability": "nonpayable",
      "type": "function"
    },
    {
      "inputs": [
        {
          "internalType": "address",
          "name": "operator",
          "type": "address"
        },
        {
          "internalType": "bool",
          "name": "approved",
          "type": "bool"
        }
      ],
      "name": "setApprovalForAll",
      "outputs": [],
      "stateMutability": "nonpayable",
      "type": "function"
    },
    {
      "inputs": [
        {
          "internalType": "string",
          "name": "baseURI",
          "type": "string"
        }
      ],
      "name": "setBaseURI",
      "outputs": [],
      "stateMutability": "nonpayable",
      "type": "function"
    },
    {
      "inputs": [
        {
          "internalType": "uint256",
          "name": "newPrice",
          "type": "uint256"
        }
      ],
      "name": "setMintPrice",
      "outputs": [],
      "stateMutability": "nonpayable",
      "type": "function"
    },
    {
      "inputs": [
        {
          "internalType": "bytes4",
          "name": "interfaceId",
          "type": "bytes4"
        }
      ],
      "name": "supportsInterface",
      "outputs": [
        {
          "internalType": "bool",
          "name": "",
          "type": "bool"
        }
      ],
      "stateMutability": "view",
      "type": "function"
    },
    {
      "inputs": [],
      "name": "symbol",
      "outputs": [
        {
          "internalType": "string",
          "name": "",
          "type": "string"
        }
      ],
      "stateMutability": "view",
      "type": "function"
    },
    {
      "inputs": [
        {
          "internalType": "uint256",
          "name": "tokenId",
          "type": "uint256"
        }
      ],
      "name": "tokenURI",
      "outputs": [
        {
          "internalType": "string",
          "name": "",
          "type": "string"
        }
      ],
      "stateMutability": "view",
      "type": "function"
    },
    {
      "inputs": [
        {
          "internalType": "address",
          "name": "from",
          "type": "address"
        },
        {
          "internalType": "address",
          "name": "to",
          "type": "address"
        },
        {
          "internalType": "uint256",
          "name": "tokenId",
          "type": "uint256"
        }
      ],
      "name": "transferFrom",
      "outputs": [],
      "stateMutability": "nonpayable",
      "type": "function"
    },
    {
      "inputs": [
        {
          "internalType": "address",
          "name": "newOwner",
          "type": "address"
        }
      ],
      "name": "transferOwnership",
      "outputs": [],
      "stateMutability": "nonpayable",
      "type": "function"
    },
    {
      "inputs": [],
      "name": "withdraw",
      "outputs": [],
      "stateMutability": "nonpayable",
      "type": "function"
    }
  ],
  "bytecode": "0x608060405266038d7ea4c68000600c553480156200001c57600080fd5b506040518060400160405280601081526020017f547572746c652054696d657069656365000000000000000000000000000000008152506040518060400160405280600681526020017f545552544c45000000000000000000000000000000000000000000000000000081525081600090816200009a919062000448565b508060019081620000ac919062000448565b505050620000cf620000c36200010060201b60201c565b6200010860201b60201c565b60405180608001604052806051815260200162003dcb60519139600b9081620000f9919062000448565b506200052f565b600033905090565b6000600760009054906101000a900473ffffffffffffffffffffffffffffffffffffffff16905081600760006101000a81548173ffffffffffffffffffffffffffffffffffffffff021916908373ffffffffffffffffffffffffffffffffffffffff1602179055508173ffffffffffffffffffffffffffffffffffffffff168173ffffffffffffffffffffffffffffffffffffffff167f8be0079c531659141344cd1fd0a4f28419497f9722a3daafe3b4186f6b6457e060405160405180910390a35050565b600081519050919050565b7f4e487b7100000000000000000000000000000000000000000000000000000000600052604160045260246000fd5b7f4e487b7100000000000000000000000000000000000000000000000000000000600052602260045260246000fd5b600060028204905060018216806200025057607f821691505b60208210810362000266576200026562000208565b5b50919050565b60008190508160005260206000209050919050565b60006020601f8301049050919050565b600082821b905092915050565b600060088302620002d07fffffffffffffffffffffffffffffffffffffffffffffffffffffffffffffffff8262000291565b620002dc868362000291565b95508019841693508086168417925050509392505050565b6000819050919050565b6000819050919050565b600062000329620003236200031d84620002f4565b620002fe565b620002f4565b9050919050565b6000819050919050565b620003458362000308565b6200035d620003548262000330565b8484546200029e565b825550505050565b600090565b6200037462000365565b620003818184846200033a565b505050565b5b81811015620003a9576200039d6000826200036a565b60018101905062000387565b5050565b601f821115620003f857620003c2816200026c565b620003cd8462000281565b81016020851015620003dd578190505b620003f5620003ec8562000281565b83018262000386565b50505b505050565b600082821c905092915050565b60006200041d60001984600802620003fd565b1980831691505092915050565b60006200043883836200040a565b9150826002028217905092915050565b6200045382620001ce565b67ffffffffffffffff8111156200046f576200046e620001d9565b5b6200047b825462000237565b62000488828285620003ad565b600060209050601f831160018114620004c05760008415620004ab578287015190505b620004b785826200042a565b86555062000527565b601f198416620004d0866200026c565b60005b82811015620004fa57848901518255600182019150602085019450602081019050620004d3565b868310156200051a578489015162000516601f8916826200040a565b8355505b6001600288020188555050505b505050505050565b61388c806200053f6000396000f3fe6080604052600436106101815760003560e01c8063715018a6116100d1578063a22cb4651161008a578063e985e9c511610064578063e985e9c514610575578063eacabe14146105b2578063f2fde38b146105ef578063f4a0a5281461061857610181565b8063a22cb465146104e6578063b88d4fde1461050f578063c87b56dd1461053857610181565b8063715018a6146103e657806374601c3c146103fd57806378a89567146104285780638da5cb5b1461045357806390118fb41461047e57806395d89b41146104bb57610181565b80633ccfd60b1161013e5780635afcb497116101185780635afcb497146103115780636352211e146103415780636817c76c1461037e57806370a08231146103a957610181565b80633ccfd60b146102a857806342842e0e146102bf57806355f804b3146102e857610181565b806301ffc9a71461018657806306fdde03146101c3578063081812fc146101ee578063095ea7b31461022b57806323b872dd1461025457806332cb6b0c1461027d575b600080fd5b34801561019257600080fd5b506101ad60048036038101906101a89190612385565b610641565b6040516101ba91906123cd565b60405180910390f35b3480156101cf57600080fd5b506101d86106a2565b6040516101e59190612478565b60405180910390f35b3480156101fa57600080fd5b50610215600480360381019061021091906124d0565b610734565b604051610222919061253e565b60405180910390f35b34801561023757600080fd5b50610252600480360381019061024d9190612585565b61077a565b005b34801561026057600080fd5b5061027b600480360381019061027691906125c5565b610891565b005b34801561028957600080fd5b506102926108f1565b60405161029f9190612627565b60405180910390f35b3480156102b457600080fd5b506102bd6108f6565b005b3480156102cb57600080fd5b506102e660048036038101906102e191906125c5565b6109fd565b005b3480156102f457600080fd5b5061030f600480360381019061030a9190612777565b610a1d565b005b61032b600480360381019061032691906127c0565b610a38565b6040516103389190612627565b60405180910390f35b34801561034d57600080fd5b50610368600480360381019061036391906124d0565b610bc9565b604051610375919061253e565b60405180910390f35b34801561038a57600080fd5b50610393610c4f565b6040516103a09190612627565b60405180910390f35b3480156103b557600080fd5b506103d060048036038101906103cb91906127c0565b610c55565b6040516103dd9190612627565b60405180910390f35b3480156103f257600080fd5b506103fb610d0c565b005b34801561040957600080fd5b50610412610d20565b60405161041f91906123cd565b60405180910390f35b34801561043457600080fd5b5061043d610d34565b60405161044a9190612627565b60405180910390f35b34801561045f57600080fd5b50610468610d45565b604051610475919061253e565b60405180910390f35b34801561048a57600080fd5b506104a560048036038101906104a091906127c0565b610d6f565b6040516104b291906123cd565b60405180910390f35b3480156104c757600080fd5b506104d0610d8f565b6040516104dd9190612478565b60405180910390f35b3480156104f257600080fd5b5061050d60048036038101906105089190612819565b610e21565b005b34801561051b57600080fd5b50610536600480360381019061053191906128fa565b610e37565b005b34801561054457600080fd5b5061055f600480360381019061055a91906124d0565b610e99565b60405161056c9190612478565b60405180910390f35b34801561058157600080fd5b5061059c6004803603810190610597919061297d565b610fab565b6040516105a991906123cd565b60405180910390f35b3480156105be57600080fd5b506105d960048036038101906105d491906129bd565b61103f565b6040516105e69190612627565b60405180910390f35b3480156105fb57600080fd5b50610616600480360381019061061191906127c0565b61115e565b005b34801561062457600080fd5b5061063f600480360381019061063a91906124d0565b6111e1565b005b6000634906490660e01b7bffffffffffffffffffffffffffffffffffffffffffffffffffffffff1916827bffffffffffffffffffffffffffffffffffffffffffffffffffffffff1916148061069b575061069a826111f3565b5b9050919050565b6060600080546106b190612a48565b80601f01602080910402602001604051908101604052809291908181526020018280546106dd90612a48565b801561072a5780601f106106ff5761010080835404028352916020019161072a565b820191906000526020600020905b81548152906001019060200180831161070d57829003601f168201915b5050505050905090565b600061073f826112d5565b6004600083815260200190815260200160002060009054906101000a900473ffffffffffffffffffffffffffffffffffffffff169050919050565b600061078582610bc9565b90508073ffffffffffffffffffffffffffffffffffffffff168373ffffffffffffffffffffffffffffffffffffffff16036107f5576040517f08c379a00000000000000000000000000000000000000000000000000000000081526004016107ec90612aeb565b60405180910390fd5b8073ffffffffffffffffffffffffffffffffffffffff16610814611320565b73ffffffffffffffffffffffffffffffffffffffff16148061084357506108428161083d611320565b610fab565b5b610882576040517f08c379a000000000000000000000000000000000000000000000000000000000815260040161087990612b7d565b60405180910390fd5b61088c8383611328565b505050565b6108a261089c611320565b826113e1565b6108e1576040517f08c379a00000000000000000000000000000000000000000000000000000000081526004016108d890612c0f565b60405180910390fd5b6108ec838383611476565b505050565b600881565b6108fe61176f565b600047905060008111610946576040517f08c379a000000000000000000000000000000000000000000000000000000000815260040161093d90612c7b565b60405180910390fd5b6000610950610d45565b73ffffffffffffffffffffffffffffffffffffffff168260405161097390612ccc565b60006040518083038185875af1925050503d80600081146109b0576040519150601f19603f3d011682016040523d82523d6000602084013e6109b5565b606091505b50509050806109f9576040517f08c379a00000000000000000000000000000000000000000000000000000000081526004016109f090612d2d565b60405180910390fd5b5050565b610a1883838360405180602001604052806000815250610e37565b505050565b610a2561176f565b80600b9081610a349190612ef9565b5050565b60006008610a4660086117ed565b10610a86576040517f08c379a0000000000000000000000000000000000000000000000000000000008152600401610a7d90613017565b60405180910390fd5b600c54341015610acb576040517f08c379a0000000000000000000000000000000000000000000000000000000008152600401610ac290613083565b60405180910390fd5b610ad560086117fb565b6000610ae160086117ed565b9050610aed8382611811565b6000610af7611a2e565b610b0083611ac0565b604051602001610b1192919061312b565b6040516020818303038152906040529050610b2c8282611b8e565b6001600a60008673ffffffffffffffffffffffffffffffffffffffff1673ffffffffffffffffffffffffffffffffffffffff16815260200190815260200160002060006101000a81548160ff0219169083151502179055507fd35bb95e09c04b219e35047ce7b7b300e3384264ef84a40456943dbc0fc17c14848383604051610bb79392919061315a565b60405180910390a18192505050919050565b600080610bd583611c32565b9050600073ffffffffffffffffffffffffffffffffffffffff168173ffffffffffffffffffffffffffffffffffffffff1603610c46576040517f08c379a0000000000000000000000000000000000000000000000000000000008152600401610c3d906131e4565b60405180910390fd5b80915050919050565b600c5481565b60008073ffffffffffffffffffffffffffffffffffffffff168273ffffffffffffffffffffffffffffffffffffffff1603610cc5576040517f08c379a0000000000000000000000000000000000000000000000000000000008152600401610cbc90613276565b60405180910390fd5b600360008373ffffffffffffffffffffffffffffffffffffffff1673ffffffffffffffffffffffffffffffffffffffff168152602001908152602001600020549050919050565b610d1461176f565b610d1e6000611c6f565b565b60006008610d2e60086117ed565b10905090565b6000610d4060086117ed565b905090565b6000600760009054906101000a900473ffffffffffffffffffffffffffffffffffffffff16905090565b600a6020528060005260406000206000915054906101000a900460ff1681565b606060018054610d9e90612a48565b80601f0160208091040260200160405190810160405280929190818152602001828054610dca90612a48565b8015610e175780601f10610dec57610100808354040283529160200191610e17565b820191906000526020600020905b815481529060010190602001808311610dfa57829003601f168201915b5050505050905090565b610e33610e2c611320565b8383611d35565b5050565b610e48610e42611320565b836113e1565b610e87576040517f08c379a0000000000000000000000000000000000000000000000000000000008152600401610e7e90612c0f565b60405180910390fd5b610e9384848484611ea1565b50505050565b6060610ea4826112d5565b6000600660008481526020019081526020016000208054610ec490612a48565b80601f0160208091040260200160405190810160405280929190818152602001828054610ef090612a48565b8015610f3d5780601f10610f1257610100808354040283529160200191610f3d565b820191906000526020600020905b815481529060010190602001808311610f2057829003601f168201915b505050505090506000610f4e611a2e565b90506000815103610f63578192505050610fa6565b600082511115610f98578082604051602001610f80929190613296565b60405160208183030381529060405292505050610fa6565b610fa184611efd565b925050505b919050565b6000600560008473ffffffffffffffffffffffffffffffffffffffff1673ffffffffffffffffffffffffffffffffffffffff16815260200190815260200160002060008373ffffffffffffffffffffffffffffffffffffffff1673ffffffffffffffffffffffffffffffffffffffff16815260200190815260200160002060009054906101000a900460ff16905092915050565b600061104961176f565b600861105560086117ed565b10611095576040517f08c379a000000000000000000000000000000000000000000000000000000000815260040161108c90613017565b60405180910390fd5b61109f60086117fb565b60006110ab60086117ed565b90506110b78482611811565b6110c18184611b8e565b6001600a60008673ffffffffffffffffffffffffffffffffffffffff1673ffffffffffffffffffffffffffffffffffffffff16815260200190815260200160002060006101000a81548160ff0219169083151502179055507fd35bb95e09c04b219e35047ce7b7b300e3384264ef84a40456943dbc0fc17c1484828560405161114c9392919061315a565b60405180910390a18091505092915050565b61116661176f565b600073ffffffffffffffffffffffffffffffffffffffff168173ffffffffffffffffffffffffffffffffffffffff16036111d5576040517f08c379a00000000000000000000000000000000000000000000000000000000081526004016111cc9061332c565b60405180910390fd5b6111de81611c6f565b50565b6111e961176f565b80600c8190555050565b60007f80ac58cd000000000000000000000000000000000000000000000000000000007bffffffffffffffffffffffffffffffffffffffffffffffffffffffff1916827bffffffffffffffffffffffffffffffffffffffffffffffffffffffff191614806112be57507f5b5e139f000000000000000000000000000000000000000000000000000000007bffffffffffffffffffffffffffffffffffffffffffffffffffffffff1916827bffffffffffffffffffffffffffffffffffffffffffffffffffffffff1916145b806112ce57506112cd82611f65565b5b9050919050565b6112de81611fcf565b61131d576040517f08c379a0000000000000000000000000000000000000000000000000000000008152600401611314906131e4565b60405180910390fd5b50565b600033905090565b816004600083815260200190815260200160002060006101000a81548173ffffffffffffffffffffffffffffffffffffffff021916908373ffffffffffffffffffffffffffffffffffffffff160217905550808273ffffffffffffffffffffffffffffffffffffffff1661139b83610bc9565b73ffffffffffffffffffffffffffffffffffffffff167f8c5be1e5ebec7d5bd14f71427d1e84f3dd0314c0f7b2291e5b200ac8c7c3b92560405160405180910390a45050565b6000806113ed83610bc9565b90508073ffffffffffffffffffffffffffffffffffffffff168473ffffffffffffffffffffffffffffffffffffffff16148061142f575061142e8185610fab565b5b8061146d57508373ffffffffffffffffffffffffffffffffffffffff1661145584610734565b73ffffffffffffffffffffffffffffffffffffffff16145b91505092915050565b8273ffffffffffffffffffffffffffffffffffffffff1661149682610bc9565b73ffffffffffffffffffffffffffffffffffffffff16146114ec576040517f08c379a00000000000000000000000000000000000000000000000000000000081526004016114e3906133be565b60405180910390fd5b600073ffffffffffffffffffffffffffffffffffffffff168273ffffffffffffffffffffffffffffffffffffffff160361155b576040517f08c379a000000000000000000000000000000000000000000000000000000000815260040161155290613450565b60405180910390fd5b6115688383836001612010565b8273ffffffffffffffffffffffffffffffffffffffff1661158882610bc9565b73ffffffffffffffffffffffffffffffffffffffff16146115de576040517f08c379a00000000000000000000000000000000000000000000000000000000081526004016115d5906133be565b60405180910390fd5b6004600082815260200190815260200160002060006101000a81549073ffffffffffffffffffffffffffffffffffffffff02191690556001600360008573ffffffffffffffffffffffffffffffffffffffff1673ffffffffffffffffffffffffffffffffffffffff168152602001908152602001600020600082825403925050819055506001600360008473ffffffffffffffffffffffffffffffffffffffff1673ffffffffffffffffffffffffffffffffffffffff16815260200190815260200160002060008282540192505081905550816002600083815260200190815260200160002060006101000a81548173ffffffffffffffffffffffffffffffffffffffff021916908373ffffffffffffffffffffffffffffffffffffffff160217905550808273ffffffffffffffffffffffffffffffffffffffff168473ffffffffffffffffffffffffffffffffffffffff167fddf252ad1be2c89b69c2b068fc378daa952ba7f163c4a11628f55a4df523b3ef60405160405180910390a461176a8383836001612016565b505050565b611777611320565b73ffffffffffffffffffffffffffffffffffffffff16611795610d45565b73ffffffffffffffffffffffffffffffffffffffff16146117eb576040517f08c379a00000000000000000000000000000000000000000000000000000000081526004016117e2906134bc565b60405180910390fd5b565b600081600001549050919050565b6001816000016000828254019250508190555050565b600073ffffffffffffffffffffffffffffffffffffffff168273ffffffffffffffffffffffffffffffffffffffff1603611880576040517f08c379a000000000000000000000000000000000000000000000000000000000815260040161187790613528565b60405180910390fd5b61188981611fcf565b156118c9576040517f08c379a00000000000000000000000000000000000000000000000000000000081526004016118c090613594565b60405180910390fd5b6118d7600083836001612010565b6118e081611fcf565b15611920576040517f08c379a000000000000000000000000000000000000000000000000000000000815260040161191790613594565b60405180910390fd5b6001600360008473ffffffffffffffffffffffffffffffffffffffff1673ffffffffffffffffffffffffffffffffffffffff16815260200190815260200160002060008282540192505081905550816002600083815260200190815260200160002060006101000a81548173ffffffffffffffffffffffffffffffffffffffff021916908373ffffffffffffffffffffffffffffffffffffffff160217905550808273ffffffffffffffffffffffffffffffffffffffff16600073ffffffffffffffffffffffffffffffffffffffff167fddf252ad1be2c89b69c2b068fc378daa952ba7f163c4a11628f55a4df523b3ef60405160405180910390a4611a2a600083836001612016565b5050565b6060600b8054611a3d90612a48565b80601f0160208091040260200160405190810160405280929190818152602001828054611a6990612a48565b8015611ab65780601f10611a8b57610100808354040283529160200191611ab6565b820191906000526020600020905b815481529060010190602001808311611a9957829003601f168201915b5050505050905090565b606060006001611acf8461201c565b01905060008167ffffffffffffffff811115611aee57611aed61264c565b5b6040519080825280601f01601f191660200182016040528015611b205781602001600182028036833780820191505090505b509050600082602001820190505b600115611b83578080600190039150507f3031323334353637383961626364656600000000000000000000000000000000600a86061a8153600a8581611b7757611b766135b4565b5b04945060008503611b2e575b819350505050919050565b611b9782611fcf565b611bd6576040517f08c379a0000000000000000000000000000000000000000000000000000000008152600401611bcd90613655565b60405180910390fd5b80600660008481526020019081526020016000209081611bf69190612ef9565b507ff8e1a15aba9398e019f0b49df1a4fde98ee17ae345cb5f6b5e2c27f5033e8ce782604051611c269190612627565b60405180910390a15050565b60006002600083815260200190815260200160002060009054906101000a900473ffffffffffffffffffffffffffffffffffffffff169050919050565b6000600760009054906101000a900473ffffffffffffffffffffffffffffffffffffffff16905081600760006101000a81548173ffffffffffffffffffffffffffffffffffffffff021916908373ffffffffffffffffffffffffffffffffffffffff1602179055508173ffffffffffffffffffffffffffffffffffffffff168173ffffffffffffffffffffffffffffffffffffffff167f8be0079c531659141344cd1fd0a4f28419497f9722a3daafe3b4186f6b6457e060405160405180910390a35050565b8173ffffffffffffffffffffffffffffffffffffffff168373ffffffffffffffffffffffffffffffffffffffff1603611da3576040517f08c379a0000000000000000000000000000000000000000000000000000000008152600401611d9a906136c1565b60405180910390fd5b80600560008573ffffffffffffffffffffffffffffffffffffffff1673ffffffffffffffffffffffffffffffffffffffff16815260200190815260200160002060008473ffffffffffffffffffffffffffffffffffffffff1673ffffffffffffffffffffffffffffffffffffffff16815260200190815260200160002060006101000a81548160ff0219169083151502179055508173ffffffffffffffffffffffffffffffffffffffff168373ffffffffffffffffffffffffffffffffffffffff167f17307eab39ab6107e8899845ad3d59bd9653f200f220920489ca2b5937696c3183604051611e9491906123cd565b60405180910390a3505050565b611eac848484611476565b611eb88484848461216f565b611ef7576040517f08c379a0000000000000000000000000000000000000000000000000000000008152600401611eee90613753565b60405180910390fd5b50505050565b6060611f08826112d5565b6000611f12611a2e565b90506000815111611f325760405180602001604052806000815250611f5d565b80611f3c84611ac0565b604051602001611f4d929190613296565b6040516020818303038152906040525b915050919050565b60007f01ffc9a7000000000000000000000000000000000000000000000000000000007bffffffffffffffffffffffffffffffffffffffffffffffffffffffff1916827bffffffffffffffffffffffffffffffffffffffffffffffffffffffff1916149050919050565b60008073ffffffffffffffffffffffffffffffffffffffff16611ff183611c32565b73ffffffffffffffffffffffffffffffffffffffff1614159050919050565b50505050565b50505050565b600080600090507a184f03e93ff9f4daa797ed6e38ed64bf6a1f010000000000000000831061207a577a184f03e93ff9f4daa797ed6e38ed64bf6a1f01000000000000000083816120705761206f6135b4565b5b0492506040810190505b6d04ee2d6d415b85acef810000000083106120b7576d04ee2d6d415b85acef810000000083816120ad576120ac6135b4565b5b0492506020810190505b662386f26fc1000083106120e657662386f26fc1000083816120dc576120db6135b4565b5b0492506010810190505b6305f5e100831061210f576305f5e1008381612105576121046135b4565b5b0492506008810190505b612710831061213457612710838161212a576121296135b4565b5b0492506004810190505b60648310612157576064838161214d5761214c6135b4565b5b0492506002810190505b600a8310612166576001810190505b80915050919050565b60006121908473ffffffffffffffffffffffffffffffffffffffff166122f6565b156122e9578373ffffffffffffffffffffffffffffffffffffffff1663150b7a026121b9611320565b8786866040518563ffffffff1660e01b81526004016121db94939291906137c8565b6020604051808303816000875af192505050801561221757506040513d601f19601f820116820180604052508101906122149190613829565b60015b612299573d8060008114612247576040519150601f19603f3d011682016040523d82523d6000602084013e61224c565b606091505b506000815103612291576040517f08c379a000000000000000000000000000000000000000000000000000000000815260040161228890613753565b60405180910390fd5b805181602001fd5b63150b7a0260e01b7bffffffffffffffffffffffffffffffffffffffffffffffffffffffff1916817bffffffffffffffffffffffffffffffffffffffffffffffffffffffff1916149150506122ee565b600190505b949350505050565b6000808273ffffffffffffffffffffffffffffffffffffffff163b119050919050565b6000604051905090565b600080fd5b600080fd5b60007fffffffff0000000000000000000000000000000000000000000000000000000082169050919050565b6123628161232d565b811461236d57600080fd5b50565b60008135905061237f81612359565b92915050565b60006020828403121561239b5761239a612323565b5b60006123a984828501612370565b91505092915050565b60008115159050919050565b6123c7816123b2565b82525050565b60006020820190506123e260008301846123be565b92915050565b600081519050919050565b600082825260208201905092915050565b60005b83811015612422578082015181840152602081019050612407565b60008484015250505050565b6000601f19601f8301169050919050565b600061244a826123e8565b61245481856123f3565b9350612464818560208601612404565b61246d8161242e565b840191505092915050565b60006020820190508181036000830152612492818461243f565b905092915050565b6000819050919050565b6124ad8161249a565b81146124b857600080fd5b50565b6000813590506124ca816124a4565b92915050565b6000602082840312156124e6576124e5612323565b5b60006124f4848285016124bb565b91505092915050565b600073ffffffffffffffffffffffffffffffffffffffff82169050919050565b6000612528826124fd565b9050919050565b6125388161251d565b82525050565b6000602082019050612553600083018461252f565b92915050565b6125628161251d565b811461256d57600080fd5b50565b60008135905061257f81612559565b92915050565b6000806040838503121561259c5761259b612323565b5b60006125aa85828601612570565b92505060206125bb858286016124bb565b9150509250929050565b6000806000606084860312156125de576125dd612323565b5b60006125ec86828701612570565b93505060206125fd86828701612570565b925050604061260e868287016124bb565b9150509250925092565b6126218161249a565b82525050565b600060208201905061263c6000830184612618565b92915050565b600080fd5b600080fd5b7f4e487b7100000000000000000000000000000000000000000000000000000000600052604160045260246000fd5b6126848261242e565b810181811067ffffffffffffffff821117156126a3576126a261264c565b5b80604052505050565b60006126b6612319565b90506126c2828261267b565b919050565b600067ffffffffffffffff8211156126e2576126e161264c565b5b6126eb8261242e565b9050602081019050919050565b82818337600083830152505050565b600061271a612715846126c7565b6126ac565b90508281526020810184848401111561273657612735612647565b5b6127418482856126f8565b509392505050565b600082601f83011261275e5761275d612642565b5b813561276e848260208601612707565b91505092915050565b60006020828403121561278d5761278c612323565b5b600082013567ffffffffffffffff8111156127ab576127aa612328565b5b6127b784828501612749565b91505092915050565b6000602082840312156127d6576127d5612323565b5b60006127e484828501612570565b91505092915050565b6127f6816123b2565b811461280157600080fd5b50565b600081359050612813816127ed565b92915050565b600080604083850312156128305761282f612323565b5b600061283e85828601612570565b925050602061284f85828601612804565b9150509250929050565b600067ffffffffffffffff8211156128745761287361264c565b5b61287d8261242e565b9050602081019050919050565b600061289d61289884612859565b6126ac565b9050828152602081018484840111156128b9576128b8612647565b5b6128c48482856126f8565b509392505050565b600082601f8301126128e1576128e0612642565b5b81356128f184826020860161288a565b91505092915050565b6000806000806080858703121561291457612913612323565b5b600061292287828801612570565b945050602061293387828801612570565b9350506040612944878288016124bb565b925050606085013567ffffffffffffffff81111561296557612964612328565b5b612971878288016128cc565b91505092959194509250565b6000806040838503121561299457612993612323565b5b60006129a285828601612570565b92505060206129b385828601612570565b9150509250929050565b600080604083850312156129d4576129d3612323565b5b60006129e285828601612570565b925050602083013567ffffffffffffffff811115612a0357612a02612328565b5b612a0f85828601612749565b9150509250929050565b7f4e487b7100000000000000000000000000000000000000000000000000000000600052602260045260246000fd5b60006002820490506001821680612a6057607f821691505b602082108103612a7357612a72612a19565b5b50919050565b7f4552433732313a20617070726f76616c20746f2063757272656e74206f776e6560008201527f7200000000000000000000000000000000000000000000000000000000000000602082015250565b6000612ad56021836123f3565b9150612ae082612a79565b604082019050919050565b60006020820190508181036000830152612b0481612ac8565b9050919050565b7f4552433732313a20617070726f76652063616c6c6572206973206e6f7420746f60008201527f6b656e206f776e6572206f7220617070726f76656420666f7220616c6c000000602082015250565b6000612b67603d836123f3565b9150612b7282612b0b565b604082019050919050565b60006020820190508181036000830152612b9681612b5a565b9050919050565b7f4552433732313a2063616c6c6572206973206e6f7420746f6b656e206f776e6560008201527f72206f7220617070726f76656400000000000000000000000000000000000000602082015250565b6000612bf9602d836123f3565b9150612c0482612b9d565b604082019050919050565b60006020820190508181036000830152612c2881612bec565b9050919050565b7f4e6f2066756e647320746f207769746864726177000000000000000000000000600082015250565b6000612c656014836123f3565b9150612c7082612c2f565b602082019050919050565b60006020820190508181036000830152612c9481612c58565b9050919050565b600081905092915050565b50565b6000612cb6600083612c9b565b9150612cc182612ca6565b600082019050919050565b6000612cd782612ca9565b9150819050919050565b7f5769746864726177616c206661696c6564000000000000000000000000000000600082015250565b6000612d176011836123f3565b9150612d2282612ce1565b602082019050919050565b60006020820190508181036000830152612d4681612d0a565b9050919050565b60008190508160005260206000209050919050565b60006020601f8301049050919050565b600082821b905092915050565b600060088302612daf7fffffffffffffffffffffffffffffffffffffffffffffffffffffffffffffffff82612d72565b612db98683612d72565b95508019841693508086168417925050509392505050565b6000819050919050565b6000612df6612df1612dec8461249a565b612dd1565b61249a565b9050919050565b6000819050919050565b612e1083612ddb565b612e24612e1c82612dfd565b848454612d7f565b825550505050565b600090565b612e39612e2c565b612e44818484612e07565b505050565b5b81811015612e6857612e5d600082612e31565b600181019050612e4a565b5050565b601f821115612ead57612e7e81612d4d565b612e8784612d62565b81016020851015612e96578190505b612eaa612ea285612d62565b830182612e49565b50505b505050565b600082821c905092915050565b6000612ed060001984600802612eb2565b1980831691505092915050565b6000612ee98383612ebf565b9150826002028217905092915050565b612f02826123e8565b67ffffffffffffffff811115612f1b57612f1a61264c565b5b612f258254612a48565b612f30828285612e6c565b600060209050601f831160018114612f635760008415612f51578287015190505b612f5b8582612edd565b865550612fc3565b601f198416612f7186612d4d565b60005b82811015612f9957848901518255600182019150602085019450602081019050612f74565b86831015612fb65784890151612fb2601f891682612ebf565b8355505b6001600288020188555050505b505050505050565b7f4d617820737570706c7920726561636865640000000000000000000000000000600082015250565b60006130016012836123f3565b915061300c82612fcb565b602082019050919050565b6000602082019050818103600083015261303081612ff4565b9050919050565b7f496e73756666696369656e74204554482073656e740000000000000000000000600082015250565b600061306d6015836123f3565b915061307882613037565b602082019050919050565b6000602082019050818103600083015261309c81613060565b9050919050565b600081905092915050565b60006130b9826123e8565b6130c381856130a3565b93506130d3818560208601612404565b80840191505092915050565b7f2e6a736f6e000000000000000000000000000000000000000000000000000000600082015250565b60006131156005836130a3565b9150613120826130df565b600582019050919050565b600061313782856130ae565b915061314382846130ae565b915061314e82613108565b91508190509392505050565b600060608201905061316f600083018661252f565b61317c6020830185612618565b818103604083015261318e818461243f565b9050949350505050565b7f4552433732313a20696e76616c696420746f6b656e2049440000000000000000600082015250565b60006131ce6018836123f3565b91506131d982613198565b602082019050919050565b600060208201905081810360008301526131fd816131c1565b9050919050565b7f4552433732313a2061646472657373207a65726f206973206e6f74206120766160008201527f6c6964206f776e65720000000000000000000000000000000000000000000000602082015250565b60006132606029836123f3565b915061326b82613204565b604082019050919050565b6000602082019050818103600083015261328f81613253565b9050919050565b60006132a282856130ae565b91506132ae82846130ae565b91508190509392505050565b7f4f776e61626c653a206e6577206f776e657220697320746865207a65726f206160008201527f6464726573730000000000000000000000000000000000000000000000000000602082015250565b60006133166026836123f3565b9150613321826132ba565b604082019050919050565b6000602082019050818103600083015261334581613309565b9050919050565b7f4552433732313a207472616e736665722066726f6d20696e636f72726563742060008201527f6f776e6572000000000000000000000000000000000000000000000000000000602082015250565b60006133a86025836123f3565b91506133b38261334c565b604082019050919050565b600060208201905081810360008301526133d78161339b565b9050919050565b7f4552433732313a207472616e7366657220746f20746865207a65726f2061646460008201527f7265737300000000000000000000000000000000000000000000000000000000602082015250565b600061343a6024836123f3565b9150613445826133de565b604082019050919050565b600060208201905081810360008301526134698161342d565b9050919050565b7f4f776e61626c653a2063616c6c6572206973206e6f7420746865206f776e6572600082015250565b60006134a66020836123f3565b91506134b182613470565b602082019050919050565b600060208201905081810360008301526134d581613499565b9050919050565b7f4552433732313a206d696e7420746f20746865207a65726f2061646472657373600082015250565b60006135126020836123f3565b915061351d826134dc565b602082019050919050565b6000602082019050818103600083015261354181613505565b9050919050565b7f4552433732313a20746f6b656e20616c7265616479206d696e74656400000000600082015250565b600061357e601c836123f3565b915061358982613548565b602082019050919050565b600060208201905081810360008301526135ad81613571565b9050919050565b7f4e487b7100000000000000000000000000000000000000000000000000000000600052601260045260246000fd5b7f45524337323155524953746f726167653a2055524920736574206f66206e6f6e60008201527f6578697374656e7420746f6b656e000000000000000000000000000000000000602082015250565b600061363f602e836123f3565b915061364a826135e3565b604082019050919050565b6000602082019050818103600083015261366e81613632565b9050919050565b7f4552433732313a20617070726f766520746f2063616c6c657200000000000000600082015250565b60006136ab6019836123f3565b91506136b682613675565b602082019050919050565b600060208201905081810360008301526136da8161369e565b9050919050565b7f4552433732313a207472616e7366657220746f206e6f6e20455243373231526560008201527f63656976657220696d706c656d656e7465720000000000000000000000000000602082015250565b600061373d6032836123f3565b9150613748826136e1565b604082019050919050565b6000602082019050818103600083015261376c81613730565b9050919050565b600081519050919050565b600082825260208201905092915050565b600061379a82613773565b6137a4818561377e565b93506137b4818560208601612404565b6137bd8161242e565b840191505092915050565b60006080820190506137dd600083018761252f565b6137ea602083018661252f565b6137f76040830185612618565b8181036060830152613809818461378f565b905095945050505050565b60008151905061382381612359565b92915050565b60006020828403121561383f5761383e612323565b5b600061384d84828501613814565b9150509291505056fea2646970667358221220a12132c956d252f96d69c5ef0ded8de1a148b8e74b8eacb8745c0b403fd5132b64736f6c6343000814003368747470733a2f2f676174657761792e70696e6174612e636c6f75642f697066732f516d597741504a7a7635435a736e4136323573335866326e656d7459675070486457457a37396f6a576e506264472f",
  "linkReferences": {},
  "deployedLinkReferences": {}
}