{
  "_format": "hh-sol-artifact-1",
  "contractName": "TurtleTimepieceNFT",
  "sourceName": "contracts/TurtleTimepieceNFT.sol",
  "abi": [
    {
      "inputs": [],
      "stateMutability": "nonpayable",
      "type": "constructor"
    },
    {
      "anonymous": false,
      "inputs": [
        {
          "indexed": true,
          "internalType": "address",
          "name": "owner",
          "type": "address"
        },
        {
          "indexed": true,
          "internalType": "address",
          "name": "approved",
          "type": "address"
        },
        {
          "indexed": true,
          "internalType": "uint256",
          "name": "tokenId",
          "type": "uint256"
        }
      ],
      "name": "Approval",
      "type": "event"
    },
    {
      "anonymous": false,
      "inputs": [
        {
          "indexed": true,
          "internalType": "address",
          "name": "owner",
          "type": "address"
        },
        {
          "indexed": true,
          "internalType": "address",
          "name": "operator",
          "type": "address"
        },
        {
          "indexed": false,
          "internalType": "bool",
          "name": "approved",
          "type": "bool"
        }
      ],
      "name": "ApprovalForAll",
      "type": "event"
    },
    {
      "anonymous": false,
      "inputs": [
        {
          "indexed": false,
          "internalType": "uint256",
          "name": "_fromTokenId",
          "type": "uint256"
        },
        {
          "indexed": false,
          "internalType": "uint256",
          "name": "_toTokenId",
          "type": "uint256"
        }
      ],
      "name": "BatchMetadataUpdate",
      "type": "event"
    },
    {
      "anonymous": false,
      "inputs": [
        {
          "indexed": true,
          "internalType": "address",
          "name": "by",
          "type": "address"
        }
      ],
      "name": "ContractPaused",
      "type": "event"
    },
    {
      "anonymous": false,
      "inputs": [
        {
          "indexed": true,
          "internalType": "address",
          "name": "by",
          "type": "address"
        }
      ],
      "name": "ContractUnpaused",
      "type": "event"
    },
    {
      "anonymous": false,
      "inputs": [
        {
          "indexed": false,
          "internalType": "uint256",
          "name": "_tokenId",
          "type": "uint256"
        }
      ],
      "name": "MetadataUpdate",
      "type": "event"
    },
    {
      "anonymous": false,
      "inputs": [
        {
          "indexed": false,
          "internalType": "address",
          "name": "owner",
          "type": "address"
        },
        {
          "indexed": false,
          "internalType": "uint256",
          "name": "tokenId",
          "type": "uint256"
        },
        {
          "indexed": false,
          "internalType": "string",
          "name": "tokenURI",
          "type": "string"
        }
      ],
      "name": "NFTMinted",
      "type": "event"
    },
    {
      "anonymous": false,
      "inputs": [
        {
          "indexed": true,
          "internalType": "address",
          "name": "previousOwner",
          "type": "address"
        },
        {
          "indexed": true,
          "internalType": "address",
          "name": "newOwner",
          "type": "address"
        }
      ],
      "name": "OwnershipTransferred",
      "type": "event"
    },
    {
      "anonymous": false,
      "inputs": [
        {
          "indexed": false,
          "internalType": "address",
          "name": "account",
          "type": "address"
        }
      ],
      "name": "Paused",
      "type": "event"
    },
    {
      "anonymous": false,
      "inputs": [
        {
          "indexed": true,
          "internalType": "address",
          "name": "from",
          "type": "address"
        },
        {
          "indexed": true,
          "internalType": "address",
          "name": "to",
          "type": "address"
        },
        {
          "indexed": true,
          "internalType": "uint256",
          "name": "tokenId",
          "type": "uint256"
        }
      ],
      "name": "Transfer",
      "type": "event"
    },
    {
      "anonymous": false,
      "inputs": [
        {
          "indexed": false,
          "internalType": "address",
          "name": "account",
          "type": "address"
        }
      ],
      "name": "Unpaused",
      "type": "event"
    },
    {
      "inputs": [],
      "name": "MAX_SUPPLY",
      "outputs": [
        {
          "internalType": "uint256",
          "name": "",
          "type": "uint256"
        }
      ],
      "stateMutability": "view",
      "type": "function"
    },
    {
      "inputs": [
        {
          "internalType": "address",
          "name": "to",
          "type": "address"
        },
        {
          "internalType": "uint256",
          "name": "tokenId",
          "type": "uint256"
        }
      ],
      "name": "approve",
      "outputs": [],
      "stateMutability": "nonpayable",
      "type": "function"
    },
    {
      "inputs": [],
      "name": "availableToMint",
      "outputs": [
        {
          "internalType": "bool",
          "name": "",
          "type": "bool"
        }
      ],
      "stateMutability": "view",
      "type": "function"
    },
    {
      "inputs": [
        {
          "internalType": "address",
          "name": "owner",
          "type": "address"
        }
      ],
      "name": "balanceOf",
      "outputs": [
        {
          "internalType": "uint256",
          "name": "",
          "type": "uint256"
        }
      ],
      "stateMutability": "view",
      "type": "function"
    },
    {
      "inputs": [
        {
          "internalType": "uint256",
          "name": "tokenId",
          "type": "uint256"
        }
      ],
      "name": "getApproved",
      "outputs": [
        {
          "internalType": "address",
          "name": "",
          "type": "address"
        }
      ],
      "stateMutability": "view",
      "type": "function"
    },
    {
      "inputs": [],
      "name": "getTokenCount",
      "outputs": [
        {
          "internalType": "uint256",
          "name": "",
          "type": "uint256"
        }
      ],
      "stateMutability": "view",
      "type": "function"
    },
    {
      "inputs": [
        {
          "internalType": "address",
          "name": "",
          "type": "address"
        }
      ],
      "name": "hasPurchased",
      "outputs": [
        {
          "internalType": "bool",
          "name": "",
          "type": "bool"
        }
      ],
      "stateMutability": "view",
      "type": "function"
    },
    {
      "inputs": [
        {
          "internalType": "address",
          "name": "owner",
          "type": "address"
        },
        {
          "internalType": "address",
          "name": "operator",
          "type": "address"
        }
      ],
      "name": "isApprovedForAll",
      "outputs": [
        {
          "internalType": "bool",
          "name": "",
          "type": "bool"
        }
      ],
      "stateMutability": "view",
      "type": "function"
    },
    {
      "inputs": [],
      "name": "mintPrice",
      "outputs": [
        {
          "internalType": "uint256",
          "name": "",
          "type": "uint256"
        }
      ],
      "stateMutability": "view",
      "type": "function"
    },
    {
      "inputs": [
        {
          "internalType": "address",
          "name": "recipient",
          "type": "address"
        }
      ],
      "name": "mintWithETH",
      "outputs": [
        {
          "internalType": "uint256",
          "name": "",
          "type": "uint256"
        }
      ],
      "stateMutability": "payable",
      "type": "function"
    },
    {
      "inputs": [],
      "name": "name",
      "outputs": [
        {
          "internalType": "string",
          "name": "",
          "type": "string"
        }
      ],
      "stateMutability": "view",
      "type": "function"
    },
    {
      "inputs": [],
      "name": "owner",
      "outputs": [
        {
          "internalType": "address",
          "name": "",
          "type": "address"
        }
      ],
      "stateMutability": "view",
      "type": "function"
    },
    {
      "inputs": [
        {
          "internalType": "uint256",
          "name": "tokenId",
          "type": "uint256"
        }
      ],
      "name": "ownerOf",
      "outputs": [
        {
          "internalType": "address",
          "name": "",
          "type": "address"
        }
      ],
      "stateMutability": "view",
      "type": "function"
    },
    {
      "inputs": [],
      "name": "pause",
      "outputs": [],
      "stateMutability": "nonpayable",
      "type": "function"
    },
    {
      "inputs": [],
      "name": "paused",
      "outputs": [
        {
          "internalType": "bool",
          "name": "",
          "type": "bool"
        }
      ],
      "stateMutability": "view",
      "type": "function"
    },
    {
      "inputs": [],
      "name": "renounceOwnership",
      "outputs": [],
      "stateMutability": "nonpayable",
      "type": "function"
    },
    {
      "inputs": [
        {
          "internalType": "address",
          "name": "from",
          "type": "address"
        },
        {
          "internalType": "address",
          "name": "to",
          "type": "address"
        },
        {
          "internalType": "uint256",
          "name": "tokenId",
          "type": "uint256"
        }
      ],
      "name": "safeTransferFrom",
      "outputs": [],
      "stateMutability": "nonpayable",
      "type": "function"
    },
    {
      "inputs": [
        {
          "internalType": "address",
          "name": "from",
          "type": "address"
        },
        {
          "internalType": "address",
          "name": "to",
          "type": "address"
        },
        {
          "internalType": "uint256",
          "name": "tokenId",
          "type": "uint256"
        },
        {
          "internalType": "bytes",
          "name": "data",
          "type": "bytes"
        }
      ],
      "name": "safeTransferFrom",
      "outputs": [],
      "stateMutability": "nonpayable",
      "type": "function"
    },
    {
      "inputs": [
        {
          "internalType": "address",
          "name": "operator",
          "type": "address"
        },
        {
          "internalType": "bool",
          "name": "approved",
          "type": "bool"
        }
      ],
      "name": "setApprovalForAll",
      "outputs": [],
      "stateMutability": "nonpayable",
      "type": "function"
    },
    {
      "inputs": [
        {
          "internalType": "string",
          "name": "baseURI",
          "type": "string"
        }
      ],
      "name": "setBaseURI",
      "outputs": [],
      "stateMutability": "nonpayable",
      "type": "function"
    },
    {
      "inputs": [
        {
          "internalType": "uint256",
          "name": "newPrice",
          "type": "uint256"
        }
      ],
      "name": "setMintPrice",
      "outputs": [],
      "stateMutability": "nonpayable",
      "type": "function"
    },
    {
      "inputs": [
        {
          "internalType": "bytes4",
          "name": "interfaceId",
          "type": "bytes4"
        }
      ],
      "name": "supportsInterface",
      "outputs": [
        {
          "internalType": "bool",
          "name": "",
          "type": "bool"
        }
      ],
      "stateMutability": "view",
      "type": "function"
    },
    {
      "inputs": [],
      "name": "symbol",
      "outputs": [
        {
          "internalType": "string",
          "name": "",
          "type": "string"
        }
      ],
      "stateMutability": "view",
      "type": "function"
    },
    {
      "inputs": [
        {
          "internalType": "uint256",
          "name": "tokenId",
          "type": "uint256"
        }
      ],
      "name": "tokenURI",
      "outputs": [
        {
          "internalType": "string",
          "name": "",
          "type": "string"
        }
      ],
      "stateMutability": "view",
      "type": "function"
    },
    {
      "inputs": [
        {
          "internalType": "address",
          "name": "from",
          "type": "address"
        },
        {
          "internalType": "address",
          "name": "to",
          "type": "address"
        },
        {
          "internalType": "uint256",
          "name": "tokenId",
          "type": "uint256"
        }
      ],
      "name": "transferFrom",
      "outputs": [],
      "stateMutability": "nonpayable",
      "type": "function"
    },
    {
      "inputs": [
        {
          "internalType": "address",
          "name": "newOwner",
          "type": "address"
        }
      ],
      "name": "transferOwnership",
      "outputs": [],
      "stateMutability": "nonpayable",
      "type": "function"
    },
    {
      "inputs": [],
      "name": "unpause",
      "outputs": [],
      "stateMutability": "nonpayable",
      "type": "function"
    },
    {
      "inputs": [],
      "name": "withdraw",
      "outputs": [],
      "stateMutability": "nonpayable",
      "type": "function"
    }
  ],
  "bytecode": "0x608060405266038d7ea4c68000600d553480156200001c57600080fd5b506040518060400160405280601581526020017f4469616d6f6e6420416363657373205469636b657400000000000000000000008152506040518060400160405280600781526020017f4449414d4f4e440000000000000000000000000000000000000000000000000081525081600090816200009a91906200046b565b508060019081620000ac91906200046b565b505050620000cf620000c36200012360201b60201c565b6200012b60201b60201c565b60016008819055506000600960006101000a81548160ff0219169083151502179055506040518060800160405280605e81526020016200434c605e9139600c90816200011c91906200046b565b5062000552565b600033905090565b6000600760009054906101000a900473ffffffffffffffffffffffffffffffffffffffff16905081600760006101000a81548173ffffffffffffffffffffffffffffffffffffffff021916908373ffffffffffffffffffffffffffffffffffffffff1602179055508173ffffffffffffffffffffffffffffffffffffffff168173ffffffffffffffffffffffffffffffffffffffff167f8be0079c531659141344cd1fd0a4f28419497f9722a3daafe3b4186f6b6457e060405160405180910390a35050565b600081519050919050565b7f4e487b7100000000000000000000000000000000000000000000000000000000600052604160045260246000fd5b7f4e487b7100000000000000000000000000000000000000000000000000000000600052602260045260246000fd5b600060028204905060018216806200027357607f821691505b6020821081036200028957620002886200022b565b5b50919050565b60008190508160005260206000209050919050565b60006020601f8301049050919050565b600082821b905092915050565b600060088302620002f37fffffffffffffffffffffffffffffffffffffffffffffffffffffffffffffffff82620002b4565b620002ff8683620002b4565b95508019841693508086168417925050509392505050565b6000819050919050565b6000819050919050565b60006200034c62000346620003408462000317565b62000321565b62000317565b9050919050565b6000819050919050565b62000368836200032b565b62000380620003778262000353565b848454620002c1565b825550505050565b600090565b6200039762000388565b620003a48184846200035d565b505050565b5b81811015620003cc57620003c06000826200038d565b600181019050620003aa565b5050565b601f8211156200041b57620003e5816200028f565b620003f084620002a4565b8101602085101562000400578190505b620004186200040f85620002a4565b830182620003a9565b50505b505050565b600082821c905092915050565b6000620004406000198460080262000420565b1980831691505092915050565b60006200045b83836200042d565b9150826002028217905092915050565b6200047682620001f1565b67ffffffffffffffff811115620004925762000491620001fc565b5b6200049e82546200025a565b620004ab828285620003d0565b600060209050601f831160018114620004e35760008415620004ce578287015190505b620004da85826200044d565b8655506200054a565b601f198416620004f3866200028f565b60005b828110156200051d57848901518255600182019150602085019450602081019050620004f6565b868310156200053d578489015162000539601f8916826200042d565b8355505b6001600288020188555050505b505050505050565b613dea80620005626000396000f3fe6080604052600436106101b75760003560e01c806370a08231116100ec57806395d89b411161008a578063c87b56dd11610064578063c87b56dd146105c7578063e985e9c514610604578063f2fde38b14610641578063f4a0a5281461066a576101b7565b806395d89b411461054a578063a22cb46514610575578063b88d4fde1461059e576101b7565b806378a89567116100c657806378a89567146104a05780638456cb59146104cb5780638da5cb5b146104e257806390118fb41461050d576101b7565b806370a0823114610421578063715018a61461045e57806374601c3c14610475576101b7565b80633f4ba83a116101595780635afcb497116101335780635afcb4971461035e5780635c975abb1461038e5780636352211e146103b95780636817c76c146103f6576101b7565b80633f4ba83a146102f557806342842e0e1461030c57806355f804b314610335576101b7565b8063095ea7b311610195578063095ea7b31461026157806323b872dd1461028a57806332cb6b0c146102b35780633ccfd60b146102de576101b7565b806301ffc9a7146101bc57806306fdde03146101f9578063081812fc14610224575b600080fd5b3480156101c857600080fd5b506101e360048036038101906101de919061269a565b610693565b6040516101f091906126e2565b60405180910390f35b34801561020557600080fd5b5061020e6106f4565b60405161021b919061278d565b60405180910390f35b34801561023057600080fd5b5061024b600480360381019061024691906127e5565b610786565b6040516102589190612853565b60405180910390f35b34801561026d57600080fd5b506102886004803603810190610283919061289a565b6107cc565b005b34801561029657600080fd5b506102b160048036038101906102ac91906128da565b6108e3565b005b3480156102bf57600080fd5b506102c8610943565b6040516102d5919061293c565b60405180910390f35b3480156102ea57600080fd5b506102f3610948565b005b34801561030157600080fd5b5061030a610a4f565b005b34801561031857600080fd5b50610333600480360381019061032e91906128da565b610aa4565b005b34801561034157600080fd5b5061035c60048036038101906103579190612a8c565b610ac4565b005b61037860048036038101906103739190612ad5565b610adf565b604051610385919061293c565b60405180910390f35b34801561039a57600080fd5b506103a3610ddf565b6040516103b091906126e2565b60405180910390f35b3480156103c557600080fd5b506103e060048036038101906103db91906127e5565b610df6565b6040516103ed9190612853565b60405180910390f35b34801561040257600080fd5b5061040b610e7c565b604051610418919061293c565b60405180910390f35b34801561042d57600080fd5b5061044860048036038101906104439190612ad5565b610e82565b604051610455919061293c565b60405180910390f35b34801561046a57600080fd5b50610473610f39565b005b34801561048157600080fd5b5061048a610f4d565b60405161049791906126e2565b60405180910390f35b3480156104ac57600080fd5b506104b5610f61565b6040516104c2919061293c565b60405180910390f35b3480156104d757600080fd5b506104e0610f72565b005b3480156104ee57600080fd5b506104f7610fc7565b6040516105049190612853565b60405180910390f35b34801561051957600080fd5b50610534600480360381019061052f9190612ad5565b610ff1565b60405161054191906126e2565b60405180910390f35b34801561055657600080fd5b5061055f611011565b60405161056c919061278d565b60405180910390f35b34801561058157600080fd5b5061059c60048036038101906105979190612b2e565b6110a3565b005b3480156105aa57600080fd5b506105c560048036038101906105c09190612c0f565b6110b9565b005b3480156105d357600080fd5b506105ee60048036038101906105e991906127e5565b61111b565b6040516105fb919061278d565b60405180910390f35b34801561061057600080fd5b5061062b60048036038101906106269190612c92565b61122d565b60405161063891906126e2565b60405180910390f35b34801561064d57600080fd5b5061066860048036038101906106639190612ad5565b6112c1565b005b34801561067657600080fd5b50610691600480360381019061068c91906127e5565b611344565b005b6000634906490660e01b7bffffffffffffffffffffffffffffffffffffffffffffffffffffffff1916827bffffffffffffffffffffffffffffffffffffffffffffffffffffffff191614806106ed57506106ec82611356565b5b9050919050565b60606000805461070390612d01565b80601f016020809104026020016040519081016040528092919081815260200182805461072f90612d01565b801561077c5780601f106107515761010080835404028352916020019161077c565b820191906000526020600020905b81548152906001019060200180831161075f57829003601f168201915b5050505050905090565b600061079182611438565b6004600083815260200190815260200160002060009054906101000a900473ffffffffffffffffffffffffffffffffffffffff169050919050565b60006107d782610df6565b90508073ffffffffffffffffffffffffffffffffffffffff168373ffffffffffffffffffffffffffffffffffffffff1603610847576040517f08c379a000000000000000000000000000000000000000000000000000000000815260040161083e90612da4565b60405180910390fd5b8073ffffffffffffffffffffffffffffffffffffffff16610866611483565b73ffffffffffffffffffffffffffffffffffffffff16148061089557506108948161088f611483565b61122d565b5b6108d4576040517f08c379a00000000000000000000000000000000000000000000000000000000081526004016108cb90612e36565b60405180910390fd5b6108de838361148b565b505050565b6108f46108ee611483565b82611544565b610933576040517f08c379a000000000000000000000000000000000000000000000000000000000815260040161092a90612ec8565b60405180910390fd5b61093e8383836115d9565b505050565b600881565b6109506118d2565b600047905060008111610998576040517f08c379a000000000000000000000000000000000000000000000000000000000815260040161098f90612f34565b60405180910390fd5b60006109a2610fc7565b73ffffffffffffffffffffffffffffffffffffffff16826040516109c590612f85565b60006040518083038185875af1925050503d8060008114610a02576040519150601f19603f3d011682016040523d82523d6000602084013e610a07565b606091505b5050905080610a4b576040517f08c379a0000000000000000000000000000000000000000000000000000000008152600401610a4290612fe6565b60405180910390fd5b5050565b610a576118d2565b610a5f611950565b3373ffffffffffffffffffffffffffffffffffffffff167f5b65b0c1363b3003db9bcc5e1fd8805a6d6bf5bf6dc9d3431ee4494cd7d1176660405160405180910390a2565b610abf838383604051806020016040528060008152506110b9565b505050565b610acc6118d2565b80600c9081610adb91906131b2565b5050565b6000610ae96119b3565b610af1611a02565b6008610afd600a611a4c565b10610b3d576040517f08c379a0000000000000000000000000000000000000000000000000000000008152600401610b34906132d0565b60405180910390fd5b600d54341015610b82576040517f08c379a0000000000000000000000000000000000000000000000000000000008152600401610b799061333c565b60405180910390fd5b600e60008373ffffffffffffffffffffffffffffffffffffffff1673ffffffffffffffffffffffffffffffffffffffff16815260200190815260200160002060009054906101000a900460ff1615610c0f576040517f08c379a0000000000000000000000000000000000000000000000000000000008152600401610c06906133ce565b60405180910390fd5b6000600d5434610c1f919061341d565b9050610c2b600a611a5a565b6000610c37600a611a4c565b9050610c438482611a70565b6001600e60008673ffffffffffffffffffffffffffffffffffffffff1673ffffffffffffffffffffffffffffffffffffffff16815260200190815260200160002060006101000a81548160ff0219169083151502179055506000610ca5611c8d565b610cae83611d1f565b604051602001610cbf9291906134d9565b6040516020818303038152906040529050610cda8282611ded565b7fd35bb95e09c04b219e35047ce7b7b300e3384264ef84a40456943dbc0fc17c14858383604051610d0d93929190613508565b60405180910390a16000831115610dcc5760003373ffffffffffffffffffffffffffffffffffffffff1684604051610d4490612f85565b60006040518083038185875af1925050503d8060008114610d81576040519150601f19603f3d011682016040523d82523d6000602084013e610d86565b606091505b5050905080610dca576040517f08c379a0000000000000000000000000000000000000000000000000000000008152600401610dc190613592565b60405180910390fd5b505b819350505050610dda611e91565b919050565b6000600960009054906101000a900460ff16905090565b600080610e0283611e9b565b9050600073ffffffffffffffffffffffffffffffffffffffff168173ffffffffffffffffffffffffffffffffffffffff1603610e73576040517f08c379a0000000000000000000000000000000000000000000000000000000008152600401610e6a906135fe565b60405180910390fd5b80915050919050565b600d5481565b60008073ffffffffffffffffffffffffffffffffffffffff168273ffffffffffffffffffffffffffffffffffffffff1603610ef2576040517f08c379a0000000000000000000000000000000000000000000000000000000008152600401610ee990613690565b60405180910390fd5b600360008373ffffffffffffffffffffffffffffffffffffffff1673ffffffffffffffffffffffffffffffffffffffff168152602001908152602001600020549050919050565b610f416118d2565b610f4b6000611ed8565b565b60006008610f5b600a611a4c565b10905090565b6000610f6d600a611a4c565b905090565b610f7a6118d2565b610f82611f9e565b3373ffffffffffffffffffffffffffffffffffffffff167f81990fd9a5c552b8e3677917d8a03c07678f0d2cb68f88b634aca2022e9bd19f60405160405180910390a2565b6000600760009054906101000a900473ffffffffffffffffffffffffffffffffffffffff16905090565b600e6020528060005260406000206000915054906101000a900460ff1681565b60606001805461102090612d01565b80601f016020809104026020016040519081016040528092919081815260200182805461104c90612d01565b80156110995780601f1061106e57610100808354040283529160200191611099565b820191906000526020600020905b81548152906001019060200180831161107c57829003601f168201915b5050505050905090565b6110b56110ae611483565b8383612001565b5050565b6110ca6110c4611483565b83611544565b611109576040517f08c379a000000000000000000000000000000000000000000000000000000000815260040161110090612ec8565b60405180910390fd5b6111158484848461216d565b50505050565b606061112682611438565b600060066000848152602001908152602001600020805461114690612d01565b80601f016020809104026020016040519081016040528092919081815260200182805461117290612d01565b80156111bf5780601f10611194576101008083540402835291602001916111bf565b820191906000526020600020905b8154815290600101906020018083116111a257829003601f168201915b5050505050905060006111d0611c8d565b905060008151036111e5578192505050611228565b60008251111561121a5780826040516020016112029291906136b0565b60405160208183030381529060405292505050611228565b611223846121c9565b925050505b919050565b6000600560008473ffffffffffffffffffffffffffffffffffffffff1673ffffffffffffffffffffffffffffffffffffffff16815260200190815260200160002060008373ffffffffffffffffffffffffffffffffffffffff1673ffffffffffffffffffffffffffffffffffffffff16815260200190815260200160002060009054906101000a900460ff16905092915050565b6112c96118d2565b600073ffffffffffffffffffffffffffffffffffffffff168173ffffffffffffffffffffffffffffffffffffffff1603611338576040517f08c379a000000000000000000000000000000000000000000000000000000000815260040161132f90613746565b60405180910390fd5b61134181611ed8565b50565b61134c6118d2565b80600d8190555050565b60007f80ac58cd000000000000000000000000000000000000000000000000000000007bffffffffffffffffffffffffffffffffffffffffffffffffffffffff1916827bffffffffffffffffffffffffffffffffffffffffffffffffffffffff1916148061142157507f5b5e139f000000000000000000000000000000000000000000000000000000007bffffffffffffffffffffffffffffffffffffffffffffffffffffffff1916827bffffffffffffffffffffffffffffffffffffffffffffffffffffffff1916145b80611431575061143082612231565b5b9050919050565b6114418161229b565b611480576040517f08c379a0000000000000000000000000000000000000000000000000000000008152600401611477906135fe565b60405180910390fd5b50565b600033905090565b816004600083815260200190815260200160002060006101000a81548173ffffffffffffffffffffffffffffffffffffffff021916908373ffffffffffffffffffffffffffffffffffffffff160217905550808273ffffffffffffffffffffffffffffffffffffffff166114fe83610df6565b73ffffffffffffffffffffffffffffffffffffffff167f8c5be1e5ebec7d5bd14f71427d1e84f3dd0314c0f7b2291e5b200ac8c7c3b92560405160405180910390a45050565b60008061155083610df6565b90508073ffffffffffffffffffffffffffffffffffffffff168473ffffffffffffffffffffffffffffffffffffffff1614806115925750611591818561122d565b5b806115d057508373ffffffffffffffffffffffffffffffffffffffff166115b884610786565b73ffffffffffffffffffffffffffffffffffffffff16145b91505092915050565b8273ffffffffffffffffffffffffffffffffffffffff166115f982610df6565b73ffffffffffffffffffffffffffffffffffffffff161461164f576040517f08c379a0000000000000000000000000000000000000000000000000000000008152600401611646906137d8565b60405180910390fd5b600073ffffffffffffffffffffffffffffffffffffffff168273ffffffffffffffffffffffffffffffffffffffff16036116be576040517f08c379a00000000000000000000000000000000000000000000000000000000081526004016116b59061386a565b60405180910390fd5b6116cb83838360016122dc565b8273ffffffffffffffffffffffffffffffffffffffff166116eb82610df6565b73ffffffffffffffffffffffffffffffffffffffff1614611741576040517f08c379a0000000000000000000000000000000000000000000000000000000008152600401611738906137d8565b60405180910390fd5b6004600082815260200190815260200160002060006101000a81549073ffffffffffffffffffffffffffffffffffffffff02191690556001600360008573ffffffffffffffffffffffffffffffffffffffff1673ffffffffffffffffffffffffffffffffffffffff168152602001908152602001600020600082825403925050819055506001600360008473ffffffffffffffffffffffffffffffffffffffff1673ffffffffffffffffffffffffffffffffffffffff16815260200190815260200160002060008282540192505081905550816002600083815260200190815260200160002060006101000a81548173ffffffffffffffffffffffffffffffffffffffff021916908373ffffffffffffffffffffffffffffffffffffffff160217905550808273ffffffffffffffffffffffffffffffffffffffff168473ffffffffffffffffffffffffffffffffffffffff167fddf252ad1be2c89b69c2b068fc378daa952ba7f163c4a11628f55a4df523b3ef60405160405180910390a46118cd83838360016122e2565b505050565b6118da611483565b73ffffffffffffffffffffffffffffffffffffffff166118f8610fc7565b73ffffffffffffffffffffffffffffffffffffffff161461194e576040517f08c379a0000000000000000000000000000000000000000000000000000000008152600401611945906138d6565b60405180910390fd5b565b6119586122e8565b6000600960006101000a81548160ff0219169083151502179055507f5db9ee0a495bf2e6ff9c91a7834c1ba4fdd244a5e8aa4e537bd38aeae4b073aa61199c611483565b6040516119a99190612853565b60405180910390a1565b6002600854036119f8576040517f08c379a00000000000000000000000000000000000000000000000000000000081526004016119ef90613942565b60405180910390fd5b6002600881905550565b611a0a610ddf565b15611a4a576040517f08c379a0000000000000000000000000000000000000000000000000000000008152600401611a41906139ae565b60405180910390fd5b565b600081600001549050919050565b6001816000016000828254019250508190555050565b600073ffffffffffffffffffffffffffffffffffffffff168273ffffffffffffffffffffffffffffffffffffffff1603611adf576040517f08c379a0000000000000000000000000000000000000000000000000000000008152600401611ad690613a1a565b60405180910390fd5b611ae88161229b565b15611b28576040517f08c379a0000000000000000000000000000000000000000000000000000000008152600401611b1f90613a86565b60405180910390fd5b611b366000838360016122dc565b611b3f8161229b565b15611b7f576040517f08c379a0000000000000000000000000000000000000000000000000000000008152600401611b7690613a86565b60405180910390fd5b6001600360008473ffffffffffffffffffffffffffffffffffffffff1673ffffffffffffffffffffffffffffffffffffffff16815260200190815260200160002060008282540192505081905550816002600083815260200190815260200160002060006101000a81548173ffffffffffffffffffffffffffffffffffffffff021916908373ffffffffffffffffffffffffffffffffffffffff160217905550808273ffffffffffffffffffffffffffffffffffffffff16600073ffffffffffffffffffffffffffffffffffffffff167fddf252ad1be2c89b69c2b068fc378daa952ba7f163c4a11628f55a4df523b3ef60405160405180910390a4611c896000838360016122e2565b5050565b6060600c8054611c9c90612d01565b80601f0160208091040260200160405190810160405280929190818152602001828054611cc890612d01565b8015611d155780601f10611cea57610100808354040283529160200191611d15565b820191906000526020600020905b815481529060010190602001808311611cf857829003601f168201915b5050505050905090565b606060006001611d2e84612331565b01905060008167ffffffffffffffff811115611d4d57611d4c612961565b5b6040519080825280601f01601f191660200182016040528015611d7f5781602001600182028036833780820191505090505b509050600082602001820190505b600115611de2578080600190039150507f3031323334353637383961626364656600000000000000000000000000000000600a86061a8153600a8581611dd657611dd5613aa6565b5b04945060008503611d8d575b819350505050919050565b611df68261229b565b611e35576040517f08c379a0000000000000000000000000000000000000000000000000000000008152600401611e2c90613b47565b60405180910390fd5b80600660008481526020019081526020016000209081611e5591906131b2565b507ff8e1a15aba9398e019f0b49df1a4fde98ee17ae345cb5f6b5e2c27f5033e8ce782604051611e85919061293c565b60405180910390a15050565b6001600881905550565b60006002600083815260200190815260200160002060009054906101000a900473ffffffffffffffffffffffffffffffffffffffff169050919050565b6000600760009054906101000a900473ffffffffffffffffffffffffffffffffffffffff16905081600760006101000a81548173ffffffffffffffffffffffffffffffffffffffff021916908373ffffffffffffffffffffffffffffffffffffffff1602179055508173ffffffffffffffffffffffffffffffffffffffff168173ffffffffffffffffffffffffffffffffffffffff167f8be0079c531659141344cd1fd0a4f28419497f9722a3daafe3b4186f6b6457e060405160405180910390a35050565b611fa6611a02565b6001600960006101000a81548160ff0219169083151502179055507f62e78cea01bee320cd4e420270b5ea74000d11b0c9f74754ebdbfc544b05a258611fea611483565b604051611ff79190612853565b60405180910390a1565b8173ffffffffffffffffffffffffffffffffffffffff168373ffffffffffffffffffffffffffffffffffffffff160361206f576040517f08c379a000000000000000000000000000000000000000000000000000000000815260040161206690613bb3565b60405180910390fd5b80600560008573ffffffffffffffffffffffffffffffffffffffff1673ffffffffffffffffffffffffffffffffffffffff16815260200190815260200160002060008473ffffffffffffffffffffffffffffffffffffffff1673ffffffffffffffffffffffffffffffffffffffff16815260200190815260200160002060006101000a81548160ff0219169083151502179055508173ffffffffffffffffffffffffffffffffffffffff168373ffffffffffffffffffffffffffffffffffffffff167f17307eab39ab6107e8899845ad3d59bd9653f200f220920489ca2b5937696c318360405161216091906126e2565b60405180910390a3505050565b6121788484846115d9565b61218484848484612484565b6121c3576040517f08c379a00000000000000000000000000000000000000000000000000000000081526004016121ba90613c45565b60405180910390fd5b50505050565b60606121d482611438565b60006121de611c8d565b905060008151116121fe5760405180602001604052806000815250612229565b8061220884611d1f565b6040516020016122199291906136b0565b6040516020818303038152906040525b915050919050565b60007f01ffc9a7000000000000000000000000000000000000000000000000000000007bffffffffffffffffffffffffffffffffffffffffffffffffffffffff1916827bffffffffffffffffffffffffffffffffffffffffffffffffffffffff1916149050919050565b60008073ffffffffffffffffffffffffffffffffffffffff166122bd83611e9b565b73ffffffffffffffffffffffffffffffffffffffff1614159050919050565b50505050565b50505050565b6122f0610ddf565b61232f576040517f08c379a000000000000000000000000000000000000000000000000000000000815260040161232690613cb1565b60405180910390fd5b565b600080600090507a184f03e93ff9f4daa797ed6e38ed64bf6a1f010000000000000000831061238f577a184f03e93ff9f4daa797ed6e38ed64bf6a1f010000000000000000838161238557612384613aa6565b5b0492506040810190505b6d04ee2d6d415b85acef810000000083106123cc576d04ee2d6d415b85acef810000000083816123c2576123c1613aa6565b5b0492506020810190505b662386f26fc1000083106123fb57662386f26fc1000083816123f1576123f0613aa6565b5b0492506010810190505b6305f5e1008310612424576305f5e100838161241a57612419613aa6565b5b0492506008810190505b612710831061244957612710838161243f5761243e613aa6565b5b0492506004810190505b6064831061246c576064838161246257612461613aa6565b5b0492506002810190505b600a831061247b576001810190505b80915050919050565b60006124a58473ffffffffffffffffffffffffffffffffffffffff1661260b565b156125fe578373ffffffffffffffffffffffffffffffffffffffff1663150b7a026124ce611483565b8786866040518563ffffffff1660e01b81526004016124f09493929190613d26565b6020604051808303816000875af192505050801561252c57506040513d601f19601f820116820180604052508101906125299190613d87565b60015b6125ae573d806000811461255c576040519150601f19603f3d011682016040523d82523d6000602084013e612561565b606091505b5060008151036125a6576040517f08c379a000000000000000000000000000000000000000000000000000000000815260040161259d90613c45565b60405180910390fd5b805181602001fd5b63150b7a0260e01b7bffffffffffffffffffffffffffffffffffffffffffffffffffffffff1916817bffffffffffffffffffffffffffffffffffffffffffffffffffffffff191614915050612603565b600190505b949350505050565b6000808273ffffffffffffffffffffffffffffffffffffffff163b119050919050565b6000604051905090565b600080fd5b600080fd5b60007fffffffff0000000000000000000000000000000000000000000000000000000082169050919050565b61267781612642565b811461268257600080fd5b50565b6000813590506126948161266e565b92915050565b6000602082840312156126b0576126af612638565b5b60006126be84828501612685565b91505092915050565b60008115159050919050565b6126dc816126c7565b82525050565b60006020820190506126f760008301846126d3565b92915050565b600081519050919050565b600082825260208201905092915050565b60005b8381101561273757808201518184015260208101905061271c565b60008484015250505050565b6000601f19601f8301169050919050565b600061275f826126fd565b6127698185612708565b9350612779818560208601612719565b61278281612743565b840191505092915050565b600060208201905081810360008301526127a78184612754565b905092915050565b6000819050919050565b6127c2816127af565b81146127cd57600080fd5b50565b6000813590506127df816127b9565b92915050565b6000602082840312156127fb576127fa612638565b5b6000612809848285016127d0565b91505092915050565b600073ffffffffffffffffffffffffffffffffffffffff82169050919050565b600061283d82612812565b9050919050565b61284d81612832565b82525050565b60006020820190506128686000830184612844565b92915050565b61287781612832565b811461288257600080fd5b50565b6000813590506128948161286e565b92915050565b600080604083850312156128b1576128b0612638565b5b60006128bf85828601612885565b92505060206128d0858286016127d0565b9150509250929050565b6000806000606084860312156128f3576128f2612638565b5b600061290186828701612885565b935050602061291286828701612885565b9250506040612923868287016127d0565b9150509250925092565b612936816127af565b82525050565b6000602082019050612951600083018461292d565b92915050565b600080fd5b600080fd5b7f4e487b7100000000000000000000000000000000000000000000000000000000600052604160045260246000fd5b61299982612743565b810181811067ffffffffffffffff821117156129b8576129b7612961565b5b80604052505050565b60006129cb61262e565b90506129d78282612990565b919050565b600067ffffffffffffffff8211156129f7576129f6612961565b5b612a0082612743565b9050602081019050919050565b82818337600083830152505050565b6000612a2f612a2a846129dc565b6129c1565b905082815260208101848484011115612a4b57612a4a61295c565b5b612a56848285612a0d565b509392505050565b600082601f830112612a7357612a72612957565b5b8135612a83848260208601612a1c565b91505092915050565b600060208284031215612aa257612aa1612638565b5b600082013567ffffffffffffffff811115612ac057612abf61263d565b5b612acc84828501612a5e565b91505092915050565b600060208284031215612aeb57612aea612638565b5b6000612af984828501612885565b91505092915050565b612b0b816126c7565b8114612b1657600080fd5b50565b600081359050612b2881612b02565b92915050565b60008060408385031215612b4557612b44612638565b5b6000612b5385828601612885565b9250506020612b6485828601612b19565b9150509250929050565b600067ffffffffffffffff821115612b8957612b88612961565b5b612b9282612743565b9050602081019050919050565b6000612bb2612bad84612b6e565b6129c1565b905082815260208101848484011115612bce57612bcd61295c565b5b612bd9848285612a0d565b509392505050565b600082601f830112612bf657612bf5612957565b5b8135612c06848260208601612b9f565b91505092915050565b60008060008060808587031215612c2957612c28612638565b5b6000612c3787828801612885565b9450506020612c4887828801612885565b9350506040612c59878288016127d0565b925050606085013567ffffffffffffffff811115612c7a57612c7961263d565b5b612c8687828801612be1565b91505092959194509250565b60008060408385031215612ca957612ca8612638565b5b6000612cb785828601612885565b9250506020612cc885828601612885565b9150509250929050565b7f4e487b7100000000000000000000000000000000000000000000000000000000600052602260045260246000fd5b60006002820490506001821680612d1957607f821691505b602082108103612d2c57612d2b612cd2565b5b50919050565b7f4552433732313a20617070726f76616c20746f2063757272656e74206f776e6560008201527f7200000000000000000000000000000000000000000000000000000000000000602082015250565b6000612d8e602183612708565b9150612d9982612d32565b604082019050919050565b60006020820190508181036000830152612dbd81612d81565b9050919050565b7f4552433732313a20617070726f76652063616c6c6572206973206e6f7420746f60008201527f6b656e206f776e6572206f7220617070726f76656420666f7220616c6c000000602082015250565b6000612e20603d83612708565b9150612e2b82612dc4565b604082019050919050565b60006020820190508181036000830152612e4f81612e13565b9050919050565b7f4552433732313a2063616c6c6572206973206e6f7420746f6b656e206f776e6560008201527f72206f7220617070726f76656400000000000000000000000000000000000000602082015250565b6000612eb2602d83612708565b9150612ebd82612e56565b604082019050919050565b60006020820190508181036000830152612ee181612ea5565b9050919050565b7f4e6f2066756e647320746f207769746864726177000000000000000000000000600082015250565b6000612f1e601483612708565b9150612f2982612ee8565b602082019050919050565b60006020820190508181036000830152612f4d81612f11565b9050919050565b600081905092915050565b50565b6000612f6f600083612f54565b9150612f7a82612f5f565b600082019050919050565b6000612f9082612f62565b9150819050919050565b7f5769746864726177616c206661696c6564000000000000000000000000000000600082015250565b6000612fd0601183612708565b9150612fdb82612f9a565b602082019050919050565b60006020820190508181036000830152612fff81612fc3565b9050919050565b60008190508160005260206000209050919050565b60006020601f8301049050919050565b600082821b905092915050565b6000600883026130687fffffffffffffffffffffffffffffffffffffffffffffffffffffffffffffffff8261302b565b613072868361302b565b95508019841693508086168417925050509392505050565b6000819050919050565b60006130af6130aa6130a5846127af565b61308a565b6127af565b9050919050565b6000819050919050565b6130c983613094565b6130dd6130d5826130b6565b848454613038565b825550505050565b600090565b6130f26130e5565b6130fd8184846130c0565b505050565b5b81811015613121576131166000826130ea565b600181019050613103565b5050565b601f8211156131665761313781613006565b6131408461301b565b8101602085101561314f578190505b61316361315b8561301b565b830182613102565b50505b505050565b600082821c905092915050565b60006131896000198460080261316b565b1980831691505092915050565b60006131a28383613178565b9150826002028217905092915050565b6131bb826126fd565b67ffffffffffffffff8111156131d4576131d3612961565b5b6131de8254612d01565b6131e9828285613125565b600060209050601f83116001811461321c576000841561320a578287015190505b6132148582613196565b86555061327c565b601f19841661322a86613006565b60005b828110156132525784890151825560018201915060208501945060208101905061322d565b8683101561326f578489015161326b601f891682613178565b8355505b6001600288020188555050505b505050505050565b7f4d617820737570706c7920726561636865640000000000000000000000000000600082015250565b60006132ba601283612708565b91506132c582613284565b602082019050919050565b600060208201905081810360008301526132e9816132ad565b9050919050565b7f496e73756666696369656e74204554482073656e740000000000000000000000600082015250565b6000613326601583612708565b9150613331826132f0565b602082019050919050565b6000602082019050818103600083015261335581613319565b9050919050565b7f416464726573732068617320616c72656164792070757263686173656420616e60008201527f204e465400000000000000000000000000000000000000000000000000000000602082015250565b60006133b8602483612708565b91506133c38261335c565b604082019050919050565b600060208201905081810360008301526133e7816133ab565b9050919050565b7f4e487b7100000000000000000000000000000000000000000000000000000000600052601160045260246000fd5b6000613428826127af565b9150613433836127af565b925082820390508181111561344b5761344a6133ee565b5b92915050565b600081905092915050565b6000613467826126fd565b6134718185613451565b9350613481818560208601612719565b80840191505092915050565b7f2e6a736f6e000000000000000000000000000000000000000000000000000000600082015250565b60006134c3600583613451565b91506134ce8261348d565b600582019050919050565b60006134e5828561345c565b91506134f1828461345c565b91506134fc826134b6565b91508190509392505050565b600060608201905061351d6000830186612844565b61352a602083018561292d565b818103604083015261353c8184612754565b9050949350505050565b7f526566756e64206661696c656400000000000000000000000000000000000000600082015250565b600061357c600d83612708565b915061358782613546565b602082019050919050565b600060208201905081810360008301526135ab8161356f565b9050919050565b7f4552433732313a20696e76616c696420746f6b656e2049440000000000000000600082015250565b60006135e8601883612708565b91506135f3826135b2565b602082019050919050565b60006020820190508181036000830152613617816135db565b9050919050565b7f4552433732313a2061646472657373207a65726f206973206e6f74206120766160008201527f6c6964206f776e65720000000000000000000000000000000000000000000000602082015250565b600061367a602983612708565b91506136858261361e565b604082019050919050565b600060208201905081810360008301526136a98161366d565b9050919050565b60006136bc828561345c565b91506136c8828461345c565b91508190509392505050565b7f4f776e61626c653a206e6577206f776e657220697320746865207a65726f206160008201527f6464726573730000000000000000000000000000000000000000000000000000602082015250565b6000613730602683612708565b915061373b826136d4565b604082019050919050565b6000602082019050818103600083015261375f81613723565b9050919050565b7f4552433732313a207472616e736665722066726f6d20696e636f72726563742060008201527f6f776e6572000000000000000000000000000000000000000000000000000000602082015250565b60006137c2602583612708565b91506137cd82613766565b604082019050919050565b600060208201905081810360008301526137f1816137b5565b9050919050565b7f4552433732313a207472616e7366657220746f20746865207a65726f2061646460008201527f7265737300000000000000000000000000000000000000000000000000000000602082015250565b6000613854602483612708565b915061385f826137f8565b604082019050919050565b6000602082019050818103600083015261388381613847565b9050919050565b7f4f776e61626c653a2063616c6c6572206973206e6f7420746865206f776e6572600082015250565b60006138c0602083612708565b91506138cb8261388a565b602082019050919050565b600060208201905081810360008301526138ef816138b3565b9050919050565b7f5265656e7472616e637947756172643a207265656e7472616e742063616c6c00600082015250565b600061392c601f83612708565b9150613937826138f6565b602082019050919050565b6000602082019050818103600083015261395b8161391f565b9050919050565b7f5061757361626c653a2070617573656400000000000000000000000000000000600082015250565b6000613998601083612708565b91506139a382613962565b602082019050919050565b600060208201905081810360008301526139c78161398b565b9050919050565b7f4552433732313a206d696e7420746f20746865207a65726f2061646472657373600082015250565b6000613a04602083612708565b9150613a0f826139ce565b602082019050919050565b60006020820190508181036000830152613a33816139f7565b9050919050565b7f4552433732313a20746f6b656e20616c7265616479206d696e74656400000000600082015250565b6000613a70601c83612708565b9150613a7b82613a3a565b602082019050919050565b60006020820190508181036000830152613a9f81613a63565b9050919050565b7f4e487b7100000000000000000000000000000000000000000000000000000000600052601260045260246000fd5b7f45524337323155524953746f726167653a2055524920736574206f66206e6f6e60008201527f6578697374656e7420746f6b656e000000000000000000000000000000000000602082015250565b6000613b31602e83612708565b9150613b3c82613ad5565b604082019050919050565b60006020820190508181036000830152613b6081613b24565b9050919050565b7f4552433732313a20617070726f766520746f2063616c6c657200000000000000600082015250565b6000613b9d601983612708565b9150613ba882613b67565b602082019050919050565b60006020820190508181036000830152613bcc81613b90565b9050919050565b7f4552433732313a207472616e7366657220746f206e6f6e20455243373231526560008201527f63656976657220696d706c656d656e7465720000000000000000000000000000602082015250565b6000613c2f603283612708565b9150613c3a82613bd3565b604082019050919050565b60006020820190508181036000830152613c5e81613c22565b9050919050565b7f5061757361626c653a206e6f7420706175736564000000000000000000000000600082015250565b6000613c9b601483612708565b9150613ca682613c65565b602082019050919050565b60006020820190508181036000830152613cca81613c8e565b9050919050565b600081519050919050565b600082825260208201905092915050565b6000613cf882613cd1565b613d028185613cdc565b9350613d12818560208601612719565b613d1b81612743565b840191505092915050565b6000608082019050613d3b6000830187612844565b613d486020830186612844565b613d55604083018561292d565b8181036060830152613d678184613ced565b905095945050505050565b600081519050613d818161266e565b92915050565b600060208284031215613d9d57613d9c612638565b5b6000613dab84828501613d72565b9150509291505056fea2646970667358221220a3f5bbca379fb88288949176c6ded41e4bf6e15881523fb46ad51ae2511c118864736f6c6343000814003368747470733a2f2f676174657761792e70696e6174612e636c6f75642f697066732f62616679626569613234776935346c7467676165713335323467647a6a7637376378776d63706136346734356d636c6b66783363636a65646e776d2f",
  "linkReferences": {},
  "deployedLinkReferences": {}
}