{
  "_format": "hh-sol-artifact-1",
  "contractName": "TurtleTimepieceNFT",
  "sourceName": "contracts/TurtleTimepieceNFT.sol",
  "abi": [
    {
      "inputs": [],
      "stateMutability": "nonpayable",
      "type": "constructor"
    },
    {
      "anonymous": false,
      "inputs": [
        {
          "indexed": true,
          "internalType": "address",
          "name": "owner",
          "type": "address"
        },
        {
          "indexed": true,
          "internalType": "address",
          "name": "approved",
          "type": "address"
        },
        {
          "indexed": true,
          "internalType": "uint256",
          "name": "tokenId",
          "type": "uint256"
        }
      ],
      "name": "Approval",
      "type": "event"
    },
    {
      "anonymous": false,
      "inputs": [
        {
          "indexed": true,
          "internalType": "address",
          "name": "owner",
          "type": "address"
        },
        {
          "indexed": true,
          "internalType": "address",
          "name": "operator",
          "type": "address"
        },
        {
          "indexed": false,
          "internalType": "bool",
          "name": "approved",
          "type": "bool"
        }
      ],
      "name": "ApprovalForAll",
      "type": "event"
    },
    {
      "anonymous": false,
      "inputs": [
        {
          "indexed": false,
          "internalType": "uint256",
          "name": "_fromTokenId",
          "type": "uint256"
        },
        {
          "indexed": false,
          "internalType": "uint256",
          "name": "_toTokenId",
          "type": "uint256"
        }
      ],
      "name": "BatchMetadataUpdate",
      "type": "event"
    },
    {
      "anonymous": false,
      "inputs": [
        {
          "indexed": false,
          "internalType": "address",
          "name": "owner",
          "type": "address"
        },
        {
          "indexed": false,
          "internalType": "uint256[]",
          "name": "tokenIds",
          "type": "uint256[]"
        }
      ],
      "name": "BatchNFTMinted",
      "type": "event"
    },
    {
      "anonymous": false,
      "inputs": [
        {
          "indexed": true,
          "internalType": "address",
          "name": "by",
          "type": "address"
        }
      ],
      "name": "ContractPaused",
      "type": "event"
    },
    {
      "anonymous": false,
      "inputs": [
        {
          "indexed": true,
          "internalType": "address",
          "name": "by",
          "type": "address"
        }
      ],
      "name": "ContractUnpaused",
      "type": "event"
    },
    {
      "anonymous": false,
      "inputs": [
        {
          "indexed": false,
          "internalType": "uint256",
          "name": "_tokenId",
          "type": "uint256"
        }
      ],
      "name": "MetadataUpdate",
      "type": "event"
    },
    {
      "anonymous": false,
      "inputs": [
        {
          "indexed": false,
          "internalType": "address",
          "name": "owner",
          "type": "address"
        },
        {
          "indexed": false,
          "internalType": "uint256",
          "name": "tokenId",
          "type": "uint256"
        },
        {
          "indexed": false,
          "internalType": "string",
          "name": "tokenURI",
          "type": "string"
        }
      ],
      "name": "NFTMinted",
      "type": "event"
    },
    {
      "anonymous": false,
      "inputs": [
        {
          "indexed": true,
          "internalType": "address",
          "name": "previousOwner",
          "type": "address"
        },
        {
          "indexed": true,
          "internalType": "address",
          "name": "newOwner",
          "type": "address"
        }
      ],
      "name": "OwnershipTransferred",
      "type": "event"
    },
    {
      "anonymous": false,
      "inputs": [
        {
          "indexed": false,
          "internalType": "address",
          "name": "account",
          "type": "address"
        }
      ],
      "name": "Paused",
      "type": "event"
    },
    {
      "anonymous": false,
      "inputs": [
        {
          "indexed": true,
          "internalType": "address",
          "name": "from",
          "type": "address"
        },
        {
          "indexed": true,
          "internalType": "address",
          "name": "to",
          "type": "address"
        },
        {
          "indexed": true,
          "internalType": "uint256",
          "name": "tokenId",
          "type": "uint256"
        }
      ],
      "name": "Transfer",
      "type": "event"
    },
    {
      "anonymous": false,
      "inputs": [
        {
          "indexed": false,
          "internalType": "address",
          "name": "account",
          "type": "address"
        }
      ],
      "name": "Unpaused",
      "type": "event"
    },
    {
      "inputs": [],
      "name": "MAX_SUPPLY",
      "outputs": [
        {
          "internalType": "uint256",
          "name": "",
          "type": "uint256"
        }
      ],
      "stateMutability": "view",
      "type": "function"
    },
    {
      "inputs": [
        {
          "internalType": "address",
          "name": "to",
          "type": "address"
        },
        {
          "internalType": "uint256",
          "name": "tokenId",
          "type": "uint256"
        }
      ],
      "name": "approve",
      "outputs": [],
      "stateMutability": "nonpayable",
      "type": "function"
    },
    {
      "inputs": [],
      "name": "availableToMint",
      "outputs": [
        {
          "internalType": "bool",
          "name": "",
          "type": "bool"
        }
      ],
      "stateMutability": "view",
      "type": "function"
    },
    {
      "inputs": [
        {
          "internalType": "address",
          "name": "owner",
          "type": "address"
        }
      ],
      "name": "balanceOf",
      "outputs": [
        {
          "internalType": "uint256",
          "name": "",
          "type": "uint256"
        }
      ],
      "stateMutability": "view",
      "type": "function"
    },
    {
      "inputs": [
        {
          "internalType": "address",
          "name": "recipient",
          "type": "address"
        },
        {
          "internalType": "uint256",
          "name": "quantity",
          "type": "uint256"
        }
      ],
      "name": "batchMintWithETH",
      "outputs": [
        {
          "internalType": "uint256[]",
          "name": "",
          "type": "uint256[]"
        }
      ],
      "stateMutability": "payable",
      "type": "function"
    },
    {
      "inputs": [
        {
          "internalType": "uint256",
          "name": "tokenId",
          "type": "uint256"
        }
      ],
      "name": "getApproved",
      "outputs": [
        {
          "internalType": "address",
          "name": "",
          "type": "address"
        }
      ],
      "stateMutability": "view",
      "type": "function"
    },
    {
      "inputs": [],
      "name": "getTokenCount",
      "outputs": [
        {
          "internalType": "uint256",
          "name": "",
          "type": "uint256"
        }
      ],
      "stateMutability": "view",
      "type": "function"
    },
    {
      "inputs": [
        {
          "internalType": "address",
          "name": "owner",
          "type": "address"
        },
        {
          "internalType": "address",
          "name": "operator",
          "type": "address"
        }
      ],
      "name": "isApprovedForAll",
      "outputs": [
        {
          "internalType": "bool",
          "name": "",
          "type": "bool"
        }
      ],
      "stateMutability": "view",
      "type": "function"
    },
    {
      "inputs": [],
      "name": "mintPrice",
      "outputs": [
        {
          "internalType": "uint256",
          "name": "",
          "type": "uint256"
        }
      ],
      "stateMutability": "view",
      "type": "function"
    },
    {
      "inputs": [
        {
          "internalType": "address",
          "name": "recipient",
          "type": "address"
        }
      ],
      "name": "mintWithETH",
      "outputs": [
        {
          "internalType": "uint256",
          "name": "",
          "type": "uint256"
        }
      ],
      "stateMutability": "payable",
      "type": "function"
    },
    {
      "inputs": [],
      "name": "name",
      "outputs": [
        {
          "internalType": "string",
          "name": "",
          "type": "string"
        }
      ],
      "stateMutability": "view",
      "type": "function"
    },
    {
      "inputs": [],
      "name": "owner",
      "outputs": [
        {
          "internalType": "address",
          "name": "",
          "type": "address"
        }
      ],
      "stateMutability": "view",
      "type": "function"
    },
    {
      "inputs": [
        {
          "internalType": "uint256",
          "name": "tokenId",
          "type": "uint256"
        }
      ],
      "name": "ownerOf",
      "outputs": [
        {
          "internalType": "address",
          "name": "",
          "type": "address"
        }
      ],
      "stateMutability": "view",
      "type": "function"
    },
    {
      "inputs": [],
      "name": "pause",
      "outputs": [],
      "stateMutability": "nonpayable",
      "type": "function"
    },
    {
      "inputs": [],
      "name": "paused",
      "outputs": [
        {
          "internalType": "bool",
          "name": "",
          "type": "bool"
        }
      ],
      "stateMutability": "view",
      "type": "function"
    },
    {
      "inputs": [],
      "name": "renounceOwnership",
      "outputs": [],
      "stateMutability": "nonpayable",
      "type": "function"
    },
    {
      "inputs": [
        {
          "internalType": "address",
          "name": "from",
          "type": "address"
        },
        {
          "internalType": "address",
          "name": "to",
          "type": "address"
        },
        {
          "internalType": "uint256",
          "name": "tokenId",
          "type": "uint256"
        }
      ],
      "name": "safeTransferFrom",
      "outputs": [],
      "stateMutability": "nonpayable",
      "type": "function"
    },
    {
      "inputs": [
        {
          "internalType": "address",
          "name": "from",
          "type": "address"
        },
        {
          "internalType": "address",
          "name": "to",
          "type": "address"
        },
        {
          "internalType": "uint256",
          "name": "tokenId",
          "type": "uint256"
        },
        {
          "internalType": "bytes",
          "name": "data",
          "type": "bytes"
        }
      ],
      "name": "safeTransferFrom",
      "outputs": [],
      "stateMutability": "nonpayable",
      "type": "function"
    },
    {
      "inputs": [
        {
          "internalType": "address",
          "name": "operator",
          "type": "address"
        },
        {
          "internalType": "bool",
          "name": "approved",
          "type": "bool"
        }
      ],
      "name": "setApprovalForAll",
      "outputs": [],
      "stateMutability": "nonpayable",
      "type": "function"
    },
    {
      "inputs": [
        {
          "internalType": "string",
          "name": "baseURI",
          "type": "string"
        }
      ],
      "name": "setBaseURI",
      "outputs": [],
      "stateMutability": "nonpayable",
      "type": "function"
    },
    {
      "inputs": [
        {
          "internalType": "uint256",
          "name": "newPrice",
          "type": "uint256"
        }
      ],
      "name": "setMintPrice",
      "outputs": [],
      "stateMutability": "nonpayable",
      "type": "function"
    },
    {
      "inputs": [
        {
          "internalType": "bytes4",
          "name": "interfaceId",
          "type": "bytes4"
        }
      ],
      "name": "supportsInterface",
      "outputs": [
        {
          "internalType": "bool",
          "name": "",
          "type": "bool"
        }
      ],
      "stateMutability": "view",
      "type": "function"
    },
    {
      "inputs": [],
      "name": "symbol",
      "outputs": [
        {
          "internalType": "string",
          "name": "",
          "type": "string"
        }
      ],
      "stateMutability": "view",
      "type": "function"
    },
    {
      "inputs": [
        {
          "internalType": "uint256",
          "name": "tokenId",
          "type": "uint256"
        }
      ],
      "name": "tokenURI",
      "outputs": [
        {
          "internalType": "string",
          "name": "",
          "type": "string"
        }
      ],
      "stateMutability": "view",
      "type": "function"
    },
    {
      "inputs": [
        {
          "internalType": "address",
          "name": "from",
          "type": "address"
        },
        {
          "internalType": "address",
          "name": "to",
          "type": "address"
        },
        {
          "internalType": "uint256",
          "name": "tokenId",
          "type": "uint256"
        }
      ],
      "name": "transferFrom",
      "outputs": [],
      "stateMutability": "nonpayable",
      "type": "function"
    },
    {
      "inputs": [
        {
          "internalType": "address",
          "name": "newOwner",
          "type": "address"
        }
      ],
      "name": "transferOwnership",
      "outputs": [],
      "stateMutability": "nonpayable",
      "type": "function"
    },
    {
      "inputs": [],
      "name": "unpause",
      "outputs": [],
      "stateMutability": "nonpayable",
      "type": "function"
    },
    {
      "inputs": [],
      "name": "withdraw",
      "outputs": [],
      "stateMutability": "nonpayable",
      "type": "function"
    }
  ],
  "bytecode": "0x608060405266038d7ea4c68000600d553480156200001c57600080fd5b506040518060400160405280601581526020017f4469616d6f6e6420416363657373205469636b657400000000000000000000008152506040518060400160405280600781526020017f4449414d4f4e440000000000000000000000000000000000000000000000000081525081600090816200009a91906200046b565b508060019081620000ac91906200046b565b505050620000cf620000c36200012360201b60201c565b6200012b60201b60201c565b60016008819055506000600960006101000a81548160ff021916908315150217905550604051806080016040528060518152602001620047c460519139600c90816200011c91906200046b565b5062000552565b600033905090565b6000600760009054906101000a900473ffffffffffffffffffffffffffffffffffffffff16905081600760006101000a81548173ffffffffffffffffffffffffffffffffffffffff021916908373ffffffffffffffffffffffffffffffffffffffff1602179055508173ffffffffffffffffffffffffffffffffffffffff168173ffffffffffffffffffffffffffffffffffffffff167f8be0079c531659141344cd1fd0a4f28419497f9722a3daafe3b4186f6b6457e060405160405180910390a35050565b600081519050919050565b7f4e487b7100000000000000000000000000000000000000000000000000000000600052604160045260246000fd5b7f4e487b7100000000000000000000000000000000000000000000000000000000600052602260045260246000fd5b600060028204905060018216806200027357607f821691505b6020821081036200028957620002886200022b565b5b50919050565b60008190508160005260206000209050919050565b60006020601f8301049050919050565b600082821b905092915050565b600060088302620002f37fffffffffffffffffffffffffffffffffffffffffffffffffffffffffffffffff82620002b4565b620002ff8683620002b4565b95508019841693508086168417925050509392505050565b6000819050919050565b6000819050919050565b60006200034c62000346620003408462000317565b62000321565b62000317565b9050919050565b6000819050919050565b62000368836200032b565b62000380620003778262000353565b848454620002c1565b825550505050565b600090565b6200039762000388565b620003a48184846200035d565b505050565b5b81811015620003cc57620003c06000826200038d565b600181019050620003aa565b5050565b601f8211156200041b57620003e5816200028f565b620003f084620002a4565b8101602085101562000400578190505b620004186200040f85620002a4565b830182620003a9565b50505b505050565b600082821c905092915050565b6000620004406000198460080262000420565b1980831691505092915050565b60006200045b83836200042d565b9150826002028217905092915050565b6200047682620001f1565b67ffffffffffffffff811115620004925762000491620001fc565b5b6200049e82546200025a565b620004ab828285620003d0565b600060209050601f831160018114620004e35760008415620004ce578287015190505b620004da85826200044d565b8655506200054a565b601f198416620004f3866200028f565b60005b828110156200051d57848901518255600182019150602085019450602081019050620004f6565b868310156200053d578489015162000539601f8916826200042d565b8355505b6001600288020188555050505b505050505050565b61426280620005626000396000f3fe6080604052600436106101b75760003560e01c80636817c76c116100ec57806395d89b411161008a578063c87b56dd11610064578063c87b56dd146105ba578063e985e9c5146105f7578063f2fde38b14610634578063f4a0a5281461065d576101b7565b806395d89b411461053d578063a22cb46514610568578063b88d4fde14610591576101b7565b806374601c3c116100c657806374601c3c146104a557806378a89567146104d05780638456cb59146104fb5780638da5cb5b14610512576101b7565b80636817c76c1461042657806370a0823114610451578063715018a61461048e576101b7565b80633ccfd60b1161015957806355f804b31161013357806355f804b3146103655780635afcb4971461038e5780635c975abb146103be5780636352211e146103e9576101b7565b80633ccfd60b1461030e5780633f4ba83a1461032557806342842e0e1461033c576101b7565b8063095ea7b311610195578063095ea7b3146102615780631ae906431461028a57806323b872dd146102ba57806332cb6b0c146102e3576101b7565b806301ffc9a7146101bc57806306fdde03146101f9578063081812fc14610224575b600080fd5b3480156101c857600080fd5b506101e360048036038101906101de91906128cf565b610686565b6040516101f09190612917565b60405180910390f35b34801561020557600080fd5b5061020e6106e7565b60405161021b91906129c2565b60405180910390f35b34801561023057600080fd5b5061024b60048036038101906102469190612a1a565b610779565b6040516102589190612a88565b60405180910390f35b34801561026d57600080fd5b5061028860048036038101906102839190612acf565b6107bf565b005b6102a4600480360381019061029f9190612acf565b6108d6565b6040516102b19190612bcd565b60405180910390f35b3480156102c657600080fd5b506102e160048036038101906102dc9190612bef565b610c1d565b005b3480156102ef57600080fd5b506102f8610c7d565b6040516103059190612c51565b60405180910390f35b34801561031a57600080fd5b50610323610c82565b005b34801561033157600080fd5b5061033a610d89565b005b34801561034857600080fd5b50610363600480360381019061035e9190612bef565b610dde565b005b34801561037157600080fd5b5061038c60048036038101906103879190612da1565b610dfe565b005b6103a860048036038101906103a39190612dea565b610e19565b6040516103b59190612c51565b60405180910390f35b3480156103ca57600080fd5b506103d3611034565b6040516103e09190612917565b60405180910390f35b3480156103f557600080fd5b50610410600480360381019061040b9190612a1a565b61104b565b60405161041d9190612a88565b60405180910390f35b34801561043257600080fd5b5061043b6110d1565b6040516104489190612c51565b60405180910390f35b34801561045d57600080fd5b5061047860048036038101906104739190612dea565b6110d7565b6040516104859190612c51565b60405180910390f35b34801561049a57600080fd5b506104a361118e565b005b3480156104b157600080fd5b506104ba6111a2565b6040516104c79190612917565b60405180910390f35b3480156104dc57600080fd5b506104e56111b6565b6040516104f29190612c51565b60405180910390f35b34801561050757600080fd5b506105106111c7565b005b34801561051e57600080fd5b5061052761121c565b6040516105349190612a88565b60405180910390f35b34801561054957600080fd5b50610552611246565b60405161055f91906129c2565b60405180910390f35b34801561057457600080fd5b5061058f600480360381019061058a9190612e43565b6112d8565b005b34801561059d57600080fd5b506105b860048036038101906105b39190612f24565b6112ee565b005b3480156105c657600080fd5b506105e160048036038101906105dc9190612a1a565b611350565b6040516105ee91906129c2565b60405180910390f35b34801561060357600080fd5b5061061e60048036038101906106199190612fa7565b611462565b60405161062b9190612917565b60405180910390f35b34801561064057600080fd5b5061065b60048036038101906106569190612dea565b6114f6565b005b34801561066957600080fd5b50610684600480360381019061067f9190612a1a565b611579565b005b6000634906490660e01b7bffffffffffffffffffffffffffffffffffffffffffffffffffffffff1916827bffffffffffffffffffffffffffffffffffffffffffffffffffffffff191614806106e057506106df8261158b565b5b9050919050565b6060600080546106f690613016565b80601f016020809104026020016040519081016040528092919081815260200182805461072290613016565b801561076f5780601f106107445761010080835404028352916020019161076f565b820191906000526020600020905b81548152906001019060200180831161075257829003601f168201915b5050505050905090565b60006107848261166d565b6004600083815260200190815260200160002060009054906101000a900473ffffffffffffffffffffffffffffffffffffffff169050919050565b60006107ca8261104b565b90508073ffffffffffffffffffffffffffffffffffffffff168373ffffffffffffffffffffffffffffffffffffffff160361083a576040517f08c379a0000000000000000000000000000000000000000000000000000000008152600401610831906130b9565b60405180910390fd5b8073ffffffffffffffffffffffffffffffffffffffff166108596116b8565b73ffffffffffffffffffffffffffffffffffffffff1614806108885750610887816108826116b8565b611462565b5b6108c7576040517f08c379a00000000000000000000000000000000000000000000000000000000081526004016108be9061314b565b60405180910390fd5b6108d183836116c0565b505050565b60606108e0611779565b6108e86117c8565b6000821161092b576040517f08c379a0000000000000000000000000000000000000000000000000000000008152600401610922906131b7565b60405180910390fd5b600882610938600a611812565b6109429190613206565b1115610983576040517f08c379a000000000000000000000000000000000000000000000000000000000815260040161097a90613286565b60405180910390fd5b81600d5461099191906132a6565b3410156109d3576040517f08c379a00000000000000000000000000000000000000000000000000000000081526004016109ca90613334565b60405180910390fd5b600082600d546109e391906132a6565b346109ee9190613354565b905060008367ffffffffffffffff811115610a0c57610a0b612c76565b5b604051908082528060200260200182016040528015610a3a5781602001602082028036833780820191505090505b50905060005b84811015610b1957610a52600a611820565b6000610a5e600a611812565b905080838381518110610a7457610a73613388565b5b602002602001018181525050610a8a8782611836565b6000610a94611a53565b610a9d83611ae5565b604051602001610aae92919061343f565b6040516020818303038152906040529050610ac98282611bb3565b7fd35bb95e09c04b219e35047ce7b7b300e3384264ef84a40456943dbc0fc17c14888383604051610afc9392919061346e565b60405180910390a150508080610b11906134ac565b915050610a40565b507fee650044348676a5941ba09e707ab38962177697567a039aef9f964259af21218582604051610b4b9291906134f4565b60405180910390a16000821115610c0a5760003373ffffffffffffffffffffffffffffffffffffffff1683604051610b8290613555565b60006040518083038185875af1925050503d8060008114610bbf576040519150601f19603f3d011682016040523d82523d6000602084013e610bc4565b606091505b5050905080610c08576040517f08c379a0000000000000000000000000000000000000000000000000000000008152600401610bff906135b6565b60405180910390fd5b505b8092505050610c17611c57565b92915050565b610c2e610c286116b8565b82611c61565b610c6d576040517f08c379a0000000000000000000000000000000000000000000000000000000008152600401610c6490613648565b60405180910390fd5b610c78838383611cf6565b505050565b600881565b610c8a611fef565b600047905060008111610cd2576040517f08c379a0000000000000000000000000000000000000000000000000000000008152600401610cc9906136b4565b60405180910390fd5b6000610cdc61121c565b73ffffffffffffffffffffffffffffffffffffffff1682604051610cff90613555565b60006040518083038185875af1925050503d8060008114610d3c576040519150601f19603f3d011682016040523d82523d6000602084013e610d41565b606091505b5050905080610d85576040517f08c379a0000000000000000000000000000000000000000000000000000000008152600401610d7c90613720565b60405180910390fd5b5050565b610d91611fef565b610d9961206d565b3373ffffffffffffffffffffffffffffffffffffffff167f5b65b0c1363b3003db9bcc5e1fd8805a6d6bf5bf6dc9d3431ee4494cd7d1176660405160405180910390a2565b610df9838383604051806020016040528060008152506112ee565b505050565b610e06611fef565b80600c9081610e1591906138ec565b5050565b6000610e23611779565b610e2b6117c8565b6008610e37600a611812565b10610e77576040517f08c379a0000000000000000000000000000000000000000000000000000000008152600401610e6e90613a0a565b60405180910390fd5b600d54341015610ebc576040517f08c379a0000000000000000000000000000000000000000000000000000000008152600401610eb390613334565b60405180910390fd5b6000600d5434610ecc9190613354565b9050610ed8600a611820565b6000610ee4600a611812565b9050610ef08482611836565b6000610efa611a53565b610f0383611ae5565b604051602001610f1492919061343f565b6040516020818303038152906040529050610f2f8282611bb3565b7fd35bb95e09c04b219e35047ce7b7b300e3384264ef84a40456943dbc0fc17c14858383604051610f629392919061346e565b60405180910390a160008311156110215760003373ffffffffffffffffffffffffffffffffffffffff1684604051610f9990613555565b60006040518083038185875af1925050503d8060008114610fd6576040519150601f19603f3d011682016040523d82523d6000602084013e610fdb565b606091505b505090508061101f576040517f08c379a0000000000000000000000000000000000000000000000000000000008152600401611016906135b6565b60405180910390fd5b505b81935050505061102f611c57565b919050565b6000600960009054906101000a900460ff16905090565b600080611057836120d0565b9050600073ffffffffffffffffffffffffffffffffffffffff168173ffffffffffffffffffffffffffffffffffffffff16036110c8576040517f08c379a00000000000000000000000000000000000000000000000000000000081526004016110bf90613a76565b60405180910390fd5b80915050919050565b600d5481565b60008073ffffffffffffffffffffffffffffffffffffffff168273ffffffffffffffffffffffffffffffffffffffff1603611147576040517f08c379a000000000000000000000000000000000000000000000000000000000815260040161113e90613b08565b60405180910390fd5b600360008373ffffffffffffffffffffffffffffffffffffffff1673ffffffffffffffffffffffffffffffffffffffff168152602001908152602001600020549050919050565b611196611fef565b6111a0600061210d565b565b600060086111b0600a611812565b10905090565b60006111c2600a611812565b905090565b6111cf611fef565b6111d76121d3565b3373ffffffffffffffffffffffffffffffffffffffff167f81990fd9a5c552b8e3677917d8a03c07678f0d2cb68f88b634aca2022e9bd19f60405160405180910390a2565b6000600760009054906101000a900473ffffffffffffffffffffffffffffffffffffffff16905090565b60606001805461125590613016565b80601f016020809104026020016040519081016040528092919081815260200182805461128190613016565b80156112ce5780601f106112a3576101008083540402835291602001916112ce565b820191906000526020600020905b8154815290600101906020018083116112b157829003601f168201915b5050505050905090565b6112ea6112e36116b8565b8383612236565b5050565b6112ff6112f96116b8565b83611c61565b61133e576040517f08c379a000000000000000000000000000000000000000000000000000000000815260040161133590613648565b60405180910390fd5b61134a848484846123a2565b50505050565b606061135b8261166d565b600060066000848152602001908152602001600020805461137b90613016565b80601f01602080910402602001604051908101604052809291908181526020018280546113a790613016565b80156113f45780601f106113c9576101008083540402835291602001916113f4565b820191906000526020600020905b8154815290600101906020018083116113d757829003601f168201915b505050505090506000611405611a53565b9050600081510361141a57819250505061145d565b60008251111561144f578082604051602001611437929190613b28565b6040516020818303038152906040529250505061145d565b611458846123fe565b925050505b919050565b6000600560008473ffffffffffffffffffffffffffffffffffffffff1673ffffffffffffffffffffffffffffffffffffffff16815260200190815260200160002060008373ffffffffffffffffffffffffffffffffffffffff1673ffffffffffffffffffffffffffffffffffffffff16815260200190815260200160002060009054906101000a900460ff16905092915050565b6114fe611fef565b600073ffffffffffffffffffffffffffffffffffffffff168173ffffffffffffffffffffffffffffffffffffffff160361156d576040517f08c379a000000000000000000000000000000000000000000000000000000000815260040161156490613bbe565b60405180910390fd5b6115768161210d565b50565b611581611fef565b80600d8190555050565b60007f80ac58cd000000000000000000000000000000000000000000000000000000007bffffffffffffffffffffffffffffffffffffffffffffffffffffffff1916827bffffffffffffffffffffffffffffffffffffffffffffffffffffffff1916148061165657507f5b5e139f000000000000000000000000000000000000000000000000000000007bffffffffffffffffffffffffffffffffffffffffffffffffffffffff1916827bffffffffffffffffffffffffffffffffffffffffffffffffffffffff1916145b80611666575061166582612466565b5b9050919050565b611676816124d0565b6116b5576040517f08c379a00000000000000000000000000000000000000000000000000000000081526004016116ac90613a76565b60405180910390fd5b50565b600033905090565b816004600083815260200190815260200160002060006101000a81548173ffffffffffffffffffffffffffffffffffffffff021916908373ffffffffffffffffffffffffffffffffffffffff160217905550808273ffffffffffffffffffffffffffffffffffffffff166117338361104b565b73ffffffffffffffffffffffffffffffffffffffff167f8c5be1e5ebec7d5bd14f71427d1e84f3dd0314c0f7b2291e5b200ac8c7c3b92560405160405180910390a45050565b6002600854036117be576040517f08c379a00000000000000000000000000000000000000000000000000000000081526004016117b590613c2a565b60405180910390fd5b6002600881905550565b6117d0611034565b15611810576040517f08c379a000000000000000000000000000000000000000000000000000000000815260040161180790613c96565b60405180910390fd5b565b600081600001549050919050565b6001816000016000828254019250508190555050565b600073ffffffffffffffffffffffffffffffffffffffff168273ffffffffffffffffffffffffffffffffffffffff16036118a5576040517f08c379a000000000000000000000000000000000000000000000000000000000815260040161189c90613d02565b60405180910390fd5b6118ae816124d0565b156118ee576040517f08c379a00000000000000000000000000000000000000000000000000000000081526004016118e590613d6e565b60405180910390fd5b6118fc600083836001612511565b611905816124d0565b15611945576040517f08c379a000000000000000000000000000000000000000000000000000000000815260040161193c90613d6e565b60405180910390fd5b6001600360008473ffffffffffffffffffffffffffffffffffffffff1673ffffffffffffffffffffffffffffffffffffffff16815260200190815260200160002060008282540192505081905550816002600083815260200190815260200160002060006101000a81548173ffffffffffffffffffffffffffffffffffffffff021916908373ffffffffffffffffffffffffffffffffffffffff160217905550808273ffffffffffffffffffffffffffffffffffffffff16600073ffffffffffffffffffffffffffffffffffffffff167fddf252ad1be2c89b69c2b068fc378daa952ba7f163c4a11628f55a4df523b3ef60405160405180910390a4611a4f600083836001612517565b5050565b6060600c8054611a6290613016565b80601f0160208091040260200160405190810160405280929190818152602001828054611a8e90613016565b8015611adb5780601f10611ab057610100808354040283529160200191611adb565b820191906000526020600020905b815481529060010190602001808311611abe57829003601f168201915b5050505050905090565b606060006001611af48461251d565b01905060008167ffffffffffffffff811115611b1357611b12612c76565b5b6040519080825280601f01601f191660200182016040528015611b455781602001600182028036833780820191505090505b509050600082602001820190505b600115611ba8578080600190039150507f3031323334353637383961626364656600000000000000000000000000000000600a86061a8153600a8581611b9c57611b9b613d8e565b5b04945060008503611b53575b819350505050919050565b611bbc826124d0565b611bfb576040517f08c379a0000000000000000000000000000000000000000000000000000000008152600401611bf290613e2f565b60405180910390fd5b80600660008481526020019081526020016000209081611c1b91906138ec565b507ff8e1a15aba9398e019f0b49df1a4fde98ee17ae345cb5f6b5e2c27f5033e8ce782604051611c4b9190612c51565b60405180910390a15050565b6001600881905550565b600080611c6d8361104b565b90508073ffffffffffffffffffffffffffffffffffffffff168473ffffffffffffffffffffffffffffffffffffffff161480611caf5750611cae8185611462565b5b80611ced57508373ffffffffffffffffffffffffffffffffffffffff16611cd584610779565b73ffffffffffffffffffffffffffffffffffffffff16145b91505092915050565b8273ffffffffffffffffffffffffffffffffffffffff16611d168261104b565b73ffffffffffffffffffffffffffffffffffffffff1614611d6c576040517f08c379a0000000000000000000000000000000000000000000000000000000008152600401611d6390613ec1565b60405180910390fd5b600073ffffffffffffffffffffffffffffffffffffffff168273ffffffffffffffffffffffffffffffffffffffff1603611ddb576040517f08c379a0000000000000000000000000000000000000000000000000000000008152600401611dd290613f53565b60405180910390fd5b611de88383836001612511565b8273ffffffffffffffffffffffffffffffffffffffff16611e088261104b565b73ffffffffffffffffffffffffffffffffffffffff1614611e5e576040517f08c379a0000000000000000000000000000000000000000000000000000000008152600401611e5590613ec1565b60405180910390fd5b6004600082815260200190815260200160002060006101000a81549073ffffffffffffffffffffffffffffffffffffffff02191690556001600360008573ffffffffffffffffffffffffffffffffffffffff1673ffffffffffffffffffffffffffffffffffffffff168152602001908152602001600020600082825403925050819055506001600360008473ffffffffffffffffffffffffffffffffffffffff1673ffffffffffffffffffffffffffffffffffffffff16815260200190815260200160002060008282540192505081905550816002600083815260200190815260200160002060006101000a81548173ffffffffffffffffffffffffffffffffffffffff021916908373ffffffffffffffffffffffffffffffffffffffff160217905550808273ffffffffffffffffffffffffffffffffffffffff168473ffffffffffffffffffffffffffffffffffffffff167fddf252ad1be2c89b69c2b068fc378daa952ba7f163c4a11628f55a4df523b3ef60405160405180910390a4611fea8383836001612517565b505050565b611ff76116b8565b73ffffffffffffffffffffffffffffffffffffffff1661201561121c565b73ffffffffffffffffffffffffffffffffffffffff161461206b576040517f08c379a000000000000000000000000000000000000000000000000000000000815260040161206290613fbf565b60405180910390fd5b565b612075612670565b6000600960006101000a81548160ff0219169083151502179055507f5db9ee0a495bf2e6ff9c91a7834c1ba4fdd244a5e8aa4e537bd38aeae4b073aa6120b96116b8565b6040516120c69190612a88565b60405180910390a1565b60006002600083815260200190815260200160002060009054906101000a900473ffffffffffffffffffffffffffffffffffffffff169050919050565b6000600760009054906101000a900473ffffffffffffffffffffffffffffffffffffffff16905081600760006101000a81548173ffffffffffffffffffffffffffffffffffffffff021916908373ffffffffffffffffffffffffffffffffffffffff1602179055508173ffffffffffffffffffffffffffffffffffffffff168173ffffffffffffffffffffffffffffffffffffffff167f8be0079c531659141344cd1fd0a4f28419497f9722a3daafe3b4186f6b6457e060405160405180910390a35050565b6121db6117c8565b6001600960006101000a81548160ff0219169083151502179055507f62e78cea01bee320cd4e420270b5ea74000d11b0c9f74754ebdbfc544b05a25861221f6116b8565b60405161222c9190612a88565b60405180910390a1565b8173ffffffffffffffffffffffffffffffffffffffff168373ffffffffffffffffffffffffffffffffffffffff16036122a4576040517f08c379a000000000000000000000000000000000000000000000000000000000815260040161229b9061402b565b60405180910390fd5b80600560008573ffffffffffffffffffffffffffffffffffffffff1673ffffffffffffffffffffffffffffffffffffffff16815260200190815260200160002060008473ffffffffffffffffffffffffffffffffffffffff1673ffffffffffffffffffffffffffffffffffffffff16815260200190815260200160002060006101000a81548160ff0219169083151502179055508173ffffffffffffffffffffffffffffffffffffffff168373ffffffffffffffffffffffffffffffffffffffff167f17307eab39ab6107e8899845ad3d59bd9653f200f220920489ca2b5937696c31836040516123959190612917565b60405180910390a3505050565b6123ad848484611cf6565b6123b9848484846126b9565b6123f8576040517f08c379a00000000000000000000000000000000000000000000000000000000081526004016123ef906140bd565b60405180910390fd5b50505050565b60606124098261166d565b6000612413611a53565b90506000815111612433576040518060200160405280600081525061245e565b8061243d84611ae5565b60405160200161244e929190613b28565b6040516020818303038152906040525b915050919050565b60007f01ffc9a7000000000000000000000000000000000000000000000000000000007bffffffffffffffffffffffffffffffffffffffffffffffffffffffff1916827bffffffffffffffffffffffffffffffffffffffffffffffffffffffff1916149050919050565b60008073ffffffffffffffffffffffffffffffffffffffff166124f2836120d0565b73ffffffffffffffffffffffffffffffffffffffff1614159050919050565b50505050565b50505050565b600080600090507a184f03e93ff9f4daa797ed6e38ed64bf6a1f010000000000000000831061257b577a184f03e93ff9f4daa797ed6e38ed64bf6a1f010000000000000000838161257157612570613d8e565b5b0492506040810190505b6d04ee2d6d415b85acef810000000083106125b8576d04ee2d6d415b85acef810000000083816125ae576125ad613d8e565b5b0492506020810190505b662386f26fc1000083106125e757662386f26fc1000083816125dd576125dc613d8e565b5b0492506010810190505b6305f5e1008310612610576305f5e100838161260657612605613d8e565b5b0492506008810190505b612710831061263557612710838161262b5761262a613d8e565b5b0492506004810190505b60648310612658576064838161264e5761264d613d8e565b5b0492506002810190505b600a8310612667576001810190505b80915050919050565b612678611034565b6126b7576040517f08c379a00000000000000000000000000000000000000000000000000000000081526004016126ae90614129565b60405180910390fd5b565b60006126da8473ffffffffffffffffffffffffffffffffffffffff16612840565b15612833578373ffffffffffffffffffffffffffffffffffffffff1663150b7a026127036116b8565b8786866040518563ffffffff1660e01b8152600401612725949392919061419e565b6020604051808303816000875af192505050801561276157506040513d601f19601f8201168201806040525081019061275e91906141ff565b60015b6127e3573d8060008114612791576040519150601f19603f3d011682016040523d82523d6000602084013e612796565b606091505b5060008151036127db576040517f08c379a00000000000000000000000000000000000000000000000000000000081526004016127d2906140bd565b60405180910390fd5b805181602001fd5b63150b7a0260e01b7bffffffffffffffffffffffffffffffffffffffffffffffffffffffff1916817bffffffffffffffffffffffffffffffffffffffffffffffffffffffff191614915050612838565b600190505b949350505050565b6000808273ffffffffffffffffffffffffffffffffffffffff163b119050919050565b6000604051905090565b600080fd5b600080fd5b60007fffffffff0000000000000000000000000000000000000000000000000000000082169050919050565b6128ac81612877565b81146128b757600080fd5b50565b6000813590506128c9816128a3565b92915050565b6000602082840312156128e5576128e461286d565b5b60006128f3848285016128ba565b91505092915050565b60008115159050919050565b612911816128fc565b82525050565b600060208201905061292c6000830184612908565b92915050565b600081519050919050565b600082825260208201905092915050565b60005b8381101561296c578082015181840152602081019050612951565b60008484015250505050565b6000601f19601f8301169050919050565b600061299482612932565b61299e818561293d565b93506129ae81856020860161294e565b6129b781612978565b840191505092915050565b600060208201905081810360008301526129dc8184612989565b905092915050565b6000819050919050565b6129f7816129e4565b8114612a0257600080fd5b50565b600081359050612a14816129ee565b92915050565b600060208284031215612a3057612a2f61286d565b5b6000612a3e84828501612a05565b91505092915050565b600073ffffffffffffffffffffffffffffffffffffffff82169050919050565b6000612a7282612a47565b9050919050565b612a8281612a67565b82525050565b6000602082019050612a9d6000830184612a79565b92915050565b612aac81612a67565b8114612ab757600080fd5b50565b600081359050612ac981612aa3565b92915050565b60008060408385031215612ae657612ae561286d565b5b6000612af485828601612aba565b9250506020612b0585828601612a05565b9150509250929050565b600081519050919050565b600082825260208201905092915050565b6000819050602082019050919050565b612b44816129e4565b82525050565b6000612b568383612b3b565b60208301905092915050565b6000602082019050919050565b6000612b7a82612b0f565b612b848185612b1a565b9350612b8f83612b2b565b8060005b83811015612bc0578151612ba78882612b4a565b9750612bb283612b62565b925050600181019050612b93565b5085935050505092915050565b60006020820190508181036000830152612be78184612b6f565b905092915050565b600080600060608486031215612c0857612c0761286d565b5b6000612c1686828701612aba565b9350506020612c2786828701612aba565b9250506040612c3886828701612a05565b9150509250925092565b612c4b816129e4565b82525050565b6000602082019050612c666000830184612c42565b92915050565b600080fd5b600080fd5b7f4e487b7100000000000000000000000000000000000000000000000000000000600052604160045260246000fd5b612cae82612978565b810181811067ffffffffffffffff82111715612ccd57612ccc612c76565b5b80604052505050565b6000612ce0612863565b9050612cec8282612ca5565b919050565b600067ffffffffffffffff821115612d0c57612d0b612c76565b5b612d1582612978565b9050602081019050919050565b82818337600083830152505050565b6000612d44612d3f84612cf1565b612cd6565b905082815260208101848484011115612d6057612d5f612c71565b5b612d6b848285612d22565b509392505050565b600082601f830112612d8857612d87612c6c565b5b8135612d98848260208601612d31565b91505092915050565b600060208284031215612db757612db661286d565b5b600082013567ffffffffffffffff811115612dd557612dd4612872565b5b612de184828501612d73565b91505092915050565b600060208284031215612e0057612dff61286d565b5b6000612e0e84828501612aba565b91505092915050565b612e20816128fc565b8114612e2b57600080fd5b50565b600081359050612e3d81612e17565b92915050565b60008060408385031215612e5a57612e5961286d565b5b6000612e6885828601612aba565b9250506020612e7985828601612e2e565b9150509250929050565b600067ffffffffffffffff821115612e9e57612e9d612c76565b5b612ea782612978565b9050602081019050919050565b6000612ec7612ec284612e83565b612cd6565b905082815260208101848484011115612ee357612ee2612c71565b5b612eee848285612d22565b509392505050565b600082601f830112612f0b57612f0a612c6c565b5b8135612f1b848260208601612eb4565b91505092915050565b60008060008060808587031215612f3e57612f3d61286d565b5b6000612f4c87828801612aba565b9450506020612f5d87828801612aba565b9350506040612f6e87828801612a05565b925050606085013567ffffffffffffffff811115612f8f57612f8e612872565b5b612f9b87828801612ef6565b91505092959194509250565b60008060408385031215612fbe57612fbd61286d565b5b6000612fcc85828601612aba565b9250506020612fdd85828601612aba565b9150509250929050565b7f4e487b7100000000000000000000000000000000000000000000000000000000600052602260045260246000fd5b6000600282049050600182168061302e57607f821691505b60208210810361304157613040612fe7565b5b50919050565b7f4552433732313a20617070726f76616c20746f2063757272656e74206f776e6560008201527f7200000000000000000000000000000000000000000000000000000000000000602082015250565b60006130a360218361293d565b91506130ae82613047565b604082019050919050565b600060208201905081810360008301526130d281613096565b9050919050565b7f4552433732313a20617070726f76652063616c6c6572206973206e6f7420746f60008201527f6b656e206f776e6572206f7220617070726f76656420666f7220616c6c000000602082015250565b6000613135603d8361293d565b9150613140826130d9565b604082019050919050565b6000602082019050818103600083015261316481613128565b9050919050565b7f4d757374206d696e74206174206c656173742031204e46540000000000000000600082015250565b60006131a160188361293d565b91506131ac8261316b565b602082019050919050565b600060208201905081810360008301526131d081613194565b9050919050565b7f4e487b7100000000000000000000000000000000000000000000000000000000600052601160045260246000fd5b6000613211826129e4565b915061321c836129e4565b9250828201905080821115613234576132336131d7565b5b92915050565b7f576f756c6420657863656564206d617820737570706c79000000000000000000600082015250565b600061327060178361293d565b915061327b8261323a565b602082019050919050565b6000602082019050818103600083015261329f81613263565b9050919050565b60006132b1826129e4565b91506132bc836129e4565b92508282026132ca816129e4565b915082820484148315176132e1576132e06131d7565b5b5092915050565b7f496e73756666696369656e74204554482073656e740000000000000000000000600082015250565b600061331e60158361293d565b9150613329826132e8565b602082019050919050565b6000602082019050818103600083015261334d81613311565b9050919050565b600061335f826129e4565b915061336a836129e4565b9250828203905081811115613382576133816131d7565b5b92915050565b7f4e487b7100000000000000000000000000000000000000000000000000000000600052603260045260246000fd5b600081905092915050565b60006133cd82612932565b6133d781856133b7565b93506133e781856020860161294e565b80840191505092915050565b7f2e6a736f6e000000000000000000000000000000000000000000000000000000600082015250565b60006134296005836133b7565b9150613434826133f3565b600582019050919050565b600061344b82856133c2565b915061345782846133c2565b91506134628261341c565b91508190509392505050565b60006060820190506134836000830186612a79565b6134906020830185612c42565b81810360408301526134a28184612989565b9050949350505050565b60006134b7826129e4565b91507fffffffffffffffffffffffffffffffffffffffffffffffffffffffffffffffff82036134e9576134e86131d7565b5b600182019050919050565b60006040820190506135096000830185612a79565b818103602083015261351b8184612b6f565b90509392505050565b600081905092915050565b50565b600061353f600083613524565b915061354a8261352f565b600082019050919050565b600061356082613532565b9150819050919050565b7f526566756e64206661696c656400000000000000000000000000000000000000600082015250565b60006135a0600d8361293d565b91506135ab8261356a565b602082019050919050565b600060208201905081810360008301526135cf81613593565b9050919050565b7f4552433732313a2063616c6c6572206973206e6f7420746f6b656e206f776e6560008201527f72206f7220617070726f76656400000000000000000000000000000000000000602082015250565b6000613632602d8361293d565b915061363d826135d6565b604082019050919050565b6000602082019050818103600083015261366181613625565b9050919050565b7f4e6f2066756e647320746f207769746864726177000000000000000000000000600082015250565b600061369e60148361293d565b91506136a982613668565b602082019050919050565b600060208201905081810360008301526136cd81613691565b9050919050565b7f5769746864726177616c206661696c6564000000000000000000000000000000600082015250565b600061370a60118361293d565b9150613715826136d4565b602082019050919050565b60006020820190508181036000830152613739816136fd565b9050919050565b60008190508160005260206000209050919050565b60006020601f8301049050919050565b600082821b905092915050565b6000600883026137a27fffffffffffffffffffffffffffffffffffffffffffffffffffffffffffffffff82613765565b6137ac8683613765565b95508019841693508086168417925050509392505050565b6000819050919050565b60006137e96137e46137df846129e4565b6137c4565b6129e4565b9050919050565b6000819050919050565b613803836137ce565b61381761380f826137f0565b848454613772565b825550505050565b600090565b61382c61381f565b6138378184846137fa565b505050565b5b8181101561385b57613850600082613824565b60018101905061383d565b5050565b601f8211156138a05761387181613740565b61387a84613755565b81016020851015613889578190505b61389d61389585613755565b83018261383c565b50505b505050565b600082821c905092915050565b60006138c3600019846008026138a5565b1980831691505092915050565b60006138dc83836138b2565b9150826002028217905092915050565b6138f582612932565b67ffffffffffffffff81111561390e5761390d612c76565b5b6139188254613016565b61392382828561385f565b600060209050601f8311600181146139565760008415613944578287015190505b61394e85826138d0565b8655506139b6565b601f19841661396486613740565b60005b8281101561398c57848901518255600182019150602085019450602081019050613967565b868310156139a957848901516139a5601f8916826138b2565b8355505b6001600288020188555050505b505050505050565b7f4d617820737570706c7920726561636865640000000000000000000000000000600082015250565b60006139f460128361293d565b91506139ff826139be565b602082019050919050565b60006020820190508181036000830152613a23816139e7565b9050919050565b7f4552433732313a20696e76616c696420746f6b656e2049440000000000000000600082015250565b6000613a6060188361293d565b9150613a6b82613a2a565b602082019050919050565b60006020820190508181036000830152613a8f81613a53565b9050919050565b7f4552433732313a2061646472657373207a65726f206973206e6f74206120766160008201527f6c6964206f776e65720000000000000000000000000000000000000000000000602082015250565b6000613af260298361293d565b9150613afd82613a96565b604082019050919050565b60006020820190508181036000830152613b2181613ae5565b9050919050565b6000613b3482856133c2565b9150613b4082846133c2565b91508190509392505050565b7f4f776e61626c653a206e6577206f776e657220697320746865207a65726f206160008201527f6464726573730000000000000000000000000000000000000000000000000000602082015250565b6000613ba860268361293d565b9150613bb382613b4c565b604082019050919050565b60006020820190508181036000830152613bd781613b9b565b9050919050565b7f5265656e7472616e637947756172643a207265656e7472616e742063616c6c00600082015250565b6000613c14601f8361293d565b9150613c1f82613bde565b602082019050919050565b60006020820190508181036000830152613c4381613c07565b9050919050565b7f5061757361626c653a2070617573656400000000000000000000000000000000600082015250565b6000613c8060108361293d565b9150613c8b82613c4a565b602082019050919050565b60006020820190508181036000830152613caf81613c73565b9050919050565b7f4552433732313a206d696e7420746f20746865207a65726f2061646472657373600082015250565b6000613cec60208361293d565b9150613cf782613cb6565b602082019050919050565b60006020820190508181036000830152613d1b81613cdf565b9050919050565b7f4552433732313a20746f6b656e20616c7265616479206d696e74656400000000600082015250565b6000613d58601c8361293d565b9150613d6382613d22565b602082019050919050565b60006020820190508181036000830152613d8781613d4b565b9050919050565b7f4e487b7100000000000000000000000000000000000000000000000000000000600052601260045260246000fd5b7f45524337323155524953746f726167653a2055524920736574206f66206e6f6e60008201527f6578697374656e7420746f6b656e000000000000000000000000000000000000602082015250565b6000613e19602e8361293d565b9150613e2482613dbd565b604082019050919050565b60006020820190508181036000830152613e4881613e0c565b9050919050565b7f4552433732313a207472616e736665722066726f6d20696e636f72726563742060008201527f6f776e6572000000000000000000000000000000000000000000000000000000602082015250565b6000613eab60258361293d565b9150613eb682613e4f565b604082019050919050565b60006020820190508181036000830152613eda81613e9e565b9050919050565b7f4552433732313a207472616e7366657220746f20746865207a65726f2061646460008201527f7265737300000000000000000000000000000000000000000000000000000000602082015250565b6000613f3d60248361293d565b9150613f4882613ee1565b604082019050919050565b60006020820190508181036000830152613f6c81613f30565b9050919050565b7f4f776e61626c653a2063616c6c6572206973206e6f7420746865206f776e6572600082015250565b6000613fa960208361293d565b9150613fb482613f73565b602082019050919050565b60006020820190508181036000830152613fd881613f9c565b9050919050565b7f4552433732313a20617070726f766520746f2063616c6c657200000000000000600082015250565b600061401560198361293d565b915061402082613fdf565b602082019050919050565b6000602082019050818103600083015261404481614008565b9050919050565b7f4552433732313a207472616e7366657220746f206e6f6e20455243373231526560008201527f63656976657220696d706c656d656e7465720000000000000000000000000000602082015250565b60006140a760328361293d565b91506140b28261404b565b604082019050919050565b600060208201905081810360008301526140d68161409a565b9050919050565b7f5061757361626c653a206e6f7420706175736564000000000000000000000000600082015250565b600061411360148361293d565b915061411e826140dd565b602082019050919050565b6000602082019050818103600083015261414281614106565b9050919050565b600081519050919050565b600082825260208201905092915050565b600061417082614149565b61417a8185614154565b935061418a81856020860161294e565b61419381612978565b840191505092915050565b60006080820190506141b36000830187612a79565b6141c06020830186612a79565b6141cd6040830185612c42565b81810360608301526141df8184614165565b905095945050505050565b6000815190506141f9816128a3565b92915050565b6000602082840312156142155761421461286d565b5b6000614223848285016141ea565b9150509291505056fea26469706673582212207b158d0c9af42d3b0f1e1d4b5822d487fb1c60cbea3896e6c956f1cb93ac769b64736f6c6343000814003368747470733a2f2f676174657761792e70696e6174612e636c6f75642f697066732f516d597741504a7a7635435a736e4136323573335866326e656d7459675070486457457a37396f6a576e506264472f",
  "linkReferences": {},
  "deployedLinkReferences": {}
}