{
  "_format": "hh-sol-artifact-1",
  "contractName": "TurtleTimepieceNFT",
  "sourceName": "contracts/TurtleTimepieceNFT.sol",
  "abi": [
    {
      "inputs": [],
      "stateMutability": "nonpayable",
      "type": "constructor"
    },
    {
      "anonymous": false,
      "inputs": [
        {
          "indexed": true,
          "internalType": "address",
          "name": "owner",
          "type": "address"
        },
        {
          "indexed": true,
          "internalType": "address",
          "name": "approved",
          "type": "address"
        },
        {
          "indexed": true,
          "internalType": "uint256",
          "name": "tokenId",
          "type": "uint256"
        }
      ],
      "name": "Approval",
      "type": "event"
    },
    {
      "anonymous": false,
      "inputs": [
        {
          "indexed": true,
          "internalType": "address",
          "name": "owner",
          "type": "address"
        },
        {
          "indexed": true,
          "internalType": "address",
          "name": "operator",
          "type": "address"
        },
        {
          "indexed": false,
          "internalType": "bool",
          "name": "approved",
          "type": "bool"
        }
      ],
      "name": "ApprovalForAll",
      "type": "event"
    },
    {
      "anonymous": false,
      "inputs": [
        {
          "indexed": false,
          "internalType": "uint256",
          "name": "_fromTokenId",
          "type": "uint256"
        },
        {
          "indexed": false,
          "internalType": "uint256",
          "name": "_toTokenId",
          "type": "uint256"
        }
      ],
      "name": "BatchMetadataUpdate",
      "type": "event"
    },
    {
      "anonymous": false,
      "inputs": [
        {
          "indexed": true,
          "internalType": "address",
          "name": "by",
          "type": "address"
        }
      ],
      "name": "ContractPaused",
      "type": "event"
    },
    {
      "anonymous": false,
      "inputs": [
        {
          "indexed": true,
          "internalType": "address",
          "name": "by",
          "type": "address"
        }
      ],
      "name": "ContractUnpaused",
      "type": "event"
    },
    {
      "anonymous": false,
      "inputs": [
        {
          "indexed": false,
          "internalType": "uint256",
          "name": "_tokenId",
          "type": "uint256"
        }
      ],
      "name": "MetadataUpdate",
      "type": "event"
    },
    {
      "anonymous": false,
      "inputs": [
        {
          "indexed": false,
          "internalType": "address",
          "name": "owner",
          "type": "address"
        },
        {
          "indexed": false,
          "internalType": "uint256",
          "name": "tokenId",
          "type": "uint256"
        },
        {
          "indexed": false,
          "internalType": "string",
          "name": "tokenURI",
          "type": "string"
        }
      ],
      "name": "NFTMinted",
      "type": "event"
    },
    {
      "anonymous": false,
      "inputs": [
        {
          "indexed": true,
          "internalType": "address",
          "name": "previousOwner",
          "type": "address"
        },
        {
          "indexed": true,
          "internalType": "address",
          "name": "newOwner",
          "type": "address"
        }
      ],
      "name": "OwnershipTransferred",
      "type": "event"
    },
    {
      "anonymous": false,
      "inputs": [
        {
          "indexed": false,
          "internalType": "address",
          "name": "account",
          "type": "address"
        }
      ],
      "name": "Paused",
      "type": "event"
    },
    {
      "anonymous": false,
      "inputs": [
        {
          "indexed": true,
          "internalType": "address",
          "name": "from",
          "type": "address"
        },
        {
          "indexed": true,
          "internalType": "address",
          "name": "to",
          "type": "address"
        },
        {
          "indexed": true,
          "internalType": "uint256",
          "name": "tokenId",
          "type": "uint256"
        }
      ],
      "name": "Transfer",
      "type": "event"
    },
    {
      "anonymous": false,
      "inputs": [
        {
          "indexed": false,
          "internalType": "address",
          "name": "account",
          "type": "address"
        }
      ],
      "name": "Unpaused",
      "type": "event"
    },
    {
      "inputs": [],
      "name": "MAX_SUPPLY",
      "outputs": [
        {
          "internalType": "uint256",
          "name": "",
          "type": "uint256"
        }
      ],
      "stateMutability": "view",
      "type": "function"
    },
    {
      "inputs": [
        {
          "internalType": "address",
          "name": "to",
          "type": "address"
        },
        {
          "internalType": "uint256",
          "name": "tokenId",
          "type": "uint256"
        }
      ],
      "name": "approve",
      "outputs": [],
      "stateMutability": "nonpayable",
      "type": "function"
    },
    {
      "inputs": [],
      "name": "availableToMint",
      "outputs": [
        {
          "internalType": "bool",
          "name": "",
          "type": "bool"
        }
      ],
      "stateMutability": "view",
      "type": "function"
    },
    {
      "inputs": [
        {
          "internalType": "address",
          "name": "owner",
          "type": "address"
        }
      ],
      "name": "balanceOf",
      "outputs": [
        {
          "internalType": "uint256",
          "name": "",
          "type": "uint256"
        }
      ],
      "stateMutability": "view",
      "type": "function"
    },
    {
      "inputs": [
        {
          "internalType": "uint256",
          "name": "tokenId",
          "type": "uint256"
        }
      ],
      "name": "getApproved",
      "outputs": [
        {
          "internalType": "address",
          "name": "",
          "type": "address"
        }
      ],
      "stateMutability": "view",
      "type": "function"
    },
    {
      "inputs": [],
      "name": "getTokenCount",
      "outputs": [
        {
          "internalType": "uint256",
          "name": "",
          "type": "uint256"
        }
      ],
      "stateMutability": "view",
      "type": "function"
    },
    {
      "inputs": [
        {
          "internalType": "address",
          "name": "owner",
          "type": "address"
        },
        {
          "internalType": "address",
          "name": "operator",
          "type": "address"
        }
      ],
      "name": "isApprovedForAll",
      "outputs": [
        {
          "internalType": "bool",
          "name": "",
          "type": "bool"
        }
      ],
      "stateMutability": "view",
      "type": "function"
    },
    {
      "inputs": [],
      "name": "mintPrice",
      "outputs": [
        {
          "internalType": "uint256",
          "name": "",
          "type": "uint256"
        }
      ],
      "stateMutability": "view",
      "type": "function"
    },
    {
      "inputs": [
        {
          "internalType": "address",
          "name": "recipient",
          "type": "address"
        }
      ],
      "name": "mintWithETH",
      "outputs": [
        {
          "internalType": "uint256",
          "name": "",
          "type": "uint256"
        }
      ],
      "stateMutability": "payable",
      "type": "function"
    },
    {
      "inputs": [],
      "name": "name",
      "outputs": [
        {
          "internalType": "string",
          "name": "",
          "type": "string"
        }
      ],
      "stateMutability": "view",
      "type": "function"
    },
    {
      "inputs": [],
      "name": "owner",
      "outputs": [
        {
          "internalType": "address",
          "name": "",
          "type": "address"
        }
      ],
      "stateMutability": "view",
      "type": "function"
    },
    {
      "inputs": [
        {
          "internalType": "uint256",
          "name": "tokenId",
          "type": "uint256"
        }
      ],
      "name": "ownerOf",
      "outputs": [
        {
          "internalType": "address",
          "name": "",
          "type": "address"
        }
      ],
      "stateMutability": "view",
      "type": "function"
    },
    {
      "inputs": [],
      "name": "pause",
      "outputs": [],
      "stateMutability": "nonpayable",
      "type": "function"
    },
    {
      "inputs": [],
      "name": "paused",
      "outputs": [
        {
          "internalType": "bool",
          "name": "",
          "type": "bool"
        }
      ],
      "stateMutability": "view",
      "type": "function"
    },
    {
      "inputs": [],
      "name": "renounceOwnership",
      "outputs": [],
      "stateMutability": "nonpayable",
      "type": "function"
    },
    {
      "inputs": [
        {
          "internalType": "address",
          "name": "from",
          "type": "address"
        },
        {
          "internalType": "address",
          "name": "to",
          "type": "address"
        },
        {
          "internalType": "uint256",
          "name": "tokenId",
          "type": "uint256"
        }
      ],
      "name": "safeTransferFrom",
      "outputs": [],
      "stateMutability": "nonpayable",
      "type": "function"
    },
    {
      "inputs": [
        {
          "internalType": "address",
          "name": "from",
          "type": "address"
        },
        {
          "internalType": "address",
          "name": "to",
          "type": "address"
        },
        {
          "internalType": "uint256",
          "name": "tokenId",
          "type": "uint256"
        },
        {
          "internalType": "bytes",
          "name": "data",
          "type": "bytes"
        }
      ],
      "name": "safeTransferFrom",
      "outputs": [],
      "stateMutability": "nonpayable",
      "type": "function"
    },
    {
      "inputs": [
        {
          "internalType": "address",
          "name": "operator",
          "type": "address"
        },
        {
          "internalType": "bool",
          "name": "approved",
          "type": "bool"
        }
      ],
      "name": "setApprovalForAll",
      "outputs": [],
      "stateMutability": "nonpayable",
      "type": "function"
    },
    {
      "inputs": [
        {
          "internalType": "string",
          "name": "baseURI",
          "type": "string"
        }
      ],
      "name": "setBaseURI",
      "outputs": [],
      "stateMutability": "nonpayable",
      "type": "function"
    },
    {
      "inputs": [
        {
          "internalType": "uint256",
          "name": "newPrice",
          "type": "uint256"
        }
      ],
      "name": "setMintPrice",
      "outputs": [],
      "stateMutability": "nonpayable",
      "type": "function"
    },
    {
      "inputs": [
        {
          "internalType": "bytes4",
          "name": "interfaceId",
          "type": "bytes4"
        }
      ],
      "name": "supportsInterface",
      "outputs": [
        {
          "internalType": "bool",
          "name": "",
          "type": "bool"
        }
      ],
      "stateMutability": "view",
      "type": "function"
    },
    {
      "inputs": [],
      "name": "symbol",
      "outputs": [
        {
          "internalType": "string",
          "name": "",
          "type": "string"
        }
      ],
      "stateMutability": "view",
      "type": "function"
    },
    {
      "inputs": [
        {
          "internalType": "uint256",
          "name": "tokenId",
          "type": "uint256"
        }
      ],
      "name": "tokenURI",
      "outputs": [
        {
          "internalType": "string",
          "name": "",
          "type": "string"
        }
      ],
      "stateMutability": "view",
      "type": "function"
    },
    {
      "inputs": [
        {
          "internalType": "address",
          "name": "from",
          "type": "address"
        },
        {
          "internalType": "address",
          "name": "to",
          "type": "address"
        },
        {
          "internalType": "uint256",
          "name": "tokenId",
          "type": "uint256"
        }
      ],
      "name": "transferFrom",
      "outputs": [],
      "stateMutability": "nonpayable",
      "type": "function"
    },
    {
      "inputs": [
        {
          "internalType": "address",
          "name": "newOwner",
          "type": "address"
        }
      ],
      "name": "transferOwnership",
      "outputs": [],
      "stateMutability": "nonpayable",
      "type": "function"
    },
    {
      "inputs": [],
      "name": "unpause",
      "outputs": [],
      "stateMutability": "nonpayable",
      "type": "function"
    },
    {
      "inputs": [],
      "name": "withdraw",
      "outputs": [],
      "stateMutability": "nonpayable",
      "type": "function"
    }
  ],
  "bytecode": "0x608060405266038d7ea4c68000600d553480156200001c57600080fd5b506040518060400160405280601581526020017f4469616d6f6e6420416363657373205469636b657400000000000000000000008152506040518060400160405280600781526020017f4449414d4f4e440000000000000000000000000000000000000000000000000081525081600090816200009a919062000461565b508060019081620000ac919062000461565b505050620000cf620000c36200011960201b60201c565b6200012160201b60201c565b60016008819055506000600960006101000a81548160ff02191690831515021790555060405180602001604052806000815250600c908162000112919062000461565b5062000548565b600033905090565b6000600760009054906101000a900473ffffffffffffffffffffffffffffffffffffffff16905081600760006101000a81548173ffffffffffffffffffffffffffffffffffffffff021916908373ffffffffffffffffffffffffffffffffffffffff1602179055508173ffffffffffffffffffffffffffffffffffffffff168173ffffffffffffffffffffffffffffffffffffffff167f8be0079c531659141344cd1fd0a4f28419497f9722a3daafe3b4186f6b6457e060405160405180910390a35050565b600081519050919050565b7f4e487b7100000000000000000000000000000000000000000000000000000000600052604160045260246000fd5b7f4e487b7100000000000000000000000000000000000000000000000000000000600052602260045260246000fd5b600060028204905060018216806200026957607f821691505b6020821081036200027f576200027e62000221565b5b50919050565b60008190508160005260206000209050919050565b60006020601f8301049050919050565b600082821b905092915050565b600060088302620002e97fffffffffffffffffffffffffffffffffffffffffffffffffffffffffffffffff82620002aa565b620002f58683620002aa565b95508019841693508086168417925050509392505050565b6000819050919050565b6000819050919050565b6000620003426200033c62000336846200030d565b62000317565b6200030d565b9050919050565b6000819050919050565b6200035e8362000321565b620003766200036d8262000349565b848454620002b7565b825550505050565b600090565b6200038d6200037e565b6200039a81848462000353565b505050565b5b81811015620003c257620003b660008262000383565b600181019050620003a0565b5050565b601f8211156200041157620003db8162000285565b620003e6846200029a565b81016020851015620003f6578190505b6200040e62000405856200029a565b8301826200039f565b50505b505050565b600082821c905092915050565b6000620004366000198460080262000416565b1980831691505092915050565b600062000451838362000423565b9150826002028217905092915050565b6200046c82620001e7565b67ffffffffffffffff811115620004885762000487620001f2565b5b62000494825462000250565b620004a1828285620003c6565b600060209050601f831160018114620004d95760008415620004c4578287015190505b620004d0858262000443565b86555062000540565b601f198416620004e98662000285565b60005b828110156200051357848901518255600182019150602085019450602081019050620004ec565b868310156200053357848901516200052f601f89168262000423565b8355505b6001600288020188555050505b505050505050565b613a1280620005586000396000f3fe60806040526004361061019c5760003560e01c80636817c76c116100ec57806395d89b411161008a578063c87b56dd11610064578063c87b56dd1461056f578063e985e9c5146105ac578063f2fde38b146105e9578063f4a0a528146106125761019c565b806395d89b41146104f2578063a22cb4651461051d578063b88d4fde146105465761019c565b806374601c3c116100c657806374601c3c1461045a57806378a89567146104855780638456cb59146104b05780638da5cb5b146104c75761019c565b80636817c76c146103db57806370a0823114610406578063715018a6146104435761019c565b80633ccfd60b1161015957806355f804b31161013357806355f804b31461031a5780635afcb497146103435780635c975abb146103735780636352211e1461039e5761019c565b80633ccfd60b146102c35780633f4ba83a146102da57806342842e0e146102f15761019c565b806301ffc9a7146101a157806306fdde03146101de578063081812fc14610209578063095ea7b31461024657806323b872dd1461026f57806332cb6b0c14610298575b600080fd5b3480156101ad57600080fd5b506101c860048036038101906101c39190612461565b61063b565b6040516101d591906124a9565b60405180910390f35b3480156101ea57600080fd5b506101f361069c565b6040516102009190612554565b60405180910390f35b34801561021557600080fd5b50610230600480360381019061022b91906125ac565b61072e565b60405161023d919061261a565b60405180910390f35b34801561025257600080fd5b5061026d60048036038101906102689190612661565b610774565b005b34801561027b57600080fd5b50610296600480360381019061029191906126a1565b61088b565b005b3480156102a457600080fd5b506102ad6108eb565b6040516102ba9190612703565b60405180910390f35b3480156102cf57600080fd5b506102d86108f0565b005b3480156102e657600080fd5b506102ef6109f7565b005b3480156102fd57600080fd5b50610318600480360381019061031391906126a1565b610a4c565b005b34801561032657600080fd5b50610341600480360381019061033c9190612853565b610a6c565b005b61035d6004803603810190610358919061289c565b610a87565b60405161036a9190612703565b60405180910390f35b34801561037f57600080fd5b50610388610c6a565b60405161039591906124a9565b60405180910390f35b3480156103aa57600080fd5b506103c560048036038101906103c091906125ac565b610c81565b6040516103d2919061261a565b60405180910390f35b3480156103e757600080fd5b506103f0610d07565b6040516103fd9190612703565b60405180910390f35b34801561041257600080fd5b5061042d6004803603810190610428919061289c565b610d0d565b60405161043a9190612703565b60405180910390f35b34801561044f57600080fd5b50610458610dc4565b005b34801561046657600080fd5b5061046f610dd8565b60405161047c91906124a9565b60405180910390f35b34801561049157600080fd5b5061049a610dec565b6040516104a79190612703565b60405180910390f35b3480156104bc57600080fd5b506104c5610dfd565b005b3480156104d357600080fd5b506104dc610e52565b6040516104e9919061261a565b60405180910390f35b3480156104fe57600080fd5b50610507610e7c565b6040516105149190612554565b60405180910390f35b34801561052957600080fd5b50610544600480360381019061053f91906128f5565b610f0e565b005b34801561055257600080fd5b5061056d600480360381019061056891906129d6565b610f24565b005b34801561057b57600080fd5b50610596600480360381019061059191906125ac565b610f86565b6040516105a39190612554565b60405180910390f35b3480156105b857600080fd5b506105d360048036038101906105ce9190612a59565b611098565b6040516105e091906124a9565b60405180910390f35b3480156105f557600080fd5b50610610600480360381019061060b919061289c565b61112c565b005b34801561061e57600080fd5b50610639600480360381019061063491906125ac565b6111af565b005b6000634906490660e01b7bffffffffffffffffffffffffffffffffffffffffffffffffffffffff1916827bffffffffffffffffffffffffffffffffffffffffffffffffffffffff191614806106955750610694826111c1565b5b9050919050565b6060600080546106ab90612ac8565b80601f01602080910402602001604051908101604052809291908181526020018280546106d790612ac8565b80156107245780601f106106f957610100808354040283529160200191610724565b820191906000526020600020905b81548152906001019060200180831161070757829003601f168201915b5050505050905090565b6000610739826112a3565b6004600083815260200190815260200160002060009054906101000a900473ffffffffffffffffffffffffffffffffffffffff169050919050565b600061077f82610c81565b90508073ffffffffffffffffffffffffffffffffffffffff168373ffffffffffffffffffffffffffffffffffffffff16036107ef576040517f08c379a00000000000000000000000000000000000000000000000000000000081526004016107e690612b6b565b60405180910390fd5b8073ffffffffffffffffffffffffffffffffffffffff1661080e6112ee565b73ffffffffffffffffffffffffffffffffffffffff16148061083d575061083c816108376112ee565b611098565b5b61087c576040517f08c379a000000000000000000000000000000000000000000000000000000000815260040161087390612bfd565b60405180910390fd5b61088683836112f6565b505050565b61089c6108966112ee565b826113af565b6108db576040517f08c379a00000000000000000000000000000000000000000000000000000000081526004016108d290612c8f565b60405180910390fd5b6108e6838383611444565b505050565b600881565b6108f861173d565b600047905060008111610940576040517f08c379a000000000000000000000000000000000000000000000000000000000815260040161093790612cfb565b60405180910390fd5b600061094a610e52565b73ffffffffffffffffffffffffffffffffffffffff168260405161096d90612d4c565b60006040518083038185875af1925050503d80600081146109aa576040519150601f19603f3d011682016040523d82523d6000602084013e6109af565b606091505b50509050806109f3576040517f08c379a00000000000000000000000000000000000000000000000000000000081526004016109ea90612dad565b60405180910390fd5b5050565b6109ff61173d565b610a076117bb565b3373ffffffffffffffffffffffffffffffffffffffff167f5b65b0c1363b3003db9bcc5e1fd8805a6d6bf5bf6dc9d3431ee4494cd7d1176660405160405180910390a2565b610a6783838360405180602001604052806000815250610f24565b505050565b610a7461173d565b80600c9081610a839190612f79565b5050565b6000610a9161181e565b610a9961186d565b6008610aa5600a6118b7565b10610ae5576040517f08c379a0000000000000000000000000000000000000000000000000000000008152600401610adc90613097565b60405180910390fd5b600d54341015610b2a576040517f08c379a0000000000000000000000000000000000000000000000000000000008152600401610b2190613103565b60405180910390fd5b6000600d5434610b3a9190613152565b9050610b46600a6118c5565b6000610b52600a6118b7565b9050610b5e84826118db565b7fd35bb95e09c04b219e35047ce7b7b300e3384264ef84a40456943dbc0fc17c148482610b8a84610f86565b604051610b9993929190613186565b60405180910390a16000821115610c585760003373ffffffffffffffffffffffffffffffffffffffff1683604051610bd090612d4c565b60006040518083038185875af1925050503d8060008114610c0d576040519150601f19603f3d011682016040523d82523d6000602084013e610c12565b606091505b5050905080610c56576040517f08c379a0000000000000000000000000000000000000000000000000000000008152600401610c4d90613210565b60405180910390fd5b505b8092505050610c65611af8565b919050565b6000600960009054906101000a900460ff16905090565b600080610c8d83611b02565b9050600073ffffffffffffffffffffffffffffffffffffffff168173ffffffffffffffffffffffffffffffffffffffff1603610cfe576040517f08c379a0000000000000000000000000000000000000000000000000000000008152600401610cf59061327c565b60405180910390fd5b80915050919050565b600d5481565b60008073ffffffffffffffffffffffffffffffffffffffff168273ffffffffffffffffffffffffffffffffffffffff1603610d7d576040517f08c379a0000000000000000000000000000000000000000000000000000000008152600401610d749061330e565b60405180910390fd5b600360008373ffffffffffffffffffffffffffffffffffffffff1673ffffffffffffffffffffffffffffffffffffffff168152602001908152602001600020549050919050565b610dcc61173d565b610dd66000611b3f565b565b60006008610de6600a6118b7565b10905090565b6000610df8600a6118b7565b905090565b610e0561173d565b610e0d611c05565b3373ffffffffffffffffffffffffffffffffffffffff167f81990fd9a5c552b8e3677917d8a03c07678f0d2cb68f88b634aca2022e9bd19f60405160405180910390a2565b6000600760009054906101000a900473ffffffffffffffffffffffffffffffffffffffff16905090565b606060018054610e8b90612ac8565b80601f0160208091040260200160405190810160405280929190818152602001828054610eb790612ac8565b8015610f045780601f10610ed957610100808354040283529160200191610f04565b820191906000526020600020905b815481529060010190602001808311610ee757829003601f168201915b5050505050905090565b610f20610f196112ee565b8383611c68565b5050565b610f35610f2f6112ee565b836113af565b610f74576040517f08c379a0000000000000000000000000000000000000000000000000000000008152600401610f6b90612c8f565b60405180910390fd5b610f8084848484611dd4565b50505050565b6060610f91826112a3565b6000600660008481526020019081526020016000208054610fb190612ac8565b80601f0160208091040260200160405190810160405280929190818152602001828054610fdd90612ac8565b801561102a5780601f10610fff5761010080835404028352916020019161102a565b820191906000526020600020905b81548152906001019060200180831161100d57829003601f168201915b50505050509050600061103b611e30565b90506000815103611050578192505050611093565b60008251111561108557808260405160200161106d92919061336a565b60405160208183030381529060405292505050611093565b61108e84611ec2565b925050505b919050565b6000600560008473ffffffffffffffffffffffffffffffffffffffff1673ffffffffffffffffffffffffffffffffffffffff16815260200190815260200160002060008373ffffffffffffffffffffffffffffffffffffffff1673ffffffffffffffffffffffffffffffffffffffff16815260200190815260200160002060009054906101000a900460ff16905092915050565b61113461173d565b600073ffffffffffffffffffffffffffffffffffffffff168173ffffffffffffffffffffffffffffffffffffffff16036111a3576040517f08c379a000000000000000000000000000000000000000000000000000000000815260040161119a90613400565b60405180910390fd5b6111ac81611b3f565b50565b6111b761173d565b80600d8190555050565b60007f80ac58cd000000000000000000000000000000000000000000000000000000007bffffffffffffffffffffffffffffffffffffffffffffffffffffffff1916827bffffffffffffffffffffffffffffffffffffffffffffffffffffffff1916148061128c57507f5b5e139f000000000000000000000000000000000000000000000000000000007bffffffffffffffffffffffffffffffffffffffffffffffffffffffff1916827bffffffffffffffffffffffffffffffffffffffffffffffffffffffff1916145b8061129c575061129b82611f2a565b5b9050919050565b6112ac81611f94565b6112eb576040517f08c379a00000000000000000000000000000000000000000000000000000000081526004016112e29061327c565b60405180910390fd5b50565b600033905090565b816004600083815260200190815260200160002060006101000a81548173ffffffffffffffffffffffffffffffffffffffff021916908373ffffffffffffffffffffffffffffffffffffffff160217905550808273ffffffffffffffffffffffffffffffffffffffff1661136983610c81565b73ffffffffffffffffffffffffffffffffffffffff167f8c5be1e5ebec7d5bd14f71427d1e84f3dd0314c0f7b2291e5b200ac8c7c3b92560405160405180910390a45050565b6000806113bb83610c81565b90508073ffffffffffffffffffffffffffffffffffffffff168473ffffffffffffffffffffffffffffffffffffffff1614806113fd57506113fc8185611098565b5b8061143b57508373ffffffffffffffffffffffffffffffffffffffff166114238461072e565b73ffffffffffffffffffffffffffffffffffffffff16145b91505092915050565b8273ffffffffffffffffffffffffffffffffffffffff1661146482610c81565b73ffffffffffffffffffffffffffffffffffffffff16146114ba576040517f08c379a00000000000000000000000000000000000000000000000000000000081526004016114b190613492565b60405180910390fd5b600073ffffffffffffffffffffffffffffffffffffffff168273ffffffffffffffffffffffffffffffffffffffff1603611529576040517f08c379a000000000000000000000000000000000000000000000000000000000815260040161152090613524565b60405180910390fd5b6115368383836001611fd5565b8273ffffffffffffffffffffffffffffffffffffffff1661155682610c81565b73ffffffffffffffffffffffffffffffffffffffff16146115ac576040517f08c379a00000000000000000000000000000000000000000000000000000000081526004016115a390613492565b60405180910390fd5b6004600082815260200190815260200160002060006101000a81549073ffffffffffffffffffffffffffffffffffffffff02191690556001600360008573ffffffffffffffffffffffffffffffffffffffff1673ffffffffffffffffffffffffffffffffffffffff168152602001908152602001600020600082825403925050819055506001600360008473ffffffffffffffffffffffffffffffffffffffff1673ffffffffffffffffffffffffffffffffffffffff16815260200190815260200160002060008282540192505081905550816002600083815260200190815260200160002060006101000a81548173ffffffffffffffffffffffffffffffffffffffff021916908373ffffffffffffffffffffffffffffffffffffffff160217905550808273ffffffffffffffffffffffffffffffffffffffff168473ffffffffffffffffffffffffffffffffffffffff167fddf252ad1be2c89b69c2b068fc378daa952ba7f163c4a11628f55a4df523b3ef60405160405180910390a46117388383836001611fdb565b505050565b6117456112ee565b73ffffffffffffffffffffffffffffffffffffffff16611763610e52565b73ffffffffffffffffffffffffffffffffffffffff16146117b9576040517f08c379a00000000000000000000000000000000000000000000000000000000081526004016117b090613590565b60405180910390fd5b565b6117c3611fe1565b6000600960006101000a81548160ff0219169083151502179055507f5db9ee0a495bf2e6ff9c91a7834c1ba4fdd244a5e8aa4e537bd38aeae4b073aa6118076112ee565b604051611814919061261a565b60405180910390a1565b600260085403611863576040517f08c379a000000000000000000000000000000000000000000000000000000000815260040161185a906135fc565b60405180910390fd5b6002600881905550565b611875610c6a565b156118b5576040517f08c379a00000000000000000000000000000000000000000000000000000000081526004016118ac90613668565b60405180910390fd5b565b600081600001549050919050565b6001816000016000828254019250508190555050565b600073ffffffffffffffffffffffffffffffffffffffff168273ffffffffffffffffffffffffffffffffffffffff160361194a576040517f08c379a0000000000000000000000000000000000000000000000000000000008152600401611941906136d4565b60405180910390fd5b61195381611f94565b15611993576040517f08c379a000000000000000000000000000000000000000000000000000000000815260040161198a90613740565b60405180910390fd5b6119a1600083836001611fd5565b6119aa81611f94565b156119ea576040517f08c379a00000000000000000000000000000000000000000000000000000000081526004016119e190613740565b60405180910390fd5b6001600360008473ffffffffffffffffffffffffffffffffffffffff1673ffffffffffffffffffffffffffffffffffffffff16815260200190815260200160002060008282540192505081905550816002600083815260200190815260200160002060006101000a81548173ffffffffffffffffffffffffffffffffffffffff021916908373ffffffffffffffffffffffffffffffffffffffff160217905550808273ffffffffffffffffffffffffffffffffffffffff16600073ffffffffffffffffffffffffffffffffffffffff167fddf252ad1be2c89b69c2b068fc378daa952ba7f163c4a11628f55a4df523b3ef60405160405180910390a4611af4600083836001611fdb565b5050565b6001600881905550565b60006002600083815260200190815260200160002060009054906101000a900473ffffffffffffffffffffffffffffffffffffffff169050919050565b6000600760009054906101000a900473ffffffffffffffffffffffffffffffffffffffff16905081600760006101000a81548173ffffffffffffffffffffffffffffffffffffffff021916908373ffffffffffffffffffffffffffffffffffffffff1602179055508173ffffffffffffffffffffffffffffffffffffffff168173ffffffffffffffffffffffffffffffffffffffff167f8be0079c531659141344cd1fd0a4f28419497f9722a3daafe3b4186f6b6457e060405160405180910390a35050565b611c0d61186d565b6001600960006101000a81548160ff0219169083151502179055507f62e78cea01bee320cd4e420270b5ea74000d11b0c9f74754ebdbfc544b05a258611c516112ee565b604051611c5e919061261a565b60405180910390a1565b8173ffffffffffffffffffffffffffffffffffffffff168373ffffffffffffffffffffffffffffffffffffffff1603611cd6576040517f08c379a0000000000000000000000000000000000000000000000000000000008152600401611ccd906137ac565b60405180910390fd5b80600560008573ffffffffffffffffffffffffffffffffffffffff1673ffffffffffffffffffffffffffffffffffffffff16815260200190815260200160002060008473ffffffffffffffffffffffffffffffffffffffff1673ffffffffffffffffffffffffffffffffffffffff16815260200190815260200160002060006101000a81548160ff0219169083151502179055508173ffffffffffffffffffffffffffffffffffffffff168373ffffffffffffffffffffffffffffffffffffffff167f17307eab39ab6107e8899845ad3d59bd9653f200f220920489ca2b5937696c3183604051611dc791906124a9565b60405180910390a3505050565b611ddf848484611444565b611deb8484848461202a565b611e2a576040517f08c379a0000000000000000000000000000000000000000000000000000000008152600401611e219061383e565b60405180910390fd5b50505050565b6060600c8054611e3f90612ac8565b80601f0160208091040260200160405190810160405280929190818152602001828054611e6b90612ac8565b8015611eb85780601f10611e8d57610100808354040283529160200191611eb8565b820191906000526020600020905b815481529060010190602001808311611e9b57829003601f168201915b5050505050905090565b6060611ecd826112a3565b6000611ed7611e30565b90506000815111611ef75760405180602001604052806000815250611f22565b80611f01846121b1565b604051602001611f1292919061336a565b6040516020818303038152906040525b915050919050565b60007f01ffc9a7000000000000000000000000000000000000000000000000000000007bffffffffffffffffffffffffffffffffffffffffffffffffffffffff1916827bffffffffffffffffffffffffffffffffffffffffffffffffffffffff1916149050919050565b60008073ffffffffffffffffffffffffffffffffffffffff16611fb683611b02565b73ffffffffffffffffffffffffffffffffffffffff1614159050919050565b50505050565b50505050565b611fe9610c6a565b612028576040517f08c379a000000000000000000000000000000000000000000000000000000000815260040161201f906138aa565b60405180910390fd5b565b600061204b8473ffffffffffffffffffffffffffffffffffffffff1661227f565b156121a4578373ffffffffffffffffffffffffffffffffffffffff1663150b7a026120746112ee565b8786866040518563ffffffff1660e01b8152600401612096949392919061391f565b6020604051808303816000875af19250505080156120d257506040513d601f19601f820116820180604052508101906120cf9190613980565b60015b612154573d8060008114612102576040519150601f19603f3d011682016040523d82523d6000602084013e612107565b606091505b50600081510361214c576040517f08c379a00000000000000000000000000000000000000000000000000000000081526004016121439061383e565b60405180910390fd5b805181602001fd5b63150b7a0260e01b7bffffffffffffffffffffffffffffffffffffffffffffffffffffffff1916817bffffffffffffffffffffffffffffffffffffffffffffffffffffffff1916149150506121a9565b600190505b949350505050565b6060600060016121c0846122a2565b01905060008167ffffffffffffffff8111156121df576121de612728565b5b6040519080825280601f01601f1916602001820160405280156122115781602001600182028036833780820191505090505b509050600082602001820190505b600115612274578080600190039150507f3031323334353637383961626364656600000000000000000000000000000000600a86061a8153600a8581612268576122676139ad565b5b0494506000850361221f575b819350505050919050565b6000808273ffffffffffffffffffffffffffffffffffffffff163b119050919050565b600080600090507a184f03e93ff9f4daa797ed6e38ed64bf6a1f0100000000000000008310612300577a184f03e93ff9f4daa797ed6e38ed64bf6a1f01000000000000000083816122f6576122f56139ad565b5b0492506040810190505b6d04ee2d6d415b85acef8100000000831061233d576d04ee2d6d415b85acef81000000008381612333576123326139ad565b5b0492506020810190505b662386f26fc10000831061236c57662386f26fc100008381612362576123616139ad565b5b0492506010810190505b6305f5e1008310612395576305f5e100838161238b5761238a6139ad565b5b0492506008810190505b61271083106123ba5761271083816123b0576123af6139ad565b5b0492506004810190505b606483106123dd57606483816123d3576123d26139ad565b5b0492506002810190505b600a83106123ec576001810190505b80915050919050565b6000604051905090565b600080fd5b600080fd5b60007fffffffff0000000000000000000000000000000000000000000000000000000082169050919050565b61243e81612409565b811461244957600080fd5b50565b60008135905061245b81612435565b92915050565b600060208284031215612477576124766123ff565b5b60006124858482850161244c565b91505092915050565b60008115159050919050565b6124a38161248e565b82525050565b60006020820190506124be600083018461249a565b92915050565b600081519050919050565b600082825260208201905092915050565b60005b838110156124fe5780820151818401526020810190506124e3565b60008484015250505050565b6000601f19601f8301169050919050565b6000612526826124c4565b61253081856124cf565b93506125408185602086016124e0565b6125498161250a565b840191505092915050565b6000602082019050818103600083015261256e818461251b565b905092915050565b6000819050919050565b61258981612576565b811461259457600080fd5b50565b6000813590506125a681612580565b92915050565b6000602082840312156125c2576125c16123ff565b5b60006125d084828501612597565b91505092915050565b600073ffffffffffffffffffffffffffffffffffffffff82169050919050565b6000612604826125d9565b9050919050565b612614816125f9565b82525050565b600060208201905061262f600083018461260b565b92915050565b61263e816125f9565b811461264957600080fd5b50565b60008135905061265b81612635565b92915050565b60008060408385031215612678576126776123ff565b5b60006126868582860161264c565b925050602061269785828601612597565b9150509250929050565b6000806000606084860312156126ba576126b96123ff565b5b60006126c88682870161264c565b93505060206126d98682870161264c565b92505060406126ea86828701612597565b9150509250925092565b6126fd81612576565b82525050565b600060208201905061271860008301846126f4565b92915050565b600080fd5b600080fd5b7f4e487b7100000000000000000000000000000000000000000000000000000000600052604160045260246000fd5b6127608261250a565b810181811067ffffffffffffffff8211171561277f5761277e612728565b5b80604052505050565b60006127926123f5565b905061279e8282612757565b919050565b600067ffffffffffffffff8211156127be576127bd612728565b5b6127c78261250a565b9050602081019050919050565b82818337600083830152505050565b60006127f66127f1846127a3565b612788565b90508281526020810184848401111561281257612811612723565b5b61281d8482856127d4565b509392505050565b600082601f83011261283a5761283961271e565b5b813561284a8482602086016127e3565b91505092915050565b600060208284031215612869576128686123ff565b5b600082013567ffffffffffffffff81111561288757612886612404565b5b61289384828501612825565b91505092915050565b6000602082840312156128b2576128b16123ff565b5b60006128c08482850161264c565b91505092915050565b6128d28161248e565b81146128dd57600080fd5b50565b6000813590506128ef816128c9565b92915050565b6000806040838503121561290c5761290b6123ff565b5b600061291a8582860161264c565b925050602061292b858286016128e0565b9150509250929050565b600067ffffffffffffffff8211156129505761294f612728565b5b6129598261250a565b9050602081019050919050565b600061297961297484612935565b612788565b90508281526020810184848401111561299557612994612723565b5b6129a08482856127d4565b509392505050565b600082601f8301126129bd576129bc61271e565b5b81356129cd848260208601612966565b91505092915050565b600080600080608085870312156129f0576129ef6123ff565b5b60006129fe8782880161264c565b9450506020612a0f8782880161264c565b9350506040612a2087828801612597565b925050606085013567ffffffffffffffff811115612a4157612a40612404565b5b612a4d878288016129a8565b91505092959194509250565b60008060408385031215612a7057612a6f6123ff565b5b6000612a7e8582860161264c565b9250506020612a8f8582860161264c565b9150509250929050565b7f4e487b7100000000000000000000000000000000000000000000000000000000600052602260045260246000fd5b60006002820490506001821680612ae057607f821691505b602082108103612af357612af2612a99565b5b50919050565b7f4552433732313a20617070726f76616c20746f2063757272656e74206f776e6560008201527f7200000000000000000000000000000000000000000000000000000000000000602082015250565b6000612b556021836124cf565b9150612b6082612af9565b604082019050919050565b60006020820190508181036000830152612b8481612b48565b9050919050565b7f4552433732313a20617070726f76652063616c6c6572206973206e6f7420746f60008201527f6b656e206f776e6572206f7220617070726f76656420666f7220616c6c000000602082015250565b6000612be7603d836124cf565b9150612bf282612b8b565b604082019050919050565b60006020820190508181036000830152612c1681612bda565b9050919050565b7f4552433732313a2063616c6c6572206973206e6f7420746f6b656e206f776e6560008201527f72206f7220617070726f76656400000000000000000000000000000000000000602082015250565b6000612c79602d836124cf565b9150612c8482612c1d565b604082019050919050565b60006020820190508181036000830152612ca881612c6c565b9050919050565b7f4e6f2066756e647320746f207769746864726177000000000000000000000000600082015250565b6000612ce56014836124cf565b9150612cf082612caf565b602082019050919050565b60006020820190508181036000830152612d1481612cd8565b9050919050565b600081905092915050565b50565b6000612d36600083612d1b565b9150612d4182612d26565b600082019050919050565b6000612d5782612d29565b9150819050919050565b7f5769746864726177616c206661696c6564000000000000000000000000000000600082015250565b6000612d976011836124cf565b9150612da282612d61565b602082019050919050565b60006020820190508181036000830152612dc681612d8a565b9050919050565b60008190508160005260206000209050919050565b60006020601f8301049050919050565b600082821b905092915050565b600060088302612e2f7fffffffffffffffffffffffffffffffffffffffffffffffffffffffffffffffff82612df2565b612e398683612df2565b95508019841693508086168417925050509392505050565b6000819050919050565b6000612e76612e71612e6c84612576565b612e51565b612576565b9050919050565b6000819050919050565b612e9083612e5b565b612ea4612e9c82612e7d565b848454612dff565b825550505050565b600090565b612eb9612eac565b612ec4818484612e87565b505050565b5b81811015612ee857612edd600082612eb1565b600181019050612eca565b5050565b601f821115612f2d57612efe81612dcd565b612f0784612de2565b81016020851015612f16578190505b612f2a612f2285612de2565b830182612ec9565b50505b505050565b600082821c905092915050565b6000612f5060001984600802612f32565b1980831691505092915050565b6000612f698383612f3f565b9150826002028217905092915050565b612f82826124c4565b67ffffffffffffffff811115612f9b57612f9a612728565b5b612fa58254612ac8565b612fb0828285612eec565b600060209050601f831160018114612fe35760008415612fd1578287015190505b612fdb8582612f5d565b865550613043565b601f198416612ff186612dcd565b60005b8281101561301957848901518255600182019150602085019450602081019050612ff4565b868310156130365784890151613032601f891682612f3f565b8355505b6001600288020188555050505b505050505050565b7f4d617820737570706c7920726561636865640000000000000000000000000000600082015250565b60006130816012836124cf565b915061308c8261304b565b602082019050919050565b600060208201905081810360008301526130b081613074565b9050919050565b7f496e73756666696369656e74204554482073656e740000000000000000000000600082015250565b60006130ed6015836124cf565b91506130f8826130b7565b602082019050919050565b6000602082019050818103600083015261311c816130e0565b9050919050565b7f4e487b7100000000000000000000000000000000000000000000000000000000600052601160045260246000fd5b600061315d82612576565b915061316883612576565b92508282039050818111156131805761317f613123565b5b92915050565b600060608201905061319b600083018661260b565b6131a860208301856126f4565b81810360408301526131ba818461251b565b9050949350505050565b7f526566756e64206661696c656400000000000000000000000000000000000000600082015250565b60006131fa600d836124cf565b9150613205826131c4565b602082019050919050565b60006020820190508181036000830152613229816131ed565b9050919050565b7f4552433732313a20696e76616c696420746f6b656e2049440000000000000000600082015250565b60006132666018836124cf565b915061327182613230565b602082019050919050565b6000602082019050818103600083015261329581613259565b9050919050565b7f4552433732313a2061646472657373207a65726f206973206e6f74206120766160008201527f6c6964206f776e65720000000000000000000000000000000000000000000000602082015250565b60006132f86029836124cf565b91506133038261329c565b604082019050919050565b60006020820190508181036000830152613327816132eb565b9050919050565b600081905092915050565b6000613344826124c4565b61334e818561332e565b935061335e8185602086016124e0565b80840191505092915050565b60006133768285613339565b91506133828284613339565b91508190509392505050565b7f4f776e61626c653a206e6577206f776e657220697320746865207a65726f206160008201527f6464726573730000000000000000000000000000000000000000000000000000602082015250565b60006133ea6026836124cf565b91506133f58261338e565b604082019050919050565b60006020820190508181036000830152613419816133dd565b9050919050565b7f4552433732313a207472616e736665722066726f6d20696e636f72726563742060008201527f6f776e6572000000000000000000000000000000000000000000000000000000602082015250565b600061347c6025836124cf565b915061348782613420565b604082019050919050565b600060208201905081810360008301526134ab8161346f565b9050919050565b7f4552433732313a207472616e7366657220746f20746865207a65726f2061646460008201527f7265737300000000000000000000000000000000000000000000000000000000602082015250565b600061350e6024836124cf565b9150613519826134b2565b604082019050919050565b6000602082019050818103600083015261353d81613501565b9050919050565b7f4f776e61626c653a2063616c6c6572206973206e6f7420746865206f776e6572600082015250565b600061357a6020836124cf565b915061358582613544565b602082019050919050565b600060208201905081810360008301526135a98161356d565b9050919050565b7f5265656e7472616e637947756172643a207265656e7472616e742063616c6c00600082015250565b60006135e6601f836124cf565b91506135f1826135b0565b602082019050919050565b60006020820190508181036000830152613615816135d9565b9050919050565b7f5061757361626c653a2070617573656400000000000000000000000000000000600082015250565b60006136526010836124cf565b915061365d8261361c565b602082019050919050565b6000602082019050818103600083015261368181613645565b9050919050565b7f4552433732313a206d696e7420746f20746865207a65726f2061646472657373600082015250565b60006136be6020836124cf565b91506136c982613688565b602082019050919050565b600060208201905081810360008301526136ed816136b1565b9050919050565b7f4552433732313a20746f6b656e20616c7265616479206d696e74656400000000600082015250565b600061372a601c836124cf565b9150613735826136f4565b602082019050919050565b600060208201905081810360008301526137598161371d565b9050919050565b7f4552433732313a20617070726f766520746f2063616c6c657200000000000000600082015250565b60006137966019836124cf565b91506137a182613760565b602082019050919050565b600060208201905081810360008301526137c581613789565b9050919050565b7f4552433732313a207472616e7366657220746f206e6f6e20455243373231526560008201527f63656976657220696d706c656d656e7465720000000000000000000000000000602082015250565b60006138286032836124cf565b9150613833826137cc565b604082019050919050565b600060208201905081810360008301526138578161381b565b9050919050565b7f5061757361626c653a206e6f7420706175736564000000000000000000000000600082015250565b60006138946014836124cf565b915061389f8261385e565b602082019050919050565b600060208201905081810360008301526138c381613887565b9050919050565b600081519050919050565b600082825260208201905092915050565b60006138f1826138ca565b6138fb81856138d5565b935061390b8185602086016124e0565b6139148161250a565b840191505092915050565b6000608082019050613934600083018761260b565b613941602083018661260b565b61394e60408301856126f4565b818103606083015261396081846138e6565b905095945050505050565b60008151905061397a81612435565b92915050565b600060208284031215613996576139956123ff565b5b60006139a48482850161396b565b91505092915050565b7f4e487b7100000000000000000000000000000000000000000000000000000000600052601260045260246000fdfea2646970667358221220d3d9caf42acd3a86cabd1445cdef9e0148cbfad095919bcb55c6cd6527b4716d64736f6c63430008140033",
  "linkReferences": {},
  "deployedLinkReferences": {}
}